Component: ARM Compiler 6.16 Tool: armlink [5dfeaa00]

==============================================================================

Section Cross References

    startup_stm32h723xx.o(STACK) refers (Special) to heapauxi.o(.text) for __use_two_region_memory
    startup_stm32h723xx.o(HEAP) refers (Special) to heapauxi.o(.text) for __use_two_region_memory
    startup_stm32h723xx.o(RESET) refers (Special) to heapauxi.o(.text) for __use_two_region_memory
    startup_stm32h723xx.o(RESET) refers to startup_stm32h723xx.o(STACK) for __initial_sp
    startup_stm32h723xx.o(RESET) refers to startup_stm32h723xx.o(.text) for Reset_Handler
    startup_stm32h723xx.o(RESET) refers to stm32h7xx_it.o(.text.NMI_Handler) for NMI_Handler
    startup_stm32h723xx.o(RESET) refers to stm32h7xx_it.o(.text.HardFault_Handler) for HardFault_Handler
    startup_stm32h723xx.o(RESET) refers to stm32h7xx_it.o(.text.MemManage_Handler) for MemManage_Handler
    startup_stm32h723xx.o(RESET) refers to stm32h7xx_it.o(.text.BusFault_Handler) for BusFault_Handler
    startup_stm32h723xx.o(RESET) refers to stm32h7xx_it.o(.text.UsageFault_Handler) for UsageFault_Handler
    startup_stm32h723xx.o(RESET) refers to port.o(.text.SVC_Handler) for SVC_Handler
    startup_stm32h723xx.o(RESET) refers to stm32h7xx_it.o(.text.DebugMon_Handler) for DebugMon_Handler
    startup_stm32h723xx.o(RESET) refers to port.o(.text.PendSV_Handler) for PendSV_Handler
    startup_stm32h723xx.o(RESET) refers to port.o(.text.SysTick_Handler) for SysTick_Handler
    startup_stm32h723xx.o(RESET) refers to stm32h7xx_it.o(.text.DMA1_Stream0_IRQHandler) for DMA1_Stream0_IRQHandler
    startup_stm32h723xx.o(RESET) refers to stm32h7xx_it.o(.text.FDCAN1_IT0_IRQHandler) for FDCAN1_IT0_IRQHandler
    startup_stm32h723xx.o(RESET) refers to stm32h7xx_it.o(.text.FDCAN2_IT0_IRQHandler) for FDCAN2_IT0_IRQHandler
    startup_stm32h723xx.o(RESET) refers to stm32h7xx_it.o(.text.TIM2_IRQHandler) for TIM2_IRQHandler
==============================================================================

Removing Unused input sections from the image.

    Removing main.o(.text), (0 bytes).
    Removing main.o(.ARM.exidx.text.main), (8 bytes).
    Removing main.o(.ARM.exidx.text.SystemClock_Config), (8 bytes).
    Removing main.o(.ARM.exidx.text.Error_Handler), (8 bytes).
    Removing main.o(.ARM.exidx.text.HAL_TIM_PeriodElapsedCallback), (8 bytes).
    Removing main.o(.ARM.use_no_argv), (4 bytes).
    Removing gpio.o(.text), (0 bytes).
    Removing gpio.o(.ARM.exidx.text.MX_GPIO_Init), (8 bytes).
    Removing freertos.o(.text), (0 bytes).
    Removing freertos.o(.ARM.exidx.text.vApplicationGetIdleTaskMemory), (8 bytes).
    Removing freertos.o(.ARM.exidx.text.MX_FREERTOS_Init), (8 bytes).
    Removing freertos.o(.text.CAN_Task), (16 bytes).
    Removing freertos.o(.ARM.exidx.text.CAN_Task), (8 bytes).
    Removing freertos.o(.text.Control_Task), (16 bytes).
    Removing freertos.o(.ARM.exidx.text.Control_Task), (8 bytes).
    Removing dma.o(.text), (0 bytes).
    Removing dma.o(.ARM.exidx.text.MX_DMA_Init), (8 bytes).
    Removing fdcan.o(.text), (0 bytes).
==============================================================================

Image Symbol Table

    Local Symbols

    Symbol Name                              Value     Ov Type        Size  Object(Section)

    ../clib/angel/boardlib.s                 0x00000000   Number         0  boardinit1.o ABSOLUTE
    ../clib/angel/boardlib.s                 0x00000000   Number         0  boardinit2.o ABSOLUTE
    ../clib/angel/boardlib.s                 0x00000000   Number         0  boardinit3.o ABSOLUTE
    ../clib/angel/boardlib.s                 0x00000000   Number         0  boardshut.o ABSOLUTE
    ../clib/angel/dczerorl.s                 0x00000000   Number         0  __dczerorl.o ABSOLUTE
    ../clib/angel/handlers.s                 0x00000000   Number         0  __scatter_zi.o ABSOLUTE
    ../clib/angel/kernel.s                   0x00000000   Number         0  __rtentry.o ABSOLUTE
    ../clib/angel/kernel.s                   0x00000000   Number         0  __rtentry2.o ABSOLUTE
    ../clib/angel/kernel.s                   0x00000000   Number         0  __rtentry4.o ABSOLUTE
    ../clib/angel/kernel.s                   0x00000000   Number         0  rtexit.o ABSOLUTE
    ../clib/angel/kernel.s                   0x00000000   Number         0  rtexit2.o ABSOLUTE
    ../clib/angel/rt.s                       0x00000000   Number         0  aeabi_ldiv0.o ABSOLUTE
    ../clib/angel/rt.s                       0x00000000   Number         0  aeabi_ldiv0_sigfpe.o ABSOLUTE
    ../clib/angel/rt.s                       0x00000000   Number         0  rt_div0.o ABSOLUTE
    ../clib/angel/rt.s                       0x00000000   Number         0  rt_errno_addr.o ABSOLUTE
    ../clib/angel/rt.s                       0x00000000   Number         0  rt_errno_addr_intlibspace.o ABSOLUTE
    ../clib/angel/rt.s                       0x00000000   Number         0  rt_raise.o ABSOLUTE
    ../clib/angel/scatter.s                  0x00000000   Number         0  __scatter.o ABSOLUTE
    ../clib/angel/startup.s                  0x00000000   Number         0  __main.o ABSOLUTE
    ../clib/angel/sys.s                      0x00000000   Number         0  libspace.o ABSOLUTE
    ../clib/angel/sys.s                      0x00000000   Number         0  sys_stackheap_outer.o ABSOLUTE
    ../clib/angel/sys.s                      0x00000000   Number         0  use_no_semi.o ABSOLUTE
    ../clib/angel/sys.s                      0x00000000   Number         0  indicate_semi.o ABSOLUTE
    ../clib/angel/sysapp.c                   0x00000000   Number         0  sys_exit.o ABSOLUTE
    ../clib/angel/sysapp.c                   0x00000000   Number         0  sys_exit_hlt.o ABSOLUTE
    ../clib/angel/sysapp.c                   0x00000000   Number         0  sys_wrch.o ABSOLUTE
    ../clib/angel/sysapp.c                   0x00000000   Number         0  sys_wrch_hlt.o ABSOLUTE
    ../clib/angel/sysapp.c                   0x00000000   Number         0  sys_command.o ABSOLUTE
    ../clib/angel/sysapp.c                   0x00000000   Number         0  sys_command_hlt.o ABSOLUTE
    ../clib/armsys.c                         0x00000000   Number         0  argv_veneer.o ABSOLUTE
    ../clib/armsys.c                         0x00000000   Number         0  argv_veneer.o ABSOLUTE
    ../clib/armsys.c                         0x00000000   Number         0  _get_argv_nomalloc.o ABSOLUTE
    ../clib/armsys.c                         0x00000000   Number         0  no_argv.o ABSOLUTE
    ../clib/fenv.c                           0x00000000   Number         0  _rserrno.o ABSOLUTE
    ../clib/heapalloc.c                      0x00000000   Number         0  hrguard.o ABSOLUTE
    ../clib/heapaux.c                        0x00000000   Number         0  heapauxi.o ABSOLUTE
    ../clib/libinit.s                        0x00000000   Number         0  libinit.o ABSOLUTE
    ../clib/libinit.s                        0x00000000   Number         0  libinit2.o ABSOLUTE
    ../clib/libinit.s                        0x00000000   Number         0  libshutdown.o ABSOLUTE
    ../clib/libinit.s                        0x00000000   Number         0  libshutdown2.o ABSOLUTE
    ../clib/longlong.s                       0x00000000   Number         0  lludivv7m.o ABSOLUTE
    ../clib/memcpset.s                       0x00000000   Number         0  rt_memcpy_v6.o ABSOLUTE
    ../clib/memcpset.s                       0x00000000   Number         0  rt_memcpy_w.o ABSOLUTE
    ../clib/memcpset.s                       0x00000000   Number         0  aeabi_memset.o ABSOLUTE
    ../clib/memcpset.s                       0x00000000   Number         0  rt_memclr_w.o ABSOLUTE
    ../clib/memcpset.s                       0x00000000   Number         0  rt_memclr.o ABSOLUTE
    ../clib/signal.c                         0x00000000   Number         0  defsig_fpe_outer.o ABSOLUTE
    ../clib/signal.c                         0x00000000   Number         0  defsig_fpe_formal.o ABSOLUTE
    ../clib/signal.c                         0x00000000   Number         0  defsig_exit.o ABSOLUTE
    ../clib/signal.c                         0x00000000   Number         0  defsig_fpe_inner.o ABSOLUTE
    ../clib/signal.c                         0x00000000   Number         0  __raise.o ABSOLUTE
    ../clib/signal.c                         0x00000000   Number         0  defsig_general.o ABSOLUTE
    ../clib/signal.c                         0x00000000   Number         0  defsig_abrt_inner.o ABSOLUTE
    ../clib/signal.c                         0x00000000   Number         0  defsig_rtred_inner.o ABSOLUTE
    ../clib/signal.c                         0x00000000   Number         0  defsig_rtmem_inner.o ABSOLUTE
    ../clib/signal.c                         0x00000000   Number         0  defsig_rtmem_outer.o ABSOLUTE
    ../clib/signal.c                         0x00000000   Number         0  defsig_rtmem_formal.o ABSOLUTE
    ../clib/signal.c                         0x00000000   Number         0  defsig_stak_inner.o ABSOLUTE
    ../clib/signal.c                         0x00000000   Number         0  defsig_pvfn_inner.o ABSOLUTE
    ../clib/signal.c                         0x00000000   Number         0  defsig_cppl_inner.o ABSOLUTE
    ../clib/signal.c                         0x00000000   Number         0  defsig_segv_inner.o ABSOLUTE
    ../clib/signal.c                         0x00000000   Number         0  defsig_other.o ABSOLUTE
    ../clib/signal.s                         0x00000000   Number         0  defsig.o ABSOLUTE
    ../clib/stdlib.c                         0x00000000   Number         0  exit.o ABSOLUTE
    ../fplib/fpinit.s                        0x00000000   Number         0  fpinit.o ABSOLUTE
    ../fplib/usenofp.s                       0x00000000   Number         0  usenofp.o ABSOLUTE
    ../mathlib/atan.c                        0x00000000   Number         0  atan.o ABSOLUTE
    ../mathlib/atan2.c                       0x00000000   Number         0  atan2.o ABSOLUTE
    ../mathlib/dunder.c                      0x00000000   Number         0  dunder.o ABSOLUTE
    ../mathlib/fabs.c                        0x00000000   Number         0  fabs.o ABSOLUTE
    ../mathlib/fpclassify.c                  0x00000000   Number         0  fpclassify.o ABSOLUTE
    ../mathlib/poly.c                        0x00000000   Number         0  poly.o ABSOLUTE
    ../mathlib/qnan.c                        0x00000000   Number         0  qnan.o ABSOLUTE
    ../mathlib/sqrtf.c                       0x00000000   Number         0  sqrtf.o ABSOLUTE
    CAN_Task.c                               0x00000000   Number         0  can_task.o ABSOLUTE
    Control_Task.c                           0x00000000   Number         0  control_task.o ABSOLUTE
    Motor.c                                  0x00000000   Number         0  motor.o ABSOLUTE
    arm_common_tables.c                      0x00000000   Number         0  arm_common_tables.o ABSOLUTE
    arm_cos_f32.c                            0x00000000   Number         0  arm_cos_f32.o ABSOLUTE
    arm_sin_f32.c                            0x00000000   Number         0  arm_sin_f32.o ABSOLUTE
    bsp_can.c                                0x00000000   Number         0  bsp_can.o ABSOLUTE
    bsp_uart.c                               0x00000000   Number         0  bsp_uart.o ABSOLUTE
    cmsis_os.c                               0x00000000   Number         0  cmsis_os.o ABSOLUTE
    croutine.c                               0x00000000   Number         0  croutine.o ABSOLUTE
    dc.s                                     0x00000000   Number         0  dc.o ABSOLUTE
    dma.c                                    0x00000000   Number         0  dma.o ABSOLUTE
    event_groups.c                           0x00000000   Number         0  event_groups.o ABSOLUTE
    fdcan.c                                  0x00000000   Number         0  fdcan.o ABSOLUTE
    freertos.c                               0x00000000   Number         0  freertos.o ABSOLUTE
    gpio.c                                   0x00000000   Number         0  gpio.o ABSOLUTE
    heap_4.c                                 0x00000000   Number         0  heap_4.o ABSOLUTE
    list.c                                   0x00000000   Number         0  list.o ABSOLUTE
    main.c                                   0x00000000   Number         0  main.o ABSOLUTE
    memorymap.c                              0x00000000   Number         0  memorymap.o ABSOLUTE
    port.c                                   0x00000000   Number         0  port.o ABSOLUTE
    queue.c                                  0x00000000   Number         0  queue.o ABSOLUTE
    remote_control.c                         0x00000000   Number         0  remote_control.o ABSOLUTE
    startup_stm32h723xx.s                    0x00000000   Number         0  startup_stm32h723xx.o ABSOLUTE
    stm32h7xx_hal.c                          0x00000000   Number         0  stm32h7xx_hal.o ABSOLUTE
    stm32h7xx_hal_cortex.c                   0x00000000   Number         0  stm32h7xx_hal_cortex.o ABSOLUTE
    stm32h7xx_hal_dma.c                      0x00000000   Number         0  stm32h7xx_hal_dma.o ABSOLUTE
    stm32h7xx_hal_dma_ex.c                   0x00000000   Number         0  stm32h7xx_hal_dma_ex.o ABSOLUTE
    stm32h7xx_hal_exti.c                     0x00000000   Number         0  stm32h7xx_hal_exti.o ABSOLUTE
    stm32h7xx_hal_fdcan.c                    0x00000000   Number         0  stm32h7xx_hal_fdcan.o ABSOLUTE
    stm32h7xx_hal_flash.c                    0x00000000   Number         0  stm32h7xx_hal_flash.o ABSOLUTE
    stm32h7xx_hal_flash_ex.c                 0x00000000   Number         0  stm32h7xx_hal_flash_ex.o ABSOLUTE
    stm32h7xx_hal_gpio.c                     0x00000000   Number         0  stm32h7xx_hal_gpio.o ABSOLUTE
    stm32h7xx_hal_hsem.c                     0x00000000   Number         0  stm32h7xx_hal_hsem.o ABSOLUTE
    stm32h7xx_hal_i2c.c                      0x00000000   Number         0  stm32h7xx_hal_i2c.o ABSOLUTE
    stm32h7xx_hal_i2c_ex.c                   0x00000000   Number         0  stm32h7xx_hal_i2c_ex.o ABSOLUTE
    stm32h7xx_hal_mdma.c                     0x00000000   Number         0  stm32h7xx_hal_mdma.o ABSOLUTE
    stm32h7xx_hal_msp.c                      0x00000000   Number         0  stm32h7xx_hal_msp.o ABSOLUTE
    stm32h7xx_hal_pwr.c                      0x00000000   Number         0  stm32h7xx_hal_pwr.o ABSOLUTE
    stm32h7xx_hal_pwr_ex.c                   0x00000000   Number         0  stm32h7xx_hal_pwr_ex.o ABSOLUTE
    stm32h7xx_hal_rcc.c                      0x00000000   Number         0  stm32h7xx_hal_rcc.o ABSOLUTE
    stm32h7xx_hal_rcc_ex.c                   0x00000000   Number         0  stm32h7xx_hal_rcc_ex.o ABSOLUTE
    stm32h7xx_hal_tim.c                      0x00000000   Number         0  stm32h7xx_hal_tim.o ABSOLUTE
    stm32h7xx_hal_tim_ex.c                   0x00000000   Number         0  stm32h7xx_hal_tim_ex.o ABSOLUTE
    stm32h7xx_hal_timebase_tim.c             0x00000000   Number         0  stm32h7xx_hal_timebase_tim.o ABSOLUTE
    stm32h7xx_hal_uart.c                     0x00000000   Number         0  stm32h7xx_hal_uart.o ABSOLUTE
    stm32h7xx_hal_uart_ex.c                  0x00000000   Number         0  stm32h7xx_hal_uart_ex.o ABSOLUTE
    stm32h7xx_it.c                           0x00000000   Number         0  stm32h7xx_it.o ABSOLUTE
    stream_buffer.c                          0x00000000   Number         0  stream_buffer.o ABSOLUTE
    system_stm32h7xx.c                       0x00000000   Number         0  system_stm32h7xx.o ABSOLUTE
    tasks.c                                  0x00000000   Number         0  tasks.o ABSOLUTE
    timers.c                                 0x00000000   Number         0  timers.o ABSOLUTE
    usart.c                                  0x00000000   Number         0  usart.o ABSOLUTE
    RESET                                    0x08000000   Section      716  startup_stm32h723xx.o(RESET)
    !!!main                                  0x080002cc   Section        8  __main.o(!!!main)
    !!!scatter                               0x080002d4   Section       52  __scatter.o(!!!scatter)
    !!dczerorl                               0x08000308   Section       58  __dczerorl.o(!!dczerorl)
    !!handler_zi                             0x08000344   Section       28  __scatter_zi.o(!!handler_zi)
    .ARM.Collect$$libinit$$00000000          0x08000360   Section        2  libinit.o(.ARM.Collect$$libinit$$00000000)
    .ARM.Collect$$libinit$$00000001          0x08000362   Section        4  libinit2.o(.ARM.Collect$$libinit$$00000001)
    .ARM.Collect$$libinit$$00000004          0x08000366   Section        0  libinit2.o(.ARM.Collect$$libinit$$00000004)
    .ARM.Collect$$libinit$$0000000A          0x08000366   Section        0  libinit2.o(.ARM.Collect$$libinit$$0000000A)
    .ARM.Collect$$libinit$$0000000C          0x08000366   Section        0  libinit2.o(.ARM.Collect$$libinit$$0000000C)
    .ARM.Collect$$libinit$$0000000E          0x08000366   Section        0  libinit2.o(.ARM.Collect$$libinit$$0000000E)
    .ARM.Collect$$libinit$$00000011          0x08000366   Section        0  libinit2.o(.ARM.Collect$$libinit$$00000011)
    .ARM.Collect$$libinit$$00000013          0x08000366   Section        0  libinit2.o(.ARM.Collect$$libinit$$00000013)
    .ARM.Collect$$libinit$$00000015          0x08000366   Section        0  libinit2.o(.ARM.Collect$$libinit$$00000015)
    .ARM.Collect$$libinit$$00000017          0x08000366   Section        0  libinit2.o(.ARM.Collect$$libinit$$00000017)
    .ARM.Collect$$libinit$$00000019          0x08000366   Section        0  libinit2.o(.ARM.Collect$$libinit$$00000019)
    .ARM.Collect$$libinit$$0000001B          0x08000366   Section        0  libinit2.o(.ARM.Collect$$libinit$$0000001B)
    .ARM.Collect$$libinit$$0000001D          0x08000366   Section        0  libinit2.o(.ARM.Collect$$libinit$$0000001D)
    .ARM.Collect$$libinit$$0000001F          0x08000366   Section        0  libinit2.o(.ARM.Collect$$libinit$$0000001F)
    .ARM.Collect$$libinit$$00000021          0x08000366   Section        0  libinit2.o(.ARM.Collect$$libinit$$00000021)
    .ARM.Collect$$libinit$$00000023          0x08000366   Section        0  libinit2.o(.ARM.Collect$$libinit$$00000023)
    .ARM.Collect$$libinit$$00000025          0x08000366   Section        0  libinit2.o(.ARM.Collect$$libinit$$00000025)
    .ARM.Collect$$libinit$$0000002C          0x08000366   Section        0  libinit2.o(.ARM.Collect$$libinit$$0000002C)
    .ARM.Collect$$libinit$$0000002E          0x08000366   Section        0  libinit2.o(.ARM.Collect$$libinit$$0000002E)
    .ARM.Collect$$libinit$$00000030          0x08000366   Section        0  libinit2.o(.ARM.Collect$$libinit$$00000030)
    .ARM.Collect$$libinit$$00000032          0x08000366   Section        0  libinit2.o(.ARM.Collect$$libinit$$00000032)
    .ARM.Collect$$libinit$$00000033          0x08000366   Section        2  libinit2.o(.ARM.Collect$$libinit$$00000033)
    .ARM.Collect$$libshutdown$$00000000      0x08000368   Section        2  libshutdown.o(.ARM.Collect$$libshutdown$$00000000)
    .ARM.Collect$$libshutdown$$00000002      0x0800036a   Section        0  libshutdown2.o(.ARM.Collect$$libshutdown$$00000002)
    .ARM.Collect$$libshutdown$$00000004      0x0800036a   Section        0  libshutdown2.o(.ARM.Collect$$libshutdown$$00000004)
    .ARM.Collect$$libshutdown$$00000007      0x0800036a   Section        0  libshutdown2.o(.ARM.Collect$$libshutdown$$00000007)
    .ARM.Collect$$libshutdown$$0000000A      0x0800036a   Section        0  libshutdown2.o(.ARM.Collect$$libshutdown$$0000000A)
    .ARM.Collect$$libshutdown$$0000000C      0x0800036a   Section        0  libshutdown2.o(.ARM.Collect$$libshutdown$$0000000C)
    .ARM.Collect$$libshutdown$$0000000F      0x0800036a   Section        0  libshutdown2.o(.ARM.Collect$$libshutdown$$0000000F)
    .ARM.Collect$$libshutdown$$00000010      0x0800036a   Section        2  libshutdown2.o(.ARM.Collect$$libshutdown$$00000010)
    .ARM.Collect$$rtentry$$00000000          0x0800036c   Section        0  __rtentry.o(.ARM.Collect$$rtentry$$00000000)
    .ARM.Collect$$rtentry$$00000002          0x0800036c   Section        0  __rtentry2.o(.ARM.Collect$$rtentry$$00000002)
    .ARM.Collect$$rtentry$$00000004          0x0800036c   Section        6  __rtentry4.o(.ARM.Collect$$rtentry$$00000004)
    .ARM.Collect$$rtentry$$00000009          0x08000372   Section        0  __rtentry2.o(.ARM.Collect$$rtentry$$00000009)
    .ARM.Collect$$rtentry$$0000000A          0x08000372   Section        4  __rtentry2.o(.ARM.Collect$$rtentry$$0000000A)
    .ARM.Collect$$rtentry$$0000000C          0x08000376   Section        0  __rtentry2.o(.ARM.Collect$$rtentry$$0000000C)
    .ARM.Collect$$rtentry$$0000000D          0x08000376   Section        8  __rtentry2.o(.ARM.Collect$$rtentry$$0000000D)
    .ARM.Collect$$rtexit$$00000000           0x0800037e   Section        2  rtexit.o(.ARM.Collect$$rtexit$$00000000)
    .ARM.Collect$$rtexit$$00000002           0x08000380   Section        0  rtexit2.o(.ARM.Collect$$rtexit$$00000002)
    .ARM.Collect$$rtexit$$00000003           0x08000380   Section        4  rtexit2.o(.ARM.Collect$$rtexit$$00000003)
    .ARM.Collect$$rtexit$$00000004           0x08000384   Section        6  rtexit2.o(.ARM.Collect$$rtexit$$00000004)
    $v0                                      0x0800038c   Number         0  startup_stm32h723xx.o(.text)
    .text                                    0x0800038c   Section       64  startup_stm32h723xx.o(.text)
    .text                                    0x080003cc   Section      240  lludivv7m.o(.text)
    .text                                    0x080004bc   Section      100  rt_memcpy_w.o(.text)
    .text                                    0x08000520   Section       78  rt_memclr_w.o(.text)
    .text                                    0x0800056e   Section        0  heapauxi.o(.text)
    .text                                    0x08000574   Section        0  _rserrno.o(.text)
    .text                                    0x0800058c   Section        8  rt_errno_addr_intlibspace.o(.text)
    .text                                    0x08000594   Section        8  libspace.o(.text)
    .text                                    0x0800059c   Section       74  sys_stackheap_outer.o(.text)
    .text                                    0x080005e6   Section        0  exit.o(.text)
    .text                                    0x080005f8   Section        0  sys_exit.o(.text)
    .text                                    0x08000604   Section        2  use_no_semi.o(.text)
    .text                                    0x08000606   Section        0  indicate_semi.o(.text)
    [Anonymous Symbol]                       0x08000608   Section        0  bsp_can.o(.text.BSP_FDCAN_Init)
    [Anonymous Symbol]                       0x08000708   Section        0  bsp_uart.o(.text.BSP_USART_Init)
    [Anonymous Symbol]                       0x08000738   Section        0  stm32h7xx_it.o(.text.BusFault_Handler)
    [Anonymous Symbol]                       0x08000740   Section        0  can_task.o(.text.CAN_Task)
    [Anonymous Symbol]                       0x08000a80   Section        0  control_task.o(.text.Control_Task)
    [Anonymous Symbol]                       0x08000fe0   Section        0  stm32h7xx_it.o(.text.DMA1_Stream0_IRQHandler)
    DMA_CalcBaseAndBitshift                  0x08000ff1   Thumb Code   458  stm32h7xx_hal_dma.o(.text.DMA_CalcBaseAndBitshift)
    [Anonymous Symbol]                       0x08000ff0   Section        0  stm32h7xx_hal_dma.o(.text.DMA_CalcBaseAndBitshift)
    DMA_CalcDMAMUXChannelBaseAndMask         0x080011c1   Thumb Code   376  stm32h7xx_hal_dma.o(.text.DMA_CalcDMAMUXChannelBaseAndMask)
    [Anonymous Symbol]                       0x080011c0   Section        0  stm32h7xx_hal_dma.o(.text.DMA_CalcDMAMUXChannelBaseAndMask)
    DMA_CalcDMAMUXRequestGenBaseAndMask      0x08001339   Thumb Code   298  stm32h7xx_hal_dma.o(.text.DMA_CalcDMAMUXRequestGenBaseAndMask)
    [Anonymous Symbol]                       0x08001338   Section        0  stm32h7xx_hal_dma.o(.text.DMA_CalcDMAMUXRequestGenBaseAndMask)
    DMA_CheckFifoParam                       0x08001469   Thumb Code   240  stm32h7xx_hal_dma.o(.text.DMA_CheckFifoParam)
    [Anonymous Symbol]                       0x08001468   Section        0  stm32h7xx_hal_dma.o(.text.DMA_CheckFifoParam)
    DMA_MultiBufferSetConfig                 0x08001559   Thumb Code   480  stm32h7xx_hal_dma_ex.o(.text.DMA_MultiBufferSetConfig)
    [Anonymous Symbol]                       0x08001558   Section        0  stm32h7xx_hal_dma_ex.o(.text.DMA_MultiBufferSetConfig)
    DM_6215_Motor_Init                       0x08001739   Thumb Code   174  can_task.o(.text.DM_6215_Motor_Init)
    [Anonymous Symbol]                       0x08001738   Section        0  can_task.o(.text.DM_6215_Motor_Init)
    DM_6220_Motor_Init                       0x080017e9   Thumb Code    88  can_task.o(.text.DM_6220_Motor_Init)
    [Anonymous Symbol]                       0x080017e8   Section        0  can_task.o(.text.DM_6220_Motor_Init)
    [Anonymous Symbol]                       0x08001840   Section        0  motor.o(.text.DM_Motor_CAN_TxMessage)
    [Anonymous Symbol]                       0x080019b0   Section        0  motor.o(.text.DM_Motor_Enable)
    [Anonymous Symbol]                       0x08001a08   Section        0  motor.o(.text.DM_Motor_Info_Update)
    [Anonymous Symbol]                       0x08001b20   Section        0  stm32h7xx_it.o(.text.DebugMon_Handler)
    [Anonymous Symbol]                       0x08001b28   Section        0  main.o(.text.Error_Handler)
    [Anonymous Symbol]                       0x08001b38   Section        0  stm32h7xx_it.o(.text.FDCAN1_IT0_IRQHandler)
    FDCAN1_RxFifo0RxHandler                  0x08001b49   Thumb Code   112  bsp_can.o(.text.FDCAN1_RxFifo0RxHandler)
    [Anonymous Symbol]                       0x08001b48   Section        0  bsp_can.o(.text.FDCAN1_RxFifo0RxHandler)
    [Anonymous Symbol]                       0x08001bb8   Section        0  stm32h7xx_it.o(.text.FDCAN2_IT0_IRQHandler)
    FDCAN2_RxFifo1RxHandler                  0x08001bc9   Thumb Code   112  bsp_can.o(.text.FDCAN2_RxFifo1RxHandler)
    [Anonymous Symbol]                       0x08001bc8   Section        0  bsp_can.o(.text.FDCAN2_RxFifo1RxHandler)
    FDCAN_CalcultateRamBlockAddresses        0x08001c39   Thumb Code   706  stm32h7xx_hal_fdcan.o(.text.FDCAN_CalcultateRamBlockAddresses)
    [Anonymous Symbol]                       0x08001c38   Section        0  stm32h7xx_hal_fdcan.o(.text.FDCAN_CalcultateRamBlockAddresses)
    FDCAN_CopyMessageToRAM                   0x08001f01   Thumb Code   184  stm32h7xx_hal_fdcan.o(.text.FDCAN_CopyMessageToRAM)
    [Anonymous Symbol]                       0x08001f00   Section        0  stm32h7xx_hal_fdcan.o(.text.FDCAN_CopyMessageToRAM)
    [Anonymous Symbol]                       0x08001fb8   Section        0  stm32h7xx_hal_dma_ex.o(.text.HAL_DMAEx_MultiBufferStart)
    [Anonymous Symbol]                       0x08002588   Section        0  stm32h7xx_hal_dma.o(.text.HAL_DMA_Abort)
    [Anonymous Symbol]                       0x08002f00   Section        0  stm32h7xx_hal_dma.o(.text.HAL_DMA_Abort_IT)
    [Anonymous Symbol]                       0x080035b0   Section        0  stm32h7xx_hal_dma.o(.text.HAL_DMA_IRQHandler)
    [Anonymous Symbol]                       0x08004770   Section        0  stm32h7xx_hal_dma.o(.text.HAL_DMA_Init)
    [Anonymous Symbol]                       0x080050d8   Section        0  stm32h7xx_hal_fdcan.o(.text.HAL_FDCAN_ActivateNotification)
    [Anonymous Symbol]                       0x080051d8   Section        0  stm32h7xx_hal_fdcan.o(.text.HAL_FDCAN_AddMessageToTxFifoQ)
    [Anonymous Symbol]                       0x080052a8   Section        0  stm32h7xx_hal_fdcan.o(.text.HAL_FDCAN_ClockCalibrationCallback)
    [Anonymous Symbol]                       0x080052b8   Section        0  stm32h7xx_hal_fdcan.o(.text.HAL_FDCAN_ConfigFilter)
    [Anonymous Symbol]                       0x080053d0   Section        0  stm32h7xx_hal_fdcan.o(.text.HAL_FDCAN_ConfigGlobalFilter)
    [Anonymous Symbol]                       0x08005430   Section        0  stm32h7xx_hal_fdcan.o(.text.HAL_FDCAN_ErrorCallback)
    [Anonymous Symbol]                       0x08005438   Section        0  stm32h7xx_hal_fdcan.o(.text.HAL_FDCAN_ErrorStatusCallback)
    [Anonymous Symbol]                       0x08005448   Section        0  stm32h7xx_hal_fdcan.o(.text.HAL_FDCAN_GetRxMessage)
    [Anonymous Symbol]                       0x08005740   Section        0  stm32h7xx_hal_fdcan.o(.text.HAL_FDCAN_HighPriorityMessageCallback)
    [Anonymous Symbol]                       0x08005748   Section        0  stm32h7xx_hal_fdcan.o(.text.HAL_FDCAN_IRQHandler)
    [Anonymous Symbol]                       0x08005d30   Section        0  stm32h7xx_hal_fdcan.o(.text.HAL_FDCAN_Init)
    [Anonymous Symbol]                       0x08006110   Section        0  fdcan.o(.text.HAL_FDCAN_MspInit)
    [Anonymous Symbol]                       0x080062a8   Section        0  stm32h7xx_hal_fdcan.o(.text.HAL_FDCAN_RxBufferNewMessageCallback)
    [Anonymous Symbol]                       0x080062b0   Section        0  bsp_can.o(.text.HAL_FDCAN_RxFifo0Callback)
    [Anonymous Symbol]                       0x080062e0   Section        0  bsp_can.o(.text.HAL_FDCAN_RxFifo1Callback)
    [Anonymous Symbol]                       0x08006310   Section        0  stm32h7xx_hal_fdcan.o(.text.HAL_FDCAN_Start)
    [Anonymous Symbol]                       0x08006360   Section        0  stm32h7xx_hal_fdcan.o(.text.HAL_FDCAN_TT_GlobalTimeCallback)
    [Anonymous Symbol]                       0x08006370   Section        0  stm32h7xx_hal_fdcan.o(.text.HAL_FDCAN_TT_ScheduleSyncCallback)
    [Anonymous Symbol]                       0x08006380   Section        0  stm32h7xx_hal_fdcan.o(.text.HAL_FDCAN_TT_StopWatchCallback)
    [Anonymous Symbol]                       0x08006390   Section        0  stm32h7xx_hal_fdcan.o(.text.HAL_FDCAN_TT_TimeMarkCallback)
    [Anonymous Symbol]                       0x080063a0   Section        0  stm32h7xx_hal_fdcan.o(.text.HAL_FDCAN_TimeoutOccurredCallback)
    [Anonymous Symbol]                       0x080063a8   Section        0  stm32h7xx_hal_fdcan.o(.text.HAL_FDCAN_TimestampWraparoundCallback)
    [Anonymous Symbol]                       0x080063b0   Section        0  stm32h7xx_hal_fdcan.o(.text.HAL_FDCAN_TxBufferAbortCallback)
    [Anonymous Symbol]                       0x080063c0   Section        0  stm32h7xx_hal_fdcan.o(.text.HAL_FDCAN_TxBufferCompleteCallback)
    [Anonymous Symbol]                       0x080063d0   Section        0  stm32h7xx_hal_fdcan.o(.text.HAL_FDCAN_TxEventFifoCallback)
    [Anonymous Symbol]                       0x080063e0   Section        0  stm32h7xx_hal_fdcan.o(.text.HAL_FDCAN_TxFifoEmptyCallback)
    [Anonymous Symbol]                       0x080063e8   Section        0  stm32h7xx_hal_gpio.o(.text.HAL_GPIO_Init)
    [Anonymous Symbol]                       0x08006790   Section        0  stm32h7xx_hal_gpio.o(.text.HAL_GPIO_WritePin)
    [Anonymous Symbol]                       0x080067c0   Section        0  stm32h7xx_hal.o(.text.HAL_GetTick)
    [Anonymous Symbol]                       0x080067d0   Section        0  stm32h7xx_hal.o(.text.HAL_IncTick)
    [Anonymous Symbol]                       0x080067f0   Section        0  stm32h7xx_hal.o(.text.HAL_Init)
    [Anonymous Symbol]                       0x08006870   Section        0  stm32h7xx_hal_timebase_tim.o(.text.HAL_InitTick)
    [Anonymous Symbol]                       0x08006948   Section        0  stm32h7xx_hal_msp.o(.text.HAL_MspInit)
    [Anonymous Symbol]                       0x08006980   Section        0  stm32h7xx_hal_cortex.o(.text.HAL_NVIC_EnableIRQ)
    [Anonymous Symbol]                       0x08006998   Section        0  stm32h7xx_hal_cortex.o(.text.HAL_NVIC_SetPriority)
    [Anonymous Symbol]                       0x080069c8   Section        0  stm32h7xx_hal_cortex.o(.text.HAL_NVIC_SetPriorityGrouping)
    [Anonymous Symbol]                       0x080069d8   Section        0  stm32h7xx_hal_pwr_ex.o(.text.HAL_PWREx_ConfigSupply)
    [Anonymous Symbol]                       0x08006a80   Section        0  stm32h7xx_hal_rcc_ex.o(.text.HAL_RCCEx_GetD3PCLK1Freq)
    [Anonymous Symbol]                       0x08006aa8   Section        0  stm32h7xx_hal_rcc_ex.o(.text.HAL_RCCEx_GetPLL2ClockFreq)
    [Anonymous Symbol]                       0x08006d58   Section        0  stm32h7xx_hal_rcc_ex.o(.text.HAL_RCCEx_GetPLL3ClockFreq)
    [Anonymous Symbol]                       0x08007008   Section        0  stm32h7xx_hal_rcc_ex.o(.text.HAL_RCCEx_PeriphCLKConfig)
    [Anonymous Symbol]                       0x08007ff8   Section        0  stm32h7xx_hal_rcc.o(.text.HAL_RCC_ClockConfig)
    [Anonymous Symbol]                       0x08008490   Section        0  stm32h7xx_hal_rcc.o(.text.HAL_RCC_GetClockConfig)
    [Anonymous Symbol]                       0x08008518   Section        0  stm32h7xx_hal_rcc.o(.text.HAL_RCC_GetHCLKFreq)
    [Anonymous Symbol]                       0x08008570   Section        0  stm32h7xx_hal_rcc.o(.text.HAL_RCC_GetPCLK1Freq)
    [Anonymous Symbol]                       0x08008598   Section        0  stm32h7xx_hal_rcc.o(.text.HAL_RCC_GetPCLK2Freq)
    [Anonymous Symbol]                       0x080085c0   Section        0  stm32h7xx_hal_rcc.o(.text.HAL_RCC_GetSysClockFreq)
    [Anonymous Symbol]                       0x080088d0   Section        0  stm32h7xx_hal_rcc.o(.text.HAL_RCC_OscConfig)
    [Anonymous Symbol]                       0x080092f0   Section        0  stm32h7xx_hal_tim_ex.o(.text.HAL_TIMEx_Break2Callback)
    [Anonymous Symbol]                       0x080092f8   Section        0  stm32h7xx_hal_tim_ex.o(.text.HAL_TIMEx_BreakCallback)
    [Anonymous Symbol]                       0x08009300   Section        0  stm32h7xx_hal_tim_ex.o(.text.HAL_TIMEx_CommutCallback)
    [Anonymous Symbol]                       0x08009308   Section        0  stm32h7xx_hal_tim.o(.text.HAL_TIM_Base_Init)
    [Anonymous Symbol]                       0x080093b0   Section        0  stm32h7xx_hal_tim.o(.text.HAL_TIM_Base_MspInit)
    [Anonymous Symbol]                       0x080093b8   Section        0  stm32h7xx_hal_tim.o(.text.HAL_TIM_Base_Start_IT)
    [Anonymous Symbol]                       0x080094e0   Section        0  stm32h7xx_hal_tim.o(.text.HAL_TIM_IC_CaptureCallback)
    [Anonymous Symbol]                       0x080094e8   Section        0  stm32h7xx_hal_tim.o(.text.HAL_TIM_IRQHandler)
    [Anonymous Symbol]                       0x08009738   Section        0  stm32h7xx_hal_tim.o(.text.HAL_TIM_OC_DelayElapsedCallback)
    [Anonymous Symbol]                       0x08009740   Section        0  stm32h7xx_hal_tim.o(.text.HAL_TIM_PWM_PulseFinishedCallback)
    [Anonymous Symbol]                       0x08009748   Section        0  main.o(.text.HAL_TIM_PeriodElapsedCallback)
    [Anonymous Symbol]                       0x08009768   Section        0  stm32h7xx_hal_tim.o(.text.HAL_TIM_TriggerCallback)
    [Anonymous Symbol]                       0x08009770   Section        0  stm32h7xx_hal_uart_ex.o(.text.HAL_UARTEx_DisableFifoMode)
    [Anonymous Symbol]                       0x080097f0   Section        0  bsp_uart.o(.text.HAL_UARTEx_RxEventCallback)
    [Anonymous Symbol]                       0x08009ff8   Section        0  stm32h7xx_hal_uart_ex.o(.text.HAL_UARTEx_RxFifoFullCallback)
    [Anonymous Symbol]                       0x0800a000   Section        0  stm32h7xx_hal_uart_ex.o(.text.HAL_UARTEx_SetRxFifoThreshold)
    [Anonymous Symbol]                       0x0800a090   Section        0  stm32h7xx_hal_uart_ex.o(.text.HAL_UARTEx_SetTxFifoThreshold)
    [Anonymous Symbol]                       0x0800a120   Section        0  stm32h7xx_hal_uart_ex.o(.text.HAL_UARTEx_TxFifoEmptyCallback)
    [Anonymous Symbol]                       0x0800a128   Section        0  stm32h7xx_hal_uart_ex.o(.text.HAL_UARTEx_WakeupCallback)
    [Anonymous Symbol]                       0x0800a130   Section        0  stm32h7xx_hal_uart.o(.text.HAL_UART_ErrorCallback)
    [Anonymous Symbol]                       0x0800a138   Section        0  stm32h7xx_hal_uart.o(.text.HAL_UART_IRQHandler)
    [Anonymous Symbol]                       0x0800a800   Section        0  stm32h7xx_hal_uart.o(.text.HAL_UART_Init)
    [Anonymous Symbol]                       0x0800a8b0   Section        0  usart.o(.text.HAL_UART_MspInit)
    [Anonymous Symbol]                       0x0800aa10   Section        0  stm32h7xx_hal_uart.o(.text.HAL_UART_TxCpltCallback)
    [Anonymous Symbol]                       0x0800aa18   Section        0  stm32h7xx_it.o(.text.HardFault_Handler)
    [Anonymous Symbol]                       0x0800aa20   Section        0  dma.o(.text.MX_DMA_Init)
    [Anonymous Symbol]                       0x0800aa58   Section        0  fdcan.o(.text.MX_FDCAN1_Init)
    [Anonymous Symbol]                       0x0800aad0   Section        0  fdcan.o(.text.MX_FDCAN2_Init)
    [Anonymous Symbol]                       0x0800ab50   Section        0  freertos.o(.text.MX_FREERTOS_Init)
    [Anonymous Symbol]                       0x0800abd8   Section        0  gpio.o(.text.MX_GPIO_Init)
    [Anonymous Symbol]                       0x0800ac98   Section        0  usart.o(.text.MX_UART5_Init)
    [Anonymous Symbol]                       0x0800ad38   Section        0  stm32h7xx_it.o(.text.MemManage_Handler)
    [Anonymous Symbol]                       0x0800ad40   Section        0  stm32h7xx_it.o(.text.NMI_Handler)
    NVIC_EncodePriority                      0x0800ad49   Thumb Code   108  stm32h7xx_hal_cortex.o(.text.NVIC_EncodePriority)
    [Anonymous Symbol]                       0x0800ad48   Section        0  stm32h7xx_hal_cortex.o(.text.NVIC_EncodePriority)
    [Anonymous Symbol]                       0x0800adc0   Section        0  port.o(.text.PendSV_Handler)
    pxCurrentTCBConst                        0x0800ae20   Number         0  port.o(.text.PendSV_Handler)
    RCCEx_PLL2_Config                        0x0800ae29   Thumb Code   458  stm32h7xx_hal_rcc_ex.o(.text.RCCEx_PLL2_Config)
    [Anonymous Symbol]                       0x0800ae28   Section        0  stm32h7xx_hal_rcc_ex.o(.text.RCCEx_PLL2_Config)
    RCCEx_PLL3_Config                        0x0800aff9   Thumb Code   458  stm32h7xx_hal_rcc_ex.o(.text.RCCEx_PLL3_Config)
    [Anonymous Symbol]                       0x0800aff8   Section        0  stm32h7xx_hal_rcc_ex.o(.text.RCCEx_PLL3_Config)
    [Anonymous Symbol]                       0x0800b1c8   Section        0  remote_control.o(.text.SBUS_TO_RC)
    [Anonymous Symbol]                       0x0800b300   Section        0  port.o(.text.SVC_Handler)
    pxCurrentTCBConst2                       0x0800b320   Number         0  port.o(.text.SVC_Handler)
    [Anonymous Symbol]                       0x0800b328   Section        0  port.o(.text.SysTick_Handler)
    [Anonymous Symbol]                       0x0800b368   Section        0  main.o(.text.SystemClock_Config)
    [Anonymous Symbol]                       0x0800b438   Section        0  system_stm32h7xx.o(.text.SystemInit)
    [Anonymous Symbol]                       0x0800b578   Section        0  stm32h7xx_it.o(.text.TIM2_IRQHandler)
    [Anonymous Symbol]                       0x0800b588   Section        0  stm32h7xx_hal_tim.o(.text.TIM_Base_SetConfig)
    [Anonymous Symbol]                       0x0800b758   Section        0  stm32h7xx_it.o(.text.UART5_IRQHandler)
    UARTEx_SetNbDataToProcess                0x0800b769   Thumb Code   134  stm32h7xx_hal_uart_ex.o(.text.UARTEx_SetNbDataToProcess)
    [Anonymous Symbol]                       0x0800b768   Section        0  stm32h7xx_hal_uart_ex.o(.text.UARTEx_SetNbDataToProcess)
    [Anonymous Symbol]                       0x0800b7f0   Section        0  stm32h7xx_hal_uart.o(.text.UART_AdvFeatureConfig)
    [Anonymous Symbol]                       0x0800b938   Section        0  stm32h7xx_hal_uart.o(.text.UART_CheckIdleState)
    UART_DMAAbortOnError                     0x0800ba81   Thumb Code    36  stm32h7xx_hal_uart.o(.text.UART_DMAAbortOnError)
    [Anonymous Symbol]                       0x0800ba80   Section        0  stm32h7xx_hal_uart.o(.text.UART_DMAAbortOnError)
    UART_EndRxTransfer                       0x0800baa9   Thumb Code   158  stm32h7xx_hal_uart.o(.text.UART_EndRxTransfer)
    [Anonymous Symbol]                       0x0800baa8   Section        0  stm32h7xx_hal_uart.o(.text.UART_EndRxTransfer)
    UART_EndTransmit_IT                      0x0800bb49   Thumb Code    68  stm32h7xx_hal_uart.o(.text.UART_EndTransmit_IT)
    [Anonymous Symbol]                       0x0800bb48   Section        0  stm32h7xx_hal_uart.o(.text.UART_EndTransmit_IT)
    [Anonymous Symbol]                       0x0800bb90   Section        0  stm32h7xx_hal_uart.o(.text.UART_SetConfig)
    [Anonymous Symbol]                       0x0800c5e0   Section        0  stm32h7xx_hal_uart.o(.text.UART_WaitOnFlagUntilTimeout)
    USART_RxDMA_MultiBufferStart             0x0800c6f1   Thumb Code    90  bsp_uart.o(.text.USART_RxDMA_MultiBufferStart)
    [Anonymous Symbol]                       0x0800c6f0   Section        0  bsp_uart.o(.text.USART_RxDMA_MultiBufferStart)
    [Anonymous Symbol]                       0x0800c750   Section        0  stm32h7xx_it.o(.text.UsageFault_Handler)
    __NVIC_EnableIRQ                         0x0800c759   Thumb Code    48  stm32h7xx_hal_cortex.o(.text.__NVIC_EnableIRQ)
    [Anonymous Symbol]                       0x0800c758   Section        0  stm32h7xx_hal_cortex.o(.text.__NVIC_EnableIRQ)
    __NVIC_GetPriorityGrouping               0x0800c789   Thumb Code    16  stm32h7xx_hal_cortex.o(.text.__NVIC_GetPriorityGrouping)
    [Anonymous Symbol]                       0x0800c788   Section        0  stm32h7xx_hal_cortex.o(.text.__NVIC_GetPriorityGrouping)
    __NVIC_SetPriority                       0x0800c799   Thumb Code    66  stm32h7xx_hal_cortex.o(.text.__NVIC_SetPriority)
    [Anonymous Symbol]                       0x0800c798   Section        0  stm32h7xx_hal_cortex.o(.text.__NVIC_SetPriority)
    __NVIC_SetPriorityGrouping               0x0800c7e1   Thumb Code    60  stm32h7xx_hal_cortex.o(.text.__NVIC_SetPriorityGrouping)
    [Anonymous Symbol]                       0x0800c7e0   Section        0  stm32h7xx_hal_cortex.o(.text.__NVIC_SetPriorityGrouping)
    [Anonymous Symbol]                       0x0800c81c   Section        0  arm_cos_f32.o(.text.arm_cos_f32)
    [Anonymous Symbol]                       0x0800c8ac   Section        0  arm_sin_f32.o(.text.arm_sin_f32)
    float_to_uint                            0x0800c939   Thumb Code    88  motor.o(.text.float_to_uint)
    [Anonymous Symbol]                       0x0800c938   Section        0  motor.o(.text.float_to_uint)
    inHandlerMode                            0x0800c991   Thumb Code    20  cmsis_os.o(.text.inHandlerMode)
    [Anonymous Symbol]                       0x0800c990   Section        0  cmsis_os.o(.text.inHandlerMode)
    [Anonymous Symbol]                       0x0800c9a8   Section        0  main.o(.text.main)
    makeFreeRtosPriority                     0x0800ca09   Thumb Code    40  cmsis_os.o(.text.makeFreeRtosPriority)
    [Anonymous Symbol]                       0x0800ca08   Section        0  cmsis_os.o(.text.makeFreeRtosPriority)
    [Anonymous Symbol]                       0x0800ca30   Section        0  cmsis_os.o(.text.osDelay)
    [Anonymous Symbol]                       0x0800ca58   Section        0  cmsis_os.o(.text.osKernelStart)
    [Anonymous Symbol]                       0x0800ca68   Section        0  cmsis_os.o(.text.osKernelSysTick)
    [Anonymous Symbol]                       0x0800ca90   Section        0  cmsis_os.o(.text.osThreadCreate)
    prvAddCurrentTaskToDelayedList           0x0800cb41   Thumb Code   244  tasks.o(.text.prvAddCurrentTaskToDelayedList)
    [Anonymous Symbol]                       0x0800cb40   Section        0  tasks.o(.text.prvAddCurrentTaskToDelayedList)
    prvAddNewTaskToReadyList                 0x0800cc39   Thumb Code   272  tasks.o(.text.prvAddNewTaskToReadyList)
    [Anonymous Symbol]                       0x0800cc38   Section        0  tasks.o(.text.prvAddNewTaskToReadyList)
    prvCheckTasksWaitingTermination          0x0800cd49   Thumb Code    90  tasks.o(.text.prvCheckTasksWaitingTermination)
    [Anonymous Symbol]                       0x0800cd48   Section        0  tasks.o(.text.prvCheckTasksWaitingTermination)
    prvDeleteTCB                             0x0800cda9   Thumb Code    94  tasks.o(.text.prvDeleteTCB)
    [Anonymous Symbol]                       0x0800cda8   Section        0  tasks.o(.text.prvDeleteTCB)
    prvHeapInit                              0x0800ce09   Thumb Code   188  heap_4.o(.text.prvHeapInit)
    [Anonymous Symbol]                       0x0800ce08   Section        0  heap_4.o(.text.prvHeapInit)
    prvIdleTask                              0x0800cec9   Thumb Code    56  tasks.o(.text.prvIdleTask)
    [Anonymous Symbol]                       0x0800cec8   Section        0  tasks.o(.text.prvIdleTask)
    prvInitialiseNewTask                     0x0800cf01   Thumb Code   276  tasks.o(.text.prvInitialiseNewTask)
    [Anonymous Symbol]                       0x0800cf00   Section        0  tasks.o(.text.prvInitialiseNewTask)
    prvInitialiseTaskLists                   0x0800d019   Thumb Code   142  tasks.o(.text.prvInitialiseTaskLists)
    [Anonymous Symbol]                       0x0800d018   Section        0  tasks.o(.text.prvInitialiseTaskLists)
    prvInsertBlockIntoFreeList               0x0800d0a9   Thumb Code   198  heap_4.o(.text.prvInsertBlockIntoFreeList)
    [Anonymous Symbol]                       0x0800d0a8   Section        0  heap_4.o(.text.prvInsertBlockIntoFreeList)
    prvPortStartFirstTask                    0x0800d171   Thumb Code    34  port.o(.text.prvPortStartFirstTask)
    [Anonymous Symbol]                       0x0800d170   Section        0  port.o(.text.prvPortStartFirstTask)
    prvResetNextTaskUnblockTime              0x0800d199   Thumb Code    70  tasks.o(.text.prvResetNextTaskUnblockTime)
    [Anonymous Symbol]                       0x0800d198   Section        0  tasks.o(.text.prvResetNextTaskUnblockTime)
    prvTaskExitError                         0x0800d1e1   Thumb Code    76  port.o(.text.prvTaskExitError)
    [Anonymous Symbol]                       0x0800d1e0   Section        0  port.o(.text.prvTaskExitError)
    [Anonymous Symbol]                       0x0800d230   Section        0  heap_4.o(.text.pvPortMalloc)
    [Anonymous Symbol]                       0x0800d420   Section        0  port.o(.text.pxPortInitialiseStack)
    [Anonymous Symbol]                       0x0800d480   Section        0  control_task.o(.text.sign)
    uint_to_float                            0x0800d4c9   Thumb Code    82  motor.o(.text.uint_to_float)
    [Anonymous Symbol]                       0x0800d4c8   Section        0  motor.o(.text.uint_to_float)
    [Anonymous Symbol]                       0x0800d520   Section        0  list.o(.text.uxListRemove)
    [Anonymous Symbol]                       0x0800d568   Section        0  freertos.o(.text.vApplicationGetIdleTaskMemory)
    [Anonymous Symbol]                       0x0800d598   Section        0  list.o(.text.vListInitialise)
    [Anonymous Symbol]                       0x0800d5c8   Section        0  list.o(.text.vListInitialiseItem)
    [Anonymous Symbol]                       0x0800d5d8   Section        0  list.o(.text.vListInsert)
    [Anonymous Symbol]                       0x0800d648   Section        0  list.o(.text.vListInsertEnd)
    vPortEnableVFP                           0x0800d689   Thumb Code    14  port.o(.text.vPortEnableVFP)
    [Anonymous Symbol]                       0x0800d688   Section        0  port.o(.text.vPortEnableVFP)
    [Anonymous Symbol]                       0x0800d6a0   Section        0  port.o(.text.vPortEnterCritical)
    [Anonymous Symbol]                       0x0800d6f8   Section        0  port.o(.text.vPortExitCritical)
    [Anonymous Symbol]                       0x0800d748   Section        0  heap_4.o(.text.vPortFree)
    [Anonymous Symbol]                       0x0800d818   Section        0  port.o(.text.vPortSetupTimerInterrupt)
    [Anonymous Symbol]                       0x0800d860   Section        0  port.o(.text.vPortValidateInterruptPriority)
    [Anonymous Symbol]                       0x0800d8e8   Section        0  tasks.o(.text.vTaskDelay)
    [Anonymous Symbol]                       0x0800d958   Section        0  tasks.o(.text.vTaskStartScheduler)
    [Anonymous Symbol]                       0x0800da28   Section        0  tasks.o(.text.vTaskSuspendAll)
    [Anonymous Symbol]                       0x0800da38   Section        0  tasks.o(.text.vTaskSwitchContext)
    [Anonymous Symbol]                       0x0800daf8   Section        0  port.o(.text.xPortStartScheduler)
    [Anonymous Symbol]                       0x0800dc50   Section        0  tasks.o(.text.xTaskCreate)
    [Anonymous Symbol]                       0x0800dcf0   Section        0  tasks.o(.text.xTaskCreateStatic)
    [Anonymous Symbol]                       0x0800ddc0   Section        0  tasks.o(.text.xTaskGetTickCount)
    [Anonymous Symbol]                       0x0800ddd8   Section        0  tasks.o(.text.xTaskGetTickCountFromISR)
    [Anonymous Symbol]                       0x0800ddf8   Section        0  tasks.o(.text.xTaskIncrementTick)
    [Anonymous Symbol]                       0x0800dfb0   Section        0  tasks.o(.text.xTaskResumeAll)
    i.__ARM_fpclassify                       0x0800e128   Section        0  fpclassify.o(i.__ARM_fpclassify)
    i.__hardfp_atan                          0x0800e158   Section        0  atan.o(i.__hardfp_atan)
    i.__hardfp_atan2                         0x0800e330   Section        0  atan2.o(i.__hardfp_atan2)
    i.__hardfp_sqrtf                         0x0800e4f8   Section        0  sqrtf.o(i.__hardfp_sqrtf)
    i.__kernel_poly                          0x0800e532   Section        0  poly.o(i.__kernel_poly)
    i.__mathlib_dbl_infnan                   0x0800e5a2   Section        0  dunder.o(i.__mathlib_dbl_infnan)
    i.__mathlib_dbl_infnan2                  0x0800e5a8   Section        0  dunder.o(i.__mathlib_dbl_infnan2)
    i.__mathlib_dbl_underflow                0x0800e5b0   Section        0  dunder.o(i.__mathlib_dbl_underflow)
    i.atan                                   0x0800e5c8   Section        0  atan.o(i.atan)
    i.fabs                                   0x0800e5d8   Section        0  fabs.o(i.fabs)
    $v0                                      0x0800e5f0   Number         0  fpinit.o(x$fpl$fpinit)
    x$fpl$fpinit                             0x0800e5f0   Section       26  fpinit.o(x$fpl$fpinit)
    x$fpl$usenofp                            0x0800e60a   Section        0  usenofp.o(x$fpl$usenofp)
    atanhi                                   0x0800e610   Data          32  atan.o(.constdata)
    .constdata                               0x0800e610   Section      152  atan.o(.constdata)
    atanlo                                   0x0800e630   Data          32  atan.o(.constdata)
    aTodd                                    0x0800e650   Data          40  atan.o(.constdata)
    aTeven                                   0x0800e678   Data          48  atan.o(.constdata)
    .constdata                               0x0800e6a8   Section        8  qnan.o(.constdata)
    .L__const.HAL_FDCAN_Init.CvtEltSize      0x0800e6b0   Data          76  stm32h7xx_hal_fdcan.o(.rodata..L__const.HAL_FDCAN_Init.CvtEltSize)
    .L__const.MX_FREERTOS_Init.os_thread_def_NCAN_Task 0x0800e6fc   Data          28  freertos.o(.rodata..L__const.MX_FREERTOS_Init.os_thread_def_NCAN_Task)
    .L__const.MX_FREERTOS_Init.os_thread_def_NControl_Task 0x0800e718   Data          28  freertos.o(.rodata..L__const.MX_FREERTOS_Init.os_thread_def_NControl_Task)
    DLCtoBytes                               0x0800e744   Data          16  stm32h7xx_hal_fdcan.o(.rodata.DLCtoBytes)
    [Anonymous Symbol]                       0x0800e744   Section        0  stm32h7xx_hal_fdcan.o(.rodata.DLCtoBytes)
    DMA_CalcBaseAndBitshift.flagBitshiftOffset 0x0800e754   Data           8  stm32h7xx_hal_dma.o(.rodata.DMA_CalcBaseAndBitshift.flagBitshiftOffset)
    [Anonymous Symbol]                       0x0800e754   Section        0  stm32h7xx_hal_dma.o(.rodata.DMA_CalcBaseAndBitshift.flagBitshiftOffset)
    UARTEx_SetNbDataToProcess.denominator    0x0800e75c   Data           8  stm32h7xx_hal_uart_ex.o(.rodata.UARTEx_SetNbDataToProcess.denominator)
    [Anonymous Symbol]                       0x0800e75c   Section        0  stm32h7xx_hal_uart_ex.o(.rodata.UARTEx_SetNbDataToProcess.denominator)
    UARTEx_SetNbDataToProcess.numerator      0x0800e764   Data           8  stm32h7xx_hal_uart_ex.o(.rodata.UARTEx_SetNbDataToProcess.numerator)
    [Anonymous Symbol]                       0x0800e764   Section        0  stm32h7xx_hal_uart_ex.o(.rodata.UARTEx_SetNbDataToProcess.numerator)
    [Anonymous Symbol]                       0x0800ef88   Section        0  freertos.o(.rodata.str1.1)
    .L.str                                   0x0800efa0   Data           5  tasks.o(.rodata.str1.1)
    [Anonymous Symbol]                       0x0800efa0   Section        0  tasks.o(.rodata.str1.1)
    uxCriticalNesting                        0x24000208   Data           4  port.o(.data.uxCriticalNesting)
    [Anonymous Symbol]                       0x24000208   Section        0  port.o(.data.uxCriticalNesting)
    .bss                                     0x24000210   Section       96  libspace.o(.bss)
    HAL_RCC_FDCAN_CLK_ENABLED                0x24000330   Data           4  fdcan.o(.bss.HAL_RCC_FDCAN_CLK_ENABLED)
    [Anonymous Symbol]                       0x24000330   Section        0  fdcan.o(.bss.HAL_RCC_FDCAN_CLK_ENABLED)
    pxDelayedTaskList                        0x24000600   Data           4  tasks.o(.bss.pxDelayedTaskList)
    [Anonymous Symbol]                       0x24000600   Section        0  tasks.o(.bss.pxDelayedTaskList)
    pxEnd                                    0x24000604   Data           4  heap_4.o(.bss.pxEnd)
    [Anonymous Symbol]                       0x24000604   Section        0  heap_4.o(.bss.pxEnd)
    pxOverflowDelayedTaskList                0x24000608   Data           4  tasks.o(.bss.pxOverflowDelayedTaskList)
    [Anonymous Symbol]                       0x24000608   Section        0  tasks.o(.bss.pxOverflowDelayedTaskList)
    pxReadyTasksLists                        0x2400060c   Data         140  tasks.o(.bss.pxReadyTasksLists)
    [Anonymous Symbol]                       0x2400060c   Section        0  tasks.o(.bss.pxReadyTasksLists)
    ucHeap                                   0x24000698   Data       15360  heap_4.o(.bss.ucHeap)
    [Anonymous Symbol]                       0x24000698   Section        0  heap_4.o(.bss.ucHeap)
    ucMaxSysCallPriority                     0x24004298   Data           1  port.o(.bss.ucMaxSysCallPriority)
    [Anonymous Symbol]                       0x24004298   Section        0  port.o(.bss.ucMaxSysCallPriority)
    ulMaxPRIGROUPValue                       0x2400429c   Data           4  port.o(.bss.ulMaxPRIGROUPValue)
    [Anonymous Symbol]                       0x2400429c   Section        0  port.o(.bss.ulMaxPRIGROUPValue)
    uxCurrentNumberOfTasks                   0x240042a4   Data           4  tasks.o(.bss.uxCurrentNumberOfTasks)
    [Anonymous Symbol]                       0x240042a4   Section        0  tasks.o(.bss.uxCurrentNumberOfTasks)
    uxDeletedTasksWaitingCleanUp             0x240042a8   Data           4  tasks.o(.bss.uxDeletedTasksWaitingCleanUp)
    [Anonymous Symbol]                       0x240042a8   Section        0  tasks.o(.bss.uxDeletedTasksWaitingCleanUp)
    uxSchedulerSuspended                     0x240042ac   Data           4  tasks.o(.bss.uxSchedulerSuspended)
    [Anonymous Symbol]                       0x240042ac   Section        0  tasks.o(.bss.uxSchedulerSuspended)
    uxTaskNumber                             0x240042b0   Data           4  tasks.o(.bss.uxTaskNumber)
    [Anonymous Symbol]                       0x240042b0   Section        0  tasks.o(.bss.uxTaskNumber)
    uxTopReadyPriority                       0x240042b4   Data           4  tasks.o(.bss.uxTopReadyPriority)
    [Anonymous Symbol]                       0x240042b4   Section        0  tasks.o(.bss.uxTopReadyPriority)
    xBlockAllocatedBit                       0x240042b8   Data           4  heap_4.o(.bss.xBlockAllocatedBit)
    [Anonymous Symbol]                       0x240042b8   Section        0  heap_4.o(.bss.xBlockAllocatedBit)
    xDelayedTaskList1                        0x240042bc   Data          20  tasks.o(.bss.xDelayedTaskList1)
    [Anonymous Symbol]                       0x240042bc   Section        0  tasks.o(.bss.xDelayedTaskList1)
    xDelayedTaskList2                        0x240042d0   Data          20  tasks.o(.bss.xDelayedTaskList2)
    [Anonymous Symbol]                       0x240042d0   Section        0  tasks.o(.bss.xDelayedTaskList2)
    xFreeBytesRemaining                      0x240042e4   Data           4  heap_4.o(.bss.xFreeBytesRemaining)
    [Anonymous Symbol]                       0x240042e4   Section        0  heap_4.o(.bss.xFreeBytesRemaining)
    xIdleStack                               0x240042e8   Data         512  freertos.o(.bss.xIdleStack)
    [Anonymous Symbol]                       0x240042e8   Section        0  freertos.o(.bss.xIdleStack)
    xIdleTaskHandle                          0x240044e8   Data           4  tasks.o(.bss.xIdleTaskHandle)
    [Anonymous Symbol]                       0x240044e8   Section        0  tasks.o(.bss.xIdleTaskHandle)
    xIdleTaskTCBBuffer                       0x240044ec   Data          84  freertos.o(.bss.xIdleTaskTCBBuffer)
    [Anonymous Symbol]                       0x240044ec   Section        0  freertos.o(.bss.xIdleTaskTCBBuffer)
    xMinimumEverFreeBytesRemaining           0x24004540   Data           4  heap_4.o(.bss.xMinimumEverFreeBytesRemaining)
    [Anonymous Symbol]                       0x24004540   Section        0  heap_4.o(.bss.xMinimumEverFreeBytesRemaining)
    xNextTaskUnblockTime                     0x24004544   Data           4  tasks.o(.bss.xNextTaskUnblockTime)
    [Anonymous Symbol]                       0x24004544   Section        0  tasks.o(.bss.xNextTaskUnblockTime)
    xNumOfOverflows                          0x24004548   Data           4  tasks.o(.bss.xNumOfOverflows)
    [Anonymous Symbol]                       0x24004548   Section        0  tasks.o(.bss.xNumOfOverflows)
    xNumberOfSuccessfulAllocations           0x2400454c   Data           4  heap_4.o(.bss.xNumberOfSuccessfulAllocations)
    [Anonymous Symbol]                       0x2400454c   Section        0  heap_4.o(.bss.xNumberOfSuccessfulAllocations)
    xNumberOfSuccessfulFrees                 0x24004550   Data           4  heap_4.o(.bss.xNumberOfSuccessfulFrees)
    [Anonymous Symbol]                       0x24004550   Section        0  heap_4.o(.bss.xNumberOfSuccessfulFrees)
    xPendedTicks                             0x24004554   Data           4  tasks.o(.bss.xPendedTicks)
    [Anonymous Symbol]                       0x24004554   Section        0  tasks.o(.bss.xPendedTicks)
    xPendingReadyList                        0x24004558   Data          20  tasks.o(.bss.xPendingReadyList)
    [Anonymous Symbol]                       0x24004558   Section        0  tasks.o(.bss.xPendingReadyList)
    xSchedulerRunning                        0x2400456c   Data           4  tasks.o(.bss.xSchedulerRunning)
    [Anonymous Symbol]                       0x2400456c   Section        0  tasks.o(.bss.xSchedulerRunning)
    xStart                                   0x24004570   Data           8  heap_4.o(.bss.xStart)
    [Anonymous Symbol]                       0x24004570   Section        0  heap_4.o(.bss.xStart)
    xSuspendedTaskList                       0x24004578   Data          20  tasks.o(.bss.xSuspendedTaskList)
    [Anonymous Symbol]                       0x24004578   Section        0  tasks.o(.bss.xSuspendedTaskList)
    xTasksWaitingTermination                 0x2400458c   Data          20  tasks.o(.bss.xTasksWaitingTermination)
    [Anonymous Symbol]                       0x2400458c   Section        0  tasks.o(.bss.xTasksWaitingTermination)
    xTickCount                               0x240045a0   Data           4  tasks.o(.bss.xTickCount)
    [Anonymous Symbol]                       0x240045a0   Section        0  tasks.o(.bss.xTickCount)
    xYieldPending                            0x240045a4   Data           4  tasks.o(.bss.xYieldPending)
    [Anonymous Symbol]                       0x240045a4   Section        0  tasks.o(.bss.xYieldPending)
    Heap_Mem                                 0x240045a8   Data        8192  startup_stm32h723xx.o(HEAP)
    HEAP                                     0x240045a8   Section     8192  startup_stm32h723xx.o(HEAP)
    Stack_Mem                                0x240065a8   Data       16384  startup_stm32h723xx.o(STACK)
    STACK                                    0x240065a8   Section    16384  startup_stm32h723xx.o(STACK)
    __initial_sp                             0x2400a5a8   Data           0  startup_stm32h723xx.o(STACK)

    Global Symbols

    Symbol Name                              Value     Ov Type        Size  Object(Section)

    BuildAttributes$$THM_ISAv4$E$P$D$K$B$S$7EM$VFPv5_D16$PE$PLD8$A:L22UL41UL21$X:L11$S22US41US21$IEEE1$IW$~IW$USESV6$~STKCKD$USESV7$~SHL$OTIME$ROPI$IEEEX$EBA8$UX$STANDARDLIB$REQ8$PRES8$EABIv2 0x00000000   Number         0  anon$$obj.o ABSOLUTE
    __ARM_exceptions_init                     - Undefined Weak Reference
    __alloca_initialize                       - Undefined Weak Reference
    __arm_preinit_                            - Undefined Weak Reference
    __cpp_initialize__aeabi_                  - Undefined Weak Reference
    __cxa_finalize                            - Undefined Weak Reference
    __rt_locale                               - Undefined Weak Reference
    __sigvec_lookup                           - Undefined Weak Reference
    _atexit_init                              - Undefined Weak Reference
    _call_atexit_fns                          - Undefined Weak Reference
    _clock_init                               - Undefined Weak Reference
    _fp_trap_init                             - Undefined Weak Reference
    _fp_trap_shutdown                         - Undefined Weak Reference
    _get_lc_collate                           - Undefined Weak Reference
    _get_lc_ctype                             - Undefined Weak Reference
    _get_lc_monetary                          - Undefined Weak Reference
    _get_lc_numeric                           - Undefined Weak Reference
    _get_lc_time                              - Undefined Weak Reference
    _getenv_init                              - Undefined Weak Reference
    _handle_redirection                       - Undefined Weak Reference
    _init_alloc                               - Undefined Weak Reference
    _init_user_alloc                          - Undefined Weak Reference
    _initio                                   - Undefined Weak Reference
    _rand_init                                - Undefined Weak Reference
    _signal_finish                            - Undefined Weak Reference
    _signal_init                              - Undefined Weak Reference
    _terminate_alloc                          - Undefined Weak Reference
    _terminate_user_alloc                     - Undefined Weak Reference
    _terminateio                              - Undefined Weak Reference
    __Vectors_Size                           0x000002cc   Number         0  startup_stm32h723xx.o ABSOLUTE
    __Vectors                                0x08000000   Data           4  startup_stm32h723xx.o(RESET)
    __Vectors_End                            0x080002cc   Data           0  startup_stm32h723xx.o(RESET)
    __main                                   0x080002cd   Thumb Code     8  __main.o(!!!main)
    __scatterload                            0x080002d5   Thumb Code     0  __scatter.o(!!!scatter)
    __scatterload_rt2                        0x080002d5   Thumb Code    44  __scatter.o(!!!scatter)
    __scatterload_rt2_thumb_only             0x080002d5   Thumb Code     0  __scatter.o(!!!scatter)
    __scatterload_null                       0x080002e3   Thumb Code     0  __scatter.o(!!!scatter)
    __decompress                             0x08000309   Thumb Code    58  __dczerorl.o(!!dczerorl)
    __decompress0                            0x08000309   Thumb Code     0  __dczerorl.o(!!dczerorl)
    __scatterload_zeroinit                   0x08000345   Thumb Code    28  __scatter_zi.o(!!handler_zi)
    __rt_lib_init                            0x08000361   Thumb Code     0  libinit.o(.ARM.Collect$$libinit$$00000000)
    __rt_lib_init_fp_1                       0x08000363   Thumb Code     0  libinit2.o(.ARM.Collect$$libinit$$00000001)
    __rt_lib_init_alloca_1                   0x08000367   Thumb Code     0  libinit2.o(.ARM.Collect$$libinit$$0000002E)
    __rt_lib_init_argv_1                     0x08000367   Thumb Code     0  libinit2.o(.ARM.Collect$$libinit$$0000002C)
    __rt_lib_init_atexit_1                   0x08000367   Thumb Code     0  libinit2.o(.ARM.Collect$$libinit$$0000001B)
    __rt_lib_init_clock_1                    0x08000367   Thumb Code     0  libinit2.o(.ARM.Collect$$libinit$$00000021)
    __rt_lib_init_cpp_1                      0x08000367   Thumb Code     0  libinit2.o(.ARM.Collect$$libinit$$00000032)
    __rt_lib_init_exceptions_1               0x08000367   Thumb Code     0  libinit2.o(.ARM.Collect$$libinit$$00000030)
    __rt_lib_init_fp_trap_1                  0x08000367   Thumb Code     0  libinit2.o(.ARM.Collect$$libinit$$0000001F)
    __rt_lib_init_getenv_1                   0x08000367   Thumb Code     0  libinit2.o(.ARM.Collect$$libinit$$00000023)
    __rt_lib_init_heap_1                     0x08000367   Thumb Code     0  libinit2.o(.ARM.Collect$$libinit$$0000000A)
    __rt_lib_init_lc_collate_1               0x08000367   Thumb Code     0  libinit2.o(.ARM.Collect$$libinit$$00000011)
    __rt_lib_init_lc_ctype_1                 0x08000367   Thumb Code     0  libinit2.o(.ARM.Collect$$libinit$$00000013)
    __rt_lib_init_lc_monetary_1              0x08000367   Thumb Code     0  libinit2.o(.ARM.Collect$$libinit$$00000015)
    __rt_lib_init_lc_numeric_1               0x08000367   Thumb Code     0  libinit2.o(.ARM.Collect$$libinit$$00000017)
    __rt_lib_init_lc_time_1                  0x08000367   Thumb Code     0  libinit2.o(.ARM.Collect$$libinit$$00000019)
    __rt_lib_init_preinit_1                  0x08000367   Thumb Code     0  libinit2.o(.ARM.Collect$$libinit$$00000004)
    __rt_lib_init_rand_1                     0x08000367   Thumb Code     0  libinit2.o(.ARM.Collect$$libinit$$0000000E)
    __rt_lib_init_return                     0x08000367   Thumb Code     0  libinit2.o(.ARM.Collect$$libinit$$00000033)
    __rt_lib_init_signal_1                   0x08000367   Thumb Code     0  libinit2.o(.ARM.Collect$$libinit$$0000001D)
    __rt_lib_init_stdio_1                    0x08000367   Thumb Code     0  libinit2.o(.ARM.Collect$$libinit$$00000025)
    __rt_lib_init_user_alloc_1               0x08000367   Thumb Code     0  libinit2.o(.ARM.Collect$$libinit$$0000000C)
    __rt_lib_shutdown                        0x08000369   Thumb Code     0  libshutdown.o(.ARM.Collect$$libshutdown$$00000000)
    __rt_lib_shutdown_cpp_1                  0x0800036b   Thumb Code     0  libshutdown2.o(.ARM.Collect$$libshutdown$$00000002)
    __rt_lib_shutdown_fp_trap_1              0x0800036b   Thumb Code     0  libshutdown2.o(.ARM.Collect$$libshutdown$$00000007)
    __rt_lib_shutdown_heap_1                 0x0800036b   Thumb Code     0  libshutdown2.o(.ARM.Collect$$libshutdown$$0000000F)
    __rt_lib_shutdown_return                 0x0800036b   Thumb Code     0  libshutdown2.o(.ARM.Collect$$libshutdown$$00000010)
    __rt_lib_shutdown_signal_1               0x0800036b   Thumb Code     0  libshutdown2.o(.ARM.Collect$$libshutdown$$0000000A)
    __rt_lib_shutdown_stdio_1                0x0800036b   Thumb Code     0  libshutdown2.o(.ARM.Collect$$libshutdown$$00000004)
    __rt_lib_shutdown_user_alloc_1           0x0800036b   Thumb Code     0  libshutdown2.o(.ARM.Collect$$libshutdown$$0000000C)
    __rt_entry                               0x0800036d   Thumb Code     0  __rtentry.o(.ARM.Collect$$rtentry$$00000000)
    __rt_entry_presh_1                       0x0800036d   Thumb Code     0  __rtentry2.o(.ARM.Collect$$rtentry$$00000002)
    __rt_entry_sh                            0x0800036d   Thumb Code     0  __rtentry4.o(.ARM.Collect$$rtentry$$00000004)
    __rt_entry_li                            0x08000373   Thumb Code     0  __rtentry2.o(.ARM.Collect$$rtentry$$0000000A)
    __rt_entry_postsh_1                      0x08000373   Thumb Code     0  __rtentry2.o(.ARM.Collect$$rtentry$$00000009)
    __rt_entry_main                          0x08000377   Thumb Code     0  __rtentry2.o(.ARM.Collect$$rtentry$$0000000D)
    __rt_entry_postli_1                      0x08000377   Thumb Code     0  __rtentry2.o(.ARM.Collect$$rtentry$$0000000C)
    __rt_exit                                0x0800037f   Thumb Code     0  rtexit.o(.ARM.Collect$$rtexit$$00000000)
    __rt_exit_ls                             0x08000381   Thumb Code     0  rtexit2.o(.ARM.Collect$$rtexit$$00000003)
    __rt_exit_prels_1                        0x08000381   Thumb Code     0  rtexit2.o(.ARM.Collect$$rtexit$$00000002)
    __rt_exit_exit                           0x08000385   Thumb Code     0  rtexit2.o(.ARM.Collect$$rtexit$$00000004)
    Reset_Handler                            0x0800038d   Thumb Code     8  startup_stm32h723xx.o(.text)
    ADC3_IRQHandler                          0x080003a7   Thumb Code     0  startup_stm32h723xx.o(.text)
    ADC_IRQHandler                           0x080003a7   Thumb Code     0  startup_stm32h723xx.o(.text)
    BDMA_Channel0_IRQHandler                 0x080003a7   Thumb Code     0  startup_stm32h723xx.o(.text)
    BDMA_Channel1_IRQHandler                 0x080003a7   Thumb Code     0  startup_stm32h723xx.o(.text)
    BDMA_Channel2_IRQHandler                 0x080003a7   Thumb Code     0  startup_stm32h723xx.o(.text)
    BDMA_Channel3_IRQHandler                 0x080003a7   Thumb Code     0  startup_stm32h723xx.o(.text)
    BDMA_Channel4_IRQHandler                 0x080003a7   Thumb Code     0  startup_stm32h723xx.o(.text)
    BDMA_Channel5_IRQHandler                 0x080003a7   Thumb Code     0  startup_stm32h723xx.o(.text)
    BDMA_Channel6_IRQHandler                 0x080003a7   Thumb Code     0  startup_stm32h723xx.o(.text)
    BDMA_Channel7_IRQHandler                 0x080003a7   Thumb Code     0  startup_stm32h723xx.o(.text)
    CEC_IRQHandler                           0x080003a7   Thumb Code     0  startup_stm32h723xx.o(.text)
    COMP1_IRQHandler                         0x080003a7   Thumb Code     0  startup_stm32h723xx.o(.text)
    CORDIC_IRQHandler                        0x080003a7   Thumb Code     0  startup_stm32h723xx.o(.text)
    CRS_IRQHandler                           0x080003a7   Thumb Code     0  startup_stm32h723xx.o(.text)
    DCMI_PSSI_IRQHandler                     0x080003a7   Thumb Code     0  startup_stm32h723xx.o(.text)
    DFSDM1_FLT0_IRQHandler                   0x080003a7   Thumb Code     0  startup_stm32h723xx.o(.text)
    DFSDM1_FLT1_IRQHandler                   0x080003a7   Thumb Code     0  startup_stm32h723xx.o(.text)
    DFSDM1_FLT2_IRQHandler                   0x080003a7   Thumb Code     0  startup_stm32h723xx.o(.text)
    DFSDM1_FLT3_IRQHandler                   0x080003a7   Thumb Code     0  startup_stm32h723xx.o(.text)
    DMA1_Stream1_IRQHandler                  0x080003a7   Thumb Code     0  startup_stm32h723xx.o(.text)
    DMA1_Stream2_IRQHandler                  0x080003a7   Thumb Code     0  startup_stm32h723xx.o(.text)
    DMA1_Stream3_IRQHandler                  0x080003a7   Thumb Code     0  startup_stm32h723xx.o(.text)
    DMA1_Stream4_IRQHandler                  0x080003a7   Thumb Code     0  startup_stm32h723xx.o(.text)
    DMA1_Stream5_IRQHandler                  0x080003a7   Thumb Code     0  startup_stm32h723xx.o(.text)
    DMA1_Stream6_IRQHandler                  0x080003a7   Thumb Code     0  startup_stm32h723xx.o(.text)
    DMA1_Stream7_IRQHandler                  0x080003a7   Thumb Code     0  startup_stm32h723xx.o(.text)
    DMA2D_IRQHandler                         0x080003a7   Thumb Code     0  startup_stm32h723xx.o(.text)
    DMA2_Stream0_IRQHandler                  0x080003a7   Thumb Code     0  startup_stm32h723xx.o(.text)
    DMA2_Stream1_IRQHandler                  0x080003a7   Thumb Code     0  startup_stm32h723xx.o(.text)
    DMA2_Stream2_IRQHandler                  0x080003a7   Thumb Code     0  startup_stm32h723xx.o(.text)
    DMA2_Stream3_IRQHandler                  0x080003a7   Thumb Code     0  startup_stm32h723xx.o(.text)
    DMA2_Stream4_IRQHandler                  0x080003a7   Thumb Code     0  startup_stm32h723xx.o(.text)
    DMA2_Stream5_IRQHandler                  0x080003a7   Thumb Code     0  startup_stm32h723xx.o(.text)
    DMA2_Stream6_IRQHandler                  0x080003a7   Thumb Code     0  startup_stm32h723xx.o(.text)
    DMA2_Stream7_IRQHandler                  0x080003a7   Thumb Code     0  startup_stm32h723xx.o(.text)
    DMAMUX1_OVR_IRQHandler                   0x080003a7   Thumb Code     0  startup_stm32h723xx.o(.text)
    DMAMUX2_OVR_IRQHandler                   0x080003a7   Thumb Code     0  startup_stm32h723xx.o(.text)
    DTS_IRQHandler                           0x080003a7   Thumb Code     0  startup_stm32h723xx.o(.text)
    ECC_IRQHandler                           0x080003a7   Thumb Code     0  startup_stm32h723xx.o(.text)
    ETH_IRQHandler                           0x080003a7   Thumb Code     0  startup_stm32h723xx.o(.text)
    ETH_WKUP_IRQHandler                      0x080003a7   Thumb Code     0  startup_stm32h723xx.o(.text)
    EXTI0_IRQHandler                         0x080003a7   Thumb Code     0  startup_stm32h723xx.o(.text)
    EXTI15_10_IRQHandler                     0x080003a7   Thumb Code     0  startup_stm32h723xx.o(.text)
    EXTI1_IRQHandler                         0x080003a7   Thumb Code     0  startup_stm32h723xx.o(.text)
    EXTI2_IRQHandler                         0x080003a7   Thumb Code     0  startup_stm32h723xx.o(.text)
    EXTI3_IRQHandler                         0x080003a7   Thumb Code     0  startup_stm32h723xx.o(.text)
    EXTI4_IRQHandler                         0x080003a7   Thumb Code     0  startup_stm32h723xx.o(.text)
    EXTI9_5_IRQHandler                       0x080003a7   Thumb Code     0  startup_stm32h723xx.o(.text)
    FDCAN1_IT1_IRQHandler                    0x080003a7   Thumb Code     0  startup_stm32h723xx.o(.text)
    FDCAN2_IT1_IRQHandler                    0x080003a7   Thumb Code     0  startup_stm32h723xx.o(.text)
    FDCAN3_IT0_IRQHandler                    0x080003a7   Thumb Code     0  startup_stm32h723xx.o(.text)
    FDCAN3_IT1_IRQHandler                    0x080003a7   Thumb Code     0  startup_stm32h723xx.o(.text)
    FDCAN_CAL_IRQHandler                     0x080003a7   Thumb Code     0  startup_stm32h723xx.o(.text)
    FLASH_IRQHandler                         0x080003a7   Thumb Code     0  startup_stm32h723xx.o(.text)
    FMAC_IRQHandler                          0x080003a7   Thumb Code     0  startup_stm32h723xx.o(.text)
    FMC_IRQHandler                           0x080003a7   Thumb Code     0  startup_stm32h723xx.o(.text)
    FPU_IRQHandler                           0x080003a7   Thumb Code     0  startup_stm32h723xx.o(.text)
    HSEM1_IRQHandler                         0x080003a7   Thumb Code     0  startup_stm32h723xx.o(.text)
    I2C1_ER_IRQHandler                       0x080003a7   Thumb Code     0  startup_stm32h723xx.o(.text)
    I2C1_EV_IRQHandler                       0x080003a7   Thumb Code     0  startup_stm32h723xx.o(.text)
    I2C2_ER_IRQHandler                       0x080003a7   Thumb Code     0  startup_stm32h723xx.o(.text)
    I2C2_EV_IRQHandler                       0x080003a7   Thumb Code     0  startup_stm32h723xx.o(.text)
    I2C3_ER_IRQHandler                       0x080003a7   Thumb Code     0  startup_stm32h723xx.o(.text)
    I2C3_EV_IRQHandler                       0x080003a7   Thumb Code     0  startup_stm32h723xx.o(.text)
    I2C4_ER_IRQHandler                       0x080003a7   Thumb Code     0  startup_stm32h723xx.o(.text)
    I2C4_EV_IRQHandler                       0x080003a7   Thumb Code     0  startup_stm32h723xx.o(.text)
    I2C5_ER_IRQHandler                       0x080003a7   Thumb Code     0  startup_stm32h723xx.o(.text)
    I2C5_EV_IRQHandler                       0x080003a7   Thumb Code     0  startup_stm32h723xx.o(.text)
    LPTIM1_IRQHandler                        0x080003a7   Thumb Code     0  startup_stm32h723xx.o(.text)
    LPTIM2_IRQHandler                        0x080003a7   Thumb Code     0  startup_stm32h723xx.o(.text)
    LPTIM3_IRQHandler                        0x080003a7   Thumb Code     0  startup_stm32h723xx.o(.text)
    LPTIM4_IRQHandler                        0x080003a7   Thumb Code     0  startup_stm32h723xx.o(.text)
    LPTIM5_IRQHandler                        0x080003a7   Thumb Code     0  startup_stm32h723xx.o(.text)
    LPUART1_IRQHandler                       0x080003a7   Thumb Code     0  startup_stm32h723xx.o(.text)
    LTDC_ER_IRQHandler                       0x080003a7   Thumb Code     0  startup_stm32h723xx.o(.text)
    LTDC_IRQHandler                          0x080003a7   Thumb Code     0  startup_stm32h723xx.o(.text)
    MDIOS_IRQHandler                         0x080003a7   Thumb Code     0  startup_stm32h723xx.o(.text)
    MDIOS_WKUP_IRQHandler                    0x080003a7   Thumb Code     0  startup_stm32h723xx.o(.text)
    MDMA_IRQHandler                          0x080003a7   Thumb Code     0  startup_stm32h723xx.o(.text)
    OCTOSPI1_IRQHandler                      0x080003a7   Thumb Code     0  startup_stm32h723xx.o(.text)
    OCTOSPI2_IRQHandler                      0x080003a7   Thumb Code     0  startup_stm32h723xx.o(.text)
    OTG_HS_EP1_IN_IRQHandler                 0x080003a7   Thumb Code     0  startup_stm32h723xx.o(.text)
    OTG_HS_EP1_OUT_IRQHandler                0x080003a7   Thumb Code     0  startup_stm32h723xx.o(.text)
    OTG_HS_IRQHandler                        0x080003a7   Thumb Code     0  startup_stm32h723xx.o(.text)
    OTG_HS_WKUP_IRQHandler                   0x080003a7   Thumb Code     0  startup_stm32h723xx.o(.text)
    PVD_AVD_IRQHandler                       0x080003a7   Thumb Code     0  startup_stm32h723xx.o(.text)
    RCC_IRQHandler                           0x080003a7   Thumb Code     0  startup_stm32h723xx.o(.text)
    RNG_IRQHandler                           0x080003a7   Thumb Code     0  startup_stm32h723xx.o(.text)
    RTC_Alarm_IRQHandler                     0x080003a7   Thumb Code     0  startup_stm32h723xx.o(.text)
    RTC_WKUP_IRQHandler                      0x080003a7   Thumb Code     0  startup_stm32h723xx.o(.text)
    SAI1_IRQHandler                          0x080003a7   Thumb Code     0  startup_stm32h723xx.o(.text)
    SAI4_IRQHandler                          0x080003a7   Thumb Code     0  startup_stm32h723xx.o(.text)
    SDMMC1_IRQHandler                        0x080003a7   Thumb Code     0  startup_stm32h723xx.o(.text)
    SDMMC2_IRQHandler                        0x080003a7   Thumb Code     0  startup_stm32h723xx.o(.text)
    SPDIF_RX_IRQHandler                      0x080003a7   Thumb Code     0  startup_stm32h723xx.o(.text)
    SPI1_IRQHandler                          0x080003a7   Thumb Code     0  startup_stm32h723xx.o(.text)
    SPI2_IRQHandler                          0x080003a7   Thumb Code     0  startup_stm32h723xx.o(.text)
    SPI3_IRQHandler                          0x080003a7   Thumb Code     0  startup_stm32h723xx.o(.text)
    SPI4_IRQHandler                          0x080003a7   Thumb Code     0  startup_stm32h723xx.o(.text)
    SPI5_IRQHandler                          0x080003a7   Thumb Code     0  startup_stm32h723xx.o(.text)
    SPI6_IRQHandler                          0x080003a7   Thumb Code     0  startup_stm32h723xx.o(.text)
    SWPMI1_IRQHandler                        0x080003a7   Thumb Code     0  startup_stm32h723xx.o(.text)
    TAMP_STAMP_IRQHandler                    0x080003a7   Thumb Code     0  startup_stm32h723xx.o(.text)
    TIM15_IRQHandler                         0x080003a7   Thumb Code     0  startup_stm32h723xx.o(.text)
    TIM16_IRQHandler                         0x080003a7   Thumb Code     0  startup_stm32h723xx.o(.text)
    TIM17_IRQHandler                         0x080003a7   Thumb Code     0  startup_stm32h723xx.o(.text)
    TIM1_BRK_IRQHandler                      0x080003a7   Thumb Code     0  startup_stm32h723xx.o(.text)
    TIM1_CC_IRQHandler                       0x080003a7   Thumb Code     0  startup_stm32h723xx.o(.text)
    TIM1_TRG_COM_IRQHandler                  0x080003a7   Thumb Code     0  startup_stm32h723xx.o(.text)
    TIM1_UP_IRQHandler                       0x080003a7   Thumb Code     0  startup_stm32h723xx.o(.text)
    TIM23_IRQHandler                         0x080003a7   Thumb Code     0  startup_stm32h723xx.o(.text)
    TIM24_IRQHandler                         0x080003a7   Thumb Code     0  startup_stm32h723xx.o(.text)
    TIM3_IRQHandler                          0x080003a7   Thumb Code     0  startup_stm32h723xx.o(.text)
    TIM4_IRQHandler                          0x080003a7   Thumb Code     0  startup_stm32h723xx.o(.text)
    TIM5_IRQHandler                          0x080003a7   Thumb Code     0  startup_stm32h723xx.o(.text)
    TIM6_DAC_IRQHandler                      0x080003a7   Thumb Code     0  startup_stm32h723xx.o(.text)
    TIM7_IRQHandler                          0x080003a7   Thumb Code     0  startup_stm32h723xx.o(.text)
    TIM8_BRK_TIM12_IRQHandler                0x080003a7   Thumb Code     0  startup_stm32h723xx.o(.text)
    TIM8_CC_IRQHandler                       0x080003a7   Thumb Code     0  startup_stm32h723xx.o(.text)
    TIM8_TRG_COM_TIM14_IRQHandler            0x080003a7   Thumb Code     0  startup_stm32h723xx.o(.text)
    TIM8_UP_TIM13_IRQHandler                 0x080003a7   Thumb Code     0  startup_stm32h723xx.o(.text)
    UART4_IRQHandler                         0x080003a7   Thumb Code     0  startup_stm32h723xx.o(.text)
    UART7_IRQHandler                         0x080003a7   Thumb Code     0  startup_stm32h723xx.o(.text)
    UART8_IRQHandler                         0x080003a7   Thumb Code     0  startup_stm32h723xx.o(.text)
    UART9_IRQHandler                         0x080003a7   Thumb Code     0  startup_stm32h723xx.o(.text)
    USART10_IRQHandler                       0x080003a7   Thumb Code     0  startup_stm32h723xx.o(.text)
    USART1_IRQHandler                        0x080003a7   Thumb Code     0  startup_stm32h723xx.o(.text)
    USART2_IRQHandler                        0x080003a7   Thumb Code     0  startup_stm32h723xx.o(.text)
    USART3_IRQHandler                        0x080003a7   Thumb Code     0  startup_stm32h723xx.o(.text)
    USART6_IRQHandler                        0x080003a7   Thumb Code     0  startup_stm32h723xx.o(.text)
    WAKEUP_PIN_IRQHandler                    0x080003a7   Thumb Code     0  startup_stm32h723xx.o(.text)
    WWDG_IRQHandler                          0x080003a7   Thumb Code     0  startup_stm32h723xx.o(.text)
    __user_initial_stackheap                 0x080003a9   Thumb Code     0  startup_stm32h723xx.o(.text)
    __aeabi_uldivmod                         0x080003cd   Thumb Code     0  lludivv7m.o(.text)
    _ll_udiv                                 0x080003cd   Thumb Code   240  lludivv7m.o(.text)
    __aeabi_memcpy4                          0x080004bd   Thumb Code     0  rt_memcpy_w.o(.text)
    __aeabi_memcpy8                          0x080004bd   Thumb Code     0  rt_memcpy_w.o(.text)
    __rt_memcpy_w                            0x080004bd   Thumb Code   100  rt_memcpy_w.o(.text)
    _memcpy_lastbytes_aligned                0x08000505   Thumb Code     0  rt_memcpy_w.o(.text)
    __aeabi_memclr4                          0x08000521   Thumb Code     0  rt_memclr_w.o(.text)
    __aeabi_memclr8                          0x08000521   Thumb Code     0  rt_memclr_w.o(.text)
    __rt_memclr_w                            0x08000521   Thumb Code     0  rt_memclr_w.o(.text)
    _memset_w                                0x08000525   Thumb Code    74  rt_memclr_w.o(.text)
    __use_two_region_memory                  0x0800056f   Thumb Code     2  heapauxi.o(.text)
    __rt_heap_escrow$2region                 0x08000571   Thumb Code     2  heapauxi.o(.text)
    __rt_heap_expand$2region                 0x08000573   Thumb Code     2  heapauxi.o(.text)
    __read_errno                             0x08000575   Thumb Code    10  _rserrno.o(.text)
    __set_errno                              0x0800057f   Thumb Code    12  _rserrno.o(.text)
    __aeabi_errno_addr                       0x0800058d   Thumb Code     8  rt_errno_addr_intlibspace.o(.text)
    __errno$intlibspace                      0x0800058d   Thumb Code     0  rt_errno_addr_intlibspace.o(.text)
    __rt_errno_addr$intlibspace              0x0800058d   Thumb Code     0  rt_errno_addr_intlibspace.o(.text)
    __user_libspace                          0x08000595   Thumb Code     8  libspace.o(.text)
    __user_perproc_libspace                  0x08000595   Thumb Code     0  libspace.o(.text)
    __user_perthread_libspace                0x08000595   Thumb Code     0  libspace.o(.text)
    __user_setup_stackheap                   0x0800059d   Thumb Code    74  sys_stackheap_outer.o(.text)
    exit                                     0x080005e7   Thumb Code    18  exit.o(.text)
    _sys_exit                                0x080005f9   Thumb Code     8  sys_exit.o(.text)
    __I$use$semihosting                      0x08000605   Thumb Code     0  use_no_semi.o(.text)
    __use_no_semihosting_swi                 0x08000605   Thumb Code     2  use_no_semi.o(.text)
    __semihosting_library_function           0x08000607   Thumb Code     0  indicate_semi.o(.text)
    BSP_FDCAN_Init                           0x08000609   Thumb Code   250  bsp_can.o(.text.BSP_FDCAN_Init)
    BSP_USART_Init                           0x08000709   Thumb Code    42  bsp_uart.o(.text.BSP_USART_Init)
    BusFault_Handler                         0x08000739   Thumb Code     4  stm32h7xx_it.o(.text.BusFault_Handler)
    CAN_Task                                 0x08000741   Thumb Code   832  can_task.o(.text.CAN_Task)
    Control_Task                             0x08000a81   Thumb Code  1376  control_task.o(.text.Control_Task)
    DMA1_Stream0_IRQHandler                  0x08000fe1   Thumb Code    16  stm32h7xx_it.o(.text.DMA1_Stream0_IRQHandler)
    DM_Motor_CAN_TxMessage                   0x08001841   Thumb Code   364  motor.o(.text.DM_Motor_CAN_TxMessage)
    DM_Motor_Enable                          0x080019b1   Thumb Code    86  motor.o(.text.DM_Motor_Enable)
    DM_Motor_Info_Update                     0x08001a09   Thumb Code   276  motor.o(.text.DM_Motor_Info_Update)
    DebugMon_Handler                         0x08001b21   Thumb Code     2  stm32h7xx_it.o(.text.DebugMon_Handler)
    Error_Handler                            0x08001b29   Thumb Code    14  main.o(.text.Error_Handler)
    FDCAN1_IT0_IRQHandler                    0x08001b39   Thumb Code    16  stm32h7xx_it.o(.text.FDCAN1_IT0_IRQHandler)
    FDCAN2_IT0_IRQHandler                    0x08001bb9   Thumb Code    16  stm32h7xx_it.o(.text.FDCAN2_IT0_IRQHandler)
    HAL_DMAEx_MultiBufferStart               0x08001fb9   Thumb Code  1484  stm32h7xx_hal_dma_ex.o(.text.HAL_DMAEx_MultiBufferStart)
    HAL_DMA_Abort                            0x08002589   Thumb Code  2424  stm32h7xx_hal_dma.o(.text.HAL_DMA_Abort)
    HAL_DMA_Abort_IT                         0x08002f01   Thumb Code  1706  stm32h7xx_hal_dma.o(.text.HAL_DMA_Abort_IT)
    HAL_DMA_IRQHandler                       0x080035b1   Thumb Code  4544  stm32h7xx_hal_dma.o(.text.HAL_DMA_IRQHandler)
    HAL_DMA_Init                             0x08004771   Thumb Code  2402  stm32h7xx_hal_dma.o(.text.HAL_DMA_Init)
    HAL_FDCAN_ActivateNotification           0x080050d9   Thumb Code   254  stm32h7xx_hal_fdcan.o(.text.HAL_FDCAN_ActivateNotification)
    HAL_FDCAN_AddMessageToTxFifoQ            0x080051d9   Thumb Code   202  stm32h7xx_hal_fdcan.o(.text.HAL_FDCAN_AddMessageToTxFifoQ)
    HAL_FDCAN_ClockCalibrationCallback       0x080052a9   Thumb Code    10  stm32h7xx_hal_fdcan.o(.text.HAL_FDCAN_ClockCalibrationCallback)
    HAL_FDCAN_ConfigFilter                   0x080052b9   Thumb Code   278  stm32h7xx_hal_fdcan.o(.text.HAL_FDCAN_ConfigFilter)
    HAL_FDCAN_ConfigGlobalFilter             0x080053d1   Thumb Code    92  stm32h7xx_hal_fdcan.o(.text.HAL_FDCAN_ConfigGlobalFilter)
    HAL_FDCAN_ErrorCallback                  0x08005431   Thumb Code     8  stm32h7xx_hal_fdcan.o(.text.HAL_FDCAN_ErrorCallback)
    HAL_FDCAN_ErrorStatusCallback            0x08005439   Thumb Code    10  stm32h7xx_hal_fdcan.o(.text.HAL_FDCAN_ErrorStatusCallback)
    HAL_FDCAN_GetRxMessage                   0x08005449   Thumb Code   760  stm32h7xx_hal_fdcan.o(.text.HAL_FDCAN_GetRxMessage)
    HAL_FDCAN_HighPriorityMessageCallback    0x08005741   Thumb Code     8  stm32h7xx_hal_fdcan.o(.text.HAL_FDCAN_HighPriorityMessageCallback)
    HAL_FDCAN_IRQHandler                     0x08005749   Thumb Code  1506  stm32h7xx_hal_fdcan.o(.text.HAL_FDCAN_IRQHandler)
    HAL_FDCAN_Init                           0x08005d31   Thumb Code   992  stm32h7xx_hal_fdcan.o(.text.HAL_FDCAN_Init)
    HAL_FDCAN_MspInit                        0x08006111   Thumb Code   408  fdcan.o(.text.HAL_FDCAN_MspInit)
    HAL_FDCAN_RxBufferNewMessageCallback     0x080062a9   Thumb Code     8  stm32h7xx_hal_fdcan.o(.text.HAL_FDCAN_RxBufferNewMessageCallback)
    HAL_FDCAN_RxFifo0Callback                0x080062b1   Thumb Code    46  bsp_can.o(.text.HAL_FDCAN_RxFifo0Callback)
    HAL_FDCAN_RxFifo1Callback                0x080062e1   Thumb Code    46  bsp_can.o(.text.HAL_FDCAN_RxFifo1Callback)
    HAL_FDCAN_Start                          0x08006311   Thumb Code    80  stm32h7xx_hal_fdcan.o(.text.HAL_FDCAN_Start)
    HAL_FDCAN_TT_GlobalTimeCallback          0x08006361   Thumb Code    10  stm32h7xx_hal_fdcan.o(.text.HAL_FDCAN_TT_GlobalTimeCallback)
    HAL_FDCAN_TT_ScheduleSyncCallback        0x08006371   Thumb Code    10  stm32h7xx_hal_fdcan.o(.text.HAL_FDCAN_TT_ScheduleSyncCallback)
    HAL_FDCAN_TT_StopWatchCallback           0x08006381   Thumb Code    12  stm32h7xx_hal_fdcan.o(.text.HAL_FDCAN_TT_StopWatchCallback)
    HAL_FDCAN_TT_TimeMarkCallback            0x08006391   Thumb Code    10  stm32h7xx_hal_fdcan.o(.text.HAL_FDCAN_TT_TimeMarkCallback)
    HAL_FDCAN_TimeoutOccurredCallback        0x080063a1   Thumb Code     8  stm32h7xx_hal_fdcan.o(.text.HAL_FDCAN_TimeoutOccurredCallback)
    HAL_FDCAN_TimestampWraparoundCallback    0x080063a9   Thumb Code     8  stm32h7xx_hal_fdcan.o(.text.HAL_FDCAN_TimestampWraparoundCallback)
    HAL_FDCAN_TxBufferAbortCallback          0x080063b1   Thumb Code    10  stm32h7xx_hal_fdcan.o(.text.HAL_FDCAN_TxBufferAbortCallback)
    HAL_FDCAN_TxBufferCompleteCallback       0x080063c1   Thumb Code    10  stm32h7xx_hal_fdcan.o(.text.HAL_FDCAN_TxBufferCompleteCallback)
    HAL_FDCAN_TxEventFifoCallback            0x080063d1   Thumb Code    10  stm32h7xx_hal_fdcan.o(.text.HAL_FDCAN_TxEventFifoCallback)
    HAL_FDCAN_TxFifoEmptyCallback            0x080063e1   Thumb Code     8  stm32h7xx_hal_fdcan.o(.text.HAL_FDCAN_TxFifoEmptyCallback)
    HAL_GPIO_Init                            0x080063e9   Thumb Code   936  stm32h7xx_hal_gpio.o(.text.HAL_GPIO_Init)
    HAL_GPIO_WritePin                        0x08006791   Thumb Code    46  stm32h7xx_hal_gpio.o(.text.HAL_GPIO_WritePin)
    HAL_GetTick                              0x080067c1   Thumb Code    12  stm32h7xx_hal.o(.text.HAL_GetTick)
    HAL_IncTick                              0x080067d1   Thumb Code    26  stm32h7xx_hal.o(.text.HAL_IncTick)
    HAL_Init                                 0x080067f1   Thumb Code   122  stm32h7xx_hal.o(.text.HAL_Init)
    HAL_InitTick                             0x08006871   Thumb Code   216  stm32h7xx_hal_timebase_tim.o(.text.HAL_InitTick)
    HAL_MspInit                              0x08006949   Thumb Code    50  stm32h7xx_hal_msp.o(.text.HAL_MspInit)
    HAL_NVIC_EnableIRQ                       0x08006981   Thumb Code    20  stm32h7xx_hal_cortex.o(.text.HAL_NVIC_EnableIRQ)
    HAL_NVIC_SetPriority                     0x08006999   Thumb Code    46  stm32h7xx_hal_cortex.o(.text.HAL_NVIC_SetPriority)
    HAL_NVIC_SetPriorityGrouping             0x080069c9   Thumb Code    16  stm32h7xx_hal_cortex.o(.text.HAL_NVIC_SetPriorityGrouping)
    HAL_PWREx_ConfigSupply                   0x080069d9   Thumb Code   162  stm32h7xx_hal_pwr_ex.o(.text.HAL_PWREx_ConfigSupply)
    HAL_RCCEx_GetD3PCLK1Freq                 0x08006a81   Thumb Code    38  stm32h7xx_hal_rcc_ex.o(.text.HAL_RCCEx_GetD3PCLK1Freq)
    HAL_RCCEx_GetPLL2ClockFreq               0x08006aa9   Thumb Code   684  stm32h7xx_hal_rcc_ex.o(.text.HAL_RCCEx_GetPLL2ClockFreq)
    HAL_RCCEx_GetPLL3ClockFreq               0x08006d59   Thumb Code   684  stm32h7xx_hal_rcc_ex.o(.text.HAL_RCCEx_GetPLL3ClockFreq)
    HAL_RCCEx_PeriphCLKConfig                0x08007009   Thumb Code  4076  stm32h7xx_hal_rcc_ex.o(.text.HAL_RCCEx_PeriphCLKConfig)
    HAL_RCC_ClockConfig                      0x08007ff9   Thumb Code  1176  stm32h7xx_hal_rcc.o(.text.HAL_RCC_ClockConfig)
    HAL_RCC_GetClockConfig                   0x08008491   Thumb Code   136  stm32h7xx_hal_rcc.o(.text.HAL_RCC_GetClockConfig)
    HAL_RCC_GetHCLKFreq                      0x08008519   Thumb Code    86  stm32h7xx_hal_rcc.o(.text.HAL_RCC_GetHCLKFreq)
    HAL_RCC_GetPCLK1Freq                     0x08008571   Thumb Code    38  stm32h7xx_hal_rcc.o(.text.HAL_RCC_GetPCLK1Freq)
    HAL_RCC_GetPCLK2Freq                     0x08008599   Thumb Code    38  stm32h7xx_hal_rcc.o(.text.HAL_RCC_GetPCLK2Freq)
    HAL_RCC_GetSysClockFreq                  0x080085c1   Thumb Code   784  stm32h7xx_hal_rcc.o(.text.HAL_RCC_GetSysClockFreq)
    HAL_RCC_OscConfig                        0x080088d1   Thumb Code  2592  stm32h7xx_hal_rcc.o(.text.HAL_RCC_OscConfig)
    HAL_TIMEx_Break2Callback                 0x080092f1   Thumb Code     8  stm32h7xx_hal_tim_ex.o(.text.HAL_TIMEx_Break2Callback)
    HAL_TIMEx_BreakCallback                  0x080092f9   Thumb Code     8  stm32h7xx_hal_tim_ex.o(.text.HAL_TIMEx_BreakCallback)
    HAL_TIMEx_CommutCallback                 0x08009301   Thumb Code     8  stm32h7xx_hal_tim_ex.o(.text.HAL_TIMEx_CommutCallback)
    HAL_TIM_Base_Init                        0x08009309   Thumb Code   168  stm32h7xx_hal_tim.o(.text.HAL_TIM_Base_Init)
    HAL_TIM_Base_MspInit                     0x080093b1   Thumb Code     8  stm32h7xx_hal_tim.o(.text.HAL_TIM_Base_MspInit)
    HAL_TIM_Base_Start_IT                    0x080093b9   Thumb Code   296  stm32h7xx_hal_tim.o(.text.HAL_TIM_Base_Start_IT)
    HAL_TIM_IC_CaptureCallback               0x080094e1   Thumb Code     8  stm32h7xx_hal_tim.o(.text.HAL_TIM_IC_CaptureCallback)
    HAL_TIM_IRQHandler                       0x080094e9   Thumb Code   592  stm32h7xx_hal_tim.o(.text.HAL_TIM_IRQHandler)
    HAL_TIM_OC_DelayElapsedCallback          0x08009739   Thumb Code     8  stm32h7xx_hal_tim.o(.text.HAL_TIM_OC_DelayElapsedCallback)
    HAL_TIM_PWM_PulseFinishedCallback        0x08009741   Thumb Code     8  stm32h7xx_hal_tim.o(.text.HAL_TIM_PWM_PulseFinishedCallback)
    HAL_TIM_PeriodElapsedCallback            0x08009749   Thumb Code    28  main.o(.text.HAL_TIM_PeriodElapsedCallback)
    HAL_TIM_TriggerCallback                  0x08009769   Thumb Code     8  stm32h7xx_hal_tim.o(.text.HAL_TIM_TriggerCallback)
    HAL_UARTEx_DisableFifoMode               0x08009771   Thumb Code   124  stm32h7xx_hal_uart_ex.o(.text.HAL_UARTEx_DisableFifoMode)
    HAL_UARTEx_RxEventCallback               0x080097f1   Thumb Code  2056  bsp_uart.o(.text.HAL_UARTEx_RxEventCallback)
    HAL_UARTEx_RxFifoFullCallback            0x08009ff9   Thumb Code     8  stm32h7xx_hal_uart_ex.o(.text.HAL_UARTEx_RxFifoFullCallback)
    HAL_UARTEx_SetRxFifoThreshold            0x0800a001   Thumb Code   140  stm32h7xx_hal_uart_ex.o(.text.HAL_UARTEx_SetRxFifoThreshold)
    HAL_UARTEx_SetTxFifoThreshold            0x0800a091   Thumb Code   140  stm32h7xx_hal_uart_ex.o(.text.HAL_UARTEx_SetTxFifoThreshold)
    HAL_UARTEx_TxFifoEmptyCallback           0x0800a121   Thumb Code     8  stm32h7xx_hal_uart_ex.o(.text.HAL_UARTEx_TxFifoEmptyCallback)
    HAL_UARTEx_WakeupCallback                0x0800a129   Thumb Code     8  stm32h7xx_hal_uart_ex.o(.text.HAL_UARTEx_WakeupCallback)
    HAL_UART_ErrorCallback                   0x0800a131   Thumb Code     8  stm32h7xx_hal_uart.o(.text.HAL_UART_ErrorCallback)
    HAL_UART_IRQHandler                      0x0800a139   Thumb Code  1736  stm32h7xx_hal_uart.o(.text.HAL_UART_IRQHandler)
    HAL_UART_Init                            0x0800a801   Thumb Code   170  stm32h7xx_hal_uart.o(.text.HAL_UART_Init)
    HAL_UART_MspInit                         0x0800a8b1   Thumb Code   346  usart.o(.text.HAL_UART_MspInit)
    HAL_UART_TxCpltCallback                  0x0800aa11   Thumb Code     8  stm32h7xx_hal_uart.o(.text.HAL_UART_TxCpltCallback)
    HardFault_Handler                        0x0800aa19   Thumb Code     4  stm32h7xx_it.o(.text.HardFault_Handler)
    MX_DMA_Init                              0x0800aa21   Thumb Code    56  dma.o(.text.MX_DMA_Init)
    MX_FDCAN1_Init                           0x0800aa59   Thumb Code   118  fdcan.o(.text.MX_FDCAN1_Init)
    MX_FDCAN2_Init                           0x0800aad1   Thumb Code   124  fdcan.o(.text.MX_FDCAN2_Init)
    MX_FREERTOS_Init                         0x0800ab51   Thumb Code   134  freertos.o(.text.MX_FREERTOS_Init)
    MX_GPIO_Init                             0x0800abd9   Thumb Code   186  gpio.o(.text.MX_GPIO_Init)
    MX_UART5_Init                            0x0800ac99   Thumb Code   156  usart.o(.text.MX_UART5_Init)
    MemManage_Handler                        0x0800ad39   Thumb Code     4  stm32h7xx_it.o(.text.MemManage_Handler)
    NMI_Handler                              0x0800ad41   Thumb Code     4  stm32h7xx_it.o(.text.NMI_Handler)
    PendSV_Handler                           0x0800adc1   Thumb Code   100  port.o(.text.PendSV_Handler)
    SBUS_TO_RC                               0x0800b1c9   Thumb Code   304  remote_control.o(.text.SBUS_TO_RC)
    SVC_Handler                              0x0800b301   Thumb Code    36  port.o(.text.SVC_Handler)
    SysTick_Handler                          0x0800b329   Thumb Code    60  port.o(.text.SysTick_Handler)
    SystemClock_Config                       0x0800b369   Thumb Code   204  main.o(.text.SystemClock_Config)
    SystemInit                               0x0800b439   Thumb Code   314  system_stm32h7xx.o(.text.SystemInit)
    TIM2_IRQHandler                          0x0800b579   Thumb Code    16  stm32h7xx_it.o(.text.TIM2_IRQHandler)
    TIM_Base_SetConfig                       0x0800b589   Thumb Code   464  stm32h7xx_hal_tim.o(.text.TIM_Base_SetConfig)
    UART5_IRQHandler                         0x0800b759   Thumb Code    16  stm32h7xx_it.o(.text.UART5_IRQHandler)
    UART_AdvFeatureConfig                    0x0800b7f1   Thumb Code   328  stm32h7xx_hal_uart.o(.text.UART_AdvFeatureConfig)
    UART_CheckIdleState                      0x0800b939   Thumb Code   326  stm32h7xx_hal_uart.o(.text.UART_CheckIdleState)
    UART_SetConfig                           0x0800bb91   Thumb Code  2638  stm32h7xx_hal_uart.o(.text.UART_SetConfig)
    UART_WaitOnFlagUntilTimeout              0x0800c5e1   Thumb Code   268  stm32h7xx_hal_uart.o(.text.UART_WaitOnFlagUntilTimeout)
    UsageFault_Handler                       0x0800c751   Thumb Code     4  stm32h7xx_it.o(.text.UsageFault_Handler)
    arm_cos_f32                              0x0800c81d   Thumb Code   144  arm_cos_f32.o(.text.arm_cos_f32)
    arm_sin_f32                              0x0800c8ad   Thumb Code   140  arm_sin_f32.o(.text.arm_sin_f32)
    main                                     0x0800c9a9   Thumb Code    90  main.o(.text.main)
    osDelay                                  0x0800ca31   Thumb Code    40  cmsis_os.o(.text.osDelay)
    osKernelStart                            0x0800ca59   Thumb Code    10  cmsis_os.o(.text.osKernelStart)
    osKernelSysTick                          0x0800ca69   Thumb Code    34  cmsis_os.o(.text.osKernelSysTick)
    osThreadCreate                           0x0800ca91   Thumb Code   172  cmsis_os.o(.text.osThreadCreate)
    pvPortMalloc                             0x0800d231   Thumb Code   492  heap_4.o(.text.pvPortMalloc)
    pxPortInitialiseStack                    0x0800d421   Thumb Code    94  port.o(.text.pxPortInitialiseStack)
    sign                                     0x0800d481   Thumb Code    68  control_task.o(.text.sign)
    uxListRemove                             0x0800d521   Thumb Code    72  list.o(.text.uxListRemove)
    vApplicationGetIdleTaskMemory            0x0800d569   Thumb Code    42  freertos.o(.text.vApplicationGetIdleTaskMemory)
    vListInitialise                          0x0800d599   Thumb Code    46  list.o(.text.vListInitialise)
    vListInitialiseItem                      0x0800d5c9   Thumb Code    14  list.o(.text.vListInitialiseItem)
    vListInsert                              0x0800d5d9   Thumb Code   106  list.o(.text.vListInsert)
    vListInsertEnd                           0x0800d649   Thumb Code    58  list.o(.text.vListInsertEnd)
    vPortEnterCritical                       0x0800d6a1   Thumb Code    86  port.o(.text.vPortEnterCritical)
    vPortExitCritical                        0x0800d6f9   Thumb Code    74  port.o(.text.vPortExitCritical)
    vPortFree                                0x0800d749   Thumb Code   206  heap_4.o(.text.vPortFree)
    vPortSetupTimerInterrupt                 0x0800d819   Thumb Code    68  port.o(.text.vPortSetupTimerInterrupt)
    vPortValidateInterruptPriority           0x0800d861   Thumb Code   132  port.o(.text.vPortValidateInterruptPriority)
    vTaskDelay                               0x0800d8e9   Thumb Code   110  tasks.o(.text.vTaskDelay)
    vTaskStartScheduler                      0x0800d959   Thumb Code   206  tasks.o(.text.vTaskStartScheduler)
    vTaskSuspendAll                          0x0800da29   Thumb Code    16  tasks.o(.text.vTaskSuspendAll)
    vTaskSwitchContext                       0x0800da39   Thumb Code   190  tasks.o(.text.vTaskSwitchContext)
    xPortStartScheduler                      0x0800daf9   Thumb Code   342  port.o(.text.xPortStartScheduler)
    xTaskCreate                              0x0800dc51   Thumb Code   158  tasks.o(.text.xTaskCreate)
    xTaskCreateStatic                        0x0800dcf1   Thumb Code   206  tasks.o(.text.xTaskCreateStatic)
    xTaskGetTickCount                        0x0800ddc1   Thumb Code    20  tasks.o(.text.xTaskGetTickCount)
    xTaskGetTickCountFromISR                 0x0800ddd9   Thumb Code    30  tasks.o(.text.xTaskGetTickCountFromISR)
    xTaskIncrementTick                       0x0800ddf9   Thumb Code   440  tasks.o(.text.xTaskIncrementTick)
    xTaskResumeAll                           0x0800dfb1   Thumb Code   376  tasks.o(.text.xTaskResumeAll)
    __ARM_fpclassify                         0x0800e129   Thumb Code    48  fpclassify.o(i.__ARM_fpclassify)
    __hardfp_atan                            0x0800e159   Thumb Code   402  atan.o(i.__hardfp_atan)
    __hardfp_atan2                           0x0800e331   Thumb Code   392  atan2.o(i.__hardfp_atan2)
    __hardfp_sqrtf                           0x0800e4f9   Thumb Code    58  sqrtf.o(i.__hardfp_sqrtf)
    __kernel_poly                            0x0800e533   Thumb Code   112  poly.o(i.__kernel_poly)
    __mathlib_dbl_infnan                     0x0800e5a3   Thumb Code     6  dunder.o(i.__mathlib_dbl_infnan)
    __mathlib_dbl_infnan2                    0x0800e5a9   Thumb Code     6  dunder.o(i.__mathlib_dbl_infnan2)
    __mathlib_dbl_underflow                  0x0800e5b1   Thumb Code    10  dunder.o(i.__mathlib_dbl_underflow)
    atan                                     0x0800e5c9   Thumb Code    16  atan.o(i.atan)
    fabs                                     0x0800e5d9   Thumb Code    24  fabs.o(i.fabs)
    _fp_init                                 0x0800e5f1   Thumb Code    26  fpinit.o(x$fpl$fpinit)
    __fplib_config_fpu_vfp                   0x0800e609   Thumb Code     0  fpinit.o(x$fpl$fpinit)
    __fplib_config_pureend_doubles           0x0800e609   Thumb Code     0  fpinit.o(x$fpl$fpinit)
    __I$use$fp                               0x0800e60a   Number         0  usenofp.o(x$fpl$usenofp)
    __mathlib_zero                           0x0800e6a8   Data           8  qnan.o(.constdata)
    D1CorePrescTable                         0x0800e734   Data          16  system_stm32h7xx.o(.rodata.D1CorePrescTable)
    UARTPrescTable                           0x0800e76c   Data          24  stm32h7xx_hal_uart.o(.rodata.UARTPrescTable)
    sinTable_f32                             0x0800e784   Data        2052  arm_common_tables.o(.rodata.sinTable_f32)
    Region$$Table$$Base                      0x0800efa8   Number         0  anon$$obj.o(Region$$Table)
    Region$$Table$$Limit                     0x0800efc8   Number         0  anon$$obj.o(Region$$Table)
    DM_6215_Motor                            0x24000000   Data         192  motor.o(.data.DM_6215_Motor)
    DM_6220_Motor                            0x240000c0   Data         192  motor.o(.data.DM_6220_Motor)
    Remote_Ctrl                              0x24000180   Data          24  remote_control.o(.data.Remote_Ctrl)
    SteerTxFrame                             0x24000198   Data          48  bsp_can.o(.data.SteerTxFrame)
    SystemCoreClock                          0x240001c8   Data           4  system_stm32h7xx.o(.data.SystemCoreClock)
    SystemD2Clock                            0x240001cc   Data           4  system_stm32h7xx.o(.data.SystemD2Clock)
    WheelTxFrame                             0x240001d0   Data          48  bsp_can.o(.data.WheelTxFrame)
    uwTickFreq                               0x24000200   Data           1  stm32h7xx_hal.o(.data.uwTickFreq)
    uwTickPrio                               0x24000204   Data           4  stm32h7xx_hal.o(.data.uwTickPrio)
    __libspace_start                         0x24000210   Data          96  libspace.o(.bss)
    Control_Info                             0x24000270   Data          88  control_task.o(.bss.Control_Info)
    __temporary_stack_top$libspace           0x24000270   Data           0  libspace.o(.bss)
    FDCAN1_RxFrame                           0x240002c8   Data          52  bsp_can.o(.bss.FDCAN1_RxFrame)
    FDCAN2_RxFrame                           0x240002fc   Data          52  bsp_can.o(.bss.FDCAN2_RxFrame)
    NCAN_TaskHandle                          0x24000334   Data           4  freertos.o(.bss.NCAN_TaskHandle)
    NControl_TaskHandle                      0x24000338   Data           4  freertos.o(.bss.NControl_TaskHandle)
    SBUS_MultiRx_Buf                         0x2400033c   Data          36  remote_control.o(.bss.SBUS_MultiRx_Buf)
    Systick                                  0x24000360   Data           4  can_task.o(.bss.Systick)
    hdma_uart5_rx                            0x24000364   Data         120  usart.o(.bss.hdma_uart5_rx)
    hfdcan1                                  0x240003dc   Data         160  fdcan.o(.bss.hfdcan1)
    hfdcan2                                  0x2400047c   Data         160  fdcan.o(.bss.hfdcan2)
    htim2                                    0x2400051c   Data          76  stm32h7xx_hal_timebase_tim.o(.bss.htim2)
    huart5                                   0x24000568   Data         148  usart.o(.bss.huart5)
    pxCurrentTCB                             0x240005fc   Data           4  tasks.o(.bss.pxCurrentTCB)
    uwTick                                   0x240042a0   Data           4  stm32h7xx_hal.o(.bss.uwTick)



==============================================================================

Memory Map of the image

  Image Entry point : 0x080002cd

  Load Region LR_IROM1 (Base: 0x08000000, Size: 0x0000f1d8, Max: 0x00100000, ABSOLUTE, COMPRESSED[0x0000f018])

    Execution Region ER_IROM1 (Exec base: 0x08000000, Load base: 0x08000000, Size: 0x0000efc8, Max: 0x00100000, ABSOLUTE)

    Exec Addr    Load Addr    Size         Type   Attr      Idx    E Section Name        Object

    0x08000000   0x08000000   0x000002cc   Data   RO            3    RESET               startup_stm32h723xx.o
    0x080002cc   0x080002cc   0x00000008   Code   RO         2525  * !!!main             c_w.l(__main.o)
    0x080002d4   0x080002d4   0x00000034   Code   RO         2754    !!!scatter          c_w.l(__scatter.o)
    0x08000308   0x08000308   0x0000003a   Code   RO         2752    !!dczerorl          c_w.l(__dczerorl.o)
    0x08000342   0x08000342   0x00000002   PAD
    0x08000344   0x08000344   0x0000001c   Code   RO         2756    !!handler_zi        c_w.l(__scatter_zi.o)
    0x08000360   0x08000360   0x00000002   Code   RO         2619    .ARM.Collect$$libinit$$00000000  c_w.l(libinit.o)
    0x08000362   0x08000362   0x00000004   Code   RO         2628    .ARM.Collect$$libinit$$00000001  c_w.l(libinit2.o)
    0x08000366   0x08000366   0x00000000   Code   RO         2631    .ARM.Collect$$libinit$$00000004  c_w.l(libinit2.o)
    0x08000366   0x08000366   0x00000000   Code   RO         2634    .ARM.Collect$$libinit$$0000000A  c_w.l(libinit2.o)
    0x08000366   0x08000366   0x00000000   Code   RO         2636    .ARM.Collect$$libinit$$0000000C  c_w.l(libinit2.o)
    0x08000366   0x08000366   0x00000000   Code   RO         2638    .ARM.Collect$$libinit$$0000000E  c_w.l(libinit2.o)
    0x08000366   0x08000366   0x00000000   Code   RO         2641    .ARM.Collect$$libinit$$00000011  c_w.l(libinit2.o)
    0x08000366   0x08000366   0x00000000   Code   RO         2643    .ARM.Collect$$libinit$$00000013  c_w.l(libinit2.o)
    0x08000366   0x08000366   0x00000000   Code   RO         2645    .ARM.Collect$$libinit$$00000015  c_w.l(libinit2.o)
    0x08000366   0x08000366   0x00000000   Code   RO         2647    .ARM.Collect$$libinit$$00000017  c_w.l(libinit2.o)
    0x08000366   0x08000366   0x00000000   Code   RO         2649    .ARM.Collect$$libinit$$00000019  c_w.l(libinit2.o)
    0x08000366   0x08000366   0x00000000   Code   RO         2651    .ARM.Collect$$libinit$$0000001B  c_w.l(libinit2.o)
    0x08000366   0x08000366   0x00000000   Code   RO         2653    .ARM.Collect$$libinit$$0000001D  c_w.l(libinit2.o)
    0x08000366   0x08000366   0x00000000   Code   RO         2655    .ARM.Collect$$libinit$$0000001F  c_w.l(libinit2.o)
    0x08000366   0x08000366   0x00000000   Code   RO         2657    .ARM.Collect$$libinit$$00000021  c_w.l(libinit2.o)
    0x08000366   0x08000366   0x00000000   Code   RO         2659    .ARM.Collect$$libinit$$00000023  c_w.l(libinit2.o)
    0x08000366   0x08000366   0x00000000   Code   RO         2661    .ARM.Collect$$libinit$$00000025  c_w.l(libinit2.o)
    0x08000366   0x08000366   0x00000000   Code   RO         2665    .ARM.Collect$$libinit$$0000002C  c_w.l(libinit2.o)
    0x08000366   0x08000366   0x00000000   Code   RO         2667    .ARM.Collect$$libinit$$0000002E  c_w.l(libinit2.o)
    0x08000366   0x08000366   0x00000000   Code   RO         2669    .ARM.Collect$$libinit$$00000030  c_w.l(libinit2.o)
    0x08000366   0x08000366   0x00000000   Code   RO         2671    .ARM.Collect$$libinit$$00000032  c_w.l(libinit2.o)
    0x08000366   0x08000366   0x00000002   Code   RO         2672    .ARM.Collect$$libinit$$00000033  c_w.l(libinit2.o)
    0x08000368   0x08000368   0x00000002   Code   RO         2707    .ARM.Collect$$libshutdown$$00000000  c_w.l(libshutdown.o)
    0x0800036a   0x0800036a   0x00000000   Code   RO         2735    .ARM.Collect$$libshutdown$$00000002  c_w.l(libshutdown2.o)
    0x0800036a   0x0800036a   0x00000000   Code   RO         2737    .ARM.Collect$$libshutdown$$00000004  c_w.l(libshutdown2.o)
    0x0800036a   0x0800036a   0x00000000   Code   RO         2740    .ARM.Collect$$libshutdown$$00000007  c_w.l(libshutdown2.o)
    0x0800036a   0x0800036a   0x00000000   Code   RO         2743    .ARM.Collect$$libshutdown$$0000000A  c_w.l(libshutdown2.o)
    0x0800036a   0x0800036a   0x00000000   Code   RO         2745    .ARM.Collect$$libshutdown$$0000000C  c_w.l(libshutdown2.o)
    0x0800036a   0x0800036a   0x00000000   Code   RO         2748    .ARM.Collect$$libshutdown$$0000000F  c_w.l(libshutdown2.o)
    0x0800036a   0x0800036a   0x00000002   Code   RO         2749    .ARM.Collect$$libshutdown$$00000010  c_w.l(libshutdown2.o)
    0x0800036c   0x0800036c   0x00000000   Code   RO         2539    .ARM.Collect$$rtentry$$00000000  c_w.l(__rtentry.o)
    0x0800036c   0x0800036c   0x00000000   Code   RO         2578    .ARM.Collect$$rtentry$$00000002  c_w.l(__rtentry2.o)
    0x0800036c   0x0800036c   0x00000006   Code   RO         2590    .ARM.Collect$$rtentry$$00000004  c_w.l(__rtentry4.o)
    0x08000372   0x08000372   0x00000000   Code   RO         2580    .ARM.Collect$$rtentry$$00000009  c_w.l(__rtentry2.o)
    0x08000372   0x08000372   0x00000004   Code   RO         2581    .ARM.Collect$$rtentry$$0000000A  c_w.l(__rtentry2.o)
    0x08000376   0x08000376   0x00000000   Code   RO         2583    .ARM.Collect$$rtentry$$0000000C  c_w.l(__rtentry2.o)
    0x08000376   0x08000376   0x00000008   Code   RO         2584    .ARM.Collect$$rtentry$$0000000D  c_w.l(__rtentry2.o)
    0x0800037e   0x0800037e   0x00000002   Code   RO         2620    .ARM.Collect$$rtexit$$00000000  c_w.l(rtexit.o)
    0x08000380   0x08000380   0x00000000   Code   RO         2678    .ARM.Collect$$rtexit$$00000002  c_w.l(rtexit2.o)
    0x08000380   0x08000380   0x00000004   Code   RO         2679    .ARM.Collect$$rtexit$$00000003  c_w.l(rtexit2.o)
    0x08000384   0x08000384   0x00000006   Code   RO         2680    .ARM.Collect$$rtexit$$00000004  c_w.l(rtexit2.o)
    0x0800038a   0x0800038a   0x00000002   PAD
    0x0800038c   0x0800038c   0x00000040   Code   RO            4    .text               startup_stm32h723xx.o
    0x080003cc   0x080003cc   0x000000f0   Code   RO         2513    .text               c_w.l(lludivv7m.o)
    0x080004bc   0x080004bc   0x00000064   Code   RO         2517    .text               c_w.l(rt_memcpy_w.o)
    0x08000520   0x08000520   0x0000004e   Code   RO         2521    .text               c_w.l(rt_memclr_w.o)
    0x0800056e   0x0800056e   0x00000006   Code   RO         2523    .text               c_w.l(heapauxi.o)
    0x08000574   0x08000574   0x00000016   Code   RO         2544    .text               c_w.l(_rserrno.o)
    0x0800058a   0x0800058a   0x00000002   PAD
    0x0800058c   0x0800058c   0x00000008   Code   RO         2597    .text               c_w.l(rt_errno_addr_intlibspace.o)
    0x08000594   0x08000594   0x00000008   Code   RO         2603    .text               c_w.l(libspace.o)
    0x0800059c   0x0800059c   0x0000004a   Code   RO         2606    .text               c_w.l(sys_stackheap_outer.o)
    0x080005e6   0x080005e6   0x00000012   Code   RO         2608    .text               c_w.l(exit.o)
    0x080005f8   0x080005f8   0x0000000c   Code   RO         2673    .text               c_w.l(sys_exit.o)
    0x08000604   0x08000604   0x00000002   Code   RO         2696    .text               c_w.l(use_no_semi.o)
    0x08000606   0x08000606   0x00000000   Code   RO         2698    .text               c_w.l(indicate_semi.o)
    0x08000606   0x08000606   0x00000002   PAD
    0x08000608   0x08000608   0x000000fa   Code   RO         1832    .text.BSP_FDCAN_Init  bsp_can.o
    0x08000702   0x08000702   0x00000006   PAD
    0x08000708   0x08000708   0x0000002a   Code   RO         1819    .text.BSP_USART_Init  bsp_uart.o
    0x08000732   0x08000732   0x00000006   PAD
    0x08000738   0x08000738   0x00000004   Code   RO          105    .text.BusFault_Handler  stm32h7xx_it.o
    0x0800073c   0x0800073c   0x00000004   PAD
    0x08000740   0x08000740   0x00000340   Code   RO         2371    .text.CAN_Task      can_task.o
    0x08000a80   0x08000a80   0x00000560   Code   RO         2387    .text.Control_Task  control_task.o
    0x08000fe0   0x08000fe0   0x00000010   Code   RO          111    .text.DMA1_Stream0_IRQHandler  stm32h7xx_it.o
    0x08000ff0   0x08000ff0   0x000001ca   Code   RO          693    .text.DMA_CalcBaseAndBitshift  stm32h7xx_hal_dma.o
    0x080011ba   0x080011ba   0x00000006   PAD
    0x080011c0   0x080011c0   0x00000178   Code   RO          695    .text.DMA_CalcDMAMUXChannelBaseAndMask  stm32h7xx_hal_dma.o
    0x08001338   0x08001338   0x0000012a   Code   RO          697    .text.DMA_CalcDMAMUXRequestGenBaseAndMask  stm32h7xx_hal_dma.o
    0x08001462   0x08001462   0x00000006   PAD
    0x08001468   0x08001468   0x000000f0   Code   RO          691    .text.DMA_CheckFifoParam  stm32h7xx_hal_dma.o
    0x08001558   0x08001558   0x000001e0   Code   RO          733    .text.DMA_MultiBufferSetConfig  stm32h7xx_hal_dma_ex.o
    0x08001738   0x08001738   0x000000ae   Code   RO         2375    .text.DM_6215_Motor_Init  can_task.o
    0x080017e6   0x080017e6   0x00000002   PAD
    0x080017e8   0x080017e8   0x00000058   Code   RO         2373    .text.DM_6220_Motor_Init  can_task.o
    0x08001840   0x08001840   0x0000016c   Code   RO         1866    .text.DM_Motor_CAN_TxMessage  motor.o
    0x080019ac   0x080019ac   0x00000004   PAD
    0x080019b0   0x080019b0   0x00000056   Code   RO         1864    .text.DM_Motor_Enable  motor.o
    0x08001a06   0x08001a06   0x00000002   PAD
    0x08001a08   0x08001a08   0x00000114   Code   RO         1870    .text.DM_Motor_Info_Update  motor.o
    0x08001b1c   0x08001b1c   0x00000004   PAD
    0x08001b20   0x08001b20   0x00000002   Code   RO          109    .text.DebugMon_Handler  stm32h7xx_it.o
    0x08001b22   0x08001b22   0x00000006   PAD
    0x08001b28   0x08001b28   0x0000000e   Code   RO           15    .text.Error_Handler  main.o
    0x08001b36   0x08001b36   0x00000002   PAD
    0x08001b38   0x08001b38   0x00000010   Code   RO          113    .text.FDCAN1_IT0_IRQHandler  stm32h7xx_it.o
    0x08001b48   0x08001b48   0x00000070   Code   RO         1836    .text.FDCAN1_RxFifo0RxHandler  bsp_can.o
    0x08001bb8   0x08001bb8   0x00000010   Code   RO          115    .text.FDCAN2_IT0_IRQHandler  stm32h7xx_it.o
    0x08001bc8   0x08001bc8   0x00000070   Code   RO         1840    .text.FDCAN2_RxFifo1RxHandler  bsp_can.o
    0x08001c38   0x08001c38   0x000002c2   Code   RO          231    .text.FDCAN_CalcultateRamBlockAddresses  stm32h7xx_hal_fdcan.o
    0x08001efa   0x08001efa   0x00000006   PAD
    0x08001f00   0x08001f00   0x000000b8   Code   RO          301    .text.FDCAN_CopyMessageToRAM  stm32h7xx_hal_fdcan.o
    0x08001fb8   0x08001fb8   0x000005cc   Code   RO          731    .text.HAL_DMAEx_MultiBufferStart  stm32h7xx_hal_dma_ex.o
    0x08002584   0x08002584   0x00000004   PAD
    0x08002588   0x08002588   0x00000978   Code   RO          707    .text.HAL_DMA_Abort  stm32h7xx_hal_dma.o
    0x08002f00   0x08002f00   0x000006aa   Code   RO          709    .text.HAL_DMA_Abort_IT  stm32h7xx_hal_dma.o
    0x080035aa   0x080035aa   0x00000006   PAD
    0x080035b0   0x080035b0   0x000011c0   Code   RO          713    .text.HAL_DMA_IRQHandler  stm32h7xx_hal_dma.o
    0x08004770   0x08004770   0x00000962   Code   RO          689    .text.HAL_DMA_Init  stm32h7xx_hal_dma.o
    0x080050d2   0x080050d2   0x00000006   PAD
    0x080050d8   0x080050d8   0x000000fe   Code   RO          379    .text.HAL_FDCAN_ActivateNotification  stm32h7xx_hal_fdcan.o
    0x080051d6   0x080051d6   0x00000002   PAD
    0x080051d8   0x080051d8   0x000000ca   Code   RO          299    .text.HAL_FDCAN_AddMessageToTxFifoQ  stm32h7xx_hal_fdcan.o
    0x080052a2   0x080052a2   0x00000006   PAD
    0x080052a8   0x080052a8   0x0000000a   Code   RO          393    .text.HAL_FDCAN_ClockCalibrationCallback  stm32h7xx_hal_fdcan.o
    0x080052b2   0x080052b2   0x00000006   PAD
    0x080052b8   0x080052b8   0x00000116   Code   RO          251    .text.HAL_FDCAN_ConfigFilter  stm32h7xx_hal_fdcan.o
    0x080053ce   0x080053ce   0x00000002   PAD
    0x080053d0   0x080053d0   0x0000005c   Code   RO          253    .text.HAL_FDCAN_ConfigGlobalFilter  stm32h7xx_hal_fdcan.o
    0x0800542c   0x0800542c   0x00000004   PAD
    0x08005430   0x08005430   0x00000008   Code   RO          421    .text.HAL_FDCAN_ErrorCallback  stm32h7xx_hal_fdcan.o
    0x08005438   0x08005438   0x0000000a   Code   RO          411    .text.HAL_FDCAN_ErrorStatusCallback  stm32h7xx_hal_fdcan.o
    0x08005442   0x08005442   0x00000006   PAD
    0x08005448   0x08005448   0x000002f8   Code   RO          311    .text.HAL_FDCAN_GetRxMessage  stm32h7xx_hal_fdcan.o
    0x08005740   0x08005740   0x00000008   Code   RO          389    .text.HAL_FDCAN_HighPriorityMessageCallback  stm32h7xx_hal_fdcan.o
    0x08005748   0x08005748   0x000005e2   Code   RO          387    .text.HAL_FDCAN_IRQHandler  stm32h7xx_hal_fdcan.o
    0x08005d2a   0x08005d2a   0x00000006   PAD
    0x08005d30   0x08005d30   0x000003e0   Code   RO          227    .text.HAL_FDCAN_Init  stm32h7xx_hal_fdcan.o
    0x08006110   0x08006110   0x00000198   Code   RO           69    .text.HAL_FDCAN_MspInit  fdcan.o
    0x080062a8   0x080062a8   0x00000008   Code   RO          405    .text.HAL_FDCAN_RxBufferNewMessageCallback  stm32h7xx_hal_fdcan.o
    0x080062b0   0x080062b0   0x0000002e   Code   RO         1834    .text.HAL_FDCAN_RxFifo0Callback  bsp_can.o
    0x080062de   0x080062de   0x00000002   PAD
    0x080062e0   0x080062e0   0x0000002e   Code   RO         1838    .text.HAL_FDCAN_RxFifo1Callback  bsp_can.o
    0x0800630e   0x0800630e   0x00000002   PAD
    0x08006310   0x08006310   0x00000050   Code   RO          297    .text.HAL_FDCAN_Start  stm32h7xx_hal_fdcan.o
    0x08006360   0x08006360   0x0000000a   Code   RO          419    .text.HAL_FDCAN_TT_GlobalTimeCallback  stm32h7xx_hal_fdcan.o
    0x0800636a   0x0800636a   0x00000006   PAD
    0x08006370   0x08006370   0x0000000a   Code   RO          413    .text.HAL_FDCAN_TT_ScheduleSyncCallback  stm32h7xx_hal_fdcan.o
    0x0800637a   0x0800637a   0x00000006   PAD
    0x08006380   0x08006380   0x0000000c   Code   RO          417    .text.HAL_FDCAN_TT_StopWatchCallback  stm32h7xx_hal_fdcan.o
    0x0800638c   0x0800638c   0x00000004   PAD
    0x08006390   0x08006390   0x0000000a   Code   RO          415    .text.HAL_FDCAN_TT_TimeMarkCallback  stm32h7xx_hal_fdcan.o
    0x0800639a   0x0800639a   0x00000006   PAD
    0x080063a0   0x080063a0   0x00000008   Code   RO          409    .text.HAL_FDCAN_TimeoutOccurredCallback  stm32h7xx_hal_fdcan.o
    0x080063a8   0x080063a8   0x00000008   Code   RO          407    .text.HAL_FDCAN_TimestampWraparoundCallback  stm32h7xx_hal_fdcan.o
    0x080063b0   0x080063b0   0x0000000a   Code   RO          391    .text.HAL_FDCAN_TxBufferAbortCallback  stm32h7xx_hal_fdcan.o
    0x080063ba   0x080063ba   0x00000006   PAD
    0x080063c0   0x080063c0   0x0000000a   Code   RO          403    .text.HAL_FDCAN_TxBufferCompleteCallback  stm32h7xx_hal_fdcan.o
    0x080063ca   0x080063ca   0x00000006   PAD
    0x080063d0   0x080063d0   0x0000000a   Code   RO          395    .text.HAL_FDCAN_TxEventFifoCallback  stm32h7xx_hal_fdcan.o
    0x080063da   0x080063da   0x00000006   PAD
    0x080063e0   0x080063e0   0x00000008   Code   RO          401    .text.HAL_FDCAN_TxFifoEmptyCallback  stm32h7xx_hal_fdcan.o
    0x080063e8   0x080063e8   0x000003a8   Code   RO          637    .text.HAL_GPIO_Init  stm32h7xx_hal_gpio.o
    0x08006790   0x08006790   0x0000002e   Code   RO          643    .text.HAL_GPIO_WritePin  stm32h7xx_hal_gpio.o
    0x080067be   0x080067be   0x00000002   PAD
    0x080067c0   0x080067c0   0x0000000c   Code   RO          941    .text.HAL_GetTick   stm32h7xx_hal.o
    0x080067cc   0x080067cc   0x00000004   PAD
    0x080067d0   0x080067d0   0x0000001a   Code   RO          939    .text.HAL_IncTick   stm32h7xx_hal.o
    0x080067ea   0x080067ea   0x00000006   PAD
    0x080067f0   0x080067f0   0x0000007a   Code   RO          929    .text.HAL_Init      stm32h7xx_hal.o
    0x0800686a   0x0800686a   0x00000006   PAD
    0x08006870   0x08006870   0x000000d8   Code   RO          136    .text.HAL_InitTick  stm32h7xx_hal_timebase_tim.o
    0x08006948   0x08006948   0x00000032   Code   RO          128    .text.HAL_MspInit   stm32h7xx_hal_msp.o
    0x0800697a   0x0800697a   0x00000006   PAD
    0x08006980   0x08006980   0x00000014   Code   RO          162    .text.HAL_NVIC_EnableIRQ  stm32h7xx_hal_cortex.o
    0x08006994   0x08006994   0x00000004   PAD
    0x08006998   0x08006998   0x0000002e   Code   RO          154    .text.HAL_NVIC_SetPriority  stm32h7xx_hal_cortex.o
    0x080069c6   0x080069c6   0x00000002   PAD
    0x080069c8   0x080069c8   0x00000010   Code   RO          150    .text.HAL_NVIC_SetPriorityGrouping  stm32h7xx_hal_cortex.o
    0x080069d8   0x080069d8   0x000000a2   Code   RO          846    .text.HAL_PWREx_ConfigSupply  stm32h7xx_hal_pwr_ex.o
    0x08006a7a   0x08006a7a   0x00000006   PAD
    0x08006a80   0x08006a80   0x00000026   Code   RO          487    .text.HAL_RCCEx_GetD3PCLK1Freq  stm32h7xx_hal_rcc_ex.o
    0x08006aa6   0x08006aa6   0x00000002   PAD
    0x08006aa8   0x08006aa8   0x000002ac   Code   RO          483    .text.HAL_RCCEx_GetPLL2ClockFreq  stm32h7xx_hal_rcc_ex.o
    0x08006d54   0x08006d54   0x00000004   PAD
    0x08006d58   0x08006d58   0x000002ac   Code   RO          485    .text.HAL_RCCEx_GetPLL3ClockFreq  stm32h7xx_hal_rcc_ex.o
    0x08007004   0x08007004   0x00000004   PAD
    0x08007008   0x08007008   0x00000fec   Code   RO          471    .text.HAL_RCCEx_PeriphCLKConfig  stm32h7xx_hal_rcc_ex.o
    0x08007ff4   0x08007ff4   0x00000004   PAD
    0x08007ff8   0x08007ff8   0x00000498   Code   RO          440    .text.HAL_RCC_ClockConfig  stm32h7xx_hal_rcc.o
    0x08008490   0x08008490   0x00000088   Code   RO          458    .text.HAL_RCC_GetClockConfig  stm32h7xx_hal_rcc.o
    0x08008518   0x08008518   0x00000056   Code   RO          450    .text.HAL_RCC_GetHCLKFreq  stm32h7xx_hal_rcc.o
    0x0800856e   0x0800856e   0x00000002   PAD
    0x08008570   0x08008570   0x00000026   Code   RO          452    .text.HAL_RCC_GetPCLK1Freq  stm32h7xx_hal_rcc.o
    0x08008596   0x08008596   0x00000002   PAD
    0x08008598   0x08008598   0x00000026   Code   RO          454    .text.HAL_RCC_GetPCLK2Freq  stm32h7xx_hal_rcc.o
    0x080085be   0x080085be   0x00000002   PAD
    0x080085c0   0x080085c0   0x00000310   Code   RO          442    .text.HAL_RCC_GetSysClockFreq  stm32h7xx_hal_rcc.o
    0x080088d0   0x080088d0   0x00000a20   Code   RO          438    .text.HAL_RCC_OscConfig  stm32h7xx_hal_rcc.o
    0x080092f0   0x080092f0   0x00000008   Code   RO         1599    .text.HAL_TIMEx_Break2Callback  stm32h7xx_hal_tim_ex.o
    0x080092f8   0x080092f8   0x00000008   Code   RO         1597    .text.HAL_TIMEx_BreakCallback  stm32h7xx_hal_tim_ex.o
    0x08009300   0x08009300   0x00000008   Code   RO         1593    .text.HAL_TIMEx_CommutCallback  stm32h7xx_hal_tim_ex.o
    0x08009308   0x08009308   0x000000a8   Code   RO         1260    .text.HAL_TIM_Base_Init  stm32h7xx_hal_tim.o
    0x080093b0   0x080093b0   0x00000008   Code   RO         1262    .text.HAL_TIM_Base_MspInit  stm32h7xx_hal_tim.o
    0x080093b8   0x080093b8   0x00000128   Code   RO         1274    .text.HAL_TIM_Base_Start_IT  stm32h7xx_hal_tim.o
    0x080094e0   0x080094e0   0x00000008   Code   RO         1396    .text.HAL_TIM_IC_CaptureCallback  stm32h7xx_hal_tim.o
    0x080094e8   0x080094e8   0x00000250   Code   RO         1394    .text.HAL_TIM_IRQHandler  stm32h7xx_hal_tim.o
    0x08009738   0x08009738   0x00000008   Code   RO         1398    .text.HAL_TIM_OC_DelayElapsedCallback  stm32h7xx_hal_tim.o
    0x08009740   0x08009740   0x00000008   Code   RO         1400    .text.HAL_TIM_PWM_PulseFinishedCallback  stm32h7xx_hal_tim.o
    0x08009748   0x08009748   0x0000001c   Code   RO           17    .text.HAL_TIM_PeriodElapsedCallback  main.o
    0x08009764   0x08009764   0x00000004   PAD
    0x08009768   0x08009768   0x00000008   Code   RO         1404    .text.HAL_TIM_TriggerCallback  stm32h7xx_hal_tim.o
    0x08009770   0x08009770   0x0000007c   Code   RO         1782    .text.HAL_UARTEx_DisableFifoMode  stm32h7xx_hal_uart_ex.o
    0x080097ec   0x080097ec   0x00000004   PAD
    0x080097f0   0x080097f0   0x00000808   Code   RO         1823    .text.HAL_UARTEx_RxEventCallback  bsp_uart.o
    0x08009ff8   0x08009ff8   0x00000008   Code   RO         1764    .text.HAL_UARTEx_RxFifoFullCallback  stm32h7xx_hal_uart_ex.o
    0x0800a000   0x0800a000   0x0000008c   Code   RO         1786    .text.HAL_UARTEx_SetRxFifoThreshold  stm32h7xx_hal_uart_ex.o
    0x0800a08c   0x0800a08c   0x00000004   PAD
    0x0800a090   0x0800a090   0x0000008c   Code   RO         1784    .text.HAL_UARTEx_SetTxFifoThreshold  stm32h7xx_hal_uart_ex.o
    0x0800a11c   0x0800a11c   0x00000004   PAD
    0x0800a120   0x0800a120   0x00000008   Code   RO         1766    .text.HAL_UARTEx_TxFifoEmptyCallback  stm32h7xx_hal_uart_ex.o
    0x0800a128   0x0800a128   0x00000008   Code   RO         1762    .text.HAL_UARTEx_WakeupCallback  stm32h7xx_hal_uart_ex.o
    0x0800a130   0x0800a130   0x00000008   Code   RO         1704    .text.HAL_UART_ErrorCallback  stm32h7xx_hal_uart.o
    0x0800a138   0x0800a138   0x000006c8   Code   RO         1700    .text.HAL_UART_IRQHandler  stm32h7xx_hal_uart.o
    0x0800a800   0x0800a800   0x000000aa   Code   RO         1612    .text.HAL_UART_Init  stm32h7xx_hal_uart.o
    0x0800a8aa   0x0800a8aa   0x00000006   PAD
    0x0800a8b0   0x0800a8b0   0x0000015a   Code   RO           86    .text.HAL_UART_MspInit  usart.o
    0x0800aa0a   0x0800aa0a   0x00000006   PAD
    0x0800aa10   0x0800aa10   0x00000008   Code   RO         1710    .text.HAL_UART_TxCpltCallback  stm32h7xx_hal_uart.o
    0x0800aa18   0x0800aa18   0x00000004   Code   RO          101    .text.HardFault_Handler  stm32h7xx_it.o
    0x0800aa1c   0x0800aa1c   0x00000004   PAD
    0x0800aa20   0x0800aa20   0x00000038   Code   RO           57    .text.MX_DMA_Init   dma.o
    0x0800aa58   0x0800aa58   0x00000076   Code   RO           65    .text.MX_FDCAN1_Init  fdcan.o
    0x0800aace   0x0800aace   0x00000002   PAD
    0x0800aad0   0x0800aad0   0x0000007c   Code   RO           67    .text.MX_FDCAN2_Init  fdcan.o
    0x0800ab4c   0x0800ab4c   0x00000004   PAD
    0x0800ab50   0x0800ab50   0x00000086   Code   RO           37    .text.MX_FREERTOS_Init  freertos.o
    0x0800abd6   0x0800abd6   0x00000002   PAD
    0x0800abd8   0x0800abd8   0x000000ba   Code   RO           27    .text.MX_GPIO_Init  gpio.o
    0x0800ac92   0x0800ac92   0x00000006   PAD
    0x0800ac98   0x0800ac98   0x0000009c   Code   RO           84    .text.MX_UART5_Init  usart.o
    0x0800ad34   0x0800ad34   0x00000004   PAD
    0x0800ad38   0x0800ad38   0x00000004   Code   RO          103    .text.MemManage_Handler  stm32h7xx_it.o
    0x0800ad3c   0x0800ad3c   0x00000004   PAD
    0x0800ad40   0x0800ad40   0x00000004   Code   RO           99    .text.NMI_Handler   stm32h7xx_it.o
    0x0800ad44   0x0800ad44   0x00000004   PAD
    0x0800ad48   0x0800ad48   0x0000006c   Code   RO          160    .text.NVIC_EncodePriority  stm32h7xx_hal_cortex.o
    0x0800adb4   0x0800adb4   0x0000000c   PAD
    0x0800adc0   0x0800adc0   0x00000064   Code   RO         2355    .text.PendSV_Handler  port.o
    0x0800ae24   0x0800ae24   0x00000004   PAD
    0x0800ae28   0x0800ae28   0x000001ca   Code   RO          473    .text.RCCEx_PLL2_Config  stm32h7xx_hal_rcc_ex.o
    0x0800aff2   0x0800aff2   0x00000006   PAD
    0x0800aff8   0x0800aff8   0x000001ca   Code   RO          475    .text.RCCEx_PLL3_Config  stm32h7xx_hal_rcc_ex.o
    0x0800b1c2   0x0800b1c2   0x00000006   PAD
    0x0800b1c8   0x0800b1c8   0x00000130   Code   RO         1854    .text.SBUS_TO_RC    remote_control.o
    0x0800b2f8   0x0800b2f8   0x00000008   PAD
    0x0800b300   0x0800b300   0x00000024   Code   RO         2339    .text.SVC_Handler   port.o
    0x0800b324   0x0800b324   0x00000004   PAD
    0x0800b328   0x0800b328   0x0000003c   Code   RO         2357    .text.SysTick_Handler  port.o
    0x0800b364   0x0800b364   0x00000004   PAD
    0x0800b368   0x0800b368   0x000000cc   Code   RO           13    .text.SystemClock_Config  main.o
    0x0800b434   0x0800b434   0x00000004   PAD
    0x0800b438   0x0800b438   0x0000013a   Code   RO         1805    .text.SystemInit    system_stm32h7xx.o
    0x0800b572   0x0800b572   0x00000006   PAD
    0x0800b578   0x0800b578   0x00000010   Code   RO          117    .text.TIM2_IRQHandler  stm32h7xx_it.o
    0x0800b588   0x0800b588   0x000001d0   Code   RO         1264    .text.TIM_Base_SetConfig  stm32h7xx_hal_tim.o
    0x0800b758   0x0800b758   0x00000010   Code   RO          119    .text.UART5_IRQHandler  stm32h7xx_it.o
    0x0800b768   0x0800b768   0x00000086   Code   RO         1780    .text.UARTEx_SetNbDataToProcess  stm32h7xx_hal_uart_ex.o
    0x0800b7ee   0x0800b7ee   0x00000002   PAD
    0x0800b7f0   0x0800b7f0   0x00000148   Code   RO         1616    .text.UART_AdvFeatureConfig  stm32h7xx_hal_uart.o
    0x0800b938   0x0800b938   0x00000146   Code   RO         1620    .text.UART_CheckIdleState  stm32h7xx_hal_uart.o
    0x0800ba7e   0x0800ba7e   0x00000002   PAD
    0x0800ba80   0x0800ba80   0x00000024   Code   RO         1702    .text.UART_DMAAbortOnError  stm32h7xx_hal_uart.o
    0x0800baa4   0x0800baa4   0x00000004   PAD
    0x0800baa8   0x0800baa8   0x0000009e   Code   RO         1672    .text.UART_EndRxTransfer  stm32h7xx_hal_uart.o
    0x0800bb46   0x0800bb46   0x00000002   PAD
    0x0800bb48   0x0800bb48   0x00000044   Code   RO         1708    .text.UART_EndTransmit_IT  stm32h7xx_hal_uart.o
    0x0800bb8c   0x0800bb8c   0x00000004   PAD
    0x0800bb90   0x0800bb90   0x00000a4e   Code   RO         1618    .text.UART_SetConfig  stm32h7xx_hal_uart.o
    0x0800c5de   0x0800c5de   0x00000002   PAD
    0x0800c5e0   0x0800c5e0   0x0000010c   Code   RO         1634    .text.UART_WaitOnFlagUntilTimeout  stm32h7xx_hal_uart.o
    0x0800c6ec   0x0800c6ec   0x00000004   PAD
    0x0800c6f0   0x0800c6f0   0x0000005a   Code   RO         1821    .text.USART_RxDMA_MultiBufferStart  bsp_uart.o
    0x0800c74a   0x0800c74a   0x00000006   PAD
    0x0800c750   0x0800c750   0x00000004   Code   RO          107    .text.UsageFault_Handler  stm32h7xx_it.o
    0x0800c754   0x0800c754   0x00000004   PAD
    0x0800c758   0x0800c758   0x00000030   Code   RO          164    .text.__NVIC_EnableIRQ  stm32h7xx_hal_cortex.o
    0x0800c788   0x0800c788   0x00000010   Code   RO          156    .text.__NVIC_GetPriorityGrouping  stm32h7xx_hal_cortex.o
    0x0800c798   0x0800c798   0x00000042   Code   RO          158    .text.__NVIC_SetPriority  stm32h7xx_hal_cortex.o
    0x0800c7da   0x0800c7da   0x00000006   PAD
    0x0800c7e0   0x0800c7e0   0x0000003c   Code   RO          152    .text.__NVIC_SetPriorityGrouping  stm32h7xx_hal_cortex.o
    0x0800c81c   0x0800c81c   0x00000090   Code   RO         2397    .text.arm_cos_f32   arm_cortexM7lfdp_math.lib(arm_cos_f32.o)
    0x0800c8ac   0x0800c8ac   0x0000008c   Code   RO         2407    .text.arm_sin_f32   arm_cortexM7lfdp_math.lib(arm_sin_f32.o)
    0x0800c938   0x0800c938   0x00000058   Code   RO         1868    .text.float_to_uint  motor.o
    0x0800c990   0x0800c990   0x00000014   Code   RO         2190    .text.inHandlerMode  cmsis_os.o
    0x0800c9a4   0x0800c9a4   0x00000004   PAD
    0x0800c9a8   0x0800c9a8   0x0000005a   Code   RO           11    .text.main          main.o
    0x0800ca02   0x0800ca02   0x00000006   PAD
    0x0800ca08   0x0800ca08   0x00000028   Code   RO         2194    .text.makeFreeRtosPriority  cmsis_os.o
    0x0800ca30   0x0800ca30   0x00000028   Code   RO         2208    .text.osDelay       cmsis_os.o
    0x0800ca58   0x0800ca58   0x0000000a   Code   RO         2184    .text.osKernelStart  cmsis_os.o
    0x0800ca62   0x0800ca62   0x00000006   PAD
    0x0800ca68   0x0800ca68   0x00000022   Code   RO         2188    .text.osKernelSysTick  cmsis_os.o
    0x0800ca8a   0x0800ca8a   0x00000006   PAD
    0x0800ca90   0x0800ca90   0x000000ac   Code   RO         2192    .text.osThreadCreate  cmsis_os.o
    0x0800cb3c   0x0800cb3c   0x00000004   PAD
    0x0800cb40   0x0800cb40   0x000000f4   Code   RO         2068    .text.prvAddCurrentTaskToDelayedList  tasks.o
    0x0800cc34   0x0800cc34   0x00000004   PAD
    0x0800cc38   0x0800cc38   0x00000110   Code   RO         2054    .text.prvAddNewTaskToReadyList  tasks.o
    0x0800cd48   0x0800cd48   0x0000005a   Code   RO         2152    .text.prvCheckTasksWaitingTermination  tasks.o
    0x0800cda2   0x0800cda2   0x00000006   PAD
    0x0800cda8   0x0800cda8   0x0000005e   Code   RO         2060    .text.prvDeleteTCB  tasks.o
    0x0800ce06   0x0800ce06   0x00000002   PAD
    0x0800ce08   0x0800ce08   0x000000bc   Code   RO         2306    .text.prvHeapInit   heap_4.o
    0x0800cec4   0x0800cec4   0x00000004   PAD
    0x0800cec8   0x0800cec8   0x00000038   Code   RO         2090    .text.prvIdleTask   tasks.o
    0x0800cf00   0x0800cf00   0x00000114   Code   RO         2052    .text.prvInitialiseNewTask  tasks.o
    0x0800d014   0x0800d014   0x00000004   PAD
    0x0800d018   0x0800d018   0x0000008e   Code   RO         2150    .text.prvInitialiseTaskLists  tasks.o
    0x0800d0a6   0x0800d0a6   0x00000002   PAD
    0x0800d0a8   0x0800d0a8   0x000000c6   Code   RO         2308    .text.prvInsertBlockIntoFreeList  heap_4.o
    0x0800d16e   0x0800d16e   0x00000002   PAD
    0x0800d170   0x0800d170   0x00000028   Code   RO         2347    .text.prvPortStartFirstTask  port.o
    0x0800d198   0x0800d198   0x00000046   Code   RO         2062    .text.prvResetNextTaskUnblockTime  tasks.o
    0x0800d1de   0x0800d1de   0x00000002   PAD
    0x0800d1e0   0x0800d1e0   0x0000004c   Code   RO         2337    .text.prvTaskExitError  port.o
    0x0800d22c   0x0800d22c   0x00000004   PAD
    0x0800d230   0x0800d230   0x000001ec   Code   RO         2304    .text.pvPortMalloc  heap_4.o
    0x0800d41c   0x0800d41c   0x00000004   PAD
    0x0800d420   0x0800d420   0x0000005e   Code   RO         2335    .text.pxPortInitialiseStack  port.o
    0x0800d47e   0x0800d47e   0x00000002   PAD
    0x0800d480   0x0800d480   0x00000044   Code   RO         2385    .text.sign          control_task.o
    0x0800d4c4   0x0800d4c4   0x00000004   PAD
    0x0800d4c8   0x0800d4c8   0x00000052   Code   RO         1872    .text.uint_to_float  motor.o
    0x0800d51a   0x0800d51a   0x00000006   PAD
    0x0800d520   0x0800d520   0x00000048   Code   RO         1922    .text.uxListRemove  list.o
    0x0800d568   0x0800d568   0x0000002a   Code   RO           35    .text.vApplicationGetIdleTaskMemory  freertos.o
    0x0800d592   0x0800d592   0x00000006   PAD
    0x0800d598   0x0800d598   0x0000002e   Code   RO         1914    .text.vListInitialise  list.o
    0x0800d5c6   0x0800d5c6   0x00000002   PAD
    0x0800d5c8   0x0800d5c8   0x0000000e   Code   RO         1916    .text.vListInitialiseItem  list.o
    0x0800d5d6   0x0800d5d6   0x00000002   PAD
    0x0800d5d8   0x0800d5d8   0x0000006a   Code   RO         1920    .text.vListInsert   list.o
    0x0800d642   0x0800d642   0x00000006   PAD
    0x0800d648   0x0800d648   0x0000003a   Code   RO         1918    .text.vListInsertEnd  list.o
    0x0800d682   0x0800d682   0x00000006   PAD
    0x0800d688   0x0800d688   0x00000014   Code   RO         2345    .text.vPortEnableVFP  port.o
    0x0800d69c   0x0800d69c   0x00000004   PAD
    0x0800d6a0   0x0800d6a0   0x00000056   Code   RO         2351    .text.vPortEnterCritical  port.o
    0x0800d6f6   0x0800d6f6   0x00000002   PAD
    0x0800d6f8   0x0800d6f8   0x0000004a   Code   RO         2353    .text.vPortExitCritical  port.o
    0x0800d742   0x0800d742   0x00000006   PAD
    0x0800d748   0x0800d748   0x000000ce   Code   RO         2310    .text.vPortFree     heap_4.o
    0x0800d816   0x0800d816   0x00000002   PAD
    0x0800d818   0x0800d818   0x00000044   Code   RO         2343    .text.vPortSetupTimerInterrupt  port.o
    0x0800d85c   0x0800d85c   0x00000004   PAD
    0x0800d860   0x0800d860   0x00000084   Code   RO         2359    .text.vPortValidateInterruptPriority  port.o
    0x0800d8e4   0x0800d8e4   0x00000004   PAD
    0x0800d8e8   0x0800d8e8   0x0000006e   Code   RO         2064    .text.vTaskDelay    tasks.o
    0x0800d956   0x0800d956   0x00000002   PAD
    0x0800d958   0x0800d958   0x000000ce   Code   RO         2088    .text.vTaskStartScheduler  tasks.o
    0x0800da26   0x0800da26   0x00000002   PAD
    0x0800da28   0x0800da28   0x00000010   Code   RO         2066    .text.vTaskSuspendAll  tasks.o
    0x0800da38   0x0800da38   0x000000be   Code   RO         2080    .text.vTaskSwitchContext  tasks.o
    0x0800daf6   0x0800daf6   0x00000002   PAD
    0x0800daf8   0x0800daf8   0x00000156   Code   RO         2341    .text.xPortStartScheduler  port.o
    0x0800dc4e   0x0800dc4e   0x00000002   PAD
    0x0800dc50   0x0800dc50   0x0000009e   Code   RO         2056    .text.xTaskCreate   tasks.o
    0x0800dcee   0x0800dcee   0x00000002   PAD
    0x0800dcf0   0x0800dcf0   0x000000ce   Code   RO         2050    .text.xTaskCreateStatic  tasks.o
    0x0800ddbe   0x0800ddbe   0x00000002   PAD
    0x0800ddc0   0x0800ddc0   0x00000014   Code   RO         2096    .text.xTaskGetTickCount  tasks.o
    0x0800ddd4   0x0800ddd4   0x00000004   PAD
    0x0800ddd8   0x0800ddd8   0x0000001e   Code   RO         2098    .text.xTaskGetTickCountFromISR  tasks.o
    0x0800ddf6   0x0800ddf6   0x00000002   PAD
    0x0800ddf8   0x0800ddf8   0x000001b8   Code   RO         2094    .text.xTaskIncrementTick  tasks.o
    0x0800dfb0   0x0800dfb0   0x00000178   Code   RO         2070    .text.xTaskResumeAll  tasks.o
    0x0800e128   0x0800e128   0x00000030   Code   RO         2599    i.__ARM_fpclassify  m_wv.l(fpclassify.o)
    0x0800e158   0x0800e158   0x000001d4   Code   RO         2549    i.__hardfp_atan     m_wv.l(atan.o)
    0x0800e32c   0x0800e32c   0x00000004   PAD
    0x0800e330   0x0800e330   0x000001c8   Code   RO         2527    i.__hardfp_atan2    m_wv.l(atan2.o)
    0x0800e4f8   0x0800e4f8   0x0000003a   Code   RO         2533    i.__hardfp_sqrtf    m_wv.l(sqrtf.o)
    0x0800e532   0x0800e532   0x00000070   Code   RO         2601    i.__kernel_poly     m_wv.l(poly.o)
    0x0800e5a2   0x0800e5a2   0x00000006   Code   RO         2557    i.__mathlib_dbl_infnan  m_wv.l(dunder.o)
    0x0800e5a8   0x0800e5a8   0x00000006   Code   RO         2558    i.__mathlib_dbl_infnan2  m_wv.l(dunder.o)
    0x0800e5ae   0x0800e5ae   0x00000002   PAD
    0x0800e5b0   0x0800e5b0   0x00000018   Code   RO         2562    i.__mathlib_dbl_underflow  m_wv.l(dunder.o)
    0x0800e5c8   0x0800e5c8   0x00000010   Code   RO         2551    i.atan              m_wv.l(atan.o)
    0x0800e5d8   0x0800e5d8   0x00000018   Code   RO         2572    i.fabs              m_wv.l(fabs.o)
    0x0800e5f0   0x0800e5f0   0x0000001a   Code   RO         2690    x$fpl$fpinit        fz_wv.l(fpinit.o)
    0x0800e60a   0x0800e60a   0x00000000   Code   RO         2548    x$fpl$usenofp       fz_wv.l(usenofp.o)
    0x0800e60a   0x0800e60a   0x00000006   PAD
    0x0800e610   0x0800e610   0x00000098   Data   RO         2552    .constdata          m_wv.l(atan.o)
    0x0800e6a8   0x0800e6a8   0x00000008   Data   RO         2576    .constdata          m_wv.l(qnan.o)
    0x0800e6b0   0x0800e6b0   0x0000004c   Data   RO          427    .rodata..L__const.HAL_FDCAN_Init.CvtEltSize  stm32h7xx_hal_fdcan.o
    0x0800e6fc   0x0800e6fc   0x0000001c   Data   RO           46    .rodata..L__const.MX_FREERTOS_Init.os_thread_def_NCAN_Task  freertos.o
    0x0800e718   0x0800e718   0x0000001c   Data   RO           48    .rodata..L__const.MX_FREERTOS_Init.os_thread_def_NControl_Task  freertos.o
    0x0800e734   0x0800e734   0x00000010   Data   RO         1811    .rodata.D1CorePrescTable  system_stm32h7xx.o
    0x0800e744   0x0800e744   0x00000010   Data   RO          428    .rodata.DLCtoBytes  stm32h7xx_hal_fdcan.o
    0x0800e754   0x0800e754   0x00000008   Data   RO          723    .rodata.DMA_CalcBaseAndBitshift.flagBitshiftOffset  stm32h7xx_hal_dma.o
    0x0800e75c   0x0800e75c   0x00000008   Data   RO         1797    .rodata.UARTEx_SetNbDataToProcess.denominator  stm32h7xx_hal_uart_ex.o
    0x0800e764   0x0800e764   0x00000008   Data   RO         1796    .rodata.UARTEx_SetNbDataToProcess.numerator  stm32h7xx_hal_uart_ex.o
    0x0800e76c   0x0800e76c   0x00000018   Data   RO         1752    .rodata.UARTPrescTable  stm32h7xx_hal_uart.o
    0x0800e784   0x0800e784   0x00000804   Data   RO         2503    .rodata.sinTable_f32  arm_cortexM7lfdp_math.lib(arm_common_tables.o)
    0x0800ef88   0x0800ef88   0x00000018   Data   RO           45    .rodata.str1.1      freertos.o
    0x0800efa0   0x0800efa0   0x00000005   Data   RO         2165    .rodata.str1.1      tasks.o
    0x0800efa5   0x0800efa5   0x00000003   PAD
    0x0800efa8   0x0800efa8   0x00000020   Data   RO         2751    Region$$Table       anon$$obj.o


    Execution Region RW_IRAM2 (Exec base: 0x24000000, Load base: 0x0800efc8, Size: 0x0000a5a8, Max: 0x00020000, ABSOLUTE, COMPRESSED[0x00000050])

    Exec Addr    Load Addr    Size         Type   Attr      Idx    E Section Name        Object

    0x24000000   COMPRESSED   0x000000c0   Data   RW         1875    .data.DM_6215_Motor  motor.o
    0x240000c0   COMPRESSED   0x000000c0   Data   RW         1874    .data.DM_6220_Motor  motor.o
    0x24000180   COMPRESSED   0x00000018   Data   RW         1856    .data.Remote_Ctrl   remote_control.o
    0x24000198   COMPRESSED   0x00000030   Data   RW         1842    .data.SteerTxFrame  bsp_can.o
    0x240001c8   COMPRESSED   0x00000004   Data   RW         1809    .data.SystemCoreClock  system_stm32h7xx.o
    0x240001cc   COMPRESSED   0x00000004   Data   RW         1810    .data.SystemD2Clock  system_stm32h7xx.o
    0x240001d0   COMPRESSED   0x00000030   Data   RW         1843    .data.WheelTxFrame  bsp_can.o
    0x24000200   COMPRESSED   0x00000001   Data   RW         1038    .data.uwTickFreq    stm32h7xx_hal.o
    0x24000201   COMPRESSED   0x00000003   PAD
    0x24000204   COMPRESSED   0x00000004   Data   RW         1037    .data.uwTickPrio    stm32h7xx_hal.o
    0x24000208   COMPRESSED   0x00000004   Data   RW         2363    .data.uxCriticalNesting  port.o
    0x2400020c   COMPRESSED   0x00000004   PAD
    0x24000210        -       0x00000060   Zero   RW         2604    .bss                c_w.l(libspace.o)
    0x24000270        -       0x00000058   Zero   RW         2389    .bss.Control_Info   control_task.o
    0x240002c8        -       0x00000034   Zero   RW         1844    .bss.FDCAN1_RxFrame  bsp_can.o
    0x240002fc        -       0x00000034   Zero   RW         1845    .bss.FDCAN2_RxFrame  bsp_can.o
    0x24000330        -       0x00000004   Zero   RW           75    .bss.HAL_RCC_FDCAN_CLK_ENABLED  fdcan.o
    0x24000334        -       0x00000004   Zero   RW           47    .bss.NCAN_TaskHandle  freertos.o
    0x24000338        -       0x00000004   Zero   RW           49    .bss.NControl_TaskHandle  freertos.o
    0x2400033c        -       0x00000024   Zero   RW         1857    .bss.SBUS_MultiRx_Buf  remote_control.o
    0x24000360        -       0x00000004   Zero   RW         2377    .bss.Systick        can_task.o
    0x24000364        -       0x00000078   Zero   RW           91    .bss.hdma_uart5_rx  usart.o
    0x240003dc        -       0x000000a0   Zero   RW           73    .bss.hfdcan1        fdcan.o
    0x2400047c        -       0x000000a0   Zero   RW           74    .bss.hfdcan2        fdcan.o
    0x2400051c        -       0x0000004c   Zero   RW          142    .bss.htim2          stm32h7xx_hal_timebase_tim.o
    0x24000568        -       0x00000094   Zero   RW           90    .bss.huart5         usart.o
    0x240005fc        -       0x00000004   Zero   RW         2154    .bss.pxCurrentTCB   tasks.o
    0x24000600        -       0x00000004   Zero   RW         2171    .bss.pxDelayedTaskList  tasks.o
    0x24000604        -       0x00000004   Zero   RW         2320    .bss.pxEnd          heap_4.o
    0x24000608        -       0x00000004   Zero   RW         2172    .bss.pxOverflowDelayedTaskList  tasks.o
    0x2400060c        -       0x0000008c   Zero   RW         2155    .bss.pxReadyTasksLists  tasks.o
    0x24000698        -       0x00003c00   Zero   RW         2327    .bss.ucHeap         heap_4.o
    0x24004298        -       0x00000001   Zero   RW         2361    .bss.ucMaxSysCallPriority  port.o
    0x24004299   COMPRESSED   0x00000003   PAD
    0x2400429c        -       0x00000004   Zero   RW         2362    .bss.ulMaxPRIGROUPValue  port.o
    0x240042a0        -       0x00000004   Zero   RW         1039    .bss.uwTick         stm32h7xx_hal.o
    0x240042a4        -       0x00000004   Zero   RW         2160    .bss.uxCurrentNumberOfTasks  tasks.o
    0x240042a8        -       0x00000004   Zero   RW         2159    .bss.uxDeletedTasksWaitingCleanUp  tasks.o
    0x240042ac        -       0x00000004   Zero   RW         2162    .bss.uxSchedulerSuspended  tasks.o
    0x240042b0        -       0x00000004   Zero   RW         2157    .bss.uxTaskNumber   tasks.o
    0x240042b4        -       0x00000004   Zero   RW         2156    .bss.uxTopReadyPriority  tasks.o
    0x240042b8        -       0x00000004   Zero   RW         2321    .bss.xBlockAllocatedBit  heap_4.o
    0x240042bc        -       0x00000014   Zero   RW         2174    .bss.xDelayedTaskList1  tasks.o
    0x240042d0        -       0x00000014   Zero   RW         2175    .bss.xDelayedTaskList2  tasks.o
    0x240042e4        -       0x00000004   Zero   RW         2322    .bss.xFreeBytesRemaining  heap_4.o
    0x240042e8        -       0x00000200   Zero   RW           44    .bss.xIdleStack     freertos.o
    0x240044e8        -       0x00000004   Zero   RW         2166    .bss.xIdleTaskHandle  tasks.o
    0x240044ec        -       0x00000054   Zero   RW           43    .bss.xIdleTaskTCBBuffer  freertos.o
    0x24004540        -       0x00000004   Zero   RW         2324    .bss.xMinimumEverFreeBytesRemaining  heap_4.o
    0x24004544        -       0x00000004   Zero   RW         2167    .bss.xNextTaskUnblockTime  tasks.o
    0x24004548        -       0x00000004   Zero   RW         2173    .bss.xNumOfOverflows  tasks.o
    0x2400454c        -       0x00000004   Zero   RW         2325    .bss.xNumberOfSuccessfulAllocations  heap_4.o
    0x24004550        -       0x00000004   Zero   RW         2326    .bss.xNumberOfSuccessfulFrees  heap_4.o
    0x24004554        -       0x00000004   Zero   RW         2170    .bss.xPendedTicks   tasks.o
    0x24004558        -       0x00000014   Zero   RW         2164    .bss.xPendingReadyList  tasks.o
    0x2400456c        -       0x00000004   Zero   RW         2161    .bss.xSchedulerRunning  tasks.o
    0x24004570        -       0x00000008   Zero   RW         2323    .bss.xStart         heap_4.o
    0x24004578        -       0x00000014   Zero   RW         2163    .bss.xSuspendedTaskList  tasks.o
    0x2400458c        -       0x00000014   Zero   RW         2158    .bss.xTasksWaitingTermination  tasks.o
    0x240045a0        -       0x00000004   Zero   RW         2168    .bss.xTickCount     tasks.o
    0x240045a4        -       0x00000004   Zero   RW         2169    .bss.xYieldPending  tasks.o
    0x240045a8        -       0x00002000   Zero   RW            2    HEAP                startup_stm32h723xx.o
    0x240065a8        -       0x00004000   Zero   RW            1    STACK               startup_stm32h723xx.o


==============================================================================

Image component sizes


      Code (inc. data)   RO Data    RW Data    ZI Data      Debug   Object Name

       566          8          0         96        104       6017   bsp_can.o
      2188          0          0          0          0       4786   bsp_uart.o
      1094          8          0          0          4       1280   can_task.o
       316          0          0          0          0      16146   cmsis_os.o
      1444         16          0          0         88       2368   control_task.o
        56          0          0          0          0       5179   dma.o
       650          0          0          0        324      11403   fdcan.o
       176          0         80          0        604       2863   freertos.o
       186          0          0          0          0       2890   gpio.o
      1084          0          0          0      15392       4407   heap_4.o
       296          0          0          0          0       2173   list.o
       336          0          0          0          0       6015   main.o
       896          8          0        384          0       7029   motor.o
      1128         16          0          4          5       3785   port.o
       304          0          0         24         36       1783   remote_control.o
        64         26        716          0      24576        804   startup_stm32h723xx.o
       160          0          0          5          4      14553   stm32h7xx_hal.o
       380          0          0          0          0      11417   stm32h7xx_hal_cortex.o
     12448          8          8          0          0      12392   stm32h7xx_hal_dma.o
      1964          0          0          0          0       6473   stm32h7xx_hal_dma_ex.o
      5194          0         92          0          0      33292   stm32h7xx_hal_fdcan.o
       982          0          0          0          0       6939   stm32h7xx_hal_gpio.o
        50          0          0          0          0       5211   stm32h7xx_hal_msp.o
       162          0          0          0          0       9244   stm32h7xx_hal_pwr_ex.o
      4850         66          0          0          0      11378   stm32h7xx_hal_rcc.o
      6398         96          0          0          0      18655   stm32h7xx_hal_rcc_ex.o
      1560          0          0          0          0      37348   stm32h7xx_hal_tim.o
        24          0          0          0          0      18001   stm32h7xx_hal_tim_ex.o
       216          0          0          0         76       9546   stm32h7xx_hal_timebase_tim.o
      5744        342         24          0          0      29205   stm32h7xx_hal_uart.o
       562          0         16          0          0       8808   stm32h7xx_hal_uart_ex.o
       102          0          0          0          0       1201   stm32h7xx_it.o
       314          0         16          8          0       5194   system_stm32h7xx.o
      2996          0          5          0        300      20274   tasks.o
       502          0          0          0        268      11218   usart.o

    ----------------------------------------------------------------------
     55876        622        992        524      41788     349277   Object Totals
         0          0         32          0          0          0   (incl. Generated)
       484         28          3          3          7          0   (incl. Padding)

    ----------------------------------------------------------------------

      Code (inc. data)   RO Data    RW Data    ZI Data      Debug   Library Member Name

         0          0       2052          0          0       4961   arm_common_tables.o
       144         12          0          0          0       1111   arm_cos_f32.o
       140         12          0          0          0       1098   arm_sin_f32.o
        58          0          0          0          0          0   __dczerorl.o
         8          0          0          0          0         68   __main.o
         0          0          0          0          0          0   __rtentry.o
        12          0          0          0          0          0   __rtentry2.o
         6          0          0          0          0          0   __rtentry4.o
        52          8          0          0          0          0   __scatter.o
        28          0          0          0          0          0   __scatter_zi.o
        22          0          0          0          0        100   _rserrno.o
        18          0          0          0          0         80   exit.o
         6          0          0          0          0        152   heapauxi.o
         0          0          0          0          0          0   indicate_semi.o
         2          0          0          0          0          0   libinit.o
         6          0          0          0          0          0   libinit2.o
         2          0          0          0          0          0   libshutdown.o
         2          0          0          0          0          0   libshutdown2.o
         8          4          0          0         96         68   libspace.o
       240          0          0          0          0        100   lludivv7m.o
         8          4          0          0          0         68   rt_errno_addr_intlibspace.o
        78          0          0          0          0         80   rt_memclr_w.o
       100          0          0          0          0         80   rt_memcpy_w.o
         2          0          0          0          0          0   rtexit.o
        10          0          0          0          0          0   rtexit2.o
        12          4          0          0          0         68   sys_exit.o
        74          0          0          0          0         80   sys_stackheap_outer.o
         2          0          0          0          0         68   use_no_semi.o
        26          0          0          0          0        116   fpinit.o
         0          0          0          0          0          0   usenofp.o
       484         66        152          0          0        348   atan.o
       456         64          0          0          0        180   atan2.o
        36         14          0          0          0        348   dunder.o
        24          0          0          0          0        124   fabs.o
        48          0          0          0          0        124   fpclassify.o
       112          0          0          0          0        116   poly.o
         0          0          8          0          0          0   qnan.o
        58          0          0          0          0        136   sqrtf.o

    ----------------------------------------------------------------------
      2304        192       2212          0         96       9674   Library Totals
        20          4          0          0          0          0   (incl. Padding)

    ----------------------------------------------------------------------

      Code (inc. data)   RO Data    RW Data    ZI Data      Debug   Library Name

       284         24       2052          0          0       7170   arm_cortexM7lfdp_math.lib
       756         20          0          0         96       1012   c_w.l
        26          0          0          0          0        116   fz_wv.l
      1218        144        160          0          0       1376   m_wv.l

    ----------------------------------------------------------------------
      2304        192       2212          0         96       9674   Library Totals

    ----------------------------------------------------------------------

==============================================================================


      Code (inc. data)   RO Data    RW Data    ZI Data      Debug   

     58180        814       3204        524      41884     356959   Grand Totals
     58180        814       3204         80      41884     356959   ELF Image Totals (compressed)
     58180        814       3204         80          0          0   ROM Totals

==============================================================================

    Total RO  Size (Code + RO Data)                61384 (  59.95kB)
    Total RW  Size (RW Data + ZI Data)             42408 (  41.41kB)
    Total ROM Size (Code + RO Data + RW Data)      61464 (  60.02kB)

==============================================================================

