:020000040800F2
:10000000A8A500248D03000841AD000819AA000826
:1000100039AD00083907000851C70008000000008A
:1000200000000000000000000000000001B3000814
:10003000211B000800000000C1AD000829B3000822
:10004000A7030008A7030008A7030008A7030008E8
:10005000A7030008A7030008A7030008A7030008D8
:10006000A7030008A7030008A7030008E10F000882
:10007000A7030008A7030008A7030008A7030008B8
:10008000A7030008A7030008A7030008391B0008FE
:10009000B91B0008A7030008A7030008A70300086E
:1000A000A7030008A7030008A7030008A703000888
:1000B00079B50008A7030008A7030008A7030008F4
:1000C000A7030008A7030008A7030008A703000868
:1000D000A7030008A7030008A7030008A703000858
:1000E000A7030008A703000800000000A7030008FA
:1000F000A7030008A7030008A7030008A703000838
:10010000A7030008A7030008A7030008A703000827
:10011000A703000859B70008A7030008A7030008B1
:10012000A7030008A7030008A7030008A703000807
:10013000A7030008A7030008A7030008A7030008F7
:1001400000000000000000000000000000000000AF
:10015000A7030008A7030008A7030008A7030008D7
:10016000A7030008A7030008A7030008A7030008C7
:10017000A7030008A7030008A70300080000000069
:10018000A7030008A7030008A7030008A7030008A7
:10019000A7030008A7030008A7030008A703000897
:1001A000A7030008A7030008A70300080000000039
:1001B000A7030008A7030008A7030008A703000877
:1001C000A7030008A70300080000000000000000CB
:1001D0000000000000000000A7030008000000006D
:1001E000000000000000000000000000000000000F
:1001F0000000000000000000A7030008A70300089B
:10020000A7030008A703000800000000A7030008D8
:10021000A7030008A7030008A7030008A703000816
:10022000A703000800000000A7030008000000006A
:10023000A7030008A703000800000000A7030008A8
:10024000A7030008A7030008A7030008A7030008E6
:10025000A7030008A7030008A7030008A7030008D6
:10026000A7030008A7030008A7030008A7030008C6
:10027000A7030008A7030008A70300080000000068
:10028000A7030008A7030008A7030008A7030008A6
:1002900000000000A7030008A703000800000000FA
:1002A00000000000A7030008A7030008A703000838
:1002B000A7030008A7030008A7030008A703000876
:1002C000A7030008A7030008A703000800F002F82E
:1002D00000F04CF80AA090E8000C82448344AAF194
:1002E0000107DA4501D100F041F8AFF2090EBAE892
:1002F0000F0013F0010F18BFFB1A43F0010318475A
:10030000A8EC0000C8EC00000A4410F8014B14F0FF
:100310000F0508BF10F8015B240908BF10F8014B56
:100320006D1E05D010F8013B6D1E01F8013BF9D19F
:10033000641E03D0641E01F8015BFBD19142E4D33B
:10034000704700000023002400250026103A28BF33
:1003500078C1FBD8520728BF30C148BF0B60704737
:100360001FB50EF045F91FBD10B510BD00F016F910
:100370001146FFF7F5FF0CF017FB00F034F903B45A
:10038000FFF7F2FF03BC00F037F90000094880478F
:1003900009480047FEE7FEE7FEE7FEE7FEE7FEE767
:1003A000FEE7FEE7FEE7FEE704480549054A064B7F
:1003B0007047000039B40008CD020008A8450024A9
:1003C000A8A50024A8650024A865002453EA020C0F
:1003D00000F069802DE9F04B4FF00006002B1FBFA5
:1003E000B3FA83F503FA05F424FA05F65E4012BF6A
:1003F0001643B2FA82F502FA05F4C5F120051EBFD4
:1004000022FA05FC44EA0C04203556EA044C4FEA73
:10041000144418BF641C4FF000084FF000099042CC
:1004200071EB030C39D3002919BFB1FA81F701FA36
:1004300007F6B0FA80F700FA07F6C7F120071EBFEB
:1004400020FA07FC46EA0C062037B6FBF4FCA7EBC3
:100450000507103F07F01F0BCBF120062CFA06F61C
:100460000CFA0BFB44BFB3460026202FA4BF5E4608
:100470004FF0000B5BEA060C08BF4FF0010B19EBC5
:100480000B0948EB0608ABFB027C06FB02CC0BFB1E
:1004900003CCC01B71EB0C01C1E70B460246414681
:1004A0004846BDE8F08B13B5084318BF4FF0FF3046
:1004B0000146AFF30080BDE81C40704710B5203AFC
:1004C000C0F00B80B1E81850A0E81850B1E81850FF
:1004D000A0E81850203ABFF4F5AF5FEA027C24BFD1
:1004E000B1E81850A0E8185044BF18C918C0BDE8BA
:1004F00010405FEA827C24BF51F8043B40F8043B83
:1005000008BF7047D20728BF31F8023B48BF11F837
:10051000012B28BF20F8023B48BF00F8012B704791
:100520004FF0000200B5134694469646203922BF8C
:10053000A0E80C50A0E80C50B1F12001BFF4F7AFD7
:10054000090728BFA0E80C5048BF0CC05DF804EBB9
:10055000890028BF40F8042B08BF704748BF20F827
:10056000022B11F0804F18BF00F8012B7047704725
:100570007047704710B500F009F8006810BD10B55D
:10058000044600F003F8046010BD00000048704706
:100590001002002400487047100200247546FFF73F
:1005A000F9FFAE4605006946534620F00700854630
:1005B00018B020B5FFF7F8FEBDE820404FF0000668
:1005C0004FF000074FF000084FF0000BAC46ACE8CE
:1005D000C009ACE8C009ACE8C009ACE8C00921F02A
:1005E00007018D46704710B50446AFF300802046E2
:1005F000BDE81040FFF7C3BE01491820ABBEFEE7BF
:10060000260002007047000080B592B000200A90DA
:100610000B9002210C9101210D910E900F9040F250
:10062000DC30C2F200400AA904F046FE18B1FFE730
:1006300001F07AFAFFE768460023036040F2DC30FD
:10064000C2F200400222114604F0C2FE18B1FFE7D8
:1006500001F06AFAFFE740F2DC30C2F2004001210B
:10066000002204F039FD18B1FFE701F05DFAFFE761
:1006700040F2DC30C2F2004005F04AFE18B1FFE75C
:1006800001F052FAFFE7002002900390022104914A
:1006900005910690079040F27C40C2F2004002A90A
:1006A00004F00AFE18B1FFE701F03EFAFFE76846E2
:1006B0000023036040F27C40C2F200400222114657
:1006C00004F086FE18B1FFE701F02EFAFFE740F2D2
:1006D0007C40C2F200401021002204F0FDFC18B161
:1006E000FFE701F021FAFFE740F27C40C2F2004050
:1006F00005F00EFE18B1FFE701F016FAFFE712B0A1
:1007000080BD00000000000080B582B040F268505B
:10071000C2F20040016824316B4624221A6040F284
:100720003C32C2F2004202F112030BF0E1FF02B0D0
:1007300080BD000000000000FFE7FEE700000000B1
:1007400080B59EB01D904FF4FA600CF071F901F085
:100750004BF800F0F1FFFFE70CF086F940F2603152
:10076000C2F20041086040F28010C2F20040C07A3C
:10077000012840F0D580FFE740F26030C2F200402F
:100780000078C007002863D1FFE740F27020C2F272
:100790000040179090ED0E0A40F29810C2F200400F
:1007A000159040F2C001C2F200411491B0EE081A57
:1007B0008DED161ADFEDB11ACDED1B1A9FEDAE2AA5
:1007C0008DED1C2AF0EE420A01F03AF814991598C2
:1007D0009DED161A179ADDED1B1A9DED1C2A92ED60
:1007E0000F0A3031F0EE420A01F02AF81798DDEDD9
:1007F0001B1A9DED1C2A90ED120AB2EE041A8DED23
:10080000181A60EE010A40F2D010C2F200401A90AD
:1008100040F20001C2F200411991B0EE420AB0EE7E
:10082000421A01F00DF8179A9DED181A19991A98A5
:10083000DDED1B1A9DED1C2A92ED130A60EE010AF4
:100840003031B0EE420AB0EE421A00F0F9FF66E035
:1008500040F27020C2F200400E9090ED100A40F27B
:10086000C000C2F200400B9000F1600140F298100D
:10087000C2F200400C90B0EE081A8DED0D1ADFEDBB
:100880007F1ACDED121A9FED7C2A8DED132AF0EE22
:10089000420A00F0D5FF0B990C989DED0D1A0E9AA7
:1008A000DDED121A9DED132A92ED110A9031F0EE52
:1008B000420A00F0C5FF0E98DDED121A9DED132AD5
:1008C00090ED140AB2EE041A8DED0F1A60EE410A93
:1008D00040F20000C2F20040109000F1600140F2CE
:1008E000D010C2F200401190B0EE420AB0EE421AAF
:1008F00000F0A6FF0E9A9DED0F1A10991198DDEDEC
:10090000121A9DED132A92ED150A60EE410A9031FC
:10091000B0EE420AB0EE421A00F092FFFFE7A7E005
:1009200040F26030C2F200400078C00700284DD18C
:10093000FFE740F29810C2F20040079040F2C00179
:10094000C2F2004106919FED4C2A8DED0A2AB0EECD
:10095000420AF0EE420AB0EE421AF0EE421A00F0FD
:100960006FFF069907989DED0A2A3031B0EE420AD2
:10097000F0EE420AB0EE421AF0EE421A00F060FFCA
:100980009DED0A2A40F2D010C2F20040099040F2D8
:100990000001C2F200410891B0EE420AF0EE420AB4
:1009A000B0EE421AF0EE421A00F04AFF0899099898
:1009B0009DED0A2A3031B0EE420AF0EE420AB0EE66
:1009C000421AF0EE421A00F03BFF50E040F2C00045
:1009D000C2F20040019000F1600140F29810C2F2B2
:1009E000004002909FED242A8DED052AB0EE420AC8
:1009F000F0EE420AB0EE421AF0EE421A00F020FF8A
:100A0000019902989DED052A9031B0EE420AF0EE70
:100A1000420AB0EE421AF0EE421A00F011FF9DEDCC
:100A2000052A40F20000C2F20040039000F160018C
:100A300040F2D010C2F200400490B0EE420AF0EE54
:100A4000420AB0EE421AF0EE421A00F0F9FE0399A3
:100A500004989DED052A9031B0EE420AF0EE420A6C
:100A6000B0EE421AF0EE421A00F0EAFEFFE7FFE7AE
:100A700001200BF0DDFF6FE6000000008FC2F53CA7
:100A800080B5C2B03590FFE740F28010C2F200405E
:100A90002E90B0F906000CF0F3FC01462E9800EE03
:100AA000101AB8EEC00A40F27021C2F20041339130
:100AB00081ED000AB0F904000CF0E2FC3399024623
:100AC0002E9800EE102AB8EEC00A81ED010A0088C7
:100AD000404200B20CF0D4FC0146339800EE101AEC
:100AE000B8EEC00A80ED020A90ED010A8DED300AE1
:100AF00090ED020A8DED2F0A9FEDBB0A8DED310AB4
:100B00000BF08CFE9DED2F2A9DED301A3398B0EE40
:100B1000403A9DED310A22EE032A32EE022A31EEEE
:100B2000421A80ED031A90ED001A8DED341A90ED03
:100B3000021A8DED321A0BF0B9FE9DED321A339880
:100B4000B0EE402A9DED340A21EE021A31EE011A70
:100B500030EE410A80ED040A90ED031A90ED040A8C
:100B600020EE000A01EE010A8DED370A483036907A
:100B70009DED370AB5EE400AF1EE10FA0BDBFFE708
:100B80009DED370A0DF0B8FC369880ED000A002084
:100B90008DF8E30006E0369900200860FF208DF80C
:100BA000E300FFE740F27020C2F200402C9090ED8D
:100BB000010A8DED290A90ED020A8DED280A9FEDBC
:100BC0008A0A8DED2A0A0BF029FE9DED282A9DED5B
:100BD000291A2C98B0EE403A9DED2A0A22EE032AFB
:100BE00032EE022A31EE421A80ED051A90ED001A1B
:100BF0008DED2D1A90ED021A8DED2B1A0BF056FE8D
:100C00009DED2B1A2C98B0EE402A9DED2D0A21EE79
:100C1000021A31EE011A30EE010A80ED060A90ED5B
:100C2000051A90ED060A20EE000A01EE010A8DED8C
:100C30003A0A4C3039909DED3A0AB5EE400AF1EE91
:100C400010FA0BDBFFE79DED3A0A0DF055FC3998E1
:100C500080ED000A00208DF8EF0006E039990020B1
:100C60000860FF208DF8EF00FFE740F27020C2F22D
:100C70000040269090ED010A8DED230A90ED020AC6
:100C80008DED220A9FEDD50A8DED240A0BF0C6FDED
:100C90009DED222A9DED231A2698B0EE403A9DED57
:100CA000240A22EE032A32EE022A31EE021A80EDE5
:100CB000071A90ED001A8DED271A90ED021A8DEDAE
:100CC000251A0BF0F3FD9DED251A2698B0EE402A6B
:100CD0009DED270A21EE021A31EE011A30EE010ACB
:100CE00080ED080A90ED071A90ED080A20EE000A40
:100CF00001EE010A8DED3D0A50303C909DED3D0A1C
:100D0000B5EE400AF1EE10FA0BDBFFE79DED3D0A70
:100D10000DF0F2FB3C9880ED000A00208DF8FB00FE
:100D200006E03C9900200860FF208DF8FB00FFE7FB
:100D300040F27020C2F20040209090ED010A8DED4B
:100D40001D0A90ED020A8DED1C0A9FEDA40A8DED9F
:100D50001E0A0BF063FD9DED1C2A9DED1D1A2098C7
:100D6000B0EE403A9DED1E0A22EE032A32EE022A30
:100D700031EE021A80ED091A90ED001A8DED211A5C
:100D800090ED021A8DED1F1A0BF090FD9DED1F1ACC
:100D90002098B0EE402A9DED210A21EE021A31EE94
:100DA000011A30EE410A80ED0A0A90ED091A90ED21
:100DB0000A0A20EE000A01EE010A8DED400A5430C5
:100DC0003F909DED400AB5EE400AF1EE10FA0DDBC2
:100DD000FFE79DED400A0DF08FFB3F9880ED000A84
:100DE00000208DF8070108E0DC0F493F3F99002003
:100DF0000860FF208DF80701FFE740F27020C2F283
:100E000000401B9090ED010A8DED000A90ED020A62
:100E10008DED010A9FED710A8DED150A0BF0FEFCB8
:100E20009DED001A9DED012A1B98B0EE403A9DED14
:100E3000150A02EE431AB7EEC11A8DED041B90EDB0
:100E4000001A8DED021A90ED021A8DED031A0BF0C7
:100E50002DFD9DED021A9DED032AB0EE403A9DED69
:100E6000040B02EE431AB7EEC11A0DF061FA1B989B
:100E7000B0EE401B9DED150AB7EEC11B80ED0E1ABA
:100E800090ED011A8DED061A90ED021A8DED071AFC
:100E90000BF0C4FC9DED061A9DED072A1B98B0EEE1
:100EA000403A9DED150A02EE431AB7EEC11A8DEDD8
:100EB0000A1B90ED001A8DED081A90ED021A8DEDC7
:100EC000091A0BF0F3FC9DED081A9DED092AB0EE0E
:100ED000403A9DED0A0B02EE031AB7EEC11A0DF06F
:100EE00027FA1B98B0EE401B9DED150AB7EEC11B0B
:100EF00080ED0F1A90ED011A8DED0C1A90ED021A8B
:100F00008DED0D1A0BF08AFC9DED0C1A9DED0D2A4E
:100F10001B98B0EE403A9DED150A02EE031AB7EEAB
:100F2000C11A8DED101B90ED001A8DED0E1A90ED8B
:100F3000021A8DED0F1A0BF0B9FC9DED0E1A9DED06
:100F40000F2AB0EE403A9DED100B02EE031AB7EEF9
:100F5000C11A0DF0EDF91B98B0EE401B9DED150A7E
:100F6000B7EEC11B80ED101A90ED011A8DED131A2A
:100F700090ED021A8DED141A0BF050FC9DED131A32
:100F80009DED142A1B98B0EE403A9DED150A02EE35
:100F9000031AB7EEC11A8DED181B90ED001A8DEDF6
:100FA000161A90ED021A8DED171A0BF07FFC9DEDCD
:100FB000161A9DED172AB0EE403A9DED180B02EE81
:100FC000431AB7EEC11A0DF0B3F91B98B7EEC00B78
:100FD00080ED110A01200BF02BFD55E5DC0F493F98
:100FE00080B540F26430C2F2004002F0E1FA80BD08
:100FF00083B002900298016801201022C4F202021C
:101000009142009000F0A380FFE702980168012060
:101010002822C4F202029142009000F09880FFE77B
:101020000298016801204022C4F20202914200901D
:1010300000F08D80FFE70298016801205822C4F279
:1010400002029142009000F08280FFE7029801685E
:1010500001207022C4F202029142009077D0FFE793
:101060000298016801208822C4F202029142009095
:101070006DD0FFE7029801680120A022C4F20202AD
:101080009142009063D0FFE7029801680120B822E6
:10109000C4F202029142009059D0FFE70298016821
:1010A000012040F21042C4F20202914200904ED060
:1010B000FFE702980168012040F22842C4F20202D0
:1010C0009142009043D0FFE702980168012040F26E
:1010D0004042C4F202029142009038D0FFE70298E9
:1010E0000168012040F25842C4F20202914200908D
:1010F0002DD0FFE702980168012040F27042C4F24F
:1011000002029142009022D0FFE70298016801207C
:1011100040F28842C4F202029142009017D0FFE7E9
:1011200002980168012040F2A042C4F202029142FA
:1011300000900CD0FFE7029800684FF64831CBF6DC
:10114000FD710844B0FA80F040090090FFE7009874
:10115000C00740B3FFE70298007810384AF6AB2189
:10116000CAF6AA21A0FB011000090190019800F025
:1011700007014EF25470C0F60000405C0299C86549
:101180000198042807D3FFE702990868042262F354
:101190000900886506E00299086840F2FF32904332
:1011A0008865FFE705E00299086820F0FF00886580
:1011B000FFE70298806D03B0704700000000000058
:1011C00084B003900398006801900398016801209F
:1011D00045F20842C5F60202914200904ED0FFE768
:1011E00003980168012045F21C42C5F602029142B3
:1011F000009043D0FFE703980168012045F2304298
:10120000C5F602029142009038D0FFE703980168CA
:10121000012045F24442C5F60202914200902DD0D1
:10122000FFE703980168012045F25842C5F6020223
:101230009142009022D0FFE703980168012045F217
:101240006C42C5F602029142009017D0FFE7039866
:101250000168012045F28042C5F6020291420090E9
:101260000CD0FFE7039800684AF66C31CAF2FD71B2
:101270000844B0FA80F040090090FFE70098C007EA
:1012800010B3FFE70398007808384CF6CD41CCF650
:10129000CC41A0FB011000090290029945F6000024
:1012A000C5F6020000EB810003990866039945F634
:1012B0008000C5F602004866029800F01F01012078
:1012C00088400399886635E00398007810384AF61C
:1012D000AB21CAF6AA21A0FB0110000902900198D7
:1012E00040F2B841C4F2020188420CD8FFE70198ED
:1012F00040F21041C4F20201884204D3FFE7029891
:1013000008300290FFE7029940F60000C4F20200A4
:1013100000EB810003990866039940F68000C4F24F
:1013200002004866029800F01F01012088400399DE
:101330008866FFE704B0704783B002900298007996
:1013400001900198002800F08A80FFE701980828A2
:1013500000F28580FFE702980168012045F208420B
:10136000C5F60202914200904ED0FFE70298016854
:10137000012045F21C42C5F602029142009043D082
:10138000FFE702980168012045F23042C5F60202EB
:101390009142009038D0FFE702980168012045F2A1
:1013A0004442C5F60202914200902DD0FFE7029818
:1013B0000168012045F25842C5F6020291420090B0
:1013C00022D0FFE702980168012045F26C42C5F681
:1013D00002029142009017D0FFE7029801680120B5
:1013E00045F28042C5F60202914200900CD0FFE720
:1013F000029800684AF66C31CAF2FD710844B0FAEE
:1014000080F040090090FFE70098C00780B1FFE737
:10141000019945F6FC00C5F6020000EB8100029937
:10142000C866029945F64010C5F6020008670FE04D
:10143000019940F6FC00C4F2020000EB8100029921
:10144000C866029940F64010C4F202000867FFE740
:101450000198411E0120884002994867FFE703B0C8
:10146000704700000000000085B0049000208DF857
:101470000F000498806918BBFFE70498806A029007
:1014800003281BD80299DFE801F0020D0218049826
:1014900090F82F00C00720B1FFE701208DF80F0062
:1014A000FFE70CE00498C06AB0F1C07F04D1FFE709
:1014B00001208DF80F00FFE701E000E0FFE747E0C3
:1014C00004988069B0F5005F26D1FFE70498806A30
:1014D000019003281ED80199DFE801F002060211ED
:1014E00001208DF80F0016E0049890F82F00C00737
:1014F00020B1FFE701208DF80F00FFE70BE0049813
:10150000C06AB0F1C07F04D1FFE701208DF80F0061
:10151000FFE700E0FFE71AE00498806A00900328E4
:1015200004D3FFE70098032804D00EE001208DF8D3
:101530000F000BE0049890F82F00C00720B1FFE7E0
:1015400001208DF80F00FFE700E0FFE7FFE7FFE76E
:101550009DF80F0005B0704785B00490039102928A
:1015600001930498016801201022C4F20202914202
:10157000009000F0A380FFE7049801680120282272
:10158000C4F202029142009000F09880FFE70498B4
:10159000016801204022C4F202029142009000F052
:1015A0008D80FFE70498016801205822C4F20202EE
:1015B0009142009000F08280FFE7049801680120CA
:1015C0007022C4F202029142009077D0FFE70498A3
:1015D000016801208822C4F20202914200906DD07D
:1015E000FFE7049801680120A022C4F202029142A0
:1015F000009063D0FFE7049801680120B822C4F28C
:1016000002029142009059D0FFE70498016801203E
:1016100040F21042C4F20202914200904ED0FFE725
:1016200004980168012040F22842C4F2020291426B
:10163000009043D0FFE704980168012040F2404247
:10164000C4F202029142009038D0FFE7049801688A
:10165000012040F25842C4F20202914200902DD083
:10166000FFE704980168012040F27042C4F20202D0
:101670009142009022D0FFE704980168012040F2D7
:101680008842C4F202029142009017D0FFE704980A
:101690000168012040F2A042C4F20202914200908F
:1016A0000CD0FFE7049800684FF64831CBF6FD7187
:1016B0000844B0FA80F040090090FFE70098C007A6
:1016C000E0B1FFE7019804990968486004988068D0
:1016D000402809D1FFE702980499096888600398B7
:1016E00004990968C86008E003980499096888604B
:1016F000029804990968C860FFE71BE00198049903
:101700000968486004988068402809D1FFE702987A
:10171000049909688860039804990968C86008E01A
:101720000398049909688860029804990968C86058
:10173000FFE7FFE705B0704780B584B00120039054
:10174000FFE7039804282EDCFFE740F2D010C2F236
:101750000040019040F2FF72014641F8042F039BC4
:10176000024602F8283F002380F829304FF0550C3C
:1017700080F82AC04FF00A0C80F82BC04FF0010C03
:1017800080F82CC080F82D3080F82E3080F82F3073
:10179000006803F021FD1E200BF04AF9FFE70398D3
:1017A00001300390CDE700200290FFE70298032864
:1017B00017DCFFE7029800EB400140F20000C2F2A4
:1017C000004000EB011140F2D010C2F2004000F0E6
:1017D000EFF81E200BF02CF9FFE702980130029081
:1017E000E4E704B080BD000080B584B040F29810FA
:1017F000C2F20040029040F2C001C2F200410191E9
:1018000000F0D6F8322003900BF012F901990298FB
:10181000303100F0CDF803980BF00AF901990298E5
:10182000603100F0C5F803980BF002F901990298B5
:10183000903100F0BDF803980BF0FAF804B080BDC9
:1018400080B590B00F900E918DED0D0ACDED0C0A84
:101850008DED0B1ACDED0A1A8DED092A0E98007B3D
:1018600001460291012804D0FFE7029802280ED019
:101870001AE040F6DC70C4F2490005900020C4F282
:10188000342004900020C4F2201003900DE00020CA
:10189000C4F2481005900020C4F2342004900020C7
:1018A000C4F22010039000E0FFE79DED0D0A9DEDCE
:1018B000051AF1EE410A10200BF03EF8ADF82200B7
:1018C0009DED0C0A9DED041AF1EE410A0C200190E9
:1018D0000BF032F801460198ADF820109DED090A91
:1018E0009DED031AF1EE410A0BF026F8014601982E
:1018F000ADF81E109DED0B0ADFED2A0ACDED000AB2
:101900009FED291A0BF018F8DDED000A0146019849
:10191000ADF81C109DED0A0AB1EE041A0BF00CF89C
:10192000ADF81A000E9840680F9948609DF82300A2
:101930000F9981F828009DF822000F9981F829005D
:10194000BDF8200000090F9981F82A00BDF8201089
:101950009DF81D0040EA01100F9981F82B009DF8B9
:101960001C000F9981F82C00BDF81A0000090F998E
:1019700081F82D00BDF81A109DF81F0040EA0110F3
:101980000F9981F82E009DF81E000F9981F82F0005
:101990000F990A4652F8280B043103F01DFC10B0D1
:1019A00080BD00BF000000000000FA4300000000FE
:1019B00080B582B00190009100984068019948601C
:1019C0000199FF2081F82800019981F829000199E7
:1019D00081F82A00019981F82B00019981F82C00E7
:1019E000019981F82D00019981F82E000199FC20C0
:1019F00081F82F0001990A4652F8280B043103F0B0
:101A0000EBFB02B080BD000080B588B00790069166
:101A10000698007B01460291012804D0FFE7029856
:101A200002280ED01AE040F6DC70C4F2490005909E
:101A30000020C4F2342004900020C4F2201003904F
:101A40000DE00020C4F2481005900020C4F23420BC
:101A500004900020C4F22010039000E0FFE70798F4
:101A6000007800090699088207984178807840EA52
:101A70000120069948820799C8780979000140EA4F
:101A800011100699888207980179407901F00F01B9
:101A900040EA01200699C8820698C08ADDED030A53
:101AA000B1EE600A0C2101910BF00EFD069880ED5D
:101AB000080A0698408ADDED050AB1EE600A102199
:101AC0000BF002FD0199069880ED060A0698808ABF
:101AD000DDED040AB1EE600A0BF0F6FC069880ED2D
:101AE000070A0798807900EE100AB8EE400A0698B7
:101AF00080ED090A0798C07900EE100AB8EE400A96
:101B0000069880ED0A0A06980078C00720B9FFE71A
:101B1000069901200870FFE708B080BD00000000B2
:101B2000704700000000000081B0EFF3108072B633
:101B30000090FFE7FEE7000080B540F2DC30C2F223
:101B4000004003F001FE80BD80B584B00390029197
:101B50000298007800F00F00013801460191032837
:101B600027D80199DFE801F0020A131C029840F21D
:101B70000001C2F20041FFF747FF1BE0029840F26C
:101B80000001C2F200413031FFF73EFF12E002983F
:101B900040F20001C2F200416031FFF735FF09E079
:101BA000029840F20001C2F200419031FFF72CFF91
:101BB00000E0FFE704B080BD80B540F27C40C2F297
:101BC000004003F0C1FD80BD80B584B00390029158
:101BD0000298007800F00F000138014601910328B7
:101BE00027D80199DFE801F0020A131C029840F29D
:101BF000C001C2F20041FFF707FF1BE0029840F26C
:101C0000C001C2F200413031FFF7FEFE12E002983F
:101C100040F2C001C2F200416031FFF7F5FE09E079
:101C2000029840F2C001C2F200419031FFF7ECFE91
:101C300000E0FFE704B080BD84B002900298406BE2
:101C4000009002980068D0F884004FF6FC71884339
:101C5000009940EA810002990968C1F8840002985D
:101C60000068D0F8840020F47F00029A1168926B1B
:101C700040EA0240C1F884000298816B0098084451
:101C8000009002980068D0F888006FF38F000099E8
:101C900040EA810002990968C1F88800029800684A
:101CA000D0F8880020F4FE00029A1168D26B40EA56
:101CB0000240C1F888000298C16B009800EB410017
:101CC000009002980068D0F8A0006FF38F00009990
:101CD00040EA810002990968C1F8A00002980068F2
:101CE000D0F8A00020F4FE00029A1168126C40EABD
:101CF0000240C1F8A0000299086C496C009A00FBF0
:101D00000120009002980068D0F8B0006FF38F00B7
:101D1000009940EA810002990968C1F8B000029870
:101D20000068D0F8B00020F4FE00029A1168926CAE
:101D300040EA0240C1F8B0000299886CC96C009A70
:101D400000FB0120009002980068D0F8AC006FF30F
:101D50008F00009940EA810002990968C1F8AC003F
:101D60000299086D496D009A00FB012000900298CD
:101D70000068D0F8F0006FF38F00009940EA81000E
:101D800002990968C1F8F00002980068D0F8F000E4
:101D900020F47C10029A1168926D40EA0240C1F86A
:101DA000F0000298816D009800EB410000900298CD
:101DB0000068D0F8C0006FF38F00009940EA8100FE
:101DC00002990968C1F8C00002980068D0F8C00004
:101DD00020F47C10029A1168D26D40EA0240C1F8EA
:101DE000C00002980068D0F8C00020F07C50029A31
:101DF0001168126E40EA0260C1F8C00002994A6B95
:101E00004AF60040C4F2000000EB8200C866029966
:101E10008A6BC86E00EB820008670299CA6B086F74
:101E200000EBC200486702990A6C4B6C486F5A433A
:101E300000EB8200886702998A6CCB6C886F5A43EA
:101E400000EB8200C86702990A6D4B6DC86F5A4358
:101E500000EB8200C1F8800002998A6DD1F8800001
:101E600000EBC200C1F884000299CA6D8B6ED1F8F4
:101E700084005A4300EB8200C1F8880002990A6E80
:101E80008B6ED1F888005A4300EB8200C1F89000B5
:101E90000298D0F890004DF2FD31C4F20001884262
:101EA0000FD3FFE70299D1F89C0040F02000C1F861
:101EB0009C000299032081F8980001208DF80F0002
:101EC00017E00298C06E0190FFE701980299D1F8DF
:101ED0009010884208D2FFE7019900200860FFE7D0
:101EE000019804300190F0E7FFE700208DF80F0023
:101EF000FFE79DF80F0004B07047000000000000ED
:101F000088B007900691059204930698406848B9F6
:101F1000FFE70698016882680069104340EA814043
:101F2000039009E00698016882680069104308433D
:101F300040F080400390FFE70698D0F820C0C168C9
:101F400042698369C06940EA0C601843104340EA63
:101F5000014002900798826ED0F8840004995143A2
:101F600000EB81000190039801990860019804300A
:101F700001900298019908600198043001900020B6
:101F80000090FFE700980699CA684EF24471C0F6C7
:101F90000001895C88420DD2FFE7059800994058FE
:101FA00001990860019804300190FFE7009804301F
:101FB0000090E7E708B0704780B58AB0DDF830C020
:101FC000089007910692059300208DF81300089859
:101FD0008068802808D1FFE708994FF48070486531
:101FE00001208DF81300C4E2FFE7089890F8340050
:101FF000012804D1FFE702208DF82700BEE20899EE
:10200000012081F83400FFE7FFE7089890F83500D9
:10201000012840F0A582FFE70899022081F83500E9
:102020000899002048650898016801201022C4F230
:1020300002029142029000F0A380FFE70898016835
:1020400001202822C4F202029142029000F09880FE
:10205000FFE70898016801204022C4F20202914281
:10206000029000F08D80FFE7089801680120582257
:10207000C4F202029142029000F08280FFE70898C9
:10208000016801207022C4F202029142029077D0CE
:10209000FFE70898016801208822C4F202029142F9
:1020A00002906DD0FFE7089801680120A022C4F2D9
:1020B00002029142029063D0FFE708980168012074
:1020C000B822C4F202029142029059D0FFE7089868
:1020D0000168012040F21042C4F2020291420290D3
:1020E0004ED0FFE708980168012040F22842C4F270
:1020F00002029142029043D0FFE708980168012054
:1021000040F24042C4F202029142029038D0FFE70E
:1021100008980168012040F25842C4F2020291423C
:1021200002902DD0FFE708980168012040F270422C
:10213000C4F202029142029022D0FFE7089801689F
:10214000012040F28842C4F202029142029017D06C
:10215000FFE708980168012040F2A042C4F20202A1
:10216000914202900CD0FFE7089800684FF6483182
:10217000CBF6FD710844B0FA80F040090290FFE709
:102180000298C007B8B1FFE708980168086840F4F2
:102190008020086005980899096808610898806D92
:1021A000083003900898C06D00F01F013F20884060
:1021B0000399086017E008980168086848F220024F
:1021C0001043086005980899096808610898806DAF
:1021D000043003900898C06D00F01F010120884072
:1021E00003990860FFE70898016801201022C4F2F3
:1021F00002029142019000F00381FFE70898016814
:1022000001202822C4F202029142019000F0F880DD
:10221000FFE70898016801204022C4F202029142BF
:10222000019000F0ED80FFE7089801680120582236
:10223000C4F202029142019000F0E280FFE70898A8
:10224000016801207022C4F202029142019000F064
:10225000D780FFE70898016801208822C4F20202B3
:102260009142019000F0CC80FFE7089801680120BE
:10227000A022C4F202029142019000F0C180FFE767
:10228000089801680120B822C4F20202914201902C
:1022900000F0B680FFE708980168012040F2104284
:1022A000C4F202029142019000F0AA80FFE7089870
:1022B0000168012040F22842C4F2020291420190DA
:1022C00000F09E80FFE708980168012040F240423C
:1022D000C4F202029142019000F09280FFE7089858
:1022E0000168012040F25842C4F20202914201907A
:1022F00000F08680FFE708980168012040F27042F4
:10230000C4F20202914201907AD0FFE70898016876
:10231000012040F28842C4F20202914201906FD043
:10232000FFE708980168012040F2A042C4F20202CF
:102330009142019064D0FFE708980168012040F2C3
:10234000B842C4F202029142019059D0FFE70898C6
:102350000168012045F20842C5F60202914201904F
:102360004ED0FFE708980168012045F21C42C5F6EF
:1023700002029142019043D0FFE7089801680120D2
:1023800045F23042C5F602029142019038D0FFE793
:1023900008980168012045F24442C5F602029142C4
:1023A00001902DD0FFE708980168012045F25842BE
:1023B000C5F602029142019022D0FFE70898016819
:1023C000012045F26C42C5F602029142019017D0FD
:1023D000FFE708980168012045F28042C5F6020235
:1023E000914201900CD0FFE7089800684AF66C31E2
:1023F000CAF2FD710844B0FA80F040090190FFE78D
:102400000198C007A0B1FFE708980799069A0C9BAE
:10241000FFF7A2F80898416E806E48600898C06E79
:1024200028B1FFE70898016F406F4860FFE7FFE7BA
:10243000089800681021C4F20201884200F08180EF
:10244000FFE7089800682821C4F20201884278D08A
:10245000FFE7089800684021C4F20201884270D06A
:10246000FFE7089800685821C4F20201884268D04A
:10247000FFE7089800687021C4F20201884260D02A
:10248000FFE7089800688821C4F20201884258D00A
:10249000FFE708980068A021C4F20201884250D0EA
:1024A000FFE708980068B821C4F20201884248D0CA
:1024B000FFE70898006840F21041C4F20201884228
:1024C0003FD0FFE70898006840F22841C4F20201BB
:1024D000884236D0FFE70898006840F24041C4F2D5
:1024E000020188422DD0FFE70898006840F2584169
:1024F000C4F20201884224D0FFE70898006840F245
:102500007041C4F2020188421BD0FFE708980068BE
:1025100040F28841C4F20201884212D0FFE70898D5
:10252000006840F2A041C4F20201884209D0FFE7EE
:102530000898006840F2B841C4F20201884207D10D
:10254000FFE708980168086840F00100086006E0AD
:1025500008980168086840F001000860FFE707E09C
:1025600008994FF40060486501208DF81300FFE7DB
:10257000FFE79DF813008DF82700FFE79DF827007F
:102580000AB080BD0000000080B58AB0089004F059
:1025900017F90490089828B9FFE701208DF8270063
:1025A00000F0AABC089890F8350002280ED0FFE78A
:1025B000089980204865FFE70899002081F83400D9
:1025C000FFE701208DF8270000F096BC089801680D
:1025D00001201022C4F202029142039000F0A38075
:1025E000FFE70898016801202822C4F20202914204
:1025F000039000F09880FFE70898016801204022CE
:10260000C4F202029142039000F08D80FFE7089827
:10261000016801205822C4F202029142039000F0A6
:102620008280FFE70898016801207022C4F202024C
:102630009142039077D0FFE7089801680120882233
:10264000C4F20202914203906DD0FFE7089801683E
:102650000120A022C4F202029142039063D0FFE75E
:10266000089801680120B822C4F202029142039046
:1026700059D0FFE708980168012040F21042C4F2E7
:102680000202914203904ED0FFE7089801680120B2
:1026900040F22842C4F202029142039043D0FFE785
:1026A00008980168012040F24042C4F202029142BF
:1026B000039038D0FFE708980168012040F25842A3
:1026C000C4F20202914203902DD0FFE708980168FE
:1026D000012040F27042C4F202029142039022D0E3
:1026E000FFE708980168012040F28842C4F2020224
:1026F0009142039017D0FFE708980168012040F24B
:10270000A042C4F20202914203900CD0FFE7089865
:1027100000684FF64831CBF6FD710844B0FA80F0FE
:1027200040090390FFE70398C00780B1FFE70898CE
:102730000168086820F01E00086008980168486970
:1027400020F08000486108980068059009E008982A
:102750000168086820F00E0008600898006805907D
:10276000FFE70898016801201022C4F2020291429A
:10277000029000F00381FFE70898016801202822F9
:10278000C4F202029142029000F0F880FFE708983C
:10279000016801204022C4F202029142029000F03E
:1027A000ED80FFE70898016801205822C4F2020278
:1027B0009142029000F0E280FFE708980168012052
:1027C0007022C4F202029142029000F0D780FFE72B
:1027D0000898016801208822C4F202029142029006
:1027E00000F0CC80FFE7089801680120A022C4F225
:1027F00002029142029000F0C180FFE70898016850
:102800000120B822C4F202029142029000F0B68088
:10281000FFE708980168012040F21042C4F202026A
:102820009142029000F0AA80FFE708980168012019
:1028300040F22842C4F202029142029000F09E80CF
:10284000FFE708980168012040F24042C4F202020A
:102850009142029000F09280FFE708980168012001
:1028600040F25842C4F202029142029000F0868087
:10287000FFE708980168012040F27042C4F20202AA
:10288000914202907AD0FFE708980168012040F257
:102890008842C4F20202914202906FD0FFE708988A
:1028A0000168012040F2A042C4F20202914202906B
:1028B00064D0FFE708980168012040F2B842C4F2F2
:1028C00002029142029059D0FFE708980168012066
:1028D00045F20842C5F60202914202904ED0FFE74F
:1028E00008980168012045F21C42C5F60202914297
:1028F000029043D0FFE708980168012045F230427A
:10290000C5F602029142029038D0FFE708980168AC
:10291000012045F24442C5F60202914202902DD0B8
:10292000FFE708980168012045F25842C5F6020207
:102930009142029022D0FFE708980168012045F2F9
:102940006C42C5F602029142029017D0FFE7089848
:102950000168012045F28042C5F6020291420290D0
:102960000CD0FFE7089800684AF66C31CAF2FD7196
:102970000844B0FA80F040090290FFE70298C007CF
:1029800038B1FFE70898016E086820F4807008608D
:10299000FFE7089800681021C4F20201884200F0A5
:1029A0008180FFE7089800682821C4F2020188426C
:1029B00078D0FFE7089800684021C4F202018842FD
:1029C00070D0FFE7089800685821C4F202018842DD
:1029D00068D0FFE7089800687021C4F202018842BD
:1029E00060D0FFE7089800688821C4F2020188429D
:1029F00058D0FFE708980068A021C4F2020188427D
:102A000050D0FFE708980068B821C4F2020188425C
:102A100048D0FFE70898006840F21041C4F2020174
:102A200088423FD0FFE70898006840F22841C4F28E
:102A30000201884236D0FFE70898006840F2404122
:102A4000C4F2020188422DD0FFE70898006840F2E6
:102A50005841C4F20201884224D0FFE70898006878
:102A600040F27041C4F2020188421BD0FFE708988F
:102A7000006840F28841C4F20201884212D0FFE7A8
:102A80000898006840F2A041C4F20201884209D0CF
:102A9000FFE70898006840F2B841C4F2020188429A
:102AA00007D1FFE708980168086820F00100086076
:102AB00006E008980168086820F001000860FFE758
:102AC000FFE705980068C007C8B1FFE703F078FE8C
:102AD0000499401A062811D3FFE708992020486579
:102AE0000899032081F83500FFE70899002081F854
:102AF0003400FFE701208DF82700FDE1E1E70898A9
:102B0000016801201022C4F202029142019000F0FB
:102B1000A380FFE70898016801202822C4F202027E
:102B20009142019000F09880FFE708980168012029
:102B30004022C4F202029142019000F08D80FFE732
:102B40000898016801205822C4F2020291420190C3
:102B500000F08280FFE70898016801207022C4F22B
:102B600002029142019077D0FFE7089801680120A6
:102B70008822C4F20202914201906DD0FFE70898CA
:102B800001680120A022C4F202029142019063D0A8
:102B9000FFE7089801680120B822C4F202029142BE
:102BA000019059D0FFE708980168012040F21042D7
:102BB000C4F20202914201904ED0FFE708980168EA
:102BC000012040F22842C4F202029142019043D017
:102BD000FFE708980168012040F24042C4F2020277
:102BE0009142019038D0FFE708980168012040F237
:102BF0005842C4F20202914201902DD0FFE708989A
:102C00000168012040F27042C4F202029142019038
:102C100022D0FFE708980168012040F28842C4F200
:102C200002029142019017D0FFE708980168012045
:102C300040F2A042C4F20202914201900CD0FFE7A0
:102C4000089800684FF64831CBF6FD710844B0FA99
:102C500080F040090190FFE70198C00760B1FFE7ED
:102C60000898806D07900898C06D00F01F013F2004
:102C70008840079988600BE00898806D0690089856
:102C8000C06D00F01F010120884006994860FFE7F1
:102C90000898016801201022C4F2020291420090BB
:102CA00000F00381FFE70898016801202822C4F2A0
:102CB00002029142009000F0F880FFE70898016856
:102CC00001204022C4F202029142009000F0ED8007
:102CD000FFE70898016801205822C4F202029142DD
:102CE000009000F0E280FFE7089801680120702260
:102CF000C4F202029142009000F0D780FFE70898EA
:102D0000016801208822C4F202029142009000F082
:102D1000CC80FFE7089801680120A022C4F20202DB
:102D20009142009000F0C180FFE7089801680120FF
:102D3000B822C4F202029142009000F0B680FFE790
:102D400008980168012040F21042C4F20202914248
:102D5000009000F0AA80FFE708980168012040F287
:102D60002842C4F202029142009000F09E80FFE7E8
:102D700008980168012040F24042C4F202029142E8
:102D8000009000F09280FFE708980168012040F26F
:102D90005842C4F202029142009000F08680FFE7A0
:102DA00008980168012040F27042C4F20202914288
:102DB00000907AD0FFE708980168012040F288422D
:102DC000C4F20202914200906FD0FFE708980168B8
:102DD000012040F2A042C4F202029142009064D06D
:102DE000FFE708980168012040F2B842C4F20202ED
:102DF0009142009059D0FFE708980168012045F200
:102E00000842C5F60202914200904ED0FFE70898B2
:102E10000168012045F21C42C5F602029142009071
:102E200043D0FFE708980168012045F23042C5F61B
:102E300002029142009038D0FFE708980168012013
:102E400045F24442C5F60202914200902DD0FFE7C0
:102E500008980168012045F25842C5F602029142E5
:102E6000009022D0FFE708980168012045F26C42EB
:102E7000C5F602029142009017D0FFE7089801685A
:102E8000012045F28042C5F60202914200900CD02A
:102E9000FFE7089800684AF66C31CAF2FD710844F1
:102EA000B0FA80F040090090FFE70098C007A0B199
:102EB000FFE70898416E806E48600898C06E58B170
:102EC000FFE70898C16E086820F4807008600898D1
:102ED000016F406F4860FFE7FFE70899012081F824
:102EE0003500FFE70899002081F83400FFE7FFE78D
:102EF00000208DF82700FFE79DF827000AB080BD6D
:102F000080B586B00490049820B9FFE701208DF8C1
:102F1000170046E3049890F83500022807D0FFE731
:102F200004998020486501208DF8170039E3049842
:102F3000016801201022C4F202029142029000F0C6
:102F4000A380FFE70498016801202822C4F202024E
:102F50009142029000F09880FFE7049801680120F8
:102F60004022C4F202029142029000F08D80FFE7FD
:102F70000498016801205822C4F202029142029092
:102F800000F08280FFE70498016801207022C4F2FB
:102F900002029142029077D0FFE704980168012075
:102FA0008822C4F20202914202906DD0FFE7049899
:102FB00001680120A022C4F202029142029063D073
:102FC000FFE7049801680120B822C4F2020291428E
:102FD000029059D0FFE704980168012040F21042A6
:102FE000C4F20202914202904ED0FFE704980168B9
:102FF000012040F22842C4F202029142029043D0E2
:10300000FFE704980168012040F24042C4F2020246
:103010009142029038D0FFE704980168012040F205
:103020005842C4F20202914202902DD0FFE7049868
:103030000168012040F27042C4F202029142029003
:1030400022D0FFE704980168012040F28842C4F2D0
:1030500002029142029017D0FFE704980168012014
:1030600040F2A042C4F20202914202900CD0FFE76B
:10307000049800684FF64831CBF6FD710844B0FA69
:1030800080F040090290FFE70298C007002800F096
:103090009D80FFE70499042081F8350004980068BA
:1030A0001021C4F20201884200F08180FFE70498F9
:1030B00000682821C4F20201884278D0FFE7049812
:1030C00000684021C4F20201884270D0FFE70498F2
:1030D00000685821C4F20201884268D0FFE70498D2
:1030E00000687021C4F20201884260D0FFE70498B2
:1030F00000688821C4F20201884258D0FFE7049892
:103100000068A021C4F20201884250D0FFE7049871
:103110000068B821C4F20201884248D0FFE7049851
:10312000006840F21041C4F2020188423FD0FFE73C
:103130000498006840F22841C4F20201884236D067
:10314000FFE70498006840F24041C4F2020188425F
:103150002DD0FFE70498006840F25841C4F2020104
:10316000884224D0FFE70498006840F27041C4F21E
:10317000020188421BD0FFE70498006840F28841B2
:10318000C4F20201884212D0FFE70498006840F2BE
:10319000A041C4F20201884209D0FFE70498006808
:1031A00040F2B841C4F20201884207D1FFE7049817
:1031B0000168086820F00100086006E004980168D2
:1031C000086820F001000860FFE7E5E10498016865
:1031D000086820F00E000860049800681021C4F20E
:1031E0000201884200F08180FFE7049800682821EE
:1031F000C4F20201884278D0FFE7049800684021B9
:10320000C4F20201884270D0FFE704980068582198
:10321000C4F20201884268D0FFE704980068702178
:10322000C4F20201884260D0FFE704980068882158
:10323000C4F20201884258D0FFE704980068A02138
:10324000C4F20201884250D0FFE704980068B82118
:10325000C4F20201884248D0FFE70498006840F2B7
:103260001041C4F2020188423FD0FFE70498006891
:1032700040F22841C4F20201884236D0FFE70498A8
:10328000006840F24041C4F2020188422DD0FFE7BD
:103290000498006840F25841C4F20201884224D0E8
:1032A000FFE70498006840F27041C4F202018842CE
:1032B0001BD0FFE70498006840F28841C4F2020185
:1032C000884212D0FFE70498006840F2A041C4F29F
:1032D0000201884209D0FFE70498006840F2B84133
:1032E000C4F20201884207D1FFE704980168086828
:1032F00020F00100086006E004980168086820F0EA
:1033000001000860FFE70498016801201022C4F260
:1033100002029142019000F00381FFE704980168E6
:1033200001202822C4F202029142019000F0F880AC
:10333000FFE70498016801204022C4F20202914292
:10334000019000F0ED80FFE7049801680120582209
:10335000C4F202029142019000F0E280FFE704987B
:10336000016801207022C4F202029142019000F033
:10337000D780FFE70498016801208822C4F2020286
:103380009142019000F0CC80FFE704980168012091
:10339000A022C4F202029142019000F0C180FFE736
:1033A000049801680120B822C4F2020291420190FF
:1033B00000F0B680FFE704980168012040F2104257
:1033C000C4F202029142019000F0AA80FFE7049843
:1033D0000168012040F22842C4F2020291420190A9
:1033E00000F09E80FFE704980168012040F240420F
:1033F000C4F202029142019000F09280FFE704982B
:103400000168012040F25842C4F202029142019048
:1034100000F08680FFE704980168012040F27042C6
:10342000C4F20202914201907AD0FFE70498016849
:10343000012040F28842C4F20202914201906FD012
:10344000FFE704980168012040F2A042C4F20202A2
:103450009142019064D0FFE704980168012040F296
:10346000B842C4F202029142019059D0FFE7049899
:103470000168012045F20842C5F60202914201901E
:103480004ED0FFE704980168012045F21C42C5F6C2
:1034900002029142019043D0FFE7049801680120A5
:1034A00045F23042C5F602029142019038D0FFE762
:1034B00004980168012045F24442C5F60202914297
:1034C00001902DD0FFE704980168012045F2584291
:1034D000C5F602029142019022D0FFE704980168EC
:1034E000012045F26C42C5F602029142019017D0CC
:1034F000FFE704980168012045F28042C5F6020208
:10350000914201900CD0FFE7049800684AF66C31B4
:10351000CAF2FD710844B0FA80F040090190FFE75B
:103520000198C00728B3FFE70498016E086820F4EB
:10353000807008600498806D03900498C06D00F05E
:103540001F0101208840039948600498416E806EF5
:1035500048600498C06E58B1FFE70498C16E0868CF
:1035600020F4807008600498016F406F4860FFE7A6
:10357000FFE70499012081F83500FFE70499002056
:1035800081F83400FFE70498006D20B1FFE704984C
:10359000016D8847FFE7FFE7FFE700208DF8170080
:1035A000FFE79DF8170006B080BD00000000000096
:1035B00080B590B00F9000200B9040F2C810C2F27E
:1035C0000040006848F2B511C1F64E31A0FB011071
:1035D000800A0A900F98806D09900F98806D08906E
:1035E000099800680E90089800680D900F9801687F
:1035F00001201022C4F202029142079000F0A38041
:10360000FFE70F98016801202822C4F202029142CC
:10361000079000F09880FFE70F9801680120402292
:10362000C4F202029142079000F08D80FFE70F98EC
:10363000016801205822C4F202029142079000F072
:103640008280FFE70F98016801207022C4F2020215
:103650009142079077D0FFE70F98016801208822F8
:10366000C4F20202914207906DD0FFE70F98016803
:103670000120A022C4F202029142079063D0FFE72A
:103680000F9801680120B822C4F20202914207900B
:1036900059D0FFE70F980168012040F21042C4F2B0
:1036A0000202914207904ED0FFE70F980168012077
:1036B00040F22842C4F202029142079043D0FFE751
:1036C0000F980168012040F24042C4F20202914288
:1036D000079038D0FFE70F980168012040F2584268
:1036E000C4F20202914207902DD0FFE70F980168C3
:1036F000012040F27042C4F202029142079022D0AF
:10370000FFE70F980168012040F28842C4F20202EC
:103710009142079017D0FFE70F980168012040F20F
:10372000A042C4F20202914207900CD0FFE70F982A
:1037300000684FF64831CBF6FD710844B0FA80F0CE
:1037400040090790FFE70798C007002800F013859D
:10375000FFE70E980F99C96D01F01F01C8400007DF
:10376000002840F1B080FFE70F9800681021C4F2F4
:103770000201884200F08180FFE70F98006828214D
:10378000C4F20201884278D0FFE70F980068402118
:10379000C4F20201884270D0FFE70F9800685821F8
:1037A000C4F20201884268D0FFE70F9800687021D8
:1037B000C4F20201884260D0FFE70F9800688821B8
:1037C000C4F20201884258D0FFE70F980068A02198
:1037D000C4F20201884250D0FFE70F980068B82178
:1037E000C4F20201884248D0FFE70F98006840F217
:1037F0001041C4F2020188423FD0FFE70F980068F1
:1038000040F22841C4F20201884236D0FFE70F9807
:10381000006840F24041C4F2020188422DD0FFE727
:103820000F98006840F25841C4F20201884224D047
:10383000FFE70F98006840F27041C4F2020188422D
:103840001BD0FFE70F98006840F28841C4F20201E4
:10385000884212D0FFE70F98006840F2A041C4F2FE
:103860000201884209D0FFE70F98006840F2B84192
:10387000C4F20201884207D1FFE70F980068006890
:1038800000F00400069006E00F980068006800F061
:1038900008000690FFE70698A0B1FFE70F980168BF
:1038A000086820F0040008600F98C06D00F01F0148
:1038B00008208840099988600F99486D40F0010000
:1038C0004865FFE7FFE70E980F99C96D01F01F01EA
:1038D000C840C007002800F0A980FFE70F980068E3
:1038E0001021C4F20201884200F08180FFE70F98A6
:1038F00000682821C4F20201884278D0FFE70F98BF
:1039000000684021C4F20201884270D0FFE70F989E
:1039100000685821C4F20201884268D0FFE70F987E
:1039200000687021C4F20201884260D0FFE70F985E
:1039300000688821C4F20201884258D0FFE70F983E
:103940000068A021C4F20201884250D0FFE70F981E
:103950000068B821C4F20201884248D0FFE70F98FE
:10396000006840F21041C4F2020188423FD0FFE7F4
:103970000F98006840F22841C4F20201884236D014
:10398000FFE70F98006840F24041C4F2020188420C
:103990002DD0FFE70F98006840F25841C4F20201B1
:1039A000884224D0FFE70F98006840F27041C4F2CB
:1039B000020188421BD0FFE70F98006840F288415F
:1039C000C4F20201884212D0FFE70F98006840F26B
:1039D000A041C4F20201884209D0FFE70F980068B5
:1039E00040F2B841C4F20201884207D1FFE70F98C4
:1039F0000068406900F08000059005E00F980068BD
:103A0000006800200590FFE7059870B1FFE70F9868
:103A1000C06D00F01F0101208840099988600F994E
:103A2000486D40F002004865FFE7FFE70E980F99E8
:103A3000C96D01F01F01C8404007002840F1A9806E
:103A4000FFE70F9800681021C4F20201884200F0DD
:103A50008180FFE70F9800682821C4F202018842A4
:103A600078D0FFE70F9800684021C4F20201884235
:103A700070D0FFE70F9800685821C4F20201884215
:103A800068D0FFE70F9800687021C4F202018842F5
:103A900060D0FFE70F9800688821C4F202018842D5
:103AA00058D0FFE70F980068A021C4F202018842B5
:103AB00050D0FFE70F980068B821C4F20201884295
:103AC00048D0FFE70F98006840F21041C4F20201AD
:103AD00088423FD0FFE70F98006840F22841C4F2C7
:103AE0000201884236D0FFE70F98006840F240415B
:103AF000C4F2020188422DD0FFE70F98006840F21F
:103B00005841C4F20201884224D0FFE70F980068B0
:103B100040F27041C4F2020188421BD0FFE70F98C7
:103B2000006840F28841C4F20201884212D0FFE7E7
:103B30000F98006840F2A041C4F20201884209D007
:103B4000FFE70F98006840F2B841C4F202018842D2
:103B500007D1FFE70F980068006800F002000490AA
:103B600005E00F980068006800200490FFE70498C3
:103B700070B1FFE70F98C06D00F01F01042088406E
:103B8000099988600F99486D40F004004865FFE787
:103B9000FFE70E980F99C96D01F01F01C840C006DC
:103BA000002840F1DE80FFE70F9800681021C4F282
:103BB0000201884200F08180FFE70F980068282109
:103BC000C4F20201884278D0FFE70F9800684021D4
:103BD000C4F20201884270D0FFE70F9800685821B4
:103BE000C4F20201884268D0FFE70F980068702194
:103BF000C4F20201884260D0FFE70F980068882174
:103C0000C4F20201884258D0FFE70F980068A02153
:103C1000C4F20201884250D0FFE70F980068B82133
:103C2000C4F20201884248D0FFE70F98006840F2D2
:103C30001041C4F2020188423FD0FFE70F980068AC
:103C400040F22841C4F20201884236D0FFE70F98C3
:103C5000006840F24041C4F2020188422DD0FFE7E3
:103C60000F98006840F25841C4F20201884224D003
:103C7000FFE70F98006840F27041C4F202018842E9
:103C80001BD0FFE70F98006840F28841C4F20201A0
:103C9000884212D0FFE70F98006840F2A041C4F2BA
:103CA0000201884209D0FFE70F98006840F2B8414E
:103CB000C4F20201884207D1FFE70F98006800684C
:103CC00000F00800039006E00F980068006800F01C
:103CD00004000390FFE70398002841D0FFE70F9806
:103CE000C06D00F01F0110208840099988600F986E
:103CF00000680068400300281AD5FFE70F980068A5
:103D000000680003002809D4FFE70F98006C20B179
:103D1000FFE70F98016C8847FFE708E00F98806C79
:103D200020B1FFE70F98816C8847FFE7FFE716E0B7
:103D30000F9800680068C005002807D4FFE70F98B7
:103D40000168086820F008000860FFE70F98006C21
:103D500020B1FFE70F98016C8847FFE7FFE7FFE717
:103D6000FFE70E980F99C96D01F01F01C84080064A
:103D7000002840F12681FFE70F9800681021C4F267
:103D80000201884200F08180FFE70F980068282137
:103D9000C4F20201884278D0FFE70F980068402102
:103DA000C4F20201884270D0FFE70F9800685821E2
:103DB000C4F20201884268D0FFE70F9800687021C2
:103DC000C4F20201884260D0FFE70F9800688821A2
:103DD000C4F20201884258D0FFE70F980068A02182
:103DE000C4F20201884250D0FFE70F980068B82162
:103DF000C4F20201884248D0FFE70F98006840F201
:103E00001041C4F2020188423FD0FFE70F980068DA
:103E100040F22841C4F20201884236D0FFE70F98F1
:103E2000006840F24041C4F2020188422DD0FFE711
:103E30000F98006840F25841C4F20201884224D031
:103E4000FFE70F98006840F27041C4F20201884217
:103E50001BD0FFE70F98006840F28841C4F20201CE
:103E6000884212D0FFE70F98006840F2A041C4F2E8
:103E70000201884209D0FFE70F98006840F2B8417C
:103E8000C4F20201884207D1FFE70F98006800687A
:103E900000F01000029006E00F980068006800F043
:103EA00002000290FFE70298002800F08980FFE7F7
:103EB0000F98C06D00F01F0120208840099988608C
:103EC0000F9890F83500042837D1FFE70F98016864
:103ED000086820F0160008600F980168486920F013
:103EE000800048610F98006C20B9FFE70F98806C44
:103EF00038B1FFE70F980168086820F008000860F3
:103F0000FFE70F98C06D00F01F013F20884009991E
:103F100088600F99012081F83500FFE70F99002094
:103F200081F83400FFE70F98006D20B1FFE70F988C
:103F3000016D8847FFE700F019BC0F980068006822
:103F4000400300281AD5FFE70F98006800680003B7
:103F5000002809D4FFE70F98406C20B1FFE70F98C5
:103F6000416C8847FFE708E00F98C06B20B1FFE77E
:103F70000F98C16B8847FFE7FFE720E00F980068C4
:103F80000068C005002811D4FFE70F980168086891
:103F900020F0100008600F99012081F83500FFE73C
:103FA0000F99002081F83400FFE7FFE70F98C06BFE
:103FB00020B1FFE70F98C16B8847FFE7FFE7FFE7F6
:103FC000FFE70F98406D002800F0D480FFE70F98BE
:103FD000406DC007002800F0C480FFE70F9904205F
:103FE00081F835000F9800681021C4F20201884260
:103FF00000F08180FFE70F9800682821C4F20201D9
:10400000884278D0FFE70F9800684021C4F202018F
:10401000884270D0FFE70F9800685821C4F202016F
:10402000884268D0FFE70F9800687021C4F202014F
:10403000884260D0FFE70F9800688821C4F202012F
:10404000884258D0FFE70F980068A021C4F202010F
:10405000884250D0FFE70F980068B821C4F20201EF
:10406000884248D0FFE70F98006840F21041C4F240
:10407000020188423FD0FFE70F98006840F22841D4
:10408000C4F20201884236D0FFE70F98006840F280
:104090004041C4F2020188422DD0FFE70F9800682A
:1040A00040F25841C4F20201884224D0FFE70F9841
:1040B000006840F27041C4F2020188421BD0FFE761
:1040C0000F98006840F28841C4F20201884212D081
:1040D000FFE70F98006840F2A041C4F20201884255
:1040E00009D0FFE70F98006840F2B841C4F202011E
:1040F000884207D1FFE70F980168086820F00100A7
:10410000086006E00F980168086820F00100086068
:10411000FFE7FFE70B9801300B900A99884201D91D
:10412000FFE707E0FFE70F9800680068C007002876
:10413000F0D1FFE70F9800680068C00728B1FFE7DB
:104140000F99032081F8350004E00F99012081F8D0
:104150003500FFE7FFE70F99002081F83400FFE703
:10416000FFE70F98C06C20B1FFE70F98C16C88473C
:10417000FFE7FFE7FAE20F980168012045F20842E5
:10418000C5F60202914201904ED0FFE70F980168F8
:10419000012045F21C42C5F602029142019043D033
:1041A000FFE70F980168012045F23042C5F6020290
:1041B0009142019038D0FFE70F980168012045F245
:1041C0004442C5F60202914201902DD0FFE70F98BC
:1041D0000168012045F25842C5F602029142019061
:1041E00022D0FFE70F980168012045F26C42C5F626
:1041F00002029142019017D0FFE70F980168012059
:1042000045F28042C5F60202914201900CD0FFE7D0
:104210000F9800684AF66C31CAF2FD710844B0FA92
:1042200080F040090190FFE70198C007002800F0E6
:104230009B82FFE70F98006800680C900D980F991B
:10424000C96D01F01F01C8404007002840F1D78028
:10425000FFE79DF830004007002840F1D080FFE7DD
:104260000F98C06D00F01F01042088400899486035
:104270009DF831000006002818D5FFE79DF83200B0
:10428000C00748B9FFE70F98806C20B1FFE70F988F
:10429000816C8847FFE708E00F98006C20B1FFE7CA
:1042A0000F98016C8847FFE7FFE7A7E09DF8300013
:1042B0008006002800F19980FFE70F980068102120
:1042C000C4F20201884200F08180FFE70F98006885
:1042D0002821C4F20201884278D0FFE70F980068D5
:1042E0004021C4F20201884270D0FFE70F980068B5
:1042F0005821C4F20201884268D0FFE70F98006895
:104300007021C4F20201884260D0FFE70F98006874
:104310008821C4F20201884258D0FFE70F98006854
:10432000A021C4F20201884250D0FFE70F98006834
:10433000B821C4F20201884248D0FFE70F98006814
:1043400040F21041C4F2020188423FD0FFE70F98CB
:10435000006840F22841C4F20201884236D0FFE7EB
:104360000F98006840F24041C4F2020188422DD00B
:10437000FFE70F98006840F25841C4F202018842FA
:1043800024D0FFE70F98006840F27041C4F20201A8
:1043900088421BD0FFE70F98006840F28841C4F2C2
:1043A0000201884212D0FFE70F98006840F2A04156
:1043B000C4F20201884209D0FFE70F98006840F27A
:1043C000B841C4F20201884207D1FFE70F980168A3
:1043D000086820F00800086006E00F980168086887
:1043E00020F004000860FFE7FFE70F98006C20B1A1
:1043F000FFE70F98016C8847FFE7FFE7B3E10D98EF
:104400000F99C96D01F01F01C8408007002840F1D5
:10441000E180FFE79DF830008007002840F1DA8056
:10442000FFE70F98C06D00F01F0102208840089937
:1044300048609DF831000006002818D5FFE79DF878
:104440003200C00748B9FFE70F98406C20B1FFE782
:104450000F98416C8847FFE708E00F98C06B20B1C8
:10446000FFE70F98C16B8847FFE7FFE7B1E09DF8D2
:1044700030008006002800F1A380FFE70F98006855
:104480001021C4F20201884200F08180FFE70F98FA
:1044900000682821C4F20201884278D0FFE70F9813
:1044A00000684021C4F20201884270D0FFE70F98F3
:1044B00000685821C4F20201884268D0FFE70F98D3
:1044C00000687021C4F20201884260D0FFE70F98B3
:1044D00000688821C4F20201884258D0FFE70F9893
:1044E0000068A021C4F20201884250D0FFE70F9873
:1044F0000068B821C4F20201884248D0FFE70F9853
:10450000006840F21041C4F2020188423FD0FFE748
:104510000F98006840F22841C4F20201884236D068
:10452000FFE70F98006840F24041C4F20201884260
:104530002DD0FFE70F98006840F25841C4F2020105
:10454000884224D0FFE70F98006840F27041C4F21F
:10455000020188421BD0FFE70F98006840F28841B3
:10456000C4F20201884212D0FFE70F98006840F2BF
:10457000A041C4F20201884209D0FFE70F98006809
:1045800040F2B841C4F20201884207D1FFE70F9818
:104590000168086820F01400086006E00F980168C0
:1045A000086820F00A000860FFE70F99012081F8F1
:1045B0003500FFE70F99002081F83400FFE7FFE79F
:1045C0000F98C06B20B1FFE70F98C16B8847FFE7DA
:1045D000FFE7C7E00D980F99C96D01F01F01C840B2
:1045E0000007002840F1BC80FFE79DF8300000077D
:1045F000002840F1B580FFE70F9800681021C4F251
:104600000201884200F08180FFE70F9800682821AE
:10461000C4F20201884278D0FFE70F980068402179
:10462000C4F20201884270D0FFE70F980068582159
:10463000C4F20201884268D0FFE70F980068702139
:10464000C4F20201884260D0FFE70F980068882119
:10465000C4F20201884258D0FFE70F980068A021F9
:10466000C4F20201884250D0FFE70F980068B821D9
:10467000C4F20201884248D0FFE70F98006840F278
:104680001041C4F2020188423FD0FFE70F98006852
:1046900040F22841C4F20201884236D0FFE70F9869
:1046A000006840F24041C4F2020188422DD0FFE789
:1046B0000F98006840F25841C4F20201884224D0A9
:1046C000FFE70F98006840F27041C4F2020188428F
:1046D0001BD0FFE70F98006840F28841C4F2020146
:1046E000884212D0FFE70F98006840F2A041C4F260
:1046F0000201884209D0FFE70F98006840F2B841F4
:10470000C4F20201884207D1FFE70F9801680868E8
:1047100020F01C00086006E00F980168086820F08F
:104720000E000860FFE70F98C06D00F01F01012028
:1047300000FA01F1089A51600F9948650F9981F8C4
:104740003500FFE70F99002081F83400FFE70F984C
:10475000C06C20B1FFE70F98C16C8847FFE700E00D
:10476000FFE7FFE7FFE700E0FFE7FFE710B080BDEE
:1047700080B58EB00C9002F023F80A900C9828B9FE
:10478000FFE701208DF8370000F09FBC0C9801680E
:1047900001201022C4F202029142079000F0A3808F
:1047A000FFE70C98016801202822C4F2020291421E
:1047B000079000F09880FFE70C98016801204022E4
:1047C000C4F202029142079000F08D80FFE70C983E
:1047D000016801205822C4F202029142079000F0C1
:1047E0008280FFE70C98016801207022C4F2020267
:1047F0009142079077D0FFE70C980168012088224A
:10480000C4F20202914207906DD0FFE70C98016854
:104810000120A022C4F202029142079063D0FFE778
:104820000C9801680120B822C4F20202914207905C
:1048300059D0FFE70C980168012040F21042C4F201
:104840000202914207904ED0FFE70C9801680120C8
:1048500040F22842C4F202029142079043D0FFE79F
:104860000C980168012040F24042C4F202029142D9
:10487000079038D0FFE70C980168012040F25842B9
:10488000C4F20202914207902DD0FFE70C98016814
:10489000012040F27042C4F202029142079022D0FD
:1048A000FFE70C980168012040F28842C4F202023E
:1048B0009142079017D0FFE70C980168012040F261
:1048C000A042C4F20202914207900CD0FFE70C987C
:1048D00000684FF64831CBF6FD710844B0FA80F01D
:1048E00040090790FFE70798C007002800F078818B
:1048F000FFE70C98406A08B1FFE7FFE70C99022038
:1049000081F83500FFE70C99002081F83400FFE7BB
:104910000C9800681021C4F20201884200F08180E6
:10492000FFE70C9800682821C4F20201884278D081
:10493000FFE70C9800684021C4F20201884270D061
:10494000FFE70C9800685821C4F20201884268D041
:10495000FFE70C9800687021C4F20201884260D021
:10496000FFE70C9800688821C4F20201884258D001
:10497000FFE70C980068A021C4F20201884250D0E1
:10498000FFE70C980068B821C4F20201884248D0C1
:10499000FFE70C98006840F21041C4F2020188421F
:1049A0003FD0FFE70C98006840F22841C4F20201B2
:1049B000884236D0FFE70C98006840F24041C4F2CC
:1049C000020188422DD0FFE70C98006840F2584160
:1049D000C4F20201884224D0FFE70C98006840F23C
:1049E0007041C4F2020188421BD0FFE70C980068B6
:1049F00040F28841C4F20201884212D0FFE70C98CD
:104A0000006840F2A041C4F20201884209D0FFE7E9
:104A10000C98006840F2B841C4F20201884207D104
:104A2000FFE70C980168086820F00100086006E0C4
:104A30000C980168086820F001000860FFE7FFE7B4
:104A40000C9800680068C00798B1FFE701F0B8FE55
:104A50000A99401A06280BD3FFE70C9920204865D5
:104A60000C99032081F8350001208DF837002CE3E4
:104A7000E6E70C98006800680B900B9848F23F013D
:104A8000CFF6106108400B900C998868D1F80CC0E3
:104A90000B694A6940EA0C00184310438A691043C5
:104AA000CA691043096A01430B9808430B900C989C
:104AB000406A042808D1FFE70C99C86A096B0143D2
:104AC0000B9808430B90FFE70C984068292807D300
:104AD000FFE70C98416801202F29069036D3FFE7A5
:104AE0000C9840683F2807D3FFE70C9841680120E5
:104AF000432906902AD3FFE70C984068472807D33C
:104B0000FFE70C9841680120492906901ED3FFE772
:104B10000C9840684F2807D3FFE70C9841680120A4
:104B20005329069012D3FFE70C984168002074299E
:104B3000059008D3FFE70C9841680020782938BF1A
:104B400001200590FFE705980690FFE70698C0074B
:104B500028B1FFE70B9840F480100B90FFE70B980B
:104B60000C99096808600C98006840690B900B98D4
:104B700020F007000B900C98416A0B9808430B90AB
:104B80000C98406A04281AD1FFE70C98816A0B98A8
:104B900008430B900C98C06A80B1FFE70C98FCF7B3
:104BA00063FC50B1FFE70C99402048650C99012047
:104BB00081F835008DF8370087E2FFE7FFE70B98B3
:104BC0000C99096848610C98FCF712FA09900C9846
:104BD000C06D00F01F013F2088400999886027E1DF
:104BE0000C980168012045F20842C5F60202914284
:104BF00004904ED0FFE70C980168012045F21C425A
:104C0000C5F602029142049043D0FFE70C98016878
:104C1000012045F23042C5F602029142049038D09C
:104C2000FFE70C980168012045F24442C5F60202F4
:104C3000914204902DD0FFE70C980168012045F2C5
:104C40005842C5F602029142049022D0FFE70C9828
:104C50000168012045F26C42C5F6020291420490BF
:104C600017D0FFE70C980168012045F28042C5F695
:104C70000202914204900CD0FFE70C9800684AF6BB
:104C80006C31CAF2FD710844B0FA80F0400904901A
:104C9000FFE70498C007002800F0BE80FFE70C98EB
:104CA0000168012045F20842C5F6020291420390D4
:104CB0004ED0FFE70C980168012045F21C42C5F672
:104CC00002029142039043D0FFE70C980168012053
:104CD00045F23042C5F602029142039038D0FFE718
:104CE0000C980168012045F24442C5F60202914247
:104CF00003902DD0FFE70C980168012045F258423F
:104D0000C5F602029142039022D0FFE70C98016899
:104D1000012045F26C42C5F602029142039017D081
:104D2000FFE70C980168012045F28042C5F60202B7
:104D3000914203900CD0FFE70C9800684AF66C3162
:104D4000CAF2FD710844B0FA80F040090390FFE711
:104D50000398C00708B1FFE7FFE70C99022081F82C
:104D60003500FFE70C99002081F83400FFE70C982C
:104D7000006800680B900B986FF310100B900C9864
:104D80008068402803D1FFE71020029008E00C98CB
:104D900080688038B0FA80F0400980030290FFE715
:104DA00002980C99D1F80CE0D1F810C04B698A69CF
:104DB00040EADE0040EADC0040EAD30040EAD200EC
:104DC000CA6940EAD200096A40EA11110B98084307
:104DD0000B900B980C99096808600C9908684AF6C2
:104DE000F832CAF2FD7210444CF6CD42CCF6CC42F9
:104DF000A0FB02026FF0030000EA9200C8650C9865
:104E0000FCF7F6F808900C98C06D00F01F01012027
:104E10008840089948600AE00C99402048650C9940
:104E2000032081F8350001208DF837004DE1FFE7C0
:104E30000C98016801201022C4F2020291420190F4
:104E400000F00381FFE70C98016801202822C4F2DA
:104E500002029142019000F0F880FFE70C9801688F
:104E600001204022C4F202029142019000F0ED8044
:104E7000FFE70C98016801205822C4F20202914217
:104E8000019000F0E280FFE70C9801680120702299
:104E9000C4F202029142019000F0D780FFE70C9823
:104EA000016801208822C4F202029142019000F0C0
:104EB000CC80FFE70C9801680120A022C4F2020216
:104EC0009142019000F0C180FFE70C980168012039
:104ED000B822C4F202029142019000F0B680FFE7CE
:104EE0000C980168012040F21042C4F20202914283
:104EF000019000F0AA80FFE70C980168012040F2C1
:104F00002842C4F202029142019000F09E80FFE725
:104F10000C980168012040F24042C4F20202914222
:104F2000019000F09280FFE70C980168012040F2A8
:104F30005842C4F202029142019000F08680FFE7DD
:104F40000C980168012040F27042C4F202029142C2
:104F500001907AD0FFE70C980168012040F2884266
:104F6000C4F20202914201906FD0FFE70C980168F1
:104F7000012040F2A042C4F202029142019064D0AA
:104F8000FFE70C980168012040F2B842C4F2020227
:104F90009142019059D0FFE70C980168012045F239
:104FA0000842C5F60202914201904ED0FFE70C98EC
:104FB0000168012045F21C42C5F6020291420190AF
:104FC00043D0FFE70C980168012045F23042C5F656
:104FD00002029142019038D0FFE70C98016801204D
:104FE00045F24442C5F60202914201902DD0FFE7FE
:104FF0000C980168012045F25842C5F60202914220
:10500000019022D0FFE70C980168012045F26C4224
:10501000C5F602029142019017D0FFE70C98016893
:10502000012045F28042C5F60202914201900CD067
:10503000FFE70C9800684AF66C31CAF2FD7108442B
:10504000B0FA80F040090190FFE70198C00790B3E3
:10505000FFE70C98FCF7B4F80C988068802804D11E
:10506000FFE70C9900204860FFE70C990879096E6A
:1050700008600C98416E806E48600C98406888B15A
:10508000FFE70C98406808280CD8FFE70C98FCF75D
:1050900053F90C98C16E002008600C98016F406FA6
:1050A000486007E00C990020C8660C9908670C99C5
:1050B0004867FFE7FFE70C99002048650C9A01213B
:1050C00082F835108DF83700FFE79DF837000EB0F5
:1050D00080BD00000000000085B0039002910192A5
:1050E000039890F898008DF803009DF803000128BC
:1050F00005D0FFE79DF8030002285DD1FFE7029885
:1051000003990968896D084207D1FFE70398016890
:10511000C86D40F00100C86515E002980399096860
:10512000896D08400299884207D1FFE7039801681A
:10513000C86D40F00200C86504E0039801680320D0
:10514000C865FFE7FFE79DF809008007002809D53B
:10515000FFE7019A03980168D1F8E0001043C1F815
:10516000E000FFE79DF809004007002809D5FFE7A8
:10517000019A03980168D1F8E4001043C1F8E400F3
:10518000FFE7FFE702984FF6FF71C3F6CF7100EA21
:10519000010203980168486D10434865029A4AF677
:1051A0001401C4F20001086840EA92700860FFE749
:1051B00000208DF813000AE00399D1F89C0040F01C
:1051C0000200C1F89C0001208DF81300FFE79DF854
:1051D000130005B07047000080B586B004900391BD
:1051E00002920398406808B9FFE700E0FFE70498DF
:1051F00090F89800022845D1FFE704980068D0F89D
:10520000C00010F07C5F0BD1FFE70499D1F89C003F
:1052100040F02000C1F89C0001208DF817003CE010
:1052200004980068D0F8C400800200280BD5FFE77E
:105230000499D1F89C0040F40070C1F89C00012052
:105240008DF8170029E004980068D0F8C400C0F376
:105250000440019004980399029A019BFCF750FEC8
:105260000199012000FA01F1049A1268C2F8D010E5
:10527000019988400499C1F89400FFE700208DF857
:1052800017000AE00499D1F89C0040F00800C1F82A
:105290009C0001208DF81700FFE79DF8170006B06D
:1052A00080BD00000000000082B00190009102B0BB
:1052B000704700000000000087B005900491059839
:1052C00090F898008DF803009DF80300012805D0A0
:1052D000FFE79DF8030002286AD1FFE70498C06841
:1052E000072801D1FFE7FFE70498006878BBFFE7D4
:1052F0000498C068072801D0FFE7FFE70498C0685A
:1053000007280CD1FFE7049A10699169D26900045B
:1053100040EA0220084340F0605003900CE00499FA
:105320008868CB680A694969800740EAC36040EA37
:10533000024008430390FFE70598C06E049949684E
:1053400000EB810001900398019908602CE004981B
:10535000C068072801D0FFE7FFE70498C16800692B
:1053600040EA417003900498C068072804D1FFE721
:1053700004988069029006E004988168406940EAD8
:1053800081700290FFE70598006F0499496800EB6F
:10539000C1000190039801990860019804300190C0
:1053A000029801990860FFE700208DF81B000AE0D1
:1053B0000599D1F89C0040F00200C1F89C00012042
:1053C0008DF81B00FFE79DF81B0007B07047000039
:1053D00085B0DDF814C00390029101920093039808
:1053E00090F89800012812D1FFE702980001019976
:1053F00040EA8100009940EA410005990843039979
:105400000968C1F8800000208DF813000AE00399B4
:10541000D1F89C0040F00400C1F89C0001208DF8F8
:105420001300FFE79DF8130005B07047000000006F
:1054300081B0009001B0704782B00190009102B03D
:1054400070470000000000008AB0089007910692A3
:10545000059300200190089890F898008DF80300BB
:105460009DF80300022840F05C81FFE70798402880
:1054700051D1FFE708980068D0F8A00010F4FE0FA3
:105480000BD1FFE70899D1F89C0040F02000C1F84B
:105490009C0001208DF827004EE108980068D0F8A4
:1054A000A400400658B9FFE70899D1F89C0040F4E1
:1054B0008070C1F89C0001208DF827003CE108981D
:1054C0000068D0F8A40000F080710120B0EB116FEB
:1054D0000DD1FFE708980068D0F8A0100120B0EBCC
:1054E000D17F03D1FFE701200190FFE7FFE7089894
:1054F0000068D0F8A40000F47C51019800EB112062
:1055000001900898426C406F0199514300EB810073
:105510000490FFE770E00798412851D1FFE7089811
:105520000068D0F8B00010F4FE0F0BD1FFE7089927
:10553000D1F89C0040F02000C1F89C0001208DF8BB
:105540002700F9E008980068D0F8B400400658B980
:10555000FFE70899D1F89C0040F48070C1F89C00E6
:1055600001208DF82700E7E008980068D0F8B40023
:1055700000F080710120B0EB116F0DD1FFE70898AA
:105580000068D0F8B0100120B0EBD17F03D1FFE765
:1055900001200190FFE7FFE708980068D0F8B40009
:1055A00000F47C51019800EB112001900898C26C26
:1055B000806F0199514300EB81000490FFE71AE0EE
:1055C00007980899096D88420BD3FFE70899D1F82D
:1055D0009C0040F02000C1F89C0001208DF82700BD
:1055E000AAE00898426DC06F0799514300EB810013
:1055F0000490FFE7FFE7FFE70498006800F08040B1
:10560000069948600698406838B9FFE70498006832
:10561000C0F38A400699086006E00498006820F00C
:10562000604006990860FFE70498006800F00050A9
:10563000069988600498006800F0004006990861A7
:10564000049804300490049800880699C86104986E
:105650000068C0F303400699C8600498006800F42D
:105660008010069948610498006800F400100699BB
:10567000886104980068C0F306600699086204987F
:105680000068C00F0699486204980430049004989A
:10569000039000200290FFE702980699CA684EF234
:1056A0004471C0F60001895C88420AD2FFE7039882
:1056B000029A805C05998854FFE7029801300290B5
:1056C000EAE70798402806D1FFE70198089909689A
:1056D000C1F8A80021E00798412806D1FFE701980A
:1056E00008990968C1F8B80016E007981F2808D87B
:1056F000FFE707990120884008990968C1F89800D8
:1057000009E0079800F01F01012088400899096806
:10571000C1F89C00FFE7FFE7FFE700208DF82700B6
:105720000AE00899D1F89C0040F00800C1F89C00FC
:1057300001208DF82700FFE79DF827000AB0704789
:1057400081B0009001B0704780B594B013904AF6D4
:105750001000C4F200000068800712904AF614009E
:10576000C4F200000168129800EA81701290139848
:105770000068006D00F47040119013980068416D4E
:1057800011980840119013980068006D00F00F0008
:10579000109013980068416D10980840109013986D
:1057A0000068006D00F0F0000F9013980068416DE4
:1057B0000F9808400F9013980068006D00F071502A
:1057C0000E9013980068416D0E9808400E90139843
:1057D0000068006D00F060700D9013980068416DD6
:1057E0000D9808400D9013980068406D0390139831
:1057F0000068006D01909DF80D00C007B8B1FFE78B
:105800009DF80500C00788B1FFE7FFE7139801681E
:105810004FF4807008654AF61001C4F200010020C0
:105820000860FFE71398FFF78BFFFFE7FFE79DF89E
:105830000D0000F004010020B0EB910F28D0FFE72D
:105840009DF8050000F004010020B0EB910F1ED080
:10585000FFE713980068D0F8DC000B9013980068FD
:10586000D0F8E4100B9808400B90FFE713980168FC
:105870004FF4806008654AF61001C4F20001002070
:105880000860FFE713980B9900F092FDFFE7FFE730
:105890001298B8B1FFE7FFE712984FF6FF71C3F611
:1058A000CF7108401399096808651298800F4AF66D
:1058B0001001C4F200010860FFE713981299FFF786
:1058C000F3FCFFE71198B8B1FFE7FFE711984FF637
:1058D000FF71C3F6CF7108401399096808651198E4
:1058E000800F4AF61001C4F200010860FFE7139828
:1058F000119900F06DFDFFE71098B8B1FFE7FFE7E1
:1059000010984FF6FF71C3F6CF71084013990968DC
:1059100008651098800F4AF61001C4F20001086073
:10592000FFE71398109900F0C3FCFFE70F98B8B198
:10593000FFE7FFE70F984FF6FF71C3F6CF710840FE
:105940001399096808650F98800F4AF61001C4F290
:1059500000010860FFE713980F9900F0C1FCFFE712
:105960009DF80D0000F008010020B0EBD10F1BD016
:10597000FFE79DF8050000F008010020B0EBD10F13
:1059800011D0FFE7FFE7139801684FF40060086546
:105990004AF61001C4F2000100200860FFE71398E6
:1059A00000F01EFDFFE7FFE79DF80D0000F002018B
:1059B0000020B0EB510F28D0FFE79DF8050000F064
:1059C00002010020B0EB510F1ED0FFE713980068D2
:1059D000D0F8D8000C9013980068D0F8E0100C981C
:1059E00008400C90FFE7139801684FF400700865B9
:1059F0004AF61001C4F2000100200860FFE7139886
:105A00000C9900F0DDFCFFE7FFE79DF80E0000F0C9
:105A100008010020B0EBD10F1BD0FFE79DF8060076
:105A200000F008010020B0EBD10F11D0FFE7FFE735
:105A3000139801684FF4002008654AF61001C4F27B
:105A4000000100200860FFE7139800F02DFCFFE73D
:105A5000FFE79DF80E00C007B8B1FFE79DF806000C
:105A6000C00788B1FFE7FFE7139801684FF4803063
:105A700008654AF61001C4F2000100200860FFE743
:105A8000139800F091FCFFE7FFE79DF80E0000F08F
:105A900004010020B0EB910F1BD0FFE79DF806003A
:105AA00000F004010020B0EB910F11D0FFE7FFE7F9
:105AB000139801684FF4802008654AF61001C4F27B
:105AC000000100200860FFE7139800F069FCFFE781
:105AD000FFE79DF80E0000F002010020B0EB510F2F
:105AE0001FD0FFE79DF8060000F002010020B0EB98
:105AF000510F15D0FFE7FFE7139801684FF400300E
:105B000008654AF61001C4F2000100200860FFE7B2
:105B10001399D1F89C0040F08000C1F89C00FFE789
:105B2000FFE70D98B8B1FFE7FFE70D984FF6FF715B
:105B3000C3F6CF7108401399096808650D98800F66
:105B40004AF61001C4F200010860FFE713980D99AE
:105B5000FFF772FCFFE70E98D0B1FFE7FFE70E9862
:105B60004FF6FF71C3F6CF710840139909680865B5
:105B70000E98800F4AF61001C4F200010860FFE79A
:105B80000E9A1399D1F89C001043C1F89C00FFE7CE
:105B9000139800684AF20001C4F20001884240F004
:105BA000B980FFE71398406880688007002800F0FC
:105BB000B080FFE713984068006A00F00F000A9079
:105BC00013984068416A0A9808400A901398406800
:105BD000006A00F03000099013984068416A099803
:105BE0000840099013984068006A00F4C07008905B
:105BF00013984068416A08980840089013984068D4
:105C0000006A00F4FC40079013984068416A0798C6
:105C10000840079013984068006A00F4F02006904E
:105C200013984068416A06980840069013984068A7
:105C3000406A029013984068006A00900A9848B140
:105C4000FFE70A9813994968086213980A9900F0C7
:105C50008FFBFFE7099848B1FFE709981399496856
:105C600008621398099900F093FBFFE79DF808007C
:105C700000F040010020B0EB911F1FD0FFE79DF81E
:105C8000000000F040010020B0EB911F15D0FFE7AD
:105C900013984068C06B000C059013984068C06B67
:105CA00000F03F0004901398416840200862139868
:105CB0000599049A00F064FBFFE7FFE7089848B1F4
:105CC000FFE708981399496808621398089900F04B
:105CD00047FBFFE7079860B1FFE70798139949680A
:105CE0000862079A1399D1F89C001043C1F89C00F0
:105CF000FFE7069860B1FFE70698139949680862C4
:105D0000069A1399D1F89C001043C1F89C00FFE754
:105D1000FFE7FFE71398D0F89C0020B1FFE7139846
:105D2000FFF786FBFFE714B080BD00000000000015
:105D300080B598B016904EF2B061C0F6000101A88F
:105D40004C22FAF7BBFB169820B9FFE701208DF82B
:105D50005F00D9E1169800684AF20001C4F2000120
:105D6000884206D1FFE71699086800F58070486000
:105D7000FFE716988068B0F5407F01D1FFE7FFE7A5
:105D80001698006C08B1FFE7FFE71698806C08B121
:105D9000FFE7FFE71698006D08B1FFE7FFE71698E9
:105DA000006E08B1FFE7FFE71699C86D096E084459
:105DB00008B1FFE7FFE7169890F8980040B9FFE7B1
:105DC0001699002081F89900169800F0A1F9FFE7D4
:105DD00016980168886920F01000886100F0F0FCD6
:105DE0001590FFE71698006880690007002817D50E
:105DF000FFE700F0E5FC1599401A0B280FD3FFE7E9
:105E00001699D1F89C0040F00100C1F89C00169949
:105E1000032081F8980001208DF85F0074E1E1E72C
:105E200016980168886940F00100886100F0C8FC9C
:105E30001590FFE7169800688069C007B8B9FFE7BA
:105E400000F0BEFC1599401A0B280FD3FFE71699F6
:105E5000D1F89C0040F00100C1F89C001699032085
:105E600081F8980001208DF85F004DE1E2E7169877
:105E70000168886940F0020088611698007C01285A
:105E800007D1FFE716980168886920F04000886113
:105E900006E016980168886940F040008861FFE7D5
:105EA0001698407C012807D1FFE716980168886999
:105EB00040F48040886106E016980168886920F403
:105EC00080408861FFE71698807C012807D1FFE7B2
:105ED00016980168886920F48050886106E0169859
:105EE0000168886940F480508861FFE7169800686F
:105EF000806920F44070169A116892681043886196
:105F000016980168886920F0A400886116980168D5
:105F1000086920F0100008611698C068012807D1B0
:105F2000FFE716980168886940F0040088612BE05B
:105F30001698C06830B3FFE71698C068022819D0D9
:105F4000FFE716980168886940F08000886116981C
:105F50000168086940F0100008611698C0680328BD
:105F600007D1FFE716980168886940F02000886132
:105F7000FFE706E016980168886940F02000886114
:105F8000FFE700E0FFE7FFE7169A116853699069A1
:105F9000D2F81CE0A0F1010C6FF0FF0000EB0E2026
:105FA00040EA4C60126A013A10430022CFF6FF72B9
:105FB00002EB03421043C86116988068B0F5407F39
:105FC0001CD1FFE7169A1168536A906AD2F82CE048
:105FD00001386FF0FF0C0CEB0E2C40EA0C00D2F8ED
:105FE00030C06FF00F0202EB0C1210430022CFF60C
:105FF000FF7202EB03421043C860FFE71698006E81
:1060000048B1FFE716980168426ED1F8C00010430E
:10601000C1F8C000FFE71699C86D096E084480B149
:10602000FFE716980068D0F8C80020F00700169A1D
:106030001168936E01AA52F823201043C1F8C800DA
:10604000FFE71698006C80B1FFE716980068D0F85B
:10605000BC0020F00700169A1168536C01AA52F890
:1060600023201043C1F8BC00FFE71698806C88B16C
:10607000FFE716980068D0F8BC0020F07000169A70
:106080001168D36C01AA52F8232040EA0210C1F82B
:10609000BC00FFE71698006D88B1FFE7169800680E
:1060A000D0F8BC0020F4E060169A1168536D01AA84
:1060B00052F8232040EA0220C1F8BC00FFE71698FE
:1060C00000684AF20001C4F20001884207D1FFE7EC
:1060D00016984168886820F003008860FFE71699E9
:1060E0000020C1F894001699C1F89C00169901206F
:1060F00081F898001698FBF79FFD8DF853009DF8E6
:1061000053008DF85F00FFE79DF85F0018B080BD79
:1061100080B5BCB03B9000203A90399038903790D1
:10612000369008A8B821FAF7FBF93B9800684AF2C4
:106130000001C4F20001884255D1FFE70020099018
:106140004FF4004008904FF08050239008A800F0D2
:106150005BFF18B1FFE7FBF7E7FCFFE740F23030E9
:10616000C2F200400168013101600068012810D1CD
:10617000FFE7FFE744F2EC40C5F60200016841F496
:1061800080710160006800F4807007900798FFE755
:10619000FFE7FFE744F2E040C5F60200016841F086
:1061A00008010160006800F0080006900698FFE70B
:1061B00003203690022037900020029038903990CA
:1061C00009203A9040F60040C5F6020036A900F0DA
:1061D0000BF9029A13200390052100F0DDFB0398D0
:1061E00000F0CEFB5EE03B9800684AF20041C4F24A
:1061F0000001884255D1FFE7002009904FF400408C
:1062000008904FF08050239008A800F0FDFE18B1D0
:10621000FFE7FBF789FCFFE740F23030C2F20040B5
:106220000168013101600068012810D1FFE7FFE734
:1062300044F2EC40C5F60200016841F4807101604F
:10624000006800F4807005900598FFE7FFE7FFE71E
:1062500044F2E040C5F60200016841F0020101602D
:10626000006800F0020004900498FFE76020369078
:1062700002203790002000903890399009203A9001
:1062800040F20040C5F6020036A900F0ADF8009AD1
:1062900014200190052100F07FFB019800F070FBB5
:1062A000FFE7FFE73CB080BD81B0009001B07047D0
:1062B00080B584B003900291039840F2C821C2F2E5
:1062C00000410A1D019201F12C0300934021FFF7C8
:1062D000BBF800990198FBF737FC04B080BD0000C3
:1062E00080B584B003900291039840F2FC21C2F281
:1062F00000410A1D019201F12C0300934121FFF797
:10630000A3F800990198FBF75FFC04B080BD000082
:1063100082B00090009890F89800012811D1FFE712
:106320000099022081F8980000980168886920F09F
:106330000100886100990020C1F89C008DF80700D9
:106340000AE00099D1F89C0040F00400C1F89C00DC
:1063500001208DF80700FFE79DF8070002B07047A5
:1063600082B00190009102B0704700000000000070
:1063700082B00190009102B0704700000000000060
:1063800083B002900191009203B0704700000000BA
:1063900082B00190009102B0704700000000000040
:1063A00081B0009001B0704781B0009001B070479B
:1063B00082B00190009102B0704700000000000020
:1063C00082B00190009102B0704700000000000010
:1063D00082B00190009102B0704700000000000000
:1063E00081B0009001B070478FB00E900D910020E9
:1063F0000C908020C5F600000990FFE70D9800681A
:106400000C99C840002800F0C181FFE70D98006892
:106410000C9A0121914008400B900B98002800F045
:10642000B181FFE70D98406800F00300012807D014
:10643000FFE70D98406800F0030002282FD1FFE726
:106440000E9880680A900C984100032000FA01F130
:106450000A9888430A900D98C0680C99490000FA80
:1064600001F10A9808430A900A980E9988600E98DC
:1064700040680A900C99012000FA01F10A988843BB
:106480000A900D984068C0F300100C9900FA01F1D1
:106490000A9808430A900A980E994860FFE70D98F9
:1064A000406800F00300032818D0FFE70E98C0688A
:1064B0000A900C984100032000FA01F10A988843E1
:1064C0000A900D9880680C99490000FA01F10A9829
:1064D00008430A900A980E99C860FFE70D98406833
:1064E00000F00300022826D1FFE70E980C996FF008
:1064F000030202EA51010844006A0A900C9800F075
:10650000070081000F2000FA01F10A9888430A90E1
:106510000D9800690C9901F00701890000FA01F15A
:106520000A9808430A900A980E990C9B02EA5302B3
:1065300011440862FFE70E9800680A900C98410029
:10654000032000FA01F10A9888430A900D984068E8
:1065500000F003000C99490000FA01F10A98084381
:106560000A900A980E9908600D9880798007002893
:1065700000F00781FFE7FFE744F2F440C5F60200B0
:10658000016841F002010160006800F0020008901B
:106590000898FFE70C9820F0030040F20841C5F688
:1065A000000140580A900C9800F0030081000F2071
:1065B00000FA01F10A9888430A900E980021C5F666
:1065C0000201884203D1FFE7002007906CE00E989B
:1065D00040F20041C5F60201884203D1FFE70120E5
:1065E00006905EE00E9840F60001C5F60201884272
:1065F00003D1FFE70220059050E00E9840F60041DD
:10660000C5F60201884203D1FFE70320049042E06F
:106610000E9841F20001C5F60201884203D1FFE75E
:106620000420039034E00E9841F20041C5F60201C7
:10663000884203D1FFE70520029026E00E9841F63C
:106640000001C5F60201884203D1FFE70620019050
:1066500018E00E9841F60041C5F60201884203D1C8
:10666000FFE7072000900AE00E9942F20042C5F6CB
:1066700002020A20914208BF09200090FFE700981B
:106680000190FFE701980290FFE702980390FFE76F
:1066900003980490FFE704980590FFE7059806909B
:1066A000FFE706980790FFE707980C9901F00301B0
:1066B000890000FA01F10A9808430A900A980C9997
:1066C00021F0030140F20842C5F6000288504FF065
:1066D000B04000680A900B990A9888430A900D9878
:1066E0008079C006002805D5FFE70B990A98084372
:1066F0000A90FFE70A984FF0B04108600420C5F601
:10670000000000680A900B990A9888430A900D9837
:1067100080798006002805D5FFE70B990A98084381
:106720000A90FFE70A980421C5F60001086009985D
:1067300040680A900B990A9888430A900D988079CE
:106740008007002805D5FFE70B990A9808430A90AF
:10675000FFE70A9809994860099800680A900B9920
:106760000A9888430A900D988079C00728B1FFE7FE
:106770000B990A9808430A90FFE70A98099908605C
:10678000FFE7FFE70C9801300C9037E60FB0704739
:1067900082B00190ADF802108DF801209DF8010043
:1067A00028B1FFE7BDF802000199886105E0BDF856
:1067B0000200000401998861FFE702B07047000001
:1067C00044F2A020C2F200400068704700000000C0
:1067D00040F20020C2F20040027844F2A021C2F24E
:1067E0000041086810440860704700000000000085
:1067F00080B582B0032000F0E7F801F0E1FE44F23A
:106800001842C5F602021168C1F303234EF2347137
:10681000C0F60001CB5C03F01F03D8400090009845
:10682000126802F00F02895C01F01F01C84040F2BB
:10683000CC11C2F200410860009840F2C811C2F2C7
:10684000004108600F2000F013F820B1FFE701209D
:106850008DF8070005E000F077F800208DF80700BC
:10686000FFE79DF8070002B080BD000000000000B7
:1068700080B590B00E900E980F2810D8FFE70E99B3
:106880001C200090002200F087F8009800F078F8B3
:106890000E9840F20421C2F20041086003E001209A
:1068A0008DF83F004CE0FFE744F2E840C5F60200F7
:1068B000016841F001010160006800F001000190F1
:1068C0000198FFE706A802A901F0E2FD0B980490E9
:1068D000049820B9FFE701F04BFE059004E001F0B9
:1068E00047FE40000590FFE705984DF68361C4F22E
:1068F0001B31A0FB01014FF0FF3000EB91400390F2
:1069000040F21C50C2F200404FF08041016040F262
:10691000E731C1600399416000210161816002F0AB
:10692000F3FC48B9FFE740F21C50C2F2004002F00D
:1069300043FD8DF83F0003E001208DF83F00FFE7A5
:106940009DF83F0010B080BD80B582B0FFE744F2F3
:10695000F440C5F60200016841F0020101600068E0
:1069600000F0020001900198FFE76FF001000F2195
:10697000002200F011F802B080BD0000000000000D
:1069800080B582B0ADF80600BDF9060005F0E4FE62
:1069900002B080BD0000000080B586B0ADF81600E2
:1069A0000491039205F0F0FE0290BDF916000190EB
:1069B00002980499039A04F0C7F90146019805F07A
:1069C000EBFE06B080BD000080B582B0019001985A
:1069D00005F006FF02B080BD80B584B0029044F699
:1069E0000C00C5F60200006800F004010020B0EBC6
:1069F000910F13D1FFE744F60C00C5F602000068C2
:106A000000F007000299884204D0FFE701208DF8CA
:106A10000F002EE000208DF80F002AE044F60C0154
:106A2000C5F60201086820F00700029A10430860CA
:106A3000FFF7C6FE0190FFE744F60400C5F602002A
:106A4000006800F400510020B0EB513F0DD1FFE78A
:106A5000FFF7B6FE0199401AB0F57A7F04D9FFE737
:106A600001208DF80F0004E0E6E700208DF80F000C
:106A7000FFE79DF80F0004B080BD0000000000009B
:106A800080B501F049FD44F22041C5F602010968D4
:106A9000C1F302124EF23471C0F60001895C01F0BC
:106AA0001F01C84080BD000088B0079044F2284014
:106AB000C5F60200016801F0030106910068C0F309
:106AC0000530059044F22C40C5F602000068C0F382
:106AD00000100490049844F23C41C5F60201096894
:106AE00089B2C908484300EE100AB8EE400A8DED9D
:106AF000020A0598002800F01B81FFE70698009025
:106B000048B1FFE70098012869D0FFE70098022804
:106B100000F08980ABE044F20040C5F60200006856
:106B200000F020010020B0EB511F33D0FFE744F20A
:106B30000040C5F602000068C0F3C10149F2000040
:106B4000C0F2D030C84003909DED030AB8EE400A71
:106B50009DED051AB8EE411A80EE010A44F2384064
:106B6000C5F6020000686FF35F2001EE100AB8EE70
:106B7000411A9DED022A9FED743A82EE032A31EE0E
:106B8000021AB7EE002A31EE021A20EE010A8DED4C
:106B9000010A23E09DED050AB8EE401A9FED6C0A4C
:106BA00080EE010A44F23840C5F6020000686FF337
:106BB0005F2001EE100AB8EE411A9DED022A9FED0A
:106BC000623A82EE032A31EE021AB7EE002A31EE63
:106BD000021A20EE010A8DED010AFFE76BE09DED40
:106BE000050AB8EE401A9FED590A80EE010A44F2F8
:106BF0003840C5F6020000686FF35F2001EE100A0E
:106C0000B8EE411A9DED022A9FED4F3A82EE032A1B
:106C100031EE021AB7EE002A31EE021A20EE010A16
:106C20008DED010A47E09DED050AB8EE401A9FED93
:106C3000450A80EE010A44F23840C5F602000068B9
:106C40006FF35F2001EE100AB8EE411A9DED022AA3
:106C50009FED3D3A82EE032A31EE021AB7EE002A8A
:106C600031EE021A20EE010A8DED010A23E09DEDBE
:106C7000050AB8EE401A9FED350A80EE010A44F28B
:106C80003840C5F6020000686FF35F2001EE100A7D
:106C9000B8EE411A9DED022A9FED2B3A82EE032AAF
:106CA00031EE021AB7EE002A31EE021A20EE010A86
:106CB0008DED010AFFE79DED010A44F23840C5F66B
:106CC0000200016889B2490A01EE101AB8EE411AB1
:106CD000B7EE002A31EE021A80EE010A0799BCEEE7
:106CE000C00A81ED000A9DED010A0168C1F3064169
:106CF00001EE101AB8EE411A31EE021A80EE010AC6
:106D00000799BCEEC00A81ED010A9DED010A0068F9
:106D1000C0F3066001EE100AB8EE411A31EE021A15
:106D200080EE010A0798BCEEC00A80ED020A07E077
:106D30000799002008600799486007998860FFE775
:106D400008B07047001BB74B000000460024744A8F
:106D50000024744C0000000088B0079044F22840E2
:106D6000C5F60200016801F0030106910068C0F356
:106D70000550059044F22C40C5F602000068C0F3AF
:106D800000200490049844F24441C5F602010968C9
:106D900089B2C908484300EE100AB8EE400A8DEDEA
:106DA000020A0598002800F01B81FFE70698009072
:106DB00048B1FFE70098012869D0FFE70098022852
:106DC00000F08980ABE044F20040C5F602000068A4
:106DD00000F020010020B0EB511F33D0FFE744F258
:106DE0000040C5F602000068C0F3C10149F200008E
:106DF000C0F2D030C84003909DED030AB8EE400ABF
:106E00009DED051AB8EE411A80EE010A44F24040A9
:106E1000C5F6020000686FF35F2001EE100AB8EEBD
:106E2000411A9DED022A9FED743A82EE032A31EE5B
:106E3000021AB7EE002A31EE021A20EE010A8DED99
:106E4000010A23E09DED050AB8EE401A9FED6C0A99
:106E500080EE010A44F24040C5F6020000686FF37C
:106E60005F2001EE100AB8EE411A9DED022A9FED57
:106E7000623A82EE032A31EE021AB7EE002A31EEB0
:106E8000021A20EE010A8DED010AFFE76BE09DED8D
:106E9000050AB8EE401A9FED590A80EE010A44F245
:106EA0004040C5F6020000686FF35F2001EE100A53
:106EB000B8EE411A9DED022A9FED4F3A82EE032A69
:106EC00031EE021AB7EE002A31EE021A20EE010A64
:106ED0008DED010A47E09DED050AB8EE401A9FEDE1
:106EE000450A80EE010A44F24040C5F602000068FF
:106EF0006FF35F2001EE100AB8EE411A9DED022AF1
:106F00009FED3D3A82EE032A31EE021AB7EE002AD7
:106F100031EE021A20EE010A8DED010A23E09DED0B
:106F2000050AB8EE401A9FED350A80EE010A44F2D8
:106F30004040C5F6020000686FF35F2001EE100AC2
:106F4000B8EE411A9DED022A9FED2B3A82EE032AFC
:106F500031EE021AB7EE002A31EE021A20EE010AD3
:106F60008DED010AFFE79DED010A44F24040C5F6B0
:106F70000200016889B2490A01EE101AB8EE411AFE
:106F8000B7EE002A31EE021A80EE010A0799BCEE34
:106F9000C00A81ED000A9DED010A0168C1F30641B6
:106FA00001EE101AB8EE411A31EE021A80EE010A13
:106FB0000799BCEEC00A81ED010A9DED010A006847
:106FC000C0F3066001EE100AB8EE411A31EE021A63
:106FD00080EE010A0798BCEEC00A80ED020A07E0C5
:106FE0000799002008600799486007998860FFE7C3
:106FF00008B07047001BB74B000000460024744ADD
:107000000024744C0000000080B59AB01890002055
:107010008DF857008DF856001898C07800070028A2
:1070200048D5FFE71898406E149078B1FFE71498A0
:10703000B0F5801F13D0FFE71498B0F5001F16D0ED
:10704000FFE71498B0F5401F19D019E044F22C4125
:10705000C5F60201086840F40030086014E0189892
:107060000830022103F0E0FE8DF857000CE018987C
:107070002830022103F0C0FF8DF8570004E003E040
:1070800001208DF85700FFE79DF8570060B9FFE732
:1070900044F25041C5F60201086820F44010189AE5
:1070A000526E1043086004E09DF857008DF85600BA
:1070B000FFE7FFE718984078C007002840D0FFE7B7
:1070C0001898806D1390042820D81399DFE801F0F8
:1070D000030C141C1D0044F22C41C5F60201086883
:1070E00040F40030086015E018980830002103F0E3
:1070F0009BFE8DF857000DE018982830002103F012
:107100007BFF8DF8570005E004E003E001208DF8D7
:107110005700FFE79DF8570060B9FFE744F2504180
:10712000C5F60201086820F00700189A926D104316
:10713000086004E09DF857008DF85600FFE7FFE770
:10714000189840784007002856D5FFE71898D0F8DF
:10715000A4001290C8B1FFE71298B0F5001F1DD02F
:10716000FFE71298B0F5800F20D0FFE71298B0F536
:10717000C00F23D0FFE71298B0F5000F1FD0FFE734
:107180001298B0F5200F1BD01BE044F22C41C5F63D
:107190000201086840F40030086016E018980830D2
:1071A000002103F041FE8DF857000EE018982830BA
:1071B000002103F021FF8DF8570006E005E004E010
:1071C00003E001208DF85700FFE79DF8570068B9EC
:1071D000FFE744F25841C5F60201086820F4600058
:1071E000189AD2F8A4201043086004E09DF85700D4
:1071F0008DF85600FFE7FFE7189840780007002851
:1072000056D5FFE71898D0F8A8001190C8B1FFE74D
:107210001198B0F1807F1DD0FFE71198B0F1007F89
:1072200020D0FFE71198B0F1407F23D0FFE71198FD
:10723000B0F1806F1FD0FFE71198B0F1A06F1BD0A5
:107240001BE044F22C41C5F60201086840F400300E
:10725000086016E018980830002103F0E5FD8DF86D
:1072600057000EE018982830002103F0C5FE8DF875
:10727000570006E005E004E003E001208DF8570028
:10728000FFE79DF8570068B9FFE744F25841C5F69B
:107290000201086820F0E060189AD2F8A820104394
:1072A000086004E09DF857008DF85600FFE7FFE7FF
:1072B0001898C078800700283ED5FFE71898C06C62
:1072C0001090F0B1FFE71098102808D0FFE7109851
:1072D00020280DD0FFE71098302811D012E044F29A
:1072E0002C41C5F60201086840F4003008600DE04A
:1072F00018980830022103F097FD8DF8570005E03B
:1073000004E003E001208DF85700FFE79DF85700E7
:1073100060B9FFE744F24C41C5F60201086820F06D
:107320003000189AD26C1043086004E09DF85700B2
:107330008DF85600FFE7FFE718984078C006002850
:107340004ED5FFE71898C06D0F90A0B1FFE70F98DA
:10735000B0F5805F18D0FFE70F98B0F5005F1BD045
:10736000FFE70F98B0F5405F1ED0FFE70F98B0F52C
:10737000804F1AD01AE044F22C41C5F60201086889
:1073800040F40030086015E018980830002103F040
:107390004BFD8DF857000DE018982830002103F0C0
:1073A0002BFE8DF8570005E004E003E001208DF886
:1073B0005700FFE79DF8570060B9FFE744F25041DE
:1073C000C5F60201086820F4E040189AD26D104317
:1073D000086004E09DF857008DF85600FFE7FFE7CE
:1073E00018984078800600284CD5FFE71898006E62
:1073F0000E90C8B1FFE70E98B0F5803F15D0FFE7BB
:107400000E98B0F5003F18D0FFE70E98B0F5403F5A
:107410001BD0FFE70E98B0F5802F17D0FFE70E982E
:10742000B0F5A02F13D013E016E018980830012112
:1074300003F0FAFC8DF857000EE01898283001216F
:1074400003F0DAFD8DF8570006E005E004E003E004
:1074500001208DF85700FFE79DF8570060B9FFE75E
:1074600044F25041C5F60201086820F4E020189A61
:10747000126E1043086004E09DF857008DF8560026
:10748000FFE7FFE718984078400600284ED5FFE751
:107490001898D0F8AC000D90C8B1FFE70D98B0F186
:1074A000805F15D0FFE70D98B0F1005F18D0FFE7BF
:1074B0000D98B0F1405F1BD0FFE70D98B0F1804F01
:1074C00017D0FFE70D98B0F1A04F13D013E016E0EE
:1074D00018980830012103F0A7FC8DF857000EE042
:1074E00018982830012103F087FD8DF8570006E039
:1074F00005E004E003E001208DF85700FFE79DF868
:10750000570068B9FFE744F25841C5F60201086820
:1075100020F0E040189AD2F8AC201043086004E054
:107520009DF857008DF85600FFE7FFE71898407860
:10753000000600283BD5FFE71898C06E0C90D8B124
:10754000FFE70C98B0F1805F05D0FFE70C98B0F131
:10755000005F09D011E044F22C41C5F60201086831
:1075600040F4003008600CE018980830012103F066
:107570005BFC8DF8570004E003E001208DF8570014
:10758000FFE79DF8570060B9FFE744F25041C5F6A8
:107590000201086820F04050189AD26E104308602B
:1075A00004E09DF857008DF85600FFE7FFE71898B4
:1075B000C078C007002837D0FFE71898806C0B9080
:1075C000032817D80B99DFE801F014020B1344F2DB
:1075D0002C41C5F60201086840F4003008600DE057
:1075E00018980830022103F01FFC8DF8570005E0C1
:1075F00004E003E001208DF85700FFE79DF85700F5
:1076000060B9FFE744F24C41C5F60201086820F07A
:107610000300189A926C1043086004E09DF857002C
:107620008DF85600FFE7FFE718988078400600289D
:1076300040F1B480FFE744F60001C5F60201086896
:1076400040F480700860FFF7BBF81690FFE744F63F
:107650000000C5F602000068C00500280CD4FFE752
:10766000FFF7AEF81699401A652804D3FFE7032008
:107670008DF8570000E0EAE79DF85700002840F039
:107680008780FFE744F27040C5F60200006800F40E
:1076900040701899D1F8B01001F44071884213D0AD
:1076A000FFE744F27041C5F60201086820F440701B
:1076B0001790086840F480300860086820F4803033
:1076C000086017980860FFE71898D0F8B000B0F588
:1076D000807F1FD1FFE7FFF773F81690FFE744F2B2
:1076E0007040C5F60200006800F002010020B0EB17
:1076F000510F0ED1FFE7FFF763F81699401A41F2D8
:107700008931884204D3FFE703208DF8570000E059
:10771000E5E7FFE79DF85700A0BBFFE7FFE71898F4
:10772000D0F8B00000F44070B0F5407F13D1FFE70F
:1077300044F21041C5F60201086820F47C50189A02
:10774000D2F8B0204FF6F043C0F6FF731A4040EA7B
:107750001210086008E044F21041C5F60201086802
:1077600020F47C500860FFE71898D0F8B0206FF341
:107770001F3244F27041C5F60201086810430860E8
:10778000FFE704E09DF857008DF85600FFE704E09E
:107790009DF857008DF85600FFE7FFE7189800683E
:1077A000C007002800F04C80FFE71898806F0A900F
:1077B00028282BD80A99DFE801F015292929292939
:1077C000292916292929292929291E292929292947
:1077D000292926292929292929292729292929291E
:1077E0002929280016E018980830012103F01CFB15
:1077F0008DF857000EE018982830012103F0FCFBAB
:107800008DF8570006E005E004E003E001208DF864
:107810005700FFE79DF8570060B9FFE744F2544175
:10782000C5F60201086820F03800189A926F1043DC
:10783000086004E09DF857008DF85600FFE7FFE769
:10784000189800788007002839D5FFE71898406F0E
:107850000990052819D80999DFE801F003040C14F0
:10786000151616E018980830012103F0DDFA8DF89E
:1078700057000EE018982830012103F0BDFB8DF869
:10788000570006E005E004E003E001208DF8570012
:10789000FFE79DF8570060B9FFE744F25441C5F691
:1078A0000201086820F00700189A526F1043086020
:1078B00004E09DF857008DF85600FFE7FFE71898A1
:1078C0000078400700283BD5FFE71898D0F89000D3
:1078D0000890052819D80899DFE801F003040C1472
:1078E000151616E018980830012103F09DFA8DF85E
:1078F00057000EE018982830012103F07DFB8DF829
:10790000570006E005E004E003E001208DF8570091
:10791000FFE79DF8570068B9FFE744F25841C5F604
:107920000201086820F00700189AD2F8902010434E
:10793000086004E09DF857008DF85600FFE7FFE768
:1079400018980078800600284ED5FFE71898D0F8E0
:107950008C000790C8B1FFE70798B0F1805F15D0A1
:10796000FFE70798B0F1005F18D0FFE70798B0F184
:10797000405F1BD0FFE70798B0F1804F17D0FFE7BB
:107980000798B0F1A04F13D013E016E01898083014
:10799000002103F049FA8DF857000EE018982830BE
:1079A000022103F029FB8DF8570006E005E004E012
:1079B00003E001208DF85700FFE79DF8570068B9F4
:1079C000FFE744F25441C5F60201086820F0E040A8
:1079D000189AD2F88C201043086004E09DF85700F4
:1079E0008DF85600FFE7FFE718980078400600285A
:1079F0004ED5FFE71898D0F898000690C8B1FFE779
:107A00000698B0F5806F15D0FFE70698B0F5006FC7
:107A100018D0FFE70698B0F5406F1BD0FFE7069837
:107A2000B0F5805F17D0FFE70698B0F5A05F13D0E0
:107A300013E016E018980830002103F0F5F98DF8EE
:107A400057000EE018982830022103F0D5FA8DF87F
:107A5000570006E005E004E003E001208DF8570040
:107A6000FFE79DF8570068B9FFE744F25841C5F6B3
:107A70000201086820F4E050189AD2F898201043C8
:107A8000086004E09DF857008DF85600FFE7FFE717
:107A900018980078000600284ED5FFE71898D0F80F
:107AA0009C000590C8B1FFE70598B0F5005F15D0C0
:107AB000FFE70598B0F5804F18D0FFE70598B0F5BF
:107AC000C04F1BD0FFE70598B0F5004F17D0FFE778
:107AD0000598B0F5204F13D013E016E01898083041
:107AE000002103F0A1F98DF857000EE01898283016
:107AF000022103F081FA8DF8570006E005E004E06A
:107B000003E001208DF85700FFE79DF8570068B9A2
:107B1000FFE744F25841C5F60201086820F46040CE
:107B2000189AD2F89C201043086004E09DF8570092
:107B30008DF85600FFE7FFE7189800780007002847
:107B400020D5FFE71898D0F88000B0F5805F0CD101
:107B5000FFE718982830022103F04EFA20B1FFE722
:107B600001208DF85600FFE7FFE744F25441C5F6C7
:107B70000201086820F44050189AD2F8802010437F
:107B80000860FFE718980078C006002820D5FFE7B6
:107B90001898D0F89400B0F5807F0CD1FFE71898C2
:107BA0002830022103F028FA20B1FFE701208DF8E8
:107BB0005600FFE7FFE744F25841C5F602010868A6
:107BC00020F44070189AD2F8942010430860FFE720
:107BD00018988078000700283CD5FFE71898D0F85F
:107BE000A000049050B1FFE70498B0F5803F0DD09D
:107BF000FFE70498B0F5003F10D010E01898083067
:107C0000002103F011F98DF857000CE01898283086
:107C1000022103F0F1F98DF8570004E003E00120A0
:107C20008DF85700FFE79DF8570068B9FFE744F269
:107C30005841C5F60201086820F44030189AD2F87D
:107C4000A0201043086004E09DF857008DF856000E
:107C5000FFE7FFE718988078400700283FD5FFE747
:107C60001898D0F884000390B0F5801F0AD0FFE781
:107C70000398B0F5001F0ED0FFE70398B0F5401F42
:107C800011D011E044F22C41C5F60201086840F41D
:107C9000003008600CE018982830012103F0ACF99E
:107CA0008DF8570004E003E001208DF85700FFE74E
:107CB0009DF8570068B9FFE744F25441C5F6020148
:107CC000086820F44010189AD2F884201043086005
:107CD00004E09DF857008DF85600FFE7FFE718987D
:107CE0008078C007A8B3FFE71898006D029028B10C
:107CF000FFE70298B0F5803F09D010E044F22C4134
:107D0000C5F60201086840F4003008600BE01898DE
:107D10000830022103F088F88DF8570003E00120B5
:107D20008DF85700FFE79DF8570060B9FFE744F270
:107D30004C41C5F60201086820F48030189A126D93
:107D40001043086004E09DF857008DF85600FFE7E7
:107D5000FFE71898C078800600280CD5FFE7189830
:107D60002830022103F048F920B1FFE701208DF807
:107D70005600FFE7FFE718988078800700283AD57B
:107D8000FFE71898C06F0190D0B1FFE70198B0F5F8
:107D9000807F0AD0FFE70198B0F5007F0ED0FFE7A3
:107DA0000198B0F5407F0AD00BE044F22C41C5F6B3
:107DB0000201086840F40030086006E005E004E0D5
:107DC00003E001208DF85700FFE79DF8570060B9E8
:107DD000FFE744F25441C5F60201086820F4407000
:107DE000189AD26F1043086004E09DF857008DF890
:107DF0005600FFE7FFE718988078C00600280CD5EA
:107E0000FFE744F25041C5F60201086820F0004047
:107E1000189A126F10430860FFE718988078800660
:107E200000280CD5FFE744F25041C5F6020108686E
:107E300020F08070189A926E10430860FFE718983F
:107E4000C0784006002811D5FFE7FFE744F2104153
:107E5000C5F60201086820F4004008601898D0F8C0
:107E6000B420086810430860FFE7FFE71898C0785F
:107E7000000600280CD5FFE744F24C41C5F602018C
:107E8000086820F04050189A526D10430860FFE7D0
:107E900018988078000600280DD5FFE744F2544179
:107EA000C5F60201086820F44000189AD2F888202C
:107EB00010430860FFE718980079C00790B1FFE70A
:107EC00018980830002102F0AFFF8DF857009DF898
:107ED000570008B9FFE704E09DF857008DF85600F9
:107EE000FFE7FFE7189800798007002812D5FFE721
:107EF00018980830012102F097FF8DF857009DF87F
:107F0000570008B9FFE704E09DF857008DF85600C8
:107F1000FFE7FFE7189800794007002812D5FFE730
:107F200018980830022102F07FFF8DF857009DF865
:107F3000570008B9FFE704E09DF857008DF8560098
:107F4000FFE7FFE7189800790007002812D5FFE740
:107F500018982830002103F04FF88DF857009DF84D
:107F6000570008B9FFE704E09DF857008DF8560068
:107F7000FFE7FFE718980079C006002812D5FFE751
:107F800018982830012103F037F88DF857009DF834
:107F9000570008B9FFE704E09DF857008DF8560038
:107FA000FFE7FFE7189800798006002812D5FFE761
:107FB00018982830022103F01FF88DF857009DF81B
:107FC000570008B9FFE704E09DF857008DF8560008
:107FD000FFE7FFE79DF8560020B9FFE700208DF886
:107FE000670003E001208DF86700FFE79DF8670058
:107FF0001AB080BD0000000080B586B004900391E7
:10800000049820B9FFE701208DF817003CE203989F
:1080100042F20001C5F20021096801F00F01884217
:1080200016D9FFE742F20000C5F20020016821F0F6
:108030000F01039A11430160006800F00F000399DB
:10804000884204D0FFE701208DF817001CE2FFE70B
:10805000049800784007002819D5FFE704980069C4
:1080600044F21841C5F60201096801F07001884226
:108070000CD9FFE744F21841C5F60201086820F068
:108080007000049A126910430860FFE7FFE7049844
:1080900000780007002819D5FFE70498406944F2EA
:1080A0001C41C5F60201096801F0700188420CD933
:1080B000FFE744F21C41C5F60201086820F0700099
:1080C000049A526910430860FFE7FFE704980078BC
:1080D000C006002819D5FFE70498806944F21C41C6
:1080E000C5F60201096801F4E06188420CD9FFE796
:1080F00044F21C41C5F60201086820F4E060049ACD
:10810000926910430860FFE7FFE704980078800653
:10811000002819D5FFE70498C06944F22041C5F64C
:108120000201096801F0700188420CD9FFE744F2AE
:108130002041C5F60201086820F07000049AD26957
:1081400010430860FFE7FFE70498007880070028E5
:1081500019D5FFE70498C06844F21841C5F602013A
:10816000096801F00F0188420CD9FFE744F2184179
:10817000C5F60201086820F00F00049AD268104387
:108180000860FFE7FFE704980078C007002800F0C8
:108190008C80FFE744F21841C5F60201086820F41C
:1081A0007060049A9268104308600498406802283E
:1081B00011D1FFE744F20040C5F60200006800F468
:1081C00000310020B0EB514F04D1FFE701208DF8C2
:1081D000170059E13EE004984068032811D1FFE7F9
:1081E00044F20040C5F60200006800F00071002073
:1081F000B0EB516F04D1FFE701208DF8170043E188
:1082000027E004984068012811D1FFE744F20040BC
:10821000C5F60200006800F480710020B0EB112F59
:1082200004D1FFE701208DF817002DE110E044F2A2
:108230000040C5F60200006800F004010020B0EB29
:10824000910F04D1FFE701208DF817001CE1FFE733
:10825000FFE7FFE744F21041C5F60201086820F08D
:108260000700049A526810430860FEF7A9FA0190CB
:10827000FFE744F21040C5F60200006800F0380045
:1082800004994968B0EBC10F0ED0FFE7FEF798FAEA
:108290000199401A41F28931884204D3FFE7032053
:1082A0008DF81700F0E0E4E7FFE704980078800716
:1082B000002819D5FFE70498C06844F21841C5F6B4
:1082C0000201096801F00F0188420CD2FFE744F275
:1082D0001841C5F60201086820F00F00049AD26820
:1082E00010430860FFE7FFE7039842F20001C5F280
:1082F0000021096801F00F01884216D2FFE742F21F
:108300000000C5F20020016821F00F01039A11431B
:108310000160006800F00F000399884204D0FFE775
:1083200001208DF81700AFE0FFE7049800784007C0
:10833000002819D5FFE70498006944F21841C5F6F2
:108340000201096801F0700188420CD2FFE744F293
:108350001841C5F60201086820F07000049A1269FD
:1083600010430860FFE7FFE7049800780007002843
:1083700019D5FFE70498406944F21C41C5F6020193
:10838000096801F0700188420CD2FFE744F21C41F9
:10839000C5F60201086820F07000049A5269104383
:1083A0000860FFE7FFE704980078C006002819D5A9
:1083B000FFE70498806944F21C41C5F60201096890
:1083C00001F4E06188420CD2FFE744F21C41C5F69B
:1083D0000201086820F4E060049A92691043086082
:1083E000FFE7FFE7049800788006002819D5FFE72B
:1083F0000498C06944F22041C5F60201096801F001
:10840000700188420CD2FFE744F22041C5F6020118
:10841000086820F07000049AD26910430860FFE7F2
:10842000FFE700F0CDF844F21842C5F602021168E9
:10843000C1F303234EF23471C0F60001CB5C03F0AC
:108440001F03D84000900098126802F00F02895C68
:1084500001F01F01C84040F2CC11C2F20041086097
:10846000009840F2C811C2F20041086040F20420B6
:10847000C2F200400068FEF7FBF98DF80B009DF892
:108480000B008DF81700FFE79DF8170006B080BDC0
:1084900082B00190009101993F20086044F21040A1
:1084A000C5F60200006800F007000199486044F238
:1084B0001840C5F60200016801F47061019A9160EC
:1084C000016801F00F01019AD160006800F07000AE
:1084D0000199086144F21C40C5F60200016801F0F0
:1084E0007001019A5161006800F4E06001998861AF
:1084F00044F22040C5F60200006800F070000199C7
:10850000C86142F20000C5F20020006800F00F00D0
:108510000099086002B0704780B582B000F050F852
:1085200044F21842C5F602021168C1F303234EF269
:108530003471C0F60001CB5C03F01F03D8400190FA
:108540000198126802F00F02895C01F01F0120FA05
:1085500001F140F2CC10C2F200400160019940F2FA
:10856000C812C2F200421160006802B080BD000073
:1085700080B5FFF7D1FF44F21C41C5F6020109683E
:10858000C1F302124EF23471C0F60001895C01F0B1
:108590001F01C84080BD000080B5FFF7BDFF44F259
:1085A0001C41C5F602010968C1F302224EF2347182
:1085B000C0F60001895C01F01F01C84080BD0000C9
:1085C0008AB044F21040C5F60200006800F038009E
:1085D00001460191182800F269810199DFE811F044
:1085E00019006601660166016601660166016601A1
:1085F0003A00660166016601660166016601660170
:108600004000660166016601660166016601660159
:10861000460044F20040C5F60200006800F0200168
:108620000020B0EB511F0ED0FFE744F20040C5F62A
:1086300002000068C0F3C10149F20000C0F2D0306E
:10864000C840029005E049F20000C0F2D03002902C
:10865000FFE731E140F60010C0F23D0002902BE14F
:1086600043F20060C0F26E10029025E144F228400F
:10867000C5F60200016801F0030108910068C0F32B
:108680000510079044F22C40C5F60200006800F087
:1086900001000690069844F23441C5F602010968CB
:1086A00089B2C908484300EE100AB8EE400A8DEDC1
:1086B000040A0798002800F0F580FFE7089800906A
:1086C00048B1FFE70098012869D0FFE70098022829
:1086D00000F08980ABE044F20040C5F6020000687B
:1086E00000F020010020B0EB511F33D0FFE744F22F
:1086F0000040C5F602000068C0F3C10149F2000065
:10870000C0F2D030C84005909DED050AB8EE400A91
:108710009DED071AB8EE411A80EE010A44F230408E
:10872000C5F6020000686FF35F2001EE100AB8EE94
:10873000411A9DED042A9FED633A82EE032A31EE41
:10874000021AB7EE002A31EE021A20EE010A8DED70
:10875000030A23E09DED070AB8EE401A9FED5B0A7D
:1087600080EE010A44F23040C5F6020000686FF363
:108770005F2001EE100AB8EE411A9DED042A9FED2C
:10878000513A82EE032A31EE021AB7EE002A31EE98
:10879000021A20EE010A8DED030AFFE76BE09DED62
:1087A000070AB8EE401A9FED480A80EE010A44F22B
:1087B0003040C5F6020000686FF35F2001EE100A3A
:1087C000B8EE411A9DED042A9FED3E3A82EE032A4F
:1087D00031EE021AB7EE002A31EE021A20EE010A3B
:1087E0008DED030A47E09DED070AB8EE401A9FEDB4
:1087F000340A80EE010A44F23040C5F602000068F7
:108800006FF35F2001EE100AB8EE411A9DED042AC5
:108810009FED2C3A82EE032A31EE021AB7EE002ABF
:1088200031EE021A20EE010A8DED030A23E09DEDE0
:10883000070AB8EE401A9FED240A80EE010A44F2BE
:108840003040C5F6020000686FF35F2001EE100AA9
:10885000B8EE411A9DED042A9FED1A3A82EE032AE2
:1088600031EE021AB7EE002A31EE021A20EE010AAA
:108870008DED030AFFE744F23040C5F602000068C0
:1088800081B2012000EB512009909DED030A9DED7E
:10889000091AB8EE411A80EE010ABCEEC00A8DED4D
:1088A000020A02E000200290FFE705E040F6001017
:1088B000C0F23D000290FFE702980AB0704700BF87
:1088C000001BB74B000000460024744A0024744C7F
:1088D00080B58CB00A900A9828B9FFE701208DF87E
:1088E0002F0000F001BD0A980078C007002800F0B2
:1088F000B980FFE744F21040C5F60200006800F0BE
:108900003800069044F22840C5F602000068059041
:10891000069810280AD0FFE7069818281CD1FFE710
:10892000059800F00300022816D1FFE744F200404A
:10893000C5F60200006800F400310020B0EB514F92
:1089400009D0FFE70A98406828B9FFE701208DF8B1
:108950002F0000F0C9BC84E0FFE70A984068B0F53A
:10896000803F09D1FFE744F20041C5F602010868E3
:1089700040F48030086032E00A98406868B9FFE748
:1089800044F20041C5F60201086820F48030086016
:10899000086820F48020086020E00A984068B0F55C
:1089A000A02F0DD1FFE744F20041C5F6020108688F
:1089B00040F480200860086840F4803008600CE0D3
:1089C00044F20041C5F60201086820F480300860D6
:1089D000086820F480200860FFE7FFE7FFE7FFE773
:1089E0000A984068F0B1FFE7FDF7EAFE0990FFE75B
:1089F00044F20040C5F60200006800F40031002097
:108A0000B0EB514F0DD1FFE7FDF7DAFE0999401A9F
:108A1000652805D3FFE703208DF82F0000F064BC24
:108A2000E6E71DE0FDF7CCFE0990FFE744F20040C9
:108A3000C5F60200006800F400310020B0EB514F91
:108A40000DD0FFE7FDF7BCFE0999401A652805D354
:108A5000FFE703208DF82F0000F046BCE6E7FFE7B4
:108A6000FFE7FFE70A9800788007002840F1C580FB
:108A7000FFE744F21040C5F60200006800F038003D
:108A8000049044F22840C5F6020000680390049860
:108A900050B1FFE70498182850D1FFE79DF80C006B
:108AA000800700284AD1FFE744F20040C5F60200E3
:108AB000006800F004010020B0EB910F09D0FFE73F
:108AC0000A98C06828B9FFE701208DF82F0000F050
:108AD0000BBC44F20041C5F60201086820F0190001
:108AE0000A9AD26810430860FDF76AFE0990FFE712
:108AF00044F20040C5F60200006800F004010020C6
:108B0000B0EB910F0CD1FFE7FDF75AFE0999401A1F
:108B1000032804D3FFE703208DF82F00E4E3E7E701
:108B200044F20441C5F60201086820F0FE400A9AAA
:108B3000126940EA02600860FFE75DE00A98C068D9
:108B4000A0B3FFE744F20041C5F60201086820F037
:108B500019000A9AD26810430860FDF731FE0990A7
:108B6000FFE744F20040C5F60200006800F004018F
:108B70000020B0EB910F0CD1FFE7FDF721FE099922
:108B8000401A032804D3FFE703208DF82F00ABE33E
:108B9000E7E744F20441C5F60201086820F0FE4010
:108BA0000A9A126940EA0260086024E044F2004137
:108BB000C5F60201086820F001000860FDF700FE1C
:108BC0000990FFE744F20040C5F60200006800F09B
:108BD00004010020B0EB910F0CD0FFE7FDF7F0FD92
:108BE0000999401A032804D3FFE703208DF82F00CA
:108BF0007AE3E7E7FFE7FFE7FFE70A980078C006B8
:108C0000002840F1A080FFE744F21040C5F60200C2
:108C1000006800F03800029044F22840C5F60200D7
:108C200000680190029808280AD0FFE702981828E7
:108C30002BD1FFE7019800F00300012825D1FFE7C1
:108C400044F20040C5F60200006800F48071002084
:108C5000B0EB112F09D0FFE70A98C069802804D033
:108C6000FFE701208DF82F003EE3FFE744F20C41BF
:108C7000C5F60201086820F07C500A9A126A40EAA0
:108C800002600860FFE7FFE75CE00A98C06998B3FC
:108C9000FFE744F20041C5F60201086840F0800099
:108CA0000860FDF78DFD0990FFE744F20040C5F62E
:108CB0000200006800F480710020B0EB112F0CD18D
:108CC000FFE7FDF77DFD0999401A032804D3FFE76C
:108CD00003208DF82F0007E3E7E7FFE744F20C419C
:108CE000C5F60201086820F07C500A9A126A40EA30
:108CF00002600860FFE724E044F20041C5F602018B
:108D0000086820F080000860FDF75AFD0990FFE731
:108D100044F20040C5F60200006800F480710020B3
:108D2000B0EB112F0CD0FFE7FDF74AFD0999401A6F
:108D3000032804D3FFE703208DF82F00D4E2E7E7F0
:108D4000FFE7FFE7FFE70A980078000700284FD504
:108D5000FFE70A98406928B3FFE744F27441C5F67B
:108D60000201086840F001000860FDF729FD099044
:108D7000FFE744F27440C5F60200006800F002010B
:108D80000020B0EB510F0CD1FFE7FDF719FD099959
:108D9000401A032804D3FFE703208DF82F00A3E235
:108DA000E7E724E044F27441C5F60201086820F0C8
:108DB00001000860FDF704FD0990FFE744F27440EC
:108DC000C5F60200006800F002010020B0EB510F70
:108DD0000CD0FFE7FDF7F4FC0999401A032804D3EF
:108DE000FFE703208DF82F007EE2E7E7FFE7FFE7CC
:108DF0000A980078800600284FD5FFE70A98806916
:108E000028B3FFE744F20041C5F60201086840F4C8
:108E100080500860FDF7D4FC0990FFE744F2004061
:108E2000C5F60200006800F400510020B0EB513F8D
:108E30000CD1FFE7FDF7C4FC0999401A032804D3BD
:108E4000FFE703208DF82F004EE2E7E724E044F22D
:108E50000041C5F60201086820F480500860FDF763
:108E6000AFFC0990FFE744F20040C5F6020000683D
:108E700000F400510020B0EB513F0CD0FFE7FDF7AC
:108E80009FFC0999401A032804D3FFE703208DF8BB
:108E90002F0029E2E7E7FFE7FFE70A98007840079D
:108EA000002840F1A780FFE744F60001C5F6020163
:108EB000086840F480700860FDF782FC0990FFE7C5
:108EC00044F60000C5F602000068C00500280CD476
:108ED000FFE7FDF775FC0999401A652804D3FFE701
:108EE00003208DF82F00FFE1EAE7FFE70A9880688A
:108EF000012809D1FFE744F27041C5F60201086874
:108F000040F00100086031E00A98806868B9FFE726
:108F100044F27041C5F60201086820F001000860C3
:108F2000086820F0040008601FE00A98806805289F
:108F30000DD1FFE744F27041C5F60201086840F028
:108F400004000860086840F0010008600CE044F28A
:108F50007041C5F60201086820F001000860086849
:108F600020F004000860FFE7FFE7FFE7FFE70A984B
:108F70008068F8B1FFE7FDF723FC0990FFE744F2B2
:108F80007040C5F60200006800F002010020B0EB5E
:108F9000510F0ED1FFE7FDF713FC0999401A41F27A
:108FA0008931884204D3FFE703208DF82F009BE12D
:108FB000E5E71EE0FDF704FC0990FFE744F270408E
:108FC000C5F60200006800F002010020B0EB510F6E
:108FD0000ED0FFE7FDF7F4FB0999401A41F2893101
:108FE000884204D3FFE703208DF82F007CE1E5E7FA
:108FF000FFE7FFE70A98406A002800F07181FFE769
:1090000044F21040C5F60200006800F0380018284D
:1090100000F0E080FFE70A98406A022840F0B48040
:10902000FFE744F20041C5F60201086820F08070B5
:109030000860FDF7C5FB0990FFE744F20040C5F664
:109040000200006800F000710020B0EB516F0CD0FE
:10905000FFE7FDF7B5FB0999401A032804D3FFE7A2
:1090600003208DF82F003FE1E7E7FFE744F22841B6
:10907000C5F60201086840F2F33290430A9B9A6AEF
:10908000DB6A42EA0312104308600A99086BD1F8C0
:1090900034C08B6BCA6B01386FF35F204FF60061F1
:1090A000CFF6FF7101EB4C2189B208440021CFF6C5
:1090B000FF7101EB034101F4FE0108444FF07F41D1
:1090C00001EB026101F0FE41084444F23041C5F673
:1090D00002010860FFE744F22C41C5F6020100914D
:1090E000086820F00100086044F23442C5F602022C
:1090F00010684FF6F87398430A9B9B6C40EAC300D4
:109100001060086820F00C000A9A126C1043086086
:10911000086820F002000A9A526C10430860086840
:1091200040F480300860086840F400300860086847
:1091300040F480200860086840F00100086044F2B4
:109140000041C5F60201086840F080700860FDF734
:1091500037FB0990FFE744F20040C5F602000068C3
:1091600000F000710020B0EB516F0CD1FFE7FDF76C
:1091700027FB0999401A032804D3FFE703208DF841
:109180002F00B1E0E7E724E044F20041C5F6020118
:10919000086820F080700860FDF712FB0990FFE777
:1091A00044F20040C5F60200006800F000710020A3
:1091B000B0EB516F0CD0FFE7FDF702FB0999401AA5
:1091C000032804D3FFE703208DF82F008CE0E7E7A6
:1091D000FFE784E044F22840C5F6020000680890EA
:1091E00044F23040C5F60200006807900A98406AD1
:1091F000012837D0FFE7089800F003000A99896A30
:1092000088422FD1FFE7089800F47C710A98C06A61
:10921000B0EB111F26D1FFE707986FF35F200A9983
:10922000096B013988421DD1FFE7BDF81C100A986F
:10923000406B0138B0EB512F14D1FFE7079800F4D1
:10924000FE010A98806B0138B0EB114F0AD1FFE79D
:10925000079800F0FE410A98C06B0138B0EB116F1F
:1092600004D0FFE701208DF82F003DE044F23440A8
:10927000C5F60200006880B2C00808900A98806CA9
:109280000899884229D0FFE744F22C41C5F6020133
:10929000086820F001000860FDF792FA0990FFE7E6
:1092A000FDF78EFA0999401A08B9FFE7F8E744F28A
:1092B0003441C5F6020108684FF6F87290430A9AE5
:1092C000926C40EAC200086044F22C41C5F60201EB
:1092D000086840F001000860FFE7FFE7FFE7FFE7ED
:1092E00000208DF82F00FFE79DF82F000CB080BD07
:1092F00081B0009001B0704781B0009001B070471C
:1093000081B0009001B0704780B582B000900098A5
:1093100020B9FFE701208DF8070045E0009890F89C
:109320003D0040B9FFE70099002081F83C0000981B
:1093300000F03EF8FFE70099022081F83D00009917
:1093400051F8040B02F020F90099012081F848003F
:10935000FFE70099012081F83E00009981F83F0065
:10936000009981F84000009981F84100009981F846
:109370004200009981F84300FFE7FFE700990120D0
:1093800081F84400009981F84500009981F8460071
:10939000009981F84700FFE70099012081F83D001E
:1093A00000208DF80700FFE79DF8070002B080BDA0
:1093B00081B0009001B0704783B00190019890F89F
:1093C0003D00012804D0FFE701208DF80B0083E069
:1093D0000199022081F83D0001980168C86840F0B9
:1093E0000100C860019800680021C4F201018842B0
:1093F0004ED0FFE701980068B0F1804F48D0FFE7FA
:109400000198006840F20041C4F2000188423FD058
:10941000FFE70198006840F60001C4F200018842AD
:1094200036D0FFE70198006840F60041C4F2000121
:1094300088422DD0FFE70198006840F20041C4F255
:109440000101884224D0FFE70198006841F600013D
:10945000C4F2000188421BD0FFE70198006844F283
:109460000001C4F20101884212D0FFE701980068B0
:109470004EF20001C4F20001884209D0FFE70198D2
:1094800000684EF20041C4F20001884219D1FFE7A2
:109490000198006880680721C0F20101084000902F
:1094A000009806280CD0FFE70098B0F5803F07D061
:1094B000FFE701980168086840F001000860FFE7D5
:1094C00006E001980168086840F001000860FFE7C5
:1094D00000208DF80B00FFE79DF80B0003B07047EC
:1094E00081B0009001B0704780B584B003900398BC
:1094F0000068C068029003980068006901909DF8B8
:1095000004008007002824D5FFE79DF808008007A5
:1095100000281DD5FFE7039801686FF0020008617D
:10952000039901200877039800688069800720B1BB
:10953000FFE70398FFF7D4FF06E0039800F0FCF87C
:10954000039800F0FDF8FFE7039900200877FFE794
:10955000FFE79DF804004007002825D5FFE79DF8A8
:109560000800400700281ED5FFE7039801686FF048
:109570000400086103990220087703980068806955
:1095800010F4407F04D0FFE70398FFF7A9FF06E03F
:10959000039800F0D1F8039800F0D2F8FFE70399A0
:1095A00000200877FFE7FFE79DF804000007002888
:1095B00024D5FFE79DF80800000700281DD5FFE728
:1095C000039801686FF00800086103990420087788
:1095D00003980068C069800720B1FFE70398FFF790
:1095E0007FFF06E0039800F0A7F8039800F0A8F8C2
:1095F000FFE7039900200877FFE7FFE79DF80400E5
:10960000C006002825D5FFE79DF80800C006002801
:109610001ED5FFE7039801686FF0100008610399F9
:109620000820087703980068C06910F4407F04D0D0
:10963000FFE70398FFF754FF06E0039800F07CF87B
:10964000039800F07DF8FFE7039900200877FFE713
:10965000FFE79DF80400C00778B1FFE79DF8080018
:10966000C00748B1FFE7039801686FF00100086187
:10967000039800F069F8FFE7FFE7019800F0800029
:10968000802806D0FFE79DF805008006002810D549
:10969000FFE79DF808000006002809D5FFE70398BA
:1096A00001686FF4025008610398FFF725FEFFE799
:1096B000FFE79DF80500C00780B1FFE79DF80800AF
:1096C0000006002809D5FFE7039801686FF4807051
:1096D00008610398FFF70CFEFFE7FFE79DF8040021
:1096E0004006002810D5FFE79DF808004006002836
:1096F00009D5FFE7039801686FF0400008610398FF
:1097000000F032F8FFE7FFE79DF80400800600282C
:1097100010D5FFE79DF808008006002809D5FFE76F
:10972000039801686FF0200008610398FFF7E8FDD7
:10973000FFE7FFE704B080BD81B0009001B0704743
:1097400081B0009001B0704780B582B0019001985F
:109750000068B0F1804F03D1FFE7FDF739F8FFE76C
:1097600002B080BD0000000081B0009001B07047E1
:1097700083B00190FFE7019890F88400012804D19C
:10978000FFE702208DF80B002CE00199012081F801
:109790008400FFE7FFE701992420C1F888000198C1
:1097A00000680068009001980168086820F00100D6
:1097B0000860009820F00050009001990020486651
:1097C000009801990968086001992020C1F8880073
:1097D000FFE70199002081F88400FFE700208DF861
:1097E0000B00FFE79DF80B0003B07047000000007E
:1097F00080B582B00190ADF802100198D0F88000D9
:10980000006800680003002800F19281FFE70198DA
:10981000D0F8800000681021C4F20201884200F0F4
:10982000A280FFE70198D0F8800000682821C4F2E8
:109830000201884200F09780FFE70198D0F880008D
:1098400000684021C4F20201884200F08C80FFE7EA
:109850000198D0F8800000685821C4F202018842C3
:1098600000F08180FFE70198D0F880000068702147
:10987000C4F20201884276D0FFE70198D0F8800058
:1098800000688821C4F2020188426CD0FFE7019889
:10989000D0F880000068A021C4F20201884262D0A2
:1098A000FFE70198D0F880000068B821C4F20201F7
:1098B000884258D0FFE70198D0F88000006840F255
:1098C0001041C4F2020188424DD0FFE70198D0F860
:1098D0008000006840F22841C4F20201884242D070
:1098E000FFE70198D0F88000006840F24041C4F2E0
:1098F0000201884237D0FFE70198D0F88000006865
:1099000040F25841C4F2020188422CD0FFE701988E
:10991000D0F88000006840F27041C4F20201884231
:1099200021D0FFE70198D0F88000006840F288411C
:10993000C4F20201884216D0FFE70198D0F88000F7
:10994000006840F2A041C4F2020188420BD0FFE758
:109950000198D0F88000006840F2B841C4F20201DA
:10996000884209D1FFE70198D0F8800001680868B3
:1099700020F00100086008E00198D0F8800001683C
:10998000086820F001000860FFE70198D0F8800027
:109990000168086840F4002008600198D0F8800051
:1099A00000681021C4F20201884200F0A280FFE7A3
:1099B0000198D0F8800000682821C4F20201884292
:1099C00000F09780FFE70198D0F880000068402100
:1099D000C4F20201884200F08C80FFE70198D0F8C1
:1099E000800000685821C4F20201884200F08180A2
:1099F000FFE70198D0F8800000687021C4F20201EE
:109A0000884276D0FFE70198D0F88000006888216E
:109A1000C4F2020188426CD0FFE70198D0F88000C0
:109A20000068A021C4F20201884262D0FFE70198D9
:109A3000D0F880000068B821C4F20201884258D0F2
:109A4000FFE70198D0F88000006840F21041C4F2AE
:109A5000020188424DD0FFE70198D0F880000068ED
:109A600040F22841C4F20201884242D0FFE7019847
:109A7000D0F88000006840F24041C4F20201884200
:109A800037D0FFE70198D0F88000006840F25841D5
:109A9000C4F2020188422CD0FFE70198D0F8800080
:109AA000006840F27041C4F20201884221D0FFE711
:109AB0000198D0F88000006840F28841C4F20201A9
:109AC000884216D0FFE70198D0F88000006840F285
:109AD000A041C4F2020188420BD0FFE70198D0F800
:109AE0008000006840F2B841C4F20201884207D108
:109AF000FFE70198D0F8800001682420486006E064
:109B00000198D0F88000016824204860FFE7BDF884
:109B1000020012280BD1FFE740F23C30C2F20040B5
:109B200040F28011C2F2004101F04EFBFFE791E1EB
:109B30000198D0F8800000681021C4F20201884228
:109B400000F0A280FFE70198D0F88000006828218B
:109B5000C4F20201884200F09780FFE70198D0F834
:109B6000800000684021C4F20201884200F08C802D
:109B7000FFE70198D0F8800000685821C4F2020184
:109B8000884200F08180FFE70198D0F880000068EB
:109B90007021C4F20201884276D0FFE70198D0F824
:109BA000800000688821C4F2020188426CD0FFE77F
:109BB0000198D0F880000068A021C4F20201884218
:109BC00062D0FFE70198D0F880000068B821C4F2A5
:109BD0000201884258D0FFE70198D0F88000006861
:109BE00040F21041C4F2020188424DD0FFE70198D3
:109BF000D0F88000006840F22841C4F20201884297
:109C000042D0FFE70198D0F88000006840F2404160
:109C1000C4F20201884237D0FFE70198D0F88000F3
:109C2000006840F25841C4F2020188422CD0FFE79C
:109C30000198D0F88000006840F27041C4F202013F
:109C4000884221D0FFE70198D0F88000006840F2F8
:109C50008841C4F20201884216D0FFE70198D0F88B
:109C60008000006840F2A041C4F2020188420BD09B
:109C7000FFE70198D0F88000006840F2B841C4F2D4
:109C80000201884209D1FFE70198D0F880000168FD
:109C9000086820F00100086008E00198D0F8800012
:109CA0000168086820F001000860FFE70198D0F81B
:109CB00080000168086820F4002008600198D0F84E
:109CC000800000681021C4F20201884200F0A280E6
:109CD000FFE70198D0F8800000682821C4F2020153
:109CE000884200F09780FFE70198D0F88000006874
:109CF0004021C4F20201884200F08C80FFE7019805
:109D0000D0F8800000685821C4F20201884200F0B7
:109D10008180FFE70198D0F8800000687021C4F2CC
:109D20000201884276D0FFE70198D0F880000068F1
:109D30008821C4F2020188426CD0FFE70198D0F874
:109D400080000068A021C4F20201884262D0FFE7CF
:109D50000198D0F880000068B821C4F2020188425E
:109D600058D0FFE70198D0F88000006840F2104119
:109D7000C4F2020188424DD0FFE70198D0F880007C
:109D8000006840F22841C4F20201884242D0FFE755
:109D90000198D0F88000006840F24041C4F202010E
:109DA000884237D0FFE70198D0F88000006840F281
:109DB0005841C4F2020188422CD0FFE70198D0F844
:109DC0008000006840F27041C4F20201884221D054
:109DD000FFE70198D0F88000006840F28841C4F2A3
:109DE0000201884216D0FFE70198D0F88000006891
:109DF00040F2A041C4F2020188420BD0FFE7019873
:109E0000D0F88000006840F2B841C4F202018842F4
:109E100007D1FFE70198D0F880000168242048604E
:109E200006E00198D0F88000016824204860FFE730
:109E3000BDF8020012280CD1FFE740F23C30C2F21C
:109E40000040123040F28011C2F2004101F0BCF932
:109E5000FFE7FFE701990120C86601990020086724
:109E600001980168086840F01000086001980168D6
:109E7000886840F0400088600198D0F88000006851
:109E80001021C4F20201884200F0A280FFE701988D
:109E9000D0F8800000682821C4F20201884200F056
:109EA0009780FFE70198D0F8800000684021C4F255
:109EB0000201884200F08C80FFE70198D0F8800012
:109EC00000685821C4F20201884200F08180FFE757
:109ED0000198D0F8800000687021C4F20201884225
:109EE00076D0FFE70198D0F8800000688821C4F29E
:109EF000020188426CD0FFE70198D0F8800000682A
:109F0000A021C4F20201884262D0FFE70198D0F894
:109F100080000068B821C4F20201884258D0FFE7EF
:109F20000198D0F88000006840F21041C4F20201AC
:109F300088424DD0FFE70198D0F88000006840F2D9
:109F40002841C4F20201884242D0FFE70198D0F8CC
:109F50008000006840F24041C4F20201884237D0DC
:109F6000FFE70198D0F88000006840F25841C4F241
:109F7000020188422CD0FFE70198D0F880000068E9
:109F800040F27041C4F20201884221D0FFE70198FB
:109F9000D0F88000006840F28841C4F20201884293
:109FA00016D0FFE70198D0F88000006840F2A04189
:109FB000C4F2020188420BD0FFE70198D0F880007C
:109FC000006840F2B841C4F20201884209D1FFE7BB
:109FD0000198D0F880000168086840F0010008602E
:109FE00008E00198D0F880000168086840F001009E
:109FF0000860FFE702B080BD81B0009001B07047FB
:10A0000080B584B002900191FFE7029890F8840037
:10A01000012804D1FFE702208DF80F0032E00299F9
:10A02000012081F88400FFE7FFE702992420C1F8AE
:10A03000880002980068006800900298016808682B
:10A0400020F00100086002980068806820F06060DD
:10A0500001990843029909688860029801F084FB1D
:10A06000009802990968086002992020C1F88800C8
:10A07000FFE70299002081F88400FFE700208DF8B7
:10A080000F00FFE79DF80F0004B080BD0000000046
:10A0900080B584B002900191FFE7029890F88400A7
:10A0A000012804D1FFE702208DF80F0032E0029969
:10A0B000012081F88400FFE7FFE702992420C1F81E
:10A0C000880002980068006800900298016808689B
:10A0D00020F00100086002980068806820F060406D
:10A0E00001990843029909688860029801F03CFBD5
:10A0F000009802990968086002992020C1F8880038
:10A10000FFE70299002081F88400FFE700208DF826
:10A110000F00FFE79DF80F0004B080BD00000000B5
:10A1200081B0009001B0704781B0009001B07047DD
:10A1300081B0009001B0704780B592B01190119835
:10A140000068C06910901198006800680F9011981D
:10A15000006880680E90109840F60F0108400D903E
:10A160000D98E0B9FFE79DF840008006002815D55E
:10A17000FFE79DF83C008006002806D4FFE79DF825
:10A180003B00C006002809D5FFE71198406F20B1B9
:10A19000FFE71198416F8847FFE72FE3FFE70D982E
:10A1A000002800F00C81FFE70E980121C1F20001A8
:10A1B000084209D1FFE70F9840F22011C0F2004198
:10A1C000084200F0FC80FFE79DF84000C00788B11E
:10A1D000FFE79DF83D00C00760B1FFE711980168F7
:10A1E000012008621199D1F8900040F00100C1F8F7
:10A1F0009000FFE79DF840008007002811D5FFE799
:10A200009DF83800C00760B1FFE71198016802208F
:10A2100008621199D1F8900040F00400C1F8900054
:10A22000FFE79DF840004007002811D5FFE79DF8A3
:10A230003800C00760B1FFE7119801680420086288
:10A240001199D1F8900040F00200C1F89000FFE7AA
:10A250009DF840000007002819D5FFE79DF83C0055
:10A260008006002807D4FFE70E980121C1F2000103
:10A2700008420CD0FFE71198016808200862119984
:10A28000D1F8900040F00800C1F89000FFE79DF879
:10A2900041000007002813D5FFE79DF83F00400765
:10A2A00000280DD5FFE7119801684FF4006008629F
:10A2B0001199D1F8900040F02000C1F89000FFE71C
:10A2C0001198D0F89000002878D0FFE79DF8400062
:10A2D0008006002815D5FFE79DF83C008006002881
:10A2E00006D4FFE79DF83B00C006002809D5FFE72C
:10A2F0001198406F20B1FFE71198416F8847FFE741
:10A30000FFE71198D0F890000C90119800688068D1
:10A3100000F04000402806D0FFE79DF8300010F024
:10A32000280F42D0FFE7119801F0BEFB119800689A
:10A3300080684006002833D5FFE7FFE7FFE7119864
:10A34000006850E8020F20F040000B90FFE70B99E7
:10A350001198026842E802100028F0D1FFE7FFE7F9
:10A360001198D0F88000B0B1FFE71198D0F88010B4
:10A370004BF68120C0F6000008651198D0F88000E7
:10A38000F8F7BEFD30B1FFE71198D0F88000016DFD
:10A390008847FFE703E01198FFF7CAFEFFE703E0F5
:10A3A0001198FFF7C5FEFFE707E01198FFF7C0FE21
:10A3B00011990020C1F89000FFE7FFE71EE2119815
:10A3C000C06E012840F0BB81FFE79DF84000C00649
:10A3D000002840F1B481FFE79DF83C00C00600284A
:10A3E00040F1AD81FFE711980168102008621198D3
:10A3F000006880684006002840F13F81FFE711981F
:10A40000D0F8800000681021C4F20201884200F0F8
:10A41000A280FFE71198D0F8800000682821C4F2DC
:10A420000201884200F09780FFE71198D0F8800081
:10A4300000684021C4F20201884200F08C80FFE7EE
:10A440001198D0F8800000685821C4F202018842B7
:10A4500000F08180FFE71198D0F88000006870213B
:10A46000C4F20201884276D0FFE71198D0F880004C
:10A4700000688821C4F2020188426CD0FFE711987D
:10A48000D0F880000068A021C4F20201884262D0A6
:10A49000FFE71198D0F880000068B821C4F20201EB
:10A4A000884258D0FFE71198D0F88000006840F249
:10A4B0001041C4F2020188424DD0FFE71198D0F854
:10A4C0008000006840F22841C4F20201884242D074
:10A4D000FFE71198D0F88000006840F24041C4F2D4
:10A4E0000201884237D0FFE71198D0F88000006859
:10A4F00040F25841C4F2020188422CD0FFE7119883
:10A50000D0F88000006840F27041C4F20201884235
:10A5100021D0FFE71198D0F88000006840F2884110
:10A52000C4F20201884216D0FFE71198D0F88000EB
:10A53000006840F2A041C4F2020188420BD0FFE75C
:10A540001198D0F88000006840F2B841C4F20201CE
:10A55000884207D1FFE71198D0F880000068406872
:10A56000019006E01198D0F88000006840680190E2
:10A57000FFE70198ADF82A00BDF82A0000287BD03B
:10A58000FFE7BDF82A001199B1F85C10884273DA30
:10A59000FFE7BDF82A001199A1F85E001198D0F8E4
:10A5A0008000C069B0F5807F59D0FFE7FFE7FFE783
:10A5B0001198006850E8000F20F480700990FFE7C0
:10A5C00009991198026842E800100028F0D1FFE7CD
:10A5D000FFE7FFE7FFE71198006850E8020F20F05F
:10A5E00001000890FFE708991198026842E80210FC
:10A5F0000028F0D1FFE7FFE7FFE7FFE711980068C9
:10A6000050E8020F20F040000790FFE707991198EB
:10A61000026842E802100028F0D1FFE7FFE7119935
:10A620002020C1F88C0011990020C866FFE7FFE7E1
:10A630001198006850E8000F20F010000690FFE726
:10A6400006991198026842E800100028F0D1FFE74F
:10A65000FFE71198D0F88000F7F796FFFFE7119910
:10A66000022008671198B0F85C10B0F85E20891AD3
:10A6700089B2FFF7BDF8FFE7C0E01199B1F85C00BF
:10A68000B1F85E10401AADF816001198B0F85E00EF
:10A69000002853D0FFE7BDF8160000284ED0FFE792
:10A6A000FFE7FFE71198006850E8000F20F4907072
:10A6B0000490FFE704991198026842E8001000280E
:10A6C000F0D1FFE7FFE7FFE7FFE71198006850E8E8
:10A6D000020F4FF6FE71CEF6FF7108400390FFE7C0
:10A6E00003991198026842E802100028EDD1FFE7B3
:10A6F000FFE711992020C1F88C0011990020C8664D
:10A7000011994867FFE7FFE71198006850E8000FCC
:10A7100020F010000290FFE702991198026842E8C9
:10A7200000100028F0D1FFE7FFE711990220086729
:10A730001198BDF81610FFF75BF8FFE75EE09DF893
:10A740004200C00600280FD5FFE79DF83A004006FA
:10A75000002809D5FFE7119801684FF480100862BE
:10A760001198FFF7E1FC49E09DF840000006002841
:10A7700015D5FFE79DF83C000006002806D4FFE74A
:10A780009DF83A000006002809D5FFE71198806F70
:10A7900020B1FFE71198816F8847FFE72EE09DF811
:10A7A0004000400600280AD5FFE79DF83C0040061F
:10A7B000002804D5FFE7119801F0C6F91EE09DF8C6
:10A7C0004200000600280AD5FFE79DF83F0040063A
:10A7D000002804D5FFE71198FFF7A2FC0EE09DF8D2
:10A7E0004300C00750B1FFE79DF83F000006002876
:10A7F00004D5FFE71198FFF7FFFBFFE712B080BD1C
:10A8000080B582B00090009820B9FFE701208DF854
:10A81000070046E00098806908B1FFE700E0FFE725
:10A820000098D0F8880040B9FFE70099002081F82F
:10A830008400009800F03CF8FFE700992420C1F85C
:10A84000880000980168086820F0010008600098FE
:10A85000806A20B1FFE7009800F0CAFFFFE7009888
:10A8600001F096F9012804D1FFE701208DF80700D7
:10A8700017E000980168486820F49040486000980C
:10A880000168886820F02A008860009801680868DC
:10A8900040F001000860009801F04EF88DF80700C4
:10A8A000FFE79DF8070002B080BD00000000000037
:10A8B00080B5BCB03B9000203A90399038903790EA
:10A8C000369008A8B821F5F72BFE3B98006845F2B2
:10A8D0000001C4F20001884240F09580FFE70020AB
:10A8E000099002210891259008A8FCF78DFB18B16A
:10A8F000FFE7F7F719F9FFE7FFE744F2E840C5F68D
:10A900000200016841F480110160006800F48010C9
:10A9100007900798FFE7FFE744F2E040C5F6020022
:10A92000016841F002010160006800F00200069039
:10A930000698FFE7FFE744F2E040C5F60200016831
:10A9400041F008010160006800F0080005900598DA
:10A95000FFE74FF40050369002200190379000201E
:10A960000390389039900E203A9040F20040C5F69E
:10A97000020036A90291FBF737FD019A029903986C
:10A980000423369337923890399008203A9040F655
:10A990000040C5F60200FBF727FD039940F2643042
:10A9A000C2F2004004901022C4F20202026041226E
:10A9B00042608160C1604FF48062026141618161E7
:10A9C0004FF48072C2614FF4403202624162F9F783
:10A9D000CFFE18B1FFE7F7F7A7F8FFE7FFE73B98CF
:10A9E00040F26431C2F20041C0F880103B988863A5
:10A9F000FFE73520009005210022FBF7CDFF0098EE
:10AA0000FBF7BEFFFFE73CB080BD00000000000088
:10AA100081B0009001B07047FFE7FEE70000000042
:10AA200080B582B0FFE744F2D840C5F60200016865
:10AA300041F001010160006800F0010001900198FF
:10AA4000FFE70B20009005210022FBF7A5FF0098EF
:10AA5000FBF796FF02B080BD80B582B040F2DC30DB
:10AA6000C2F2004000904AF20001C4F2000101600D
:10AA7000002201928260C2600274427482744FF0BC
:10AA8000030CC0F814C00A2383611D21C161036255
:10AA9000C0F824C08362C162036342630121816301
:10AAA000C2630421016443648264C1640265416538
:10AAB0008265C2650223036642668166FBF738F948
:10AAC00018B1FFE7F7F730F8FFE702B080BD0000EC
:10AAD00080B582B040F27C40C2F2004000904AF261
:10AAE0000041C4F200010160002201928260C26054
:10AAF0000274427482744FF0030CC0F814C00A212F
:10AB000081611D23C3610162C0F824C08162C362F8
:10AB100001634FF4A061416301218163C263026458
:10AB20000421416481640823C36402654165826530
:10AB3000C2650223036642668166FBF7F9F818B125
:10AB4000FFE7F6F7F1FFFFE702B080BD000000006D
:10AB5000B0B590B04EF2FC60C0F6000001684268EB
:10AB60008368D0F80CC0D0F810E044690E94CDF89A
:10AB700034E0CDF830C00B930A92099180690F90B0
:10AB800009A80021019101F083FF019940F23432BC
:10AB9000C2F2004210604EF21870C0F60000026867
:10ABA0004368D0F808C0D0F80CE0046945690795FF
:10ABB0000694CDF814E0CDF810C00393029280699A
:10ABC000089002A801F064FF40F23831C2F200415F
:10ABD000086010B0B0BD000080B58CB000200B90B4
:10ABE0000A90099008900790FFE744F2E040C5F60C
:10ABF0000200016841F004010160006800F00400F7
:10AC000006900698FFE7FFE744F2E040C5F6020031
:10AC1000016841F080010160006800F0800005904B
:10AC20000598FFE7FFE744F2E040C5F6020001683F
:10AC300041F002010160006800F0020004900498F5
:10AC4000FFE7FFE744F2E040C5F60200016841F08B
:10AC500008010160006800F0080003900398FFE716
:10AC600040F60000C5F6020002904FF4C04100918A
:10AC700000220192FBF78CFD009A0199029807923D
:10AC80000122089209910A9107A9FBF7ADFB0CB0CC
:10AC900080BD00000000000080B582B040F2685026
:10ACA000C2F20040019045F20001C4F200010160CF
:10ACB00048F2A061C0F2010141604FF4805181600F
:10ACC0004FF40051C1604FF4806101610C2141617A
:10ACD00000218161C161016241628162FFF790FDE3
:10ACE00018B1FFE7F6F720FFFFE740F26850C2F225
:10ACF00000400021FFF7CCF918B1FFE7F6F714FF89
:10AD0000FFE740F26850C2F200400021FFF778F9F7
:10AD100018B1FFE7F6F708FFFFE740F26850C2F20C
:10AD20000040FEF725FD18B1FFE7F6F7FDFEFFE74F
:10AD300002B080BD00000000FFE7FEE70000000059
:10AD4000FFE7FEE70000000088B00790069105923B
:10AD5000079800F0070004900498C0F10700052848
:10AD600003D3FFE70420019004E00498C0F107003A
:10AD70000190FFE70198039004980430062803D857
:10AD8000FFE70020009003E0049803380090FFE7FD
:10AD90000098029006980399012202FA01F1013904
:10ADA0000840029B984005999A40013A1140084397
:10ADB00008B0704700000000000000000000000024
:10ADC000EFF30980BFF36F8F154B1A681EF0100F59
:10ADD00008BF20ED108A20E9F04F10602DE909002E
:10ADE0004FF0500080F31188BFF34F8FBFF36F8F88
:10ADF00002F022FE4FF0000080F31188BDE8090048
:10AE000019680868B0E8F04F1EF0100F08BFB0ECEA
:10AE1000108A80F30988BFF36F8F704700BF00BFAF
:10AE2000FC0500240000000080B586B0049003916A
:10AE300000208DF8070044F22840C5F602000068A3
:10AE400000F00300032804D1FFE701208DF817006C
:10AE5000CBE044F20041C5F60201086820F08060B2
:10AE60000860FBF7ADFC0290FFE744F20040C5F636
:10AE70000200006800F000610020B0EBD16F0CD040
:10AE8000FFE7FBF79DFC0299401A032804D3FFE774
:10AE900003208DF81700A8E0E7E7FFE744F2284118
:10AEA000C5F60201086820F47C30049A126840EA72
:10AEB0000230086004994868D1F808C0CB680A6974
:10AEC00001386FF35F204FF60061CFF6FF7101EBA1
:10AED0004C2189B208440021CFF6FF7101EB0341F8
:10AEE00001F4FE0108444FF07F4101EB026101F0E3
:10AEF000FE41084444F23841C5F602010860FFE70C
:10AF000044F22C41C5F602010091086820F0C0000F
:10AF1000049A526910430860086820F02000049ADF
:10AF2000926910430860086820F01000086044F23D
:10AF30003C42C5F6020210684FF6F8739843049B32
:10AF4000DB6940EAC3001060086840F01000086048
:10AF5000039848B9FFE744F22C41C5F6020108689E
:10AF600040F40020086016E00398012809D1FFE7AB
:10AF700044F22C41C5F60201086840F480100860D4
:10AF800008E044F22C41C5F60201086840F40010C4
:10AF90000860FFE7FFE744F20041C5F602010868D8
:10AFA00040F080600860FBF70BFC0290FFE744F282
:10AFB0000040C5F60200006800F000610020B0EB20
:10AFC000D16F0CD1FFE7FBF7FBFB0299401A032876
:10AFD00004D3FFE703208DF8170006E0E7E7FFE75B
:10AFE0009DF807008DF81700FFE79DF8170006B0E1
:10AFF00080BD00000000000080B586B00490039181
:10B0000000208DF8070044F22840C5F602000068D1
:10B0100000F00300032804D1FFE701208DF817009A
:10B02000CBE044F20041C5F60201086820F08050F0
:10B030000860FBF7C5FB0290FFE744F20040C5F64D
:10B040000200006800F000510020B0EB517F0CD0EE
:10B05000FFE7FBF7B5FB0299401A032804D3FFE78B
:10B0600003208DF81700A8E0E7E7FFE744F2284146
:10B07000C5F60201086820F07C70049A126840EA64
:10B080000250086004994868D1F808C0CB680A6982
:10B0900001386FF35F204FF60061CFF6FF7101EBCF
:10B0A0004C2189B208440021CFF6FF7101EB034126
:10B0B00001F4FE0108444FF07F4101EB026101F011
:10B0C000FE41084444F24041C5F602010860FFE732
:10B0D00044F22C41C5F602010091086820F440605A
:10B0E000049A526910430860086820F40070049ABA
:10B0F000926910430860086820F48070086044F288
:10B100004442C5F6020210684FF6F8739843049B58
:10B11000DB6940EAC3001060086840F48070086092
:10B12000039848B9FFE744F22C41C5F602010868CC
:10B1300040F48000086016E00398012809D1FFE779
:10B1400044F22C41C5F60201086840F40000086092
:10B1500008E044F22C41C5F60201086840F0807016
:10B160000860FFE7FFE744F20041C5F60201086806
:10B1700040F080500860FBF723FB0290FFE744F2A9
:10B180000040C5F60200006800F000510020B0EB5E
:10B19000517F0CD1FFE7FBF713FB0299401A0328FC
:10B1A00004D3FFE703208DF8170006E0E7E7FFE789
:10B1B0009DF807008DF81700FFE79DF8170006B00F
:10B1C00080BD00000000000082B001900091019855
:10B1D00018B1FFE7009808B9FFE78BE00198007805
:10B1E0000199497840EA01206FF3DF200099088037
:10B1F00001984078C0080199897840EA41106FF3BE
:10B20000DF20009948800198807880090199C978E9
:10B2100040EA81000199097940EA81206FF3DF203B
:10B22000009988800198007940080199497940EA9D
:10B23000C1106FF3DF200099C8800198007C01994C
:10B24000497C40EA01206FF3DF20009908810198D2
:10B250004079C0F301100099887201984079800903
:10B260000099C872019880790199C97940EA012052
:10B27000009988810198007A0199497A40EA012071
:10B280000099C8810198807A0199C97A40EA012021
:10B29000009908820198007B009988740198407B8E
:10B2A0000099C8740198807B0199C97B40EA01200C
:10B2B0000099888200990888A0F58060088000992C
:10B2C0004888A0F58060488000998888A0F5806053
:10B2D00088800099C888A0F58060C8800099088996
:10B2E000A0F5806008810099FA20C87500990020B7
:10B2F0008875FFE702B07047000000000000000002
:10B30000074B19680868B0E8F04F80F30988BFF36D
:10B310006F8F4FF0000080F31188704700BF00BFAF
:10B32000FC0500240000000080B582B04FF0500002
:10B3300080F31188BFF36F8FBFF34F8F009002F03F
:10B340005BFD40B1FFE74EF60451CEF200014FF035
:10B3500080500860FFE700200190019880F3118879
:10B3600002B080BD0000000080B59EB00BA84C214B
:10B37000F5F7D6F8002001900A9009900890079000
:10B3800006900590049003900220FBF725FBFFE751
:10B390000020029044F61800C5F60200016821F46E
:10B3A00040410160006800F4404002900298FFE7CD
:10B3B000FFE744F61800C5F60200006800F40050EC
:10B3C000B0F5005F01D0FFE7F3E701210B914FF4E7
:10B3D00080300C900220149015901690282217921D
:10B3E0001891042119911A900C201B9000201C9098
:10B3F0001D900BA8FDF76CFA18B1FFE7F6F794FB68
:10B40000FFE73F20039003210491002005900820CE
:10B4100006904020079008904FF4806209920A90AD
:10B4200003A8FCF7E9FD18B1FFE7F6F77DFBFFE79E
:10B430001EB080BD000000004EF68851CEF2000123
:10B44000086840F47000086042F20000C5F2002075
:10B45000006800F00F0006280AD8FFE742F200015A
:10B46000C5F200210868072262F303000860FFE7C5
:10B4700044F20041C5F60201086840F0010008608E
:10B4800044F21042C5F602020020106008684EF631
:10B490007F52CEF6F6221040086042F20000C5F25C
:10B4A0000020006800F00F0008280AD3FFE742F2EE
:10B4B0000001C5F200210868072262F3030008605A
:10B4C000FFE744F21841C5F602010020086044F28B
:10B4D0001C41C5F60201086044F22041C5F6020194
:10B4E000086044F22842C5F6020240F20021C0F290
:10B4F0000221116044F22C42C5F602020021C0F282
:10B50000FF11116044F23042C5F6020240F2802180
:10B51000C0F20111116044F23442C5F6020210601B
:10B5200044F23842C5F60202116044F23C42C5F6CC
:10B530000202106044F24042C5F60202116044F279
:10B540004441C5F60201086044F20042C5F6020219
:10B55000116821F48021116044F26041C5F60201B6
:10B56000086044F20001C5F2002143F2D2000860F5
:10B57000704700000000000080B540F21C50C2F28D
:10B580000040FDF7B1FF80BD83B0029001910298A9
:10B590000068009002980021C4F20101884225D081
:10B5A000FFE70298B0F1804F20D0FFE7029840F209
:10B5B0000041C4F20001884218D0FFE7029840F62B
:10B5C0000001C4F20001884210D0FFE7029840F663
:10B5D0000041C4F20001884208D0FFE7029840F21F
:10B5E0000041C4F2010188420AD1FFE7009820F02F
:10B5F0007000009001984168009808430090FFE7B0
:10B6000002980021C4F2010188424DD0FFE7029860
:10B61000B0F1804F48D0FFE7029840F20041C4F2F9
:10B620000001884240D0FFE7029840F60001C4F2D2
:10B630000001884238D0FFE7029840F60041C4F28A
:10B640000001884230D0FFE7029840F20041C4F286
:10B650000101884228D0FFE7029844F20001C4F2B9
:10B660000101884220D0FFE7029844F20041C4F271
:10B670000101884218D0FFE7029844F60001C4F2A5
:10B680000101884210D0FFE702984EF20001C4F297
:10B690000001884208D0FFE702984EF20041C4F250
:10B6A000000188420AD1FFE7009820F44070009022
:10B6B0000198C168009808430090FFE7009820F0C7
:10B6C0008000019949690843009000980299086038
:10B6D000019880680299C86201980068029988629E
:10B6E00002980021C4F20101884220D0FFE70298AD
:10B6F00040F20041C4F20101884218D0FFE70298ED
:10B7000044F20001C4F20101884210D0FFE7029820
:10B7100044F20041C4F20101884208D0FFE70298D8
:10B7200044F60001C4F20101884205D1FFE7019807
:10B73000006902990863FFE70299012048610298B5
:10B740000069C00730B1FFE70299086920F00100E5
:10B750000861FFE703B0704780B540F26850C2F25D
:10B760000040FEF7E9FC80BD82B001900198406E78
:10B7700040B9FFE701990120A1F86A000199A1F8F9
:10B78000680032E010208DF803008DF80200019867
:10B7900000688068C0F342608DF80100019800687D
:10B7A0008068400F8DF800009DF802009DF8002091
:10B7B0004EF26473C0F60003995C48434EF25C712C
:10B7C000C0F600018A5CB0FBF2F0019AA2F86A00B0
:10B7D0009DF803009DF801209B5C5843895CB0FBF9
:10B7E000F1F00199A1F86800FFE702B0704700008E
:10B7F00081B00090009890F82800000700280BD531
:10B80000FFE700980068406820F40040009A116843
:10B81000926B10434860FFE7009890F82800C0073B
:10B8200058B1FFE700980068406820F40030009AA3
:10B830001168D26A10434860FFE7009890F828002A
:10B84000800700280BD5FFE700980068406820F4C7
:10B850008030009A1168126B10434860FFE700982F
:10B8600090F82800400700280BD5FFE700980068F3
:10B87000406820F48020009A1168526B10434860A1
:10B88000FFE7009890F82800C00600280BD5FFE7D6
:10B8900000980068806820F48050009A1168D26B8C
:10B8A00010438860FFE7009890F828008006002881
:10B8B0000BD5FFE700980068806820F40050009ADC
:10B8C0001168126C10438860FFE7009890F8280018
:10B8D000400600281CD5FFE700980068406820F467
:10B8E0008010009A1168526C104348600098406CB8
:10B8F000B0F5801F0BD1FFE700980068406820F486
:10B90000C000009A1168926C10434860FFE7FFE79F
:10B91000009890F82800000600280BD5FFE7009853
:10B920000068406820F40020009A1168D26C10432F
:10B930004860FFE701B0704780B588B0069006996F
:10B940000020C1F89000FAF73BFF059006980068C8
:10B950000068000700282FD5FFE70698059B6A4678
:10B960006FF07E4111604FF40011002200F038FEAC
:10B9700008B3FFE7FFE7FFE70698006850E8000F0D
:10B9800020F080000490FFE704990698026842E8DE
:10B9900000100028F0D1FFE7FFE706992020C1F84A
:10B9A0008800FFE70699002081F88400FFE7032064
:10B9B0008DF81F005FE0FFE7069800680068400709
:10B9C000002842D5FFE70698059B6A466FF07E4146
:10B9D00011604FF48001002200F002FEA0B3FFE7E7
:10B9E000FFE7FFE70698006850E8000F20F490702A
:10B9F0000390FFE703990698026842E800100028C8
:10BA0000F0D1FFE7FFE7FFE7FFE70698006850E89F
:10BA1000020F20F001000290FFE7029906980268E9
:10BA200042E802100028F0D1FFE7FFE70699202046
:10BA3000C1F88C00FFE70699002081F88400FFE739
:10BA400003208DF81F0016E0FFE706992020C1F8BB
:10BA500088000699C1F88C0006990020C8660699EE
:10BA60000867FFE70699002081F88400FFE70020BF
:10BA70008DF81F00FFE79DF81F0008B080BD000093
:10BA800080B582B001900198806B009000990020F1
:10BA9000A1F85E000099A1F856000098FEF748FB57
:10BAA00002B080BD0000000084B00390FFE7FFE714
:10BAB0000398006850E8000F20F490700290FFE7B0
:10BAC00002990398026842E800100028F0D1FFE7CD
:10BAD000FFE7FFE7FFE70398006850E8020F4FF623
:10BAE000FE71CEF6FF7108400190FFE701990398BF
:10BAF000026842E802100028EDD1FFE7FFE7039853
:10BB0000C06E012814D1FFE7FFE7FFE70398006844
:10BB100050E8000F20F010000090FFE70099039814
:10BB2000026842E800100028F0D1FFE7FFE7FFE7D6
:10BB300003992020C1F88C0003990020C86603995E
:10BB4000486704B07047000080B582B00190FFE7FD
:10BB5000FFE70198006850E8000F20F040000090D7
:10BB6000FFE700990198026842E800100028F0D130
:10BB7000FFE7FFE701992020C1F888000199002024
:10BB800088670198FEF744FF02B080BD0000000006
:10BB900080B59EB01D9000208DF867001D9800684C
:10BBA00040F60041C5F60001884201D1FFE700E000
:10BBB000FFE71D9988680B694A69C96918431043F2
:10BBC00008431C901D980068006846F6F311CCF6F7
:10BBD000FF7108401C9908431D99096808601D9869
:10BBE0000068406820F440501D9A1168D2681043E4
:10BBF00048601D9880691C901D98006840F60041BF
:10BC0000C5F60001884206D0FFE71D98016A1C981E
:10BC100008431C90FFE71D98006880684FF2FF41C1
:10BC2000C1F2FF1108401C9908431D9909688860FA
:10BC30001D980068C06A20F00F001D9A1168526AB2
:10BC40001043C862FFE71D98006841F20001C4F28A
:10BC50000101884240F04180FFE744F25440C5F6BC
:10BC60000200006800F038000146109128282FD803
:10BC70001099DFE801F0152D2D2D2D2D2D2D192DCD
:10BC80002D2D2D2D2D2D1D2D2D2D2D2D2D2D212D00
:10BC90002D2D2D2D2D2D252D2D2D2D2D2D2D29000D
:10BCA00001208DF86D0017E004208DF86D0013E081
:10BCB00008208DF86D000FE010208DF86D000BE06E
:10BCC00020208DF86D0007E040208DF86D0003E026
:10BCD00080208DF86D00FFE76CE21D98006844F24B
:10BCE0000041C4F2000188422ED1FFE744F25440E3
:10BCF000C5F60200006800F0070001460F91052814
:10BD00001DD80F99DFE801F003070B0F1317002070
:10BD10008DF86D0017E004208DF86D0013E0082009
:10BD20008DF86D000FE010208DF86D000BE02020E5
:10BD30008DF86D0007E040208DF86D0003E0802055
:10BD40008DF86D00FFE734E21D98006844F60001AD
:10BD5000C4F2000188422ED1FFE744F25440C5F6F8
:10BD60000200006800F0070001460E9105281DD86A
:10BD70000E99DFE801F003070B0F131700208DF871
:10BD80006D0017E004208DF86D0013E008208DF899
:10BD90006D000FE010208DF86D000BE020208DF875
:10BDA0006D0007E040208DF86D0003E080208DF8E5
:10BDB0006D00FFE7FCE11D98006844F60041C4F205
:10BDC000000188422ED1FFE744F25440C5F602003C
:10BDD000006800F0070001460D9105281DD80D9957
:10BDE000DFE801F003070B0F131700208DF86D003B
:10BDF00017E004208DF86D0013E008208DF86D0029
:10BE00000FE010208DF86D000BE020208DF86D0004
:10BE100007E040208DF86D0003E080208DF86D0074
:10BE2000FFE7C4E11D98006845F20001C4F200017B
:10BE300088422ED1FFE744F25440C5F60200006864
:10BE400000F0070001460C9105281DD80C99DFE889
:10BE500001F003070B0F131700208DF86D0017E09A
:10BE600004208DF86D0013E008208DF86D000FE0C0
:10BE700010208DF86D000BE020208DF86D0007E09C
:10BE800040208DF86D0003E080208DF86D00FFE705
:10BE90008CE11D98006841F20041C4F20101884222
:10BEA00040F04180FFE744F25440C5F602000068CC
:10BEB00000F0380001460B9128282FD80B99DFE8B5
:10BEC00001F0152D2D2D2D2D2D2D192D2D2D2D2D37
:10BED0002D2D1D2D2D2D2D2D2D2D212D2D2D2D2DAE
:10BEE0002D2D252D2D2D2D2D2D2D290001208DF8C9
:10BEF0006D0017E004208DF86D0013E008208DF828
:10BF00006D000FE010208DF86D000BE020208DF803
:10BF10006D0007E040208DF86D0003E080208DF873
:10BF20006D00FFE741E11D98006847F60001C4F28B
:10BF3000000188422ED1FFE744F25440C5F60200CA
:10BF4000006800F0070001460A9105281DD80A99EB
:10BF5000DFE801F003070B0F131700208DF86D00C9
:10BF600017E004208DF86D0013E008208DF86D00B7
:10BF70000FE010208DF86D000BE020208DF86D0093
:10BF800007E040208DF86D0003E080208DF86D0003
:10BF9000FFE709E11D98006847F60041C4F200017F
:10BFA00088422ED1FFE744F25440C5F602000068F3
:10BFB00000F007000146099105281DD80999DFE81E
:10BFC00001F003070B0F131700208DF86D0017E029
:10BFD00004208DF86D0013E008208DF86D000FE04F
:10BFE00010208DF86D000BE020208DF86D0007E02B
:10BFF00040208DF86D0003E080208DF86D00FFE794
:10C00000D1E01D98006841F60001C4F201018842A8
:10C0100040F04180FFE744F25440C5F6020000685A
:10C0200000F038000146089128282FD80899DFE849
:10C0300001F0152D2D2D2D2D2D2D192D2D2D2D2DC5
:10C040002D2D1D2D2D2D2D2D2D2D212D2D2D2D2D3C
:10C050002D2D252D2D2D2D2D2D2D290001208DF857
:10C060006D0017E004208DF86D0013E008208DF8B6
:10C070006D000FE010208DF86D000BE020208DF892
:10C080006D0007E040208DF86D0003E080208DF802
:10C090006D00FFE786E01D98006841F60041C4F29C
:10C0A0000101884240F04180FFE744F25440C5F668
:10C0B0000200006800F038000146079128282FD8B8
:10C0C0000799DFE801F0152D2D2D2D2D2D2D192D82
:10C0D0002D2D2D2D2D2D1D2D2D2D2D2D2D2D212DAC
:10C0E0002D2D2D2D2D2D252D2D2D2D2D2D2D2900B9
:10C0F00001208DF86D0017E004208DF86D0013E02D
:10C1000008208DF86D000FE010208DF86D000BE019
:10C1100020208DF86D0007E040208DF86D0003E0D1
:10C1200080208DF86D00FFE73BE01D98006840F629
:10C130000041C5F6000188422ED1FFE744F2584085
:10C14000C5F60200006800F00700014606910528C8
:10C150001DD80699DFE801F003070B0F1317022023
:10C160008DF86D0017E004208DF86D0013E00820B5
:10C170008DF86D000FE010208DF86D000BE0202091
:10C180008DF86D0007E040208DF86D0003E0802001
:10C190008DF86D00FFE703E080208DF86D00FFE76C
:10C1A000FFE7FFE7FFE7FFE7FFE7FFE7FFE7FFE75F
:10C1B000FFE7FFE7FFE71D98006840F60041C5F67E
:10C1C0000001884240F0B480FFE79DF86D00014611
:10C1D0000591022814D0FFE70598042814D0FFE742
:10C1E0000598082816D0FFE70598102818D0FFE713
:10C1F0000598202835D0FFE70598402837D03AE049
:10C20000FAF73EFC11903CE015A8FAF74DFC1698A1
:10C21000119036E012A8FAF79FFD1398119030E0C4
:10C2200044F20040C5F60200006800F02001002042
:10C23000B0EB511F0ED0FFE744F20040C5F60200FC
:10C240000068C0F3C10149F20000C0F2D030C8401C
:10C25000119005E049F20000C0F2D0301190FFE7E4
:10C260000FE040F60010C0F23D00119009E04FF4DD
:10C270000040119005E00020119001208DF867002A
:10C28000FFE71198002852D0FFE711981D994A6ADC
:10C290004EF26C71C0F6000131F81210B0FBF1F0F3
:10C2A000189018981D99496801EB4101884207D3FD
:10C2B000FFE718981D994968B0EB013F04D9FFE7E3
:10C2C00001208DF8670031E011981D994A680392AA
:10C2D0004A6A4EF26C71C0F6000131F81220002358
:10C2E00004931946F4F772F8039A049B090241EA91
:10C2F0001061000210EB520041F10001F4F766F802
:10C300001A901A98B0F5407F0BD3FFE71A990020D6
:10C31000B0EB115F05D1FFE71A981D990968C86055
:10C3200003E001208DF86700FFE7FFE7FFE746E144
:10C330001D98C069B0F5004F40F0A880FFE79DF858
:10C340006D0001460291402800F263800299DFE807
:10C3500001F021256060296060602F60606060608E
:10C3600060603560606060606060606060606060F8
:10C3700060605660606060606060606060606060C7
:10C3800060606060606060606060606060606060AD
:10C3900060605C00FCF7ECF8119040E0FCF7FCF802
:10C3A00011903CE015A8FAF77FFB1698119036E043
:10C3B00012A8FAF7D1FC1398119030E044F2004033
:10C3C000C5F60200006800F020010020B0EB511F0C
:10C3D0000ED0FFE744F20040C5F602000068C0F34B
:10C3E000C10149F20000C0F2D030C840119005E010
:10C3F00049F20000C0F2D0301190FFE70FE040F6A4
:10C400000010C0F23D00119009E04FF4004011907F
:10C4100005E00020119001208DF86700FFE71198DA
:10C4200098B3FFE711981D9A5168536A4EF26C72E7
:10C43000C0F6000232F81320B0FBF2F0400000EB2F
:10C440005100B0FBF1F01A901A98102818D3FFE7AA
:10C45000BDF86A00A0B9FFE71A9820F00F00ADF808
:10C460006E001A9800F00E01BDF86E0040EA51000F
:10C47000ADF86E00BDF86E001D990968C86003E054
:10C4800001208DF86700FFE7FFE797E09DF86D005A
:10C4900001460191402800F263800199DFE801F034
:10C4A00021256060296060602F606060606060606E
:10C4B00035606060606060606060606060606060A7
:10C4C0005660606060606060606060606060606076
:10C4D000606060606060606060606060606060605C
:10C4E0005C00FCF745F8119040E0FCF755F811901E
:10C4F0003CE015A8FAF7D8FA1698119036E012A881
:10C50000FAF72AFC1398119030E044F20040C5F687
:10C510000200006800F020010020B0EB511F0ED097
:10C52000FFE744F20040C5F602000068C0F3C10115
:10C5300049F20000C0F2D030C840119005E049F245
:10C540000000C0F2D0301190FFE70FE040F600107D
:10C55000C0F23D00119009E04FF40040119005E059
:10C560000020119001208DF86700FFE7119820B39B
:10C57000FFE711981D9A5168536A4EF26C72C0F62B
:10C58000000232F81320B0FBF2F000EB5100B0FBD8
:10C59000F1F01A901A9810280AD3FFE7BDF86A0044
:10C5A00030B9FFE7BDF868001D990968C86003E06D
:10C5B00001208DF86700FFE7FFE7FFE7FFE71D9920
:10C5C0000120A1F86A001D99A1F868001D990020BA
:10C5D00048671D9988679DF867001EB080BD000000
:10C5E00080B586B0DDF820C0049003918DF80B2053
:10C5F0000193FFE704980068C06903990840401A56
:10C60000B0FA80F040099DF80B10884266D1FFE730
:10C6100008980130002860D0FFE7FAF7D1F80199B7
:10C62000401A0899884203D8FFE7089820B9FFE725
:10C6300003208DF8170055E0049800680068400753
:10C64000002849D5FFE70398802845D0FFE70398E5
:10C65000402841D0FFE704980068C06900F0080155
:10C660000120B0EBD10F16D1FFE704980168082034
:10C67000009008620498FFF717FA00980499C1F82F
:10C680009000FFE70499002081F88400FFE7012073
:10C690008DF8170026E004980068C06900F4006176
:10C6A0000120B0EBD12F16D1FFE7049801684FF4B9
:10C6B000006008620498FFF7F7F904992020C1F898
:10C6C0009000FFE70499002081F88400FFE7032031
:10C6D0008DF8170006E0FFE7FFE78BE700208DF8F5
:10C6E0001700FFE79DF8170006B080BD00000000AE
:10C6F00080B586B0DDF820C00590049103920293C6
:10C7000005990120C86605990020086708980599D1
:10C71000A1F85C0005980168886840F040008860D6
:10C7200005980168086840F0100008600499039AB1
:10C73000029B0898EC46CCF8000040F26430C2F24C
:10C740000040F5F739FC06B080BD00000000000095
:10C75000FFE7FEE70000000081B0ADF80200BDF980
:10C76000020000280ED4FFE7BDF9021001F01F02FD
:10C77000012090404A094EF20011CEF2000141F82A
:10C780002200FFE701B070474EF60C50CEF20000D9
:10C790000068C0F30220704782B0ADF80600009137
:10C7A000BDF9060000280AD4FFE700980001BDF992
:10C7B00006104EF20042CEF2000288540BE00098C0
:10C7C0000001BDF8061001F00F014EF61452CEF232
:10C7D00000028854FFE702B070470000000000002C
:10C7E00083B00290029800F0070000904EF60C51C2
:10C7F000CEF200010868019001984FF6FF02104048
:10C8000001900198009A40EA02200022C0F2FA52F8
:10C81000104301900198086003B070479FED201A03
:10C82000B5EE002A00EE012A9FED1E1ABDEEC20AE7
:10C83000B5EEC02AF1EE10FA10EE100AB8BF0138BA
:10C8400000EE100A0020B8EEC00A32EE400A9FED5A
:10C85000162A20EE010ABCEEC01A11EE101A30EEB4
:10C86000021AB0EB512F18BF002102EE101A4EF23F
:10C87000847000FE010AC0F60000B8EE422A00EB08
:10C88000810090ED011A30EE420AB7EE002A32EE36
:10C89000402A20EE010A90ED001A02EE010A7047CC
:10C8A00083F9223E00000044000000C49FED1F1ADF
:10C8B00020EE010A9FED1F2ABDEEC01AB5EEC00A98
:10C8C000F1EE10FA11EE100AB8BF013801EE100AAD
:10C8D0000020B8EEC11A30EE410A9FED151A20EE85
:10C8E000010ABCEEC01A11EE101A30EE021AB0EBBB
:10C8F000512F18BF002102EE101A4EF2847000FE74
:10C90000010AC0F60000B8EE422A00EB810090ED6B
:10C91000011A30EE420AB7EE002A32EE402A20EE2B
:10C92000010A90ED001A02EE010A704783F9223ED7
:10C9300000000044000000C486B08DED050ACDED76
:10C94000040A8DED031A02909DED030A9DED041A71
:10C9500030EE410A8DED010A049800909DED050A24
:10C960009DED001A30EE410A0299012088400138FD
:10C9700001EE100AB8EEC11A20EE010A9DED011A6F
:10C9800080EE010ABDEEC00A10EE100A06B0704734
:10C9900081B0EFF3058000900098002818BF0120B7
:10C9A00001B070470000000080B584B00020039003
:10C9B000F9F71EFFFEF7D8FCFEF70EF9FEF730F888
:10C9C000FEF76AF9FEF748F8FEF782F840F6000035
:10C9D000C5F6020001904FF4804101220292F9F75E
:10C9E000D7FE0198029A4FF40051F9F7D1FEF3F700
:10C9F0008BFEF3F709FEFEF7ABF800F02DF8FFE72A
:10CA0000FEE700000000000082B0ADF80600002044
:10CA10000090BDF90600842807D0FFE7BDF90600A5
:10CA20000099084403300090FFE7009802B0704777
:10CA300080B584B0039003980290029818B1FFE784
:10CA40000298019002E001200190FFE7019800F0B8
:10CA50004BFF002004B080BD80B500F07DFF0020BA
:10CA600080BD00000000000080B582B0FFF790FF9D
:10CA700020B1FFE701F0B0F9019003E001F0A0F967
:10CA80000190FFE7019802B080BD000000000000A7
:10CA9000B0B590B00E900D910E98406938B3FFE795
:10CAA0000E98806918B3FFE70E98016808914168F5
:10CAB0000B91016909910D990A91B0F90800FFF7EE
:10CAC000A3FF0899099A0A9B84460B98DDF838E081
:10CAD000DEF81440DEF81850EE46CEF80850CEF8D6
:10CAE0000440CEF800C001F003F90C9020E00E984D
:10CAF0000168049141680791018A05910D99069199
:10CB0000B0F90800FFF780FF0499059A069B844658
:10CB10000798EE460CACCEF80440CEF800C001F009
:10CB200097F8012803D0FFE700200F9003E0FFE70C
:10CB30000C980F90FFE70F9810B0B0BD00000000F8
:10CB400080B584B00390029144F2A050C2F200403C
:10CB50000068009040F2FC50C2F2004000680430CF
:10CB600000F0DEFC88B9FFE740F2FC50C2F2004062
:10CB70000068C16A012000FA01F244F2B421C2F255
:10CB8000004108689043086000E0FFE70398013027
:10CB900080B9FFE7029868B1FFE740F2FC50C2F2AB
:10CBA00000400068011D44F27850C2F2004000F0DD
:10CBB0004BFD3DE00098039908440190019840F234
:10CBC000FC51C2F20041096848600198009988420E
:10CBD0000ED2FFE740F20860C2F20040006840F267
:10CBE000FC51C2F200410968043100F0F5FC1EE07E
:10CBF00040F20060C2F20040006840F2FC51C2F214
:10CC000000410968043100F0E7FC019844F2445106
:10CC1000C2F200410968884207D2FFE7019844F256
:10CC20004451C2F20041086000E0FFE7FFE7FFE780
:10CC300004B080BD0000000080B582B0019000F01B
:10CC40002FFD44F2A421C2F20041086801300860BF
:10CC500040F2FC50C2F20040006898B9FFE701982A
:10CC600040F2FC51C2F20041086044F2A420C2F23A
:10CC700000400068012803D1FFE700F0CDF900E093
:10CC8000FFE71CE044F26C50C2F200400068A0B91B
:10CC9000FFE740F2FC50C2F200400068C06A019910
:10CCA000C96A884207D8FFE7019840F2FC51C2F2F6
:10CCB0000041086000E0FFE700E0FFE7FFE744F223
:10CCC000B021C2F200410868013008600198C16AD1
:10CCD000012000FA01F244F2B421C2F200410868D6
:10CCE000104308600199C86A00EB800240F20C60B2
:10CCF000C2F2004000EB8200043100F0A5FC00F01D
:10CD0000FBFC44F26C50C2F200400068C8B1FFE77F
:10CD100040F2FC50C2F200400068C06A0199C96A42
:10CD200088420CD2FFE74EF60451CEF200014FF0DC
:10CD300080500860BFF34F8FBFF36F8F00E0FFE7B5
:10CD400000E0FFE702B080BD80B582B0FFE744F2AB
:10CD5000A820C2F20040006808B3FFE700F0A0FC82
:10CD600044F28C50C2F20040C068C0680190019843
:10CD7000043000F0D5FB44F2A421C2F2004108685F
:10CD80000138086044F2A821C2F200410868013865
:10CD9000086000F0B1FC019800F006F8D7E702B097
:10CDA00080BD00000000000080B582B000900098B7
:10CDB00090F8510040B9FFE70098006B00F0C4FC08
:10CDC000009800F0C1FC1CE0009890F85100012888
:10CDD00004D1FFE7009800F0B7FC11E0009890F84C
:10CDE000510002280BD0FFE74FF0500080F311886C
:10CDF000BFF36F8FBFF34F8F0190FFE7FEE7FFE7B1
:10CE0000FFE702B080BD000084B04FF47050009086
:10CE100040F29860C2F2004001909DF80400400783
:10CE200088B1FFE7019807300190019820F00700D2
:10CE30000190019A40F29861C2F200410098891A6B
:10CE400008440090FFE701980290029944F2705064
:10CE5000C2F200400160002141600298009A104433
:10CE60000190019808380190019820F00700019086
:10CE7000019A40F20460C2F2004002600268516010
:10CE800002681160029903910199039A891A51600D
:10CE90000068039908600398406844F24051C2F268
:10CEA000004108600398406844F2E421C2F2004166
:10CEB000086044F2B821C2F200414FF0004008601F
:10CEC00004B070470000000080B582B00190FFE719
:10CED000FFF73AFF40F20C60C2F2004000680228FF
:10CEE0000CD3FFE74EF60451CEF200014FF0805014
:10CEF0000860BFF34F8FBFF36F8F00E0FFE7E7E7F6
:10CF000080B588B0DDF834C0DDF830C0DDF82CC065
:10CF1000DDF828C006900591049203930C98006BED
:10CF2000049900EB810004380290029820F0070079
:10CF300002909DF80800400758B1FFE74FF05000FD
:10CF400080F31188BFF36F8FBFF34F8F0790FFE718
:10CF5000FEE70598F8B1FFE700200190FFE7019890
:10CF60000F2813D8FFE70598019A805C0C991144AB
:10CF700081F8340005980199405C08B9FFE705E0A5
:10CF8000FFE7FFE7019801300190E8E70C990020E6
:10CF900081F8430004E00C99002081F83400FFE799
:10CFA0000A98072803D3FFE706200A9000E0FFE76E
:10CFB0000A980C99C8620A980C9948640C99002048
:10CFC000009088640C98043000F0FEFA0C98183039
:10CFD00000F0FAFA00980C9909610A99C1F1070169
:10CFE0000C9A91610C9949620C99C8640C9981F86A
:10CFF000500002980699039A00F012FA0C99086002
:10D000000B9820B1FFE70C980B99086000E0FFE750
:10D0100008B080BD0000000080B584B000200390FF
:10D02000FFE70398062810D8FFE7039800EB80017C
:10D0300040F20C60C2F2004000EB810000F0ACFA5C
:10D04000FFE7039801300390EBE744F2BC20C2F203
:10D050000040019000F0A0FA44F2D020C2F200405B
:10D06000029000F099FA44F25850C2F2004000F0E9
:10D0700093FA44F28C50C2F2004000F08DFA44F270
:10D080007850C2F2004000F087FA0199029840F20D
:10D090000062C2F20042116040F20861C2F2004137
:10D0A000086004B080BD000083B0029044F270506C
:10D0B000C2F200400190FFE701980068029988429F
:10D0C00005D2FFE7FFE7019800680190F4E70198B7
:10D0D000009000980199496808440299884209D152
:10D0E000FFE7029842680199486810444860019837
:10D0F000029000E0FFE702980090009802994968CA
:10D10000084401990968884220D1FFE70198006826
:10D1100040F20461C2F20041096888420DD0FFE785
:10D120000198006842680299486810444860019874
:10D13000006800680299086007E040F20460C2F2EB
:10D140000040006802990860FFE704E00198006869
:10D1500002990860FFE701980299884204D0FFE72E
:10D1600002980199086000E0FFE703B070470000F3
:10D1700008480068006880F308884FF0000080F3DA
:10D18000148862B661B6BFF34F8FBFF36F8F00DFB5
:10D1900000BF00BF08ED00E081B040F20060C2F2C5
:10D1A00000400068006840B9FFE744F24451C2F211
:10D1B00000414FF0FF3008600FE040F20060C2F223
:10D1C00000400068C068C06800900098406844F261
:10D1D0004451C2F200410860FFE701B0704700000F
:10D1E00083B00020009040F20820C2F200400068A6
:10D1F000013058B1FFE74FF0500080F31188BFF3C2
:10D200006F8FBFF34F8F0190FFE7FEE74FF05000A5
:10D2100080F31188BFF36F8FBFF34F8F0290FFE74A
:10D22000009808B9FFE7FBE703B070470000000073
:10D2300080B58AB006900020029000F0F5FB40F225
:10D240000460C2F20040006818B9FFE7FFF7DCFD98
:10D2500000E0FFE7069844F2B821C2F200410968F5
:10D26000084240F0C580FFE7069800B3FFE7069844
:10D27000083006909DF818004007B0B1FFE7069807
:10D2800020F00700083006909DF81800400758B1BC
:10D29000FFE74FF0500080F31188BFF36F8FBFF3AB
:10D2A0004F8F0790FFE7FEE700E0FFE700E0FFE7B2
:10D2B0000698002800F09A80FFE7069844F2E421DF
:10D2C000C2F200410968884200F29080FFE744F210
:10D2D0007050C2F20040049000680590FFE7059886
:10D2E0004168069A00209142019007D2FFE7059815
:10D2F0000068002818BF01200190FFE70198C007CF
:10D3000030B1FFE705980490059800680590E6E7BE
:10D31000059840F20461C2F200410968884263D076
:10D32000FFE70498006808300290059800680499A7
:10D330000860059840680699401A112821D3FFE734
:10D3400005980699084403909DF80C00400758B1D1
:10D35000FFE74FF0500080F31188BFF36F8FBFF3EA
:10D360004F8F0890FFE7FEE7059840680699401A3E
:10D37000039948600698059948600398FFF794FE62
:10D3800000E0FFE70598426844F2E420C2F2004062
:10D390000168891A0160006844F24051C2F20041FC
:10D3A000096888420BD2FFE744F2E420C2F2004051
:10D3B000006844F24051C2F20041086000E0FFE71B
:10D3C00044F2B820C2F20040026805994868104350
:10D3D000486005990020086044F24C51C2F20041B7
:10D3E00008680130086000E0FFE700E0FFE700E0C8
:10D3F000FFE700F0DDFD9DF80800400758B1FFE7AA
:10D400004FF0500080F31188BFF36F8FBFF34F8F41
:10D410000990FFE7FEE702980AB080BD0000000017
:10D4200083B0029001910092029804380290029910
:10D430004FF080700860029804380290019820F044
:10D4400001000299086002980438029002994DF296
:10D45000E110C0F6000008600298143802900098AD
:10D460000299086002980438029002996FF0020055
:10D470000860029820380290029803B070470000BC
:10D4800081B0ADF80200BDF9020000EE100AB8EE5E
:10D49000C00A9FED0A1A0020B4EE410AF1EE10FA1C
:10D4A000A8BF0120411E9FED061AB4EE410AF1EE1D
:10D4B00010FAD8BF084601B0704700BF00004843CB
:10D4C000000048C30000000086B005908DED040AFE
:10D4D000CDED030A02919DED030A9DED041A30EE95
:10D4E000410A8DED010A049800909DED050AB8EE01
:10D4F000C00A9DED011A20EE010A02990120884020
:10D50000013801EE100AB8EEC11A80EE010A9DED55
:10D51000001A30EE010A06B070470000000000005B
:10D5200082B001900198006900900198416880687C
:10D530008860019948688968486000984068019946
:10D54000884205D1FFE7019880680099486000E0B3
:10D55000FFE7019900200861009908680138086018
:10D560000098006802B0704783B002900191009269
:10D57000029944F2EC40C2F200400860019944F282
:10D58000E820C2F20040086000998020086003B0E3
:10D59000704700000000000081B00090009901F188
:10D5A0000800486000994FF0FF308860009901F151
:10D5B0000800C860009901F1080008610099002086
:10D5C000086001B07047000081B000900099002011
:10D5D000086101B07047000084B003900291029886
:10D5E000006800900098013020B9FFE703980069B7
:10D5F000019010E0039808300190FFE7019840681F
:10D6000000680099884205D8FFE7FFE70198406865
:10D610000190F3E7FFE7019840680299486002989B
:10D620004168886001980299886002980199486071
:10D63000039802990861039908680130086004B0F2
:10D64000704700000000000083B002900191029832
:10D65000406800900098019948600098806801999E
:10D6600088600198009989684860019800998860ED
:10D67000029801990861029908680130086003B0B6
:10D680007047000000000000DFF80C00016841F462
:10D6900070010160704700BF88ED00E000000000ED
:10D6A00082B04FF0500080F31188BFF36F8FBFF34B
:10D6B0004F8F009040F20820C2F200400168013113
:10D6C00001600068012814D1FFE74EF60450CEF245
:10D6D00000000068000658B1FFE74FF0500080F3EB
:10D6E0001188BFF36F8FBFF34F8F0190FFE7FEE705
:10D6F000FFE702B07047000082B040F20820C2F29B
:10D700000040006858B9FFE74FF0500080F31188DF
:10D71000BFF36F8FBFF34F8F0090FFE7FEE740F23C
:10D720000820C2F20040016801390160006830B988
:10D73000FFE700200190019880F31188FFE702B015
:10D74000704700000000000080B586B00390039889
:10D750000290039800285CD0FFE7029808380290F6
:10D76000029801900198406844F2B821C2F2004149
:10D77000096808420BD1FFE74FF0500080F3118891
:10D78000BFF36F8FBFF34F8F0490FFE7FEE7019861
:10D79000006858B1FFE74FF0500080F31188BFF3E5
:10D7A0006F8FBFF34F8F0590FFE7FEE7019840684A
:10D7B00044F2B821C2F200410968084227D0FFE7CD
:10D7C0000198006808BBFFE744F2B820C2F20040AD
:10D7D0000268019948689043486000F025F9019873
:10D7E000426844F2E421C2F2004108681044086033
:10D7F0000198FFF759FC44F25051C2F20041086809
:10D800000130086000F0D4FB00E0FFE700E0FFE734
:10D81000FFE706B080BD00004EF21001CEF200011D
:10D82000002008604EF21802CEF20002106040F2B2
:10D83000C810C2F20040006844F6D352C1F262023E
:10D84000A0FB02024FF0FF3000EB92104EF21402E8
:10D85000CEF2000210600720086070470000000050
:10D8600084B0EFF305800190019810281ED3FFE7E4
:10D8700001984EF2F031CEF20001405C8DF80300C9
:10D880009DF8030044F29821C2F2004109788842D1
:10D890000BDAFFE74FF0500080F31188BFF36F8F72
:10D8A000BFF34F8F0290FFE7FEE7FFE74EF60C5005
:10D8B000CEF20000006800F4E06044F29C21C2F265
:10D8C0000041096888420BD9FFE74FF0500080F310
:10D8D0001188BFF36F8FBFF34F8F0390FFE7FEE711
:10D8E00004B070470000000080B584B002900020B2
:10D8F00001900298E0B1FFE744F2AC20C2F2004090
:10D90000006858B1FFE74FF0500080F31188BFF373
:10D910006F8FBFF34F8F0390FFE7FEE700F084F8AF
:10D9200002980021FFF70CF900F042FB019000E0A3
:10D93000FFE7019860B9FFE74EF60451CEF200010F
:10D940004FF080500860BFF34F8FBFF36F8F00E040
:10D95000FFE704B080BD000080B58AB000200390CE
:10D960000690059006A805A904AAFFF7FDFD039BF4
:10D97000049A0599DDF818C06846C0F808C04160EF
:10D9800003604CF6C960C0F600004EF6A071C0F608
:10D99000000100F0ADF9014644F2E840C2F2004057
:10D9A0000160006818B1FFE70120079002E0002045
:10D9B0000790FFE70798012823D1FFE74FF05000B9
:10D9C00080F31188BFF36F8FBFF34F8F089044F23D
:10D9D0004451C2F200414FF0FF30086044F26C51F4
:10D9E000C2F200410120086044F2A051C2F200419D
:10D9F0000020086000F080F808B1FFE700E0FFE7D2
:10DA00000FE00798013058B9FFE74FF0500080F35E
:10DA10001188BFF36F8FBFF34F8F0990FFE7FEE7C9
:10DA2000FFE70AB080BD000044F2AC21C2F2004121
:10DA3000086801300860704785B044F2AC20C2F23B
:10DA40000040006838B1FFE744F2A451C2F200413F
:10DA5000012008604DE044F2A451C2F200410020D0
:10DA6000086044F2B420C2F20040006803900398BA
:10DA7000B0FA80F08DF80B009DF80B00C0F11F008C
:10DA80000190019800EB800140F20C60C2F200406E
:10DA900050F8210058B9FFE74FF0500080F311888B
:10DAA000BFF36F8FBFF34F8F0490FFE7FEE701983E
:10DAB00000EB800140F20C60C2F2004000EB8100FC
:10DAC00000900099486840684860009948680831AB
:10DAD000884205D1FFE70099486840684860FFE741
:10DAE00000984068C06840F2FC51C2F200410860F2
:10DAF000FFE705B07047000080B588B04EF60050D3
:10DB0000CEF2000000684CF27121C4F20F1188427D
:10DB10000BD1FFE74FF0500080F31188BFF36F8FF8
:10DB2000BFF34F8F0590FFE7FEE74EF60050CEF2B1
:10DB3000000000684CF27021C4F20F1188420BD132
:10DB4000FFE74FF0500080F31188BFF36F8FBFF3F2
:10DB50004F8F0690FFE7FEE74EF20040CEF2000046
:10DB6000039001780491FF21017000788DF80B007B
:10DB70009DF80B0000F0500044F29821C2F20041E1
:10DB8000087044F29C21C2F2004107200860FFE7C0
:10DB90009DF80B00000600280DD5FFE744F29C21FC
:10DBA000C2F200410868013808609DF80B0040008F
:10DBB0008DF80B00ECE744F29C20C2F200400068B4
:10DBC00003280BD0FFE74FF0500080F31188BFF31C
:10DBD0006F8FBFF34F8F0790FFE7FEE744F29C2162
:10DBE000C2F20041086800020860086800F4E060C2
:10DBF000086004984EF20041CEF2000108704EF623
:10DC00002051CEF20001086840F4700008600868F6
:10DC100040F070400860FFF7FFFD40F20821C2F2BB
:10DC20000041002001900860FFF72EFD4EF6347190
:10DC3000CEF20001086840F040400860FFF798FA13
:10DC4000FFF7FAFEFFF7CCFA019808B080BD00009C
:10DC500070B58CB0DDF844C0DDF840C00B900A917F
:10DC6000ADF826200893BDF826008000FFF7E0FA03
:10DC70000590059880B1FFE75420FFF7D9FA079087
:10DC8000079820B1FFE705980799086303E0059816
:10DC9000FFF75AFDFFE702E000200790FFE7079833
:10DCA000F0B1FFE70798002680F851600B980A99B9
:10DCB000BDF82620089BDDF840C0119C079DEE466C
:10DCC000CEF80C60CEF80850CEF80440CEF800C074
:10DCD000FFF716F90798FEF7AFFF0120069003E063
:10DCE0004FF0FF300690FFE706980CB070BD0000C3
:10DCF000B0B58EB0DDF850C0DDF84CC0DDF848C0DE
:10DD00000A90099108920793139858B9FFE74FF0CA
:10DD1000500080F31188BFF36F8FBFF34F8F0B90CC
:10DD2000FFE7FEE7149858B9FFE74FF0500080F383
:10DD30001188BFF36F8FBFF34F8F0C90FFE7FEE7A3
:10DD400054200490049854280BD0FFE74FF0500063
:10DD500080F31188BFF36F8FBFF34F8F0D90FFE7F4
:10DD6000FEE70498149820B3FFE7139808B3FFE781
:10DD7000149806901398069908630699022081F872
:10DD800051000A980999089A079BDDF848C0069C3B
:10DD9000EE460025CEF80C50CEF8084005ACCEF883
:10DDA0000440CEF800C0FFF7ABF80698FEF744FF3A
:10DDB00002E000200590FFE705980EB0B0BD00001E
:10DDC00081B044F2A050C2F2004000680090009878
:10DDD00001B070470000000080B582B0FFF740FD41
:10DDE0000020009044F2A050C2F200400068019070
:10DDF000019802B080BD000080B586B0002002907E
:10DE000044F2AC20C2F200400068002840F0C58017
:10DE1000FFE744F2A051C2F20041086801300190CE
:10DE200001980860019858BBFFE740F20060C2F219
:10DE300000400068006858B1FFE74FF0500080F3E1
:10DE40001188BFF36F8FBFF34F8F0590FFE7FEE799
:10DE500040F20062C2F200421068009040F2086195
:10DE6000C2F20041086810600098086044F248510E
:10DE7000C2F20041086801300860FFF78DF900E048
:10DE8000FFE7019844F24451C2F200410968884218
:10DE900062D3FFE7FFE740F20060C2F20040006893
:10DEA000006840B9FFE744F24451C2F200414FF02C
:10DEB000FF3008604FE040F20060C2F200400068AE
:10DEC000C068C06804900498406803900198039962
:10DED000884207D2FFE7039844F24451C2F200415E
:10DEE000086038E0FFE704980430FFF719FB049856
:10DEF000806A28B1FFE704981830FFF711FB00E0B3
:10DF0000FFE70498C16A012000FA01F244F2B4214B
:10DF1000C2F200410868104308600499C86A00EB27
:10DF2000800240F20C60C2F2004000EB820004313B
:10DF3000FFF78AFB0498C06A40F2FC51C2F200412C
:10DF40000968C96A884203D3FFE70120029000E014
:10DF5000FFE7FFE79FE7FFE740F2FC50C2F2004017
:10DF60000068C06A00EB800140F20C60C2F2004021
:10DF700050F82100022803D3FFE70120029000E0BF
:10DF8000FFE744F2A450C2F20040006818B1FFE776
:10DF90000120029000E0FFE707E044F25451C2F292
:10DFA0000041086801300860FFE7029806B080BDB4
:10DFB00080B584B000200290019044F2AC20C2F2FF
:10DFC0000040006858B9FFE74FF0500080F3118817
:10DFD000BFF36F8FBFF34F8F0390FFE7FEE7FFF7AD
:10DFE0005FFB44F2AC20C2F20040016801390160DD
:10DFF0000068002840F09280FFE744F2A420C2F2BB
:10E0000000400068002800F08880FFE7FFE744F246
:10E010005850C2F200400068E0B3FFE744F25850A5
:10E02000C2F20040C068C068029002981830FFF742
:10E0300077FA02980430FFF773FA0298C16A012058
:10E0400000FA01F244F2B421C2F200410868104320
:10E0500008600299C86A00EB800240F20C60C2F2CC
:10E06000004000EB82000431FFF7EEFA0298C06A2C
:10E0700040F2FC51C2F200410968C96A884207D3E4
:10E08000FFE744F2A451C2F200410120086000E021
:10E09000FFE7BCE7029818B1FFE7FFF77DF8FFE75D
:10E0A00044F25450C2F20040006800900098E0B181
:10E0B000FFE7FFE7FFF7A0FE38B1FFE744F2A45106
:10E0C000C2F200410120086000E0FFE7009801383B
:10E0D0000090FFE700980028ECD1FFE744F254518C
:10E0E000C2F200410020086000E0FFE744F2A450C3
:10E0F000C2F20040006870B1FFE7012001904EF6C7
:10E100000451CEF200014FF080500860BFF34F8FF2
:10E11000BFF36F8F00E0FFE7FFE700E0FFE7FFF7E7
:10E12000EBFA019804B080BD03B401984100009857
:10E1300050EAC12018BF04204A0D18BF40F001006A
:10E1400040F2FF72B2EB515F08BF40F002000128BD
:10E1500008BF052002B0704770B565482DED020B71
:10E160002DED048B059D25F00044A04218DC61488C
:10E17000844202DC0AD1049840B19DED040BBDEC51
:10E18000048B02B0BDE8704000F00BBA002DCCBF8C
:10E190009FED590B9FED5A0BBDEC048B02B070BD87
:10E1A0005948A04215DD5948A042D8BF4FF0FF346E
:10E1B00055DD9DED040B51EC100BFFF7B5FF042866
:10E1C00008BF00F0F5F99DED040BBDEC048B02B027
:10E1D00070BD9DED040B51EC100B00F0FDF9CDE985
:10E1E00004014B48B7EE000BA0421CDD4948A04299
:10E1F0000BDD9DED042B0024B0EE001B12EE010B95
:10E2000032EE011B80EE012B27E09DED041B012463
:10E2100031EE401B9DED042B32EE000B81EE002B06
:10E220008DED042B1BE03C48A0420FDD9DED042B3F
:10E230000224B7EE081B32EE412B9DED043B03EEAA
:10E24000010B82EE001B8DED041B08E09DED040B1D
:10E250000324BFEE001B81EE002B8DED042B9DED02
:10E26000040B20EE009B29EE098BB0EE480B2B48E7
:10E270000621784400F05DF920EE099BB0EE480BD2
:10E2800027480521784400F054F920EE080B002CB3
:10E290000BDA39EE001B9DED040B9DED042B02EE15
:10E2A000410BBDEC048B02B070BD1E48784400EBFE
:10E2B000C40090ED001B39EE000B9DED042B12EE17
:10E2C000001B9DED040B31EE400B1748784400EB2A
:10E2D000C40090ED001B31EE400B002DB8BFB1EE35
:10E2E000400BBDEC048B02B070BD000000000000CC
:10E2F000000010440000F07F182D4454FB21F93F2A
:10E30000182D4454FB21F9BF0000DC3F0000203EE3
:10E310000000F33F0000E63F0080034002040000DD
:10E32000C80300008003000040030000000000005C
:10E3300070B5614E2DED040B2DED028B82B0DDF832
:10E340001CC0DDE905235C422CF000411C4341EA7E
:10E35000D474049D22F00040B44205D86C422C4392
:10E3600040EAD474B4420BD99DED061B9DED040B1D
:10E3700002B0BDEC028B04B0BDE8704000F014B9EF
:10E38000ACF14054A4F17F641C430BD0022404EA96
:10E39000AC7444EAD27405439FED498B9FED4A2B40
:10E3A0000DD016E09DED040B51EC100B00F00CF9B4
:10E3B00041EC100B02B0BDEC028B04B070BD002C20
:10E3C00014BF012C9DED040BF4D0022C2ED0032C95
:10E3D0002FD00B439FED3E1B9FED3F0B0AD0B14268
:10E3E0001DD1B04209D121F0804120F08040079139
:10E3F000059014E0002ADDDA15E0394B7B44002C4F
:10E4000008BF93ED000BD5D0012C04BF93ED000B9A
:10E41000B1EE400BCED0022C08D0032C09D0B04274
:10E420000AD1002AC6DAB0EE410BC3E7B0EE480BC2
:10E43000C0E7B0EE420BBDE7401A00153C28C8BF4C
:10E440008DED000B17DCBCF1000FBEBF10F13C0FCF
:10E450009FED250B8DED000B0DDB9DED041B9DED60
:10E46000062B81EE020B51EC100B00F0B5F800F01A
:10E47000ABF8CDE9000194B1012C0CD09DED001B4F
:10E480009FED1B0B022C31EE400B0CBF38EE400B06
:10E4900030EE480B8EE7019880F0004001909DED32
:10E4A000000BB5EEC00BF1EE10FA04BF0220F2F73C
:10E4B00066F89DED000B7DE70000F07F0000000096
:10E4C000182D4454FB210940182D4454FB2109C048
:10E4D000182D4454FB21F9BF182D4454FB21F93F5A
:10E4E000A802000000000000000000000000000082
:10E4F000075C143326A6A13C10B52DED028BB1EEBE
:10E50000C08A18EE100A20F00040C0F1FF40C00F92
:10E510000AD010EE100A20F00040C0F1FF40C00FFA
:10E5200004BF0120F2F72BF8B0EE480ABDEC028BD5
:10E5300010BDB0EE401B491E00EBC10292ED000B76
:10E5400031F006020DD0491E00EBC10292ED002B06
:10E55000B0EE403BB0EE420B03EE010B31F0060291
:10E56000F1D1022914D004290AD0062918BF704716
:10E5700090ED0A2B00EE012B90ED080B02EE010B43
:10E5800090ED062B00EE012B90ED040B02EE010B3B
:10E5900090ED022B00EE012B90ED000B02EE010B33
:10E5A000704730EE000B704730EE010B70470000F3
:10E5B0009FED030B20EE000B7047000000000000F1
:10E5C000000000000000001010B541EC100BFFF738
:10E5D000C3FD51EC100B10BD82B0CDE9000121F05C
:10E5E000004001909DED000B02B051EC100B704704
:10E5F000F1EE100A4FF6FF71C0F2C03120EA0100BF
:10E6000040F04070E1EE100A70470000000000008A
:10E610004FBB610567ACDD3F182D4454FB21E93F3A
:10E620009BF681D20B73EF3F182D4454FB21F93F29
:10E63000E2652F227F2B7A3C075C143326A6813CAF
:10E64000BDCBF07A8807703C075C143326A6913C5A
:10E65000C4EB98999999C9BF711623FEC671BCBFC6
:10E660006D9A74AFF2B0B3BF9AFDDE522DDEADBF2E
:10E670002F6C6A2C44B4A2BF0D5555555555D53F46
:10E68000FF8300922449C23F6E204CC5CD45B73F61
:10E69000513DD0A0660DB13FEB0D76244B7BA93FD9
:10E6A00011DA22E33AAD903F0000000000000000C4
:10E6B000000000000000000000000000000000005A
:10E6C0000000000001000000020000000300000044
:10E6D0000400000000000000050000000000000031
:10E6E0000000000000000000060000000000000024
:10E6F00000000000000000000700000088EF000894
:10E7000041070008030000000000000000010000B5
:10E71000000000000000000092EF0008810A0008DD
:10E7200003000000000000000001000000000000E5
:10E7300000000000000000000102030401020304C5
:10E74000060708090001020304050607080C101457
:10E7500018203040000610160006101608040204A7
:10E76000080101010101010307010000010002008D
:10E770000400060008000A000C0010002000400001
:10E780008000000100000000920E493CB10AC93C23
:10E790002BC3163D2EFB483D752B7B3D04A9963DB2
:10E7A00080B6AF3D36BDC83D2FBCE13D73B2FA3DEA
:10E7B00087CF093E8340163EB5AB223EA2102F3EC6
:10E7C000CF6E3B3EC2C5473E0115543E135C603ED2
:10E7D0007F9A6C3ECCCF783EC07D823E938E883E41
:10E7E000229A8E3E32A0943E86A09A3EE59AA03EA2
:10E7F000128FA63ED47CAC3EEF63B23E2A44B83EB4
:10E80000491DBE3E15EFC33E53B9C93ECA7BCF3E3C
:10E810004136D53E80E8DA3E4F92E03E7533E63E23
:10E82000BBCBEB3EEA5AF13ECBE0F63E275DFC3E29
:10E83000E4E7003F3D9C033F824B063F9BF5083FCA
:10E840006B9A0B3FDA390E3FCDD3103F2A68133F46
:10E85000D9F6153FC07F183FC6021B3FD17F1D3F31
:10E86000CBF61F3F9967223F25D2243F5636273FDC
:10E870001594293F4AEB2B3FDE3B2E3FBB85303FB3
:10E88000C9C8323FF304353F233A373F4268393F26
:10E890003B8F3B3FF9AE3D3F67C73F3F70D8413F9D
:10E8A00001E2433F03E4453F65DE473F12D1493F64
:10E8B000F8BB4B3F029F4D3F207A4F3F3D4D513FAC
:10E8C0004918533F31DB543FE595563F5348583F75
:10E8D0006AF2593F1A945B3F532D5D3F05BE5E3F80
:10E8E0002146603F97C5613F5A3C633F59AA643F48
:10E8F000880F663FD86B673F3CBF683FA7096A3FF8
:10E900000C4B6B3F5E836C3F93B26D3F9ED86E3F66
:10E9100073F56F3F0809713F5213723F4714733FFD
:10E92000DD0B743F0BFA743FC6DE753F07BA763FC6
:10E93000C58B773FF853783F9812793F9DC7793F51
:10E9400002737A3FBE147B3FCDAC7B3F283B7C3FBC
:10E95000C9BF7C3FAC3A7D3FCCAB7D3F23137E3FAC
:10E96000B0707E3F6DC47E3F580E7F3F6D4E7F3F3F
:10E97000AB847F3F0FB17F3F97D37F3F43EC7F3F17
:10E9800011FB7F3F0000803F11FB7F3F43EC7F3F47
:10E9900097D37F3F0FB17F3FAB847F3F6D4E7F3F6B
:10E9A000580E7F3F6DC47E3FB0707E3F23137E3F85
:10E9B000CCAB7D3FAC3A7D3FC9BF7C3F283B7C3F21
:10E9C000CDAC7B3FBE147B3F02737A3F9DC7793F3E
:10E9D0009812793FF853783FC58B773F07BA763F57
:10E9E000C6DE753F0BFA743FDD0B743F4714733F6F
:10E9F0005213723F0809713F73F56F3F9ED86E3F07
:10EA000093B26D3F5E836C3F0C4B6B3FA7096A3F2F
:10EA10003CBF683FD86B673F880F663F59AA643F89
:10EA20005A3C633F97C5613F2146603F05BE5E3F4C
:10EA3000532D5D3F1A945B3F6AF2593F5348583F4C
:10EA4000E595563F31DB543F4918533F3D4D513F0B
:10EA5000207A4F3F029F4D3FF8BB4B3F12D1493FB9
:10EA600065DE473F03E4453F01E2433F70D8413F45
:10EA700067C73F3FF9AE3D3F3B8F3B3F4268393F61
:10EA8000233A373FF304353FC9C8323FBB85303F97
:10EA9000DE3B2E3F4AEB2B3F1594293F5636273F4E
:10EAA00025D2243F9967223FCBF61F3FD17F1D3FE0
:10EAB000C6021B3FC07F183FD9F6153F2A68133F97
:10EAC000CDD3103FDA390E3F6B9A0B3F9BF5083FD1
:10EAD000824B063F3D9C033FE4E7003F275DFC3E41
:10EAE000CBE0F63EEA5AF13EBBCBEB3E7533E63E59
:10EAF0004F92E03E80E8DA3E4136D53ECA7BCF3EBB
:10EB000053B9C93E15EFC33E491DBE3E2A44B83E27
:10EB1000EF63B23ED47CAC3E128FA63EE59AA03E97
:10EB200086A09A3E32A0943E229A8E3E938E883ED4
:10EB3000C07D823ECCCF783E7F9A6C3E135C603EB7
:10EB40000115543EC2C5473ECF6E3B3EA2102F3E3C
:10EB5000B5AB223E8340163E87CF093E73B2FA3DE5
:10EB60002FBCE13D36BDC83D80B6AF3D04A9963D02
:10EB7000752B7B3D2EFB483D2BC3163DB10AC93C8E
:10EB8000920E493C00000000920E49BCB10AC9BC7B
:10EB90002BC316BD2EFB48BD752B7BBD04A996BDAE
:10EBA00080B6AFBD36BDC8BD2FBCE1BD73B2FABDE6
:10EBB00087CF09BE834016BEB5AB22BEA2102FBEC2
:10EBC000CF6E3BBEC2C547BE011554BE135C60BECE
:10EBD0007F9A6CBECCCF78BEC07D82BE938E88BE3D
:10EBE000229A8EBE32A094BE86A09ABEE59AA0BE9E
:10EBF000128FA6BED47CACBEEF63B2BE2A44B8BEB0
:10EC0000491DBEBE15EFC3BE53B9C9BECA7BCFBE38
:10EC10004136D5BE80E8DABE4F92E0BE7533E6BE1F
:10EC2000BBCBEBBEEA5AF1BECBE0F6BE275DFCBE25
:10EC3000E4E700BF3D9C03BF824B06BF9BF508BFC6
:10EC40006B9A0BBFDA390EBFCDD310BF2A6813BF42
:10EC5000D9F615BFC07F18BFC6021BBFD17F1DBF2D
:10EC6000CBF61FBF996722BF25D224BF563627BFD8
:10EC7000159429BF4AEB2BBFDE3B2EBFBB8530BFAF
:10EC8000C9C832BFF30435BF233A37BF426839BF22
:10EC90003B8F3BBFF9AE3DBF67C73FBF70D841BF99
:10ECA00001E243BF03E445BF65DE47BF12D149BF60
:10ECB000F8BB4BBF029F4DBF207A4FBF3D4D51BFA8
:10ECC000491853BF31DB54BFE59556BF534858BF71
:10ECD0006AF259BF1A945BBF532D5DBF05BE5EBF7C
:10ECE000214660BF97C561BF5A3C63BF59AA64BF44
:10ECF000880F66BFD86B67BF3CBF68BFA7096ABFF4
:10ED00000C4B6BBF5E836CBF93B26DBF9ED86EBF62
:10ED100073F56FBF080971BF521372BF471473BFF9
:10ED2000DD0B74BF0BFA74BFC6DE75BF07BA76BFC2
:10ED3000C58B77BFF85378BF981279BF9DC779BF4D
:10ED400002737ABFBE147BBFCDAC7BBF283B7CBFB8
:10ED5000C9BF7CBFAC3A7DBFCCAB7DBF23137EBFA8
:10ED6000B0707EBF6DC47EBF580E7FBF6D4E7FBF3B
:10ED7000AB847FBF0FB17FBF97D37FBF43EC7FBF13
:10ED800011FB7FBF000080BF11FB7FBF43EC7FBF43
:10ED900097D37FBF0FB17FBFAB847FBF6D4E7FBF67
:10EDA000580E7FBF6DC47EBFB0707EBF23137EBF81
:10EDB000CCAB7DBFAC3A7DBFC9BF7CBF283B7CBF1D
:10EDC000CDAC7BBFBE147BBF02737ABF9DC779BF3A
:10EDD000981279BFF85378BFC58B77BF07BA76BF53
:10EDE000C6DE75BF0BFA74BFDD0B74BF471473BF6B
:10EDF000521372BF080971BF73F56FBF9ED86EBF03
:10EE000093B26DBF5E836CBF0C4B6BBFA7096ABF2B
:10EE10003CBF68BFD86B67BF880F66BF59AA64BF85
:10EE20005A3C63BF97C561BF214660BF05BE5EBF48
:10EE3000532D5DBF1A945BBF6AF259BF534858BF48
:10EE4000E59556BF31DB54BF491853BF3D4D51BF07
:10EE5000207A4FBF029F4DBFF8BB4BBF12D149BFB5
:10EE600065DE47BF03E445BF01E243BF70D841BF41
:10EE700067C73FBFF9AE3DBF3B8F3BBF426839BF5D
:10EE8000233A37BFF30435BFC9C832BFBB8530BF93
:10EE9000DE3B2EBF4AEB2BBF159429BF563627BF4A
:10EEA00025D224BF996722BFCBF61FBFD17F1DBFDC
:10EEB000C6021BBFC07F18BFD9F615BF2A6813BF93
:10EEC000CDD310BFDA390EBF6B9A0BBF9BF508BFCD
:10EED000824B06BF3D9C03BFE4E700BF275DFCBE3D
:10EEE000CBE0F6BEEA5AF1BEBBCBEBBE7533E6BE55
:10EEF0004F92E0BE80E8DABE4136D5BECA7BCFBEB7
:10EF000053B9C9BE15EFC3BE491DBEBE2A44B8BE23
:10EF1000EF63B2BED47CACBE128FA6BEE59AA0BE93
:10EF200086A09ABE32A094BE229A8EBE938E88BED0
:10EF3000C07D82BECCCF78BE7F9A6CBE135C60BEB3
:10EF4000011554BEC2C547BECF6E3BBEA2102FBE38
:10EF5000B5AB22BE834016BE87CF09BE73B2FABDE1
:10EF60002FBCE1BD36BDC8BD80B6AFBD04A996BDFE
:10EF7000752B7BBD2EFB48BD2BC316BDB10AC9BC8A
:10EF8000920E49BC000000804E43414E5F546173B5
:10EF90006B004E436F6E74726F6C5F5461736B00E5
:10EFA00049444C4500000000C8EF00080000002460
:10EFB000100200000803000818F0000810020024E6
:10EFC00098A3000044030008518201022802820233
:10EFD000022802820302280282040228028201021D
:10EFE0002801820202280182030228018204023AD7
:10EFF00001D701FA7C040024022108DC90D0030030
:10F0000090D003DC0300240220084201421055AADC
:08F01000AAAAAA0000000000FA
:04000005080002CD20
:00000001FF
